{
  "contractName": "DaiFunds",
  "abi": [
    {
      "anonymous": false,
      "inputs": [
        {
          "indexed": false,
          "internalType": "uint256",
          "name": "amount",
          "type": "uint256"
        },
        {
          "indexed": false,
          "internalType": "address",
          "name": "account",
          "type": "address"
        },
        {
          "indexed": false,
          "internalType": "string",
          "name": "reason",
          "type": "string"
        }
      ],
      "name": "LocalDevelopBalanceWithdrawn",
      "type": "event"
    },
    {
      "anonymous": false,
      "inputs": [],
      "name": "RegularFunded",
      "type": "event"
    },
    {
      "anonymous": false,
      "inputs": [
        {
          "indexed": false,
          "internalType": "uint256",
          "name": "amount",
          "type": "uint256"
        },
        {
          "indexed": false,
          "internalType": "address",
          "name": "account",
          "type": "address"
        },
        {
          "indexed": false,
          "internalType": "string",
          "name": "reason",
          "type": "string"
        }
      ],
      "name": "RescueBalanceWithdrawn",
      "type": "event"
    },
    {
      "anonymous": false,
      "inputs": [
        {
          "indexed": false,
          "internalType": "uint256",
          "name": "amount",
          "type": "uint256"
        },
        {
          "indexed": false,
          "internalType": "address",
          "name": "account",
          "type": "address"
        },
        {
          "indexed": false,
          "internalType": "string",
          "name": "reason",
          "type": "string"
        }
      ],
      "name": "ReserveBalanceWithdrawn1",
      "type": "event"
    },
    {
      "anonymous": false,
      "inputs": [
        {
          "indexed": false,
          "internalType": "uint256",
          "name": "amount",
          "type": "uint256"
        },
        {
          "indexed": false,
          "internalType": "address",
          "name": "account",
          "type": "address"
        },
        {
          "indexed": false,
          "internalType": "string",
          "name": "reason",
          "type": "string"
        }
      ],
      "name": "ReserveBalanceWithdrawn2",
      "type": "event"
    },
    {
      "anonymous": false,
      "inputs": [
        {
          "indexed": false,
          "internalType": "uint256",
          "name": "treeId",
          "type": "uint256"
        },
        {
          "indexed": false,
          "internalType": "uint256",
          "name": "amount",
          "type": "uint256"
        },
        {
          "indexed": false,
          "internalType": "uint256",
          "name": "planterPart",
          "type": "uint256"
        }
      ],
      "name": "TreeFunded",
      "type": "event"
    },
    {
      "anonymous": false,
      "inputs": [
        {
          "indexed": false,
          "internalType": "uint256",
          "name": "amount",
          "type": "uint256"
        },
        {
          "indexed": false,
          "internalType": "address",
          "name": "account",
          "type": "address"
        },
        {
          "indexed": false,
          "internalType": "string",
          "name": "reason",
          "type": "string"
        }
      ],
      "name": "TreeResearchBalanceWithdrawn",
      "type": "event"
    },
    {
      "anonymous": false,
      "inputs": [
        {
          "indexed": false,
          "internalType": "uint256",
          "name": "amount",
          "type": "uint256"
        },
        {
          "indexed": false,
          "internalType": "address",
          "name": "account",
          "type": "address"
        },
        {
          "indexed": false,
          "internalType": "string",
          "name": "reason",
          "type": "string"
        }
      ],
      "name": "TreejerDevelopBalanceWithdrawn",
      "type": "event"
    },
    {
      "inputs": [],
      "name": "accessRestriction",
      "outputs": [
        {
          "internalType": "contract IAccessRestriction",
          "name": "",
          "type": "address"
        }
      ],
      "stateMutability": "view",
      "type": "function",
      "constant": true
    },
    {
      "inputs": [],
      "name": "daiToken",
      "outputs": [
        {
          "internalType": "contract IERC20Upgradeable",
          "name": "",
          "type": "address"
        }
      ],
      "stateMutability": "view",
      "type": "function",
      "constant": true
    },
    {
      "inputs": [],
      "name": "isDaiFunds",
      "outputs": [
        {
          "internalType": "bool",
          "name": "",
          "type": "bool"
        }
      ],
      "stateMutability": "view",
      "type": "function",
      "constant": true
    },
    {
      "inputs": [],
      "name": "localDevelopAddress",
      "outputs": [
        {
          "internalType": "address",
          "name": "",
          "type": "address"
        }
      ],
      "stateMutability": "view",
      "type": "function",
      "constant": true
    },
    {
      "inputs": [],
      "name": "planterFundContract",
      "outputs": [
        {
          "internalType": "contract IPlanterFund",
          "name": "",
          "type": "address"
        }
      ],
      "stateMutability": "view",
      "type": "function",
      "constant": true
    },
    {
      "inputs": [],
      "name": "rescueFundAddress",
      "outputs": [
        {
          "internalType": "address",
          "name": "",
          "type": "address"
        }
      ],
      "stateMutability": "view",
      "type": "function",
      "constant": true
    },
    {
      "inputs": [],
      "name": "reserveFundAddress1",
      "outputs": [
        {
          "internalType": "address",
          "name": "",
          "type": "address"
        }
      ],
      "stateMutability": "view",
      "type": "function",
      "constant": true
    },
    {
      "inputs": [],
      "name": "reserveFundAddress2",
      "outputs": [
        {
          "internalType": "address",
          "name": "",
          "type": "address"
        }
      ],
      "stateMutability": "view",
      "type": "function",
      "constant": true
    },
    {
      "inputs": [],
      "name": "totalFunds",
      "outputs": [
        {
          "internalType": "uint256",
          "name": "treeResearch",
          "type": "uint256"
        },
        {
          "internalType": "uint256",
          "name": "localDevelop",
          "type": "uint256"
        },
        {
          "internalType": "uint256",
          "name": "rescueFund",
          "type": "uint256"
        },
        {
          "internalType": "uint256",
          "name": "treejerDevelop",
          "type": "uint256"
        },
        {
          "internalType": "uint256",
          "name": "reserveFund1",
          "type": "uint256"
        },
        {
          "internalType": "uint256",
          "name": "reserveFund2",
          "type": "uint256"
        }
      ],
      "stateMutability": "view",
      "type": "function",
      "constant": true
    },
    {
      "inputs": [],
      "name": "treeResearchAddress",
      "outputs": [
        {
          "internalType": "address",
          "name": "",
          "type": "address"
        }
      ],
      "stateMutability": "view",
      "type": "function",
      "constant": true
    },
    {
      "inputs": [],
      "name": "treejerDevelopAddress",
      "outputs": [
        {
          "internalType": "address",
          "name": "",
          "type": "address"
        }
      ],
      "stateMutability": "view",
      "type": "function",
      "constant": true
    },
    {
      "inputs": [
        {
          "internalType": "address",
          "name": "_accessRestrictionAddress",
          "type": "address"
        }
      ],
      "name": "initialize",
      "outputs": [],
      "stateMutability": "nonpayable",
      "type": "function"
    },
    {
      "inputs": [
        {
          "internalType": "address",
          "name": "_daiTokenAddress",
          "type": "address"
        }
      ],
      "name": "setDaiTokenAddress",
      "outputs": [],
      "stateMutability": "nonpayable",
      "type": "function"
    },
    {
      "inputs": [
        {
          "internalType": "address",
          "name": "_address",
          "type": "address"
        }
      ],
      "name": "setPlanterFundContractAddress",
      "outputs": [],
      "stateMutability": "nonpayable",
      "type": "function"
    },
    {
      "inputs": [
        {
          "internalType": "address payable",
          "name": "_address",
          "type": "address"
        }
      ],
      "name": "setTreeResearchAddress",
      "outputs": [],
      "stateMutability": "nonpayable",
      "type": "function"
    },
    {
      "inputs": [
        {
          "internalType": "address payable",
          "name": "_address",
          "type": "address"
        }
      ],
      "name": "setLocalDevelopAddress",
      "outputs": [],
      "stateMutability": "nonpayable",
      "type": "function"
    },
    {
      "inputs": [
        {
          "internalType": "address payable",
          "name": "_address",
          "type": "address"
        }
      ],
      "name": "setRescueFundAddress",
      "outputs": [],
      "stateMutability": "nonpayable",
      "type": "function"
    },
    {
      "inputs": [
        {
          "internalType": "address payable",
          "name": "_address",
          "type": "address"
        }
      ],
      "name": "setTreejerDevelopAddress",
      "outputs": [],
      "stateMutability": "nonpayable",
      "type": "function"
    },
    {
      "inputs": [
        {
          "internalType": "address payable",
          "name": "_address",
          "type": "address"
        }
      ],
      "name": "setReserveFund1Address",
      "outputs": [],
      "stateMutability": "nonpayable",
      "type": "function"
    },
    {
      "inputs": [
        {
          "internalType": "address payable",
          "name": "_address",
          "type": "address"
        }
      ],
      "name": "setReserveFund2Address",
      "outputs": [],
      "stateMutability": "nonpayable",
      "type": "function"
    },
    {
      "inputs": [
        {
          "internalType": "uint256",
          "name": "_treeId",
          "type": "uint256"
        },
        {
          "internalType": "uint256",
          "name": "_amount",
          "type": "uint256"
        },
        {
          "internalType": "uint16",
          "name": "_planterFund",
          "type": "uint16"
        },
        {
          "internalType": "uint16",
          "name": "_referralFund",
          "type": "uint16"
        },
        {
          "internalType": "uint16",
          "name": "_treeResearch",
          "type": "uint16"
        },
        {
          "internalType": "uint16",
          "name": "_localDevelop",
          "type": "uint16"
        },
        {
          "internalType": "uint16",
          "name": "_rescueFund",
          "type": "uint16"
        },
        {
          "internalType": "uint16",
          "name": "_treejerDevelop",
          "type": "uint16"
        },
        {
          "internalType": "uint16",
          "name": "_reserveFund1",
          "type": "uint16"
        },
        {
          "internalType": "uint16",
          "name": "_reserveFund2",
          "type": "uint16"
        }
      ],
      "name": "fundTree",
      "outputs": [],
      "stateMutability": "nonpayable",
      "type": "function"
    },
    {
      "inputs": [
        {
          "internalType": "uint256",
          "name": "_totalPlanterFund",
          "type": "uint256"
        },
        {
          "internalType": "uint256",
          "name": "_totalReferralFund",
          "type": "uint256"
        },
        {
          "internalType": "uint256",
          "name": "_totalTreeResearch",
          "type": "uint256"
        },
        {
          "internalType": "uint256",
          "name": "_totalLocalDevelop",
          "type": "uint256"
        },
        {
          "internalType": "uint256",
          "name": "_totalRescueFund",
          "type": "uint256"
        },
        {
          "internalType": "uint256",
          "name": "_totalTreejerDevelop",
          "type": "uint256"
        },
        {
          "internalType": "uint256",
          "name": "_totalReserveFund1",
          "type": "uint256"
        },
        {
          "internalType": "uint256",
          "name": "_totalReserveFund2",
          "type": "uint256"
        }
      ],
      "name": "regularFund",
      "outputs": [],
      "stateMutability": "nonpayable",
      "type": "function"
    },
    {
      "inputs": [
        {
          "internalType": "uint256",
          "name": "_amount",
          "type": "uint256"
        }
      ],
      "name": "refererTransferDai",
      "outputs": [],
      "stateMutability": "nonpayable",
      "type": "function"
    },
    {
      "inputs": [
        {
          "internalType": "uint256",
          "name": "_amount",
          "type": "uint256"
        },
        {
          "internalType": "string",
          "name": "_reason",
          "type": "string"
        }
      ],
      "name": "withdrawTreeResearch",
      "outputs": [],
      "stateMutability": "nonpayable",
      "type": "function"
    },
    {
      "inputs": [
        {
          "internalType": "uint256",
          "name": "_amount",
          "type": "uint256"
        },
        {
          "internalType": "string",
          "name": "_reason",
          "type": "string"
        }
      ],
      "name": "withdrawLocalDevelop",
      "outputs": [],
      "stateMutability": "nonpayable",
      "type": "function"
    },
    {
      "inputs": [
        {
          "internalType": "uint256",
          "name": "_amount",
          "type": "uint256"
        },
        {
          "internalType": "string",
          "name": "_reason",
          "type": "string"
        }
      ],
      "name": "withdrawRescueFund",
      "outputs": [],
      "stateMutability": "nonpayable",
      "type": "function"
    },
    {
      "inputs": [
        {
          "internalType": "uint256",
          "name": "_amount",
          "type": "uint256"
        },
        {
          "internalType": "string",
          "name": "_reason",
          "type": "string"
        }
      ],
      "name": "withdrawTreejerDevelop",
      "outputs": [],
      "stateMutability": "nonpayable",
      "type": "function"
    },
    {
      "inputs": [
        {
          "internalType": "uint256",
          "name": "_amount",
          "type": "uint256"
        },
        {
          "internalType": "string",
          "name": "_reason",
          "type": "string"
        }
      ],
      "name": "withdrawReserveFund1",
      "outputs": [],
      "stateMutability": "nonpayable",
      "type": "function"
    },
    {
      "inputs": [
        {
          "internalType": "uint256",
          "name": "_amount",
          "type": "uint256"
        },
        {
          "internalType": "string",
          "name": "_reason",
          "type": "string"
        }
      ],
      "name": "withdrawReserveFund2",
      "outputs": [],
      "stateMutability": "nonpayable",
      "type": "function"
    }
  ],
  "bytecode": "0x608060405234801561001057600080fd5b506122d2806100206000396000f3fe608060405234801561001057600080fd5b50600436106101cf5760003560e01c8063968ed60011610104578063be22f546116100a2578063e5356a6511610071578063e5356a651461040d578063ed3b0a0014610420578063f1326b1514610443578063ff4eb8bb1461045657600080fd5b8063be22f546146103ba578063c4d66de8146103cd578063cb13011c146103e0578063d6762c4a146103f357600080fd5b8063a037edcc116100de578063a037edcc1461036e578063a47fddb014610381578063b367583214610394578063ba6138a5146103a757600080fd5b8063968ed600146102fd57806399fece40146103485780639e6454aa1461035b57600080fd5b80635773780d116101715780637a876fd81161014b5780637a876fd8146102b157806380d663ea146102c45780638194b85b146102d757806384457b63146102ea57600080fd5b80635773780d146102785780635f335a931461028b578063673dba211461029e57600080fd5b8063310f6dec116101ad578063310f6dec1461022c578063322af1551461023f5780634fe4967414610252578063536ad73a1461026557600080fd5b80630a43649a146101d457806315edc14c14610204578063233ac7aa14610219575b600080fd5b600a546101e7906001600160a01b031681565b6040516001600160a01b0390911681526020015b60405180910390f35b610217610212366004611f9c565b610469565b005b610217610227366004611f56565b6105e3565b600b546101e7906001600160a01b031681565b61021761024d3660046120dd565b61068f565b610217610260366004611f56565b610883565b610217610273366004611fb5565b61092f565b610217610286366004611f56565b610b64565b600e546101e7906001600160a01b031681565b6102176102ac366004611fb5565b610c67565b600d546101e7906001600160a01b031681565b6001546101e7906001600160a01b031681565b6102176102e5366004611f56565b610e8c565b6102176102f8366004611f56565b610f38565b60035460045460055460065460075460085461031b95949392919086565b604080519687526020870195909552938501929092526060840152608083015260a082015260c0016101fb565b610217610356366004611fb5565b610fe4565b610217610369366004611f56565b61120a565b6009546101e7906001600160a01b031681565b600c546101e7906001600160a01b031681565b6102176103a2366004612031565b6112b6565b6102176103b5366004611fb5565b611615565b6002546101e7906001600160a01b031681565b6102176103db366004611f56565b61183b565b6102176103ee366004611f56565b61199b565b6000546101e790630100000090046001600160a01b031681565b61021761041b366004611fb5565b611a47565b6000546104339062010000900460ff1681565b60405190151581526020016101fb565b610217610451366004611f56565b611c6d565b610217610464366004611fb5565b611d19565b60005460405163ebe6a6f360e01b815233600482015263010000009091046001600160a01b03169063ebe6a6f39060240160006040518083038186803b1580156104b257600080fd5b505afa1580156104c6573d6000803e3d6000fd5b50505050806003800154101561051a5760405162461bcd60e51b8152602060048201526014602482015273098d2e2ead2c8d2e8f240dcdee840cadcdeeaced60631b60448201526064015b60405180910390fd5b8060038001600082825461052e9190612257565b909155505060025460015460405163a9059cbb60e01b81526001600160a01b03918216600482015260248101849052600092919091169063a9059cbb90604401602060405180830381600087803b15801561058857600080fd5b505af115801561059c573d6000803e3d6000fd5b505050506040513d601f19601f820116820180604052508101906105c09190611f7a565b9050806105df5760405162461bcd60e51b81526004016105119061215f565b5050565b600054604051632104fb0560e21b815233600482015263010000009091046001600160a01b031690638413ec149060240160006040518083038186803b15801561062c57600080fd5b505afa158015610640573d6000803e3d6000fd5b5083925050506001600160a01b03811661066c5760405162461bcd60e51b81526004016105119061218e565b50600c80546001600160a01b0319166001600160a01b0392909216919091179055565b60005460405163ebe6a6f360e01b815233600482015263010000009091046001600160a01b03169063ebe6a6f39060240160006040518083038186803b1580156106d857600080fd5b505afa1580156106ec573d6000803e3d6000fd5b50505050856003600001600082825461070591906121fe565b90915550506004805486919060009061071f9084906121fe565b9091555050600580548591906000906107399084906121fe565b9091555050600680548491906000906107539084906121fe565b90915550506007805483919060009061076d9084906121fe565b9091555050600880548291906000906107879084906121fe565b90915550506002546001546000916001600160a01b039081169163a9059cbb91166107b28b8d6121fe565b6040516001600160e01b031960e085901b1681526001600160a01b0390921660048301526024820152604401602060405180830381600087803b1580156107f857600080fd5b505af115801561080c573d6000803e3d6000fd5b505050506040513d601f19601f820116820180604052508101906108309190611f7a565b90508061084f5760405162461bcd60e51b81526004016105119061215f565b6040517fe65cb7009eb2c9ee26a4d6c2ba7d28ba82f7bfa861b6b91c69e9d4f998c6bedb90600090a1505050505050505050565b600054604051632104fb0560e21b815233600482015263010000009091046001600160a01b031690638413ec149060240160006040518083038186803b1580156108cc57600080fd5b505afa1580156108e0573d6000803e3d6000fd5b5083925050506001600160a01b03811661090c5760405162461bcd60e51b81526004016105119061218e565b50600e80546001600160a01b0319166001600160a01b0392909216919091179055565b600060039054906101000a90046001600160a01b03166001600160a01b0316634d868f986040518163ffffffff1660e01b815260040160006040518083038186803b15801561097d57600080fd5b505afa158015610991573d6000803e3d6000fd5b5050600054604051632104fb0560e21b815233600482015263010000009091046001600160a01b03169250638413ec14915060240160006040518083038186803b1580156109de57600080fd5b505afa1580156109f2573d6000803e3d6000fd5b5050600b546001600160a01b031691505080610a205760405162461bcd60e51b81526004016105119061218e565b6005548411801590610a325750600084115b610a4e5760405162461bcd60e51b815260040161051190612132565b8360036002016000828254610a639190612257565b9091555050600254600b5460405163a9059cbb60e01b81526001600160a01b03918216600482015260248101879052600092919091169063a9059cbb90604401602060405180830381600087803b158015610abd57600080fd5b505af1158015610ad1573d6000803e3d6000fd5b505050506040513d601f19601f82011682018060405250810190610af59190611f7a565b905080610b145760405162461bcd60e51b81526004016105119061215f565b600b546040517f85700b57d5ec89a15f491812de22a34a5bdca335fc68880dbab357cf81151fab91610b559188916001600160a01b031690889088906121b7565b60405180910390a15050505050565b600054604051632104fb0560e21b815233600482015263010000009091046001600160a01b031690638413ec149060240160006040518083038186803b158015610bad57600080fd5b505afa158015610bc1573d6000803e3d6000fd5b505050506000819050806001600160a01b031663349904da6040518163ffffffff1660e01b815260040160206040518083038186803b158015610c0357600080fd5b505afa158015610c17573d6000803e3d6000fd5b505050506040513d601f19601f82011682018060405250810190610c3b9190611f7a565b610c4457600080fd5b600180546001600160a01b0319166001600160a01b039290921691909117905550565b600060039054906101000a90046001600160a01b03166001600160a01b0316634d868f986040518163ffffffff1660e01b815260040160006040518083038186803b158015610cb557600080fd5b505afa158015610cc9573d6000803e3d6000fd5b5050600054604051632104fb0560e21b815233600482015263010000009091046001600160a01b03169250638413ec14915060240160006040518083038186803b158015610d1657600080fd5b505afa158015610d2a573d6000803e3d6000fd5b5050600c546001600160a01b031691505080610d585760405162461bcd60e51b81526004016105119061218e565b6006548411801590610d6a5750600084115b610d865760405162461bcd60e51b815260040161051190612132565b83600380016000828254610d9a9190612257565b9091555050600254600c5460405163a9059cbb60e01b81526001600160a01b03918216600482015260248101879052600092919091169063a9059cbb90604401602060405180830381600087803b158015610df457600080fd5b505af1158015610e08573d6000803e3d6000fd5b505050506040513d601f19601f82011682018060405250810190610e2c9190611f7a565b905080610e4b5760405162461bcd60e51b81526004016105119061215f565b600c546040517f174f34055ef4d06c26032b349f20281a6e7b69b17352d03a658bb3c02561367b91610b559188916001600160a01b031690889088906121b7565b600054604051632104fb0560e21b815233600482015263010000009091046001600160a01b031690638413ec149060240160006040518083038186803b158015610ed557600080fd5b505afa158015610ee9573d6000803e3d6000fd5b5083925050506001600160a01b038116610f155760405162461bcd60e51b81526004016105119061218e565b50600980546001600160a01b0319166001600160a01b0392909216919091179055565b600054604051632104fb0560e21b815233600482015263010000009091046001600160a01b031690638413ec149060240160006040518083038186803b158015610f8157600080fd5b505afa158015610f95573d6000803e3d6000fd5b5083925050506001600160a01b038116610fc15760405162461bcd60e51b81526004016105119061218e565b50600d80546001600160a01b0319166001600160a01b0392909216919091179055565b600060039054906101000a90046001600160a01b03166001600160a01b0316634d868f986040518163ffffffff1660e01b815260040160006040518083038186803b15801561103257600080fd5b505afa158015611046573d6000803e3d6000fd5b5050600054604051632104fb0560e21b815233600482015263010000009091046001600160a01b03169250638413ec14915060240160006040518083038186803b15801561109357600080fd5b505afa1580156110a7573d6000803e3d6000fd5b5050600a546001600160a01b0316915050806110d55760405162461bcd60e51b81526004016105119061218e565b60045484118015906110e75750600084115b6111035760405162461bcd60e51b815260040161051190612132565b83600360010160008282546111189190612257565b9091555050600254600a5460405163a9059cbb60e01b81526001600160a01b03918216600482015260248101879052600092919091169063a9059cbb90604401602060405180830381600087803b15801561117257600080fd5b505af1158015611186573d6000803e3d6000fd5b505050506040513d601f19601f820116820180604052508101906111aa9190611f7a565b9050806111c95760405162461bcd60e51b81526004016105119061215f565b600a546040517ff55afe4fbf5e2382822e10e484a70ef4849c01a0e4764cfb653bdeea7e47e72891610b559188916001600160a01b031690889088906121b7565b600054604051632104fb0560e21b815233600482015263010000009091046001600160a01b031690638413ec149060240160006040518083038186803b15801561125357600080fd5b505afa158015611267573d6000803e3d6000fd5b5083925050506001600160a01b0381166112935760405162461bcd60e51b81526004016105119061218e565b50600a80546001600160a01b0319166001600160a01b0392909216919091179055565b60005460405163ebe6a6f360e01b815233600482015263010000009091046001600160a01b03169063ebe6a6f39060240160006040518083038186803b1580156112ff57600080fd5b505afa158015611313573d6000803e3d6000fd5b505050506127108461ffff168a61132a9190612238565b6113349190612216565b600580546000906113469084906121fe565b90915550612710905061135d61ffff87168b612238565b6113679190612216565b600480546000906113799084906121fe565b90915550612710905061139061ffff84168b612238565b61139a9190612216565b600780546000906113ac9084906121fe565b9091555061271090506113c361ffff83168b612238565b6113cd9190612216565b600880546000906113df9084906121fe565b9091555061271090506113f661ffff85168b612238565b6114009190612216565b600680546000906114129084906121fe565b90915550612710905061142961ffff88168b612238565b6114339190612216565b600380546000906114459084906121fe565b909155506000905061271061145e61ffff8b168c612238565b6114689190612216565b9050600061271061147d61ffff8b168d612238565b6114879190612216565b6002546001549192506000916001600160a01b039182169163a9059cbb91166114b085876121fe565b6040516001600160e01b031960e085901b1681526001600160a01b0390921660048301526024820152604401602060405180830381600087803b1580156114f657600080fd5b505af115801561150a573d6000803e3d6000fd5b505050506040513d601f19601f8201168201806040525081019061152e9190611f7a565b90508061154d5760405162461bcd60e51b81526004016105119061215f565b600154604051633ad7c33b60e01b8152600481018f905260248101859052604481018490526001600160a01b0390911690633ad7c33b90606401600060405180830381600087803b1580156115a157600080fd5b505af11580156115b5573d6000803e3d6000fd5b505050507f347f488d341632b8f0297fc353e08cc384d9a8c7bb93600a7ede83515b56b9948d8d84866115e891906121fe565b6040805193845260208401929092529082015260600160405180910390a150505050505050505050505050565b600060039054906101000a90046001600160a01b03166001600160a01b0316634d868f986040518163ffffffff1660e01b815260040160006040518083038186803b15801561166357600080fd5b505afa158015611677573d6000803e3d6000fd5b5050600054604051632104fb0560e21b815233600482015263010000009091046001600160a01b03169250638413ec14915060240160006040518083038186803b1580156116c457600080fd5b505afa1580156116d8573d6000803e3d6000fd5b5050600d546001600160a01b0316915050806117065760405162461bcd60e51b81526004016105119061218e565b60075484118015906117185750600084115b6117345760405162461bcd60e51b815260040161051190612132565b83600360040160008282546117499190612257565b9091555050600254600d5460405163a9059cbb60e01b81526001600160a01b03918216600482015260248101879052600092919091169063a9059cbb90604401602060405180830381600087803b1580156117a357600080fd5b505af11580156117b7573d6000803e3d6000fd5b505050506040513d601f19601f820116820180604052508101906117db9190611f7a565b9050806117fa5760405162461bcd60e51b81526004016105119061215f565b600d546040517f7933fc59a1b4f8879978109694db0c56041b5c494a007cd879877f579f10df1c91610b559188916001600160a01b031690889088906121b7565b600054610100900460ff1680611854575060005460ff16155b6118b75760405162461bcd60e51b815260206004820152602e60248201527f496e697469616c697a61626c653a20636f6e747261637420697320616c72656160448201526d191e481a5b9a5d1a585b1a5e995960921b6064820152608401610511565b600054610100900460ff161580156118d9576000805461ffff19166101011790555b6000829050806001600160a01b031663ba84fd696040518163ffffffff1660e01b815260040160206040518083038186803b15801561191757600080fd5b505afa15801561192b573d6000803e3d6000fd5b505050506040513d601f19601f8201168201806040525081019061194f9190611f7a565b61195857600080fd5b600080546001600160a01b0390921663010000000262010000600160b81b0319909216919091176201000017905580156105df576000805461ff00191690555050565b600054604051632104fb0560e21b815233600482015263010000009091046001600160a01b031690638413ec149060240160006040518083038186803b1580156119e457600080fd5b505afa1580156119f8573d6000803e3d6000fd5b5083925050506001600160a01b038116611a245760405162461bcd60e51b81526004016105119061218e565b50600b80546001600160a01b0319166001600160a01b0392909216919091179055565b600060039054906101000a90046001600160a01b03166001600160a01b0316634d868f986040518163ffffffff1660e01b815260040160006040518083038186803b158015611a9557600080fd5b505afa158015611aa9573d6000803e3d6000fd5b5050600054604051632104fb0560e21b815233600482015263010000009091046001600160a01b03169250638413ec14915060240160006040518083038186803b158015611af657600080fd5b505afa158015611b0a573d6000803e3d6000fd5b5050600e546001600160a01b031691505080611b385760405162461bcd60e51b81526004016105119061218e565b6008548411801590611b4a5750600084115b611b665760405162461bcd60e51b815260040161051190612132565b8360036005016000828254611b7b9190612257565b9091555050600254600e5460405163a9059cbb60e01b81526001600160a01b03918216600482015260248101879052600092919091169063a9059cbb90604401602060405180830381600087803b158015611bd557600080fd5b505af1158015611be9573d6000803e3d6000fd5b505050506040513d601f19601f82011682018060405250810190611c0d9190611f7a565b905080611c2c5760405162461bcd60e51b81526004016105119061215f565b600e546040517fdc46bdffd23b840770c065a6e6fb55e8f31ed7ba8a073048e4b13c947b4701ea91610b559188916001600160a01b031690889088906121b7565b600054604051632104fb0560e21b815233600482015263010000009091046001600160a01b031690638413ec149060240160006040518083038186803b158015611cb657600080fd5b505afa158015611cca573d6000803e3d6000fd5b5083925050506001600160a01b038116611cf65760405162461bcd60e51b81526004016105119061218e565b50600280546001600160a01b0319166001600160a01b0392909216919091179055565b600060039054906101000a90046001600160a01b03166001600160a01b0316634d868f986040518163ffffffff1660e01b815260040160006040518083038186803b158015611d6757600080fd5b505afa158015611d7b573d6000803e3d6000fd5b5050600054604051632104fb0560e21b815233600482015263010000009091046001600160a01b03169250638413ec14915060240160006040518083038186803b158015611dc857600080fd5b505afa158015611ddc573d6000803e3d6000fd5b50506009546001600160a01b031691505080611e0a5760405162461bcd60e51b81526004016105119061218e565b6003548411801590611e1c5750600084115b611e385760405162461bcd60e51b815260040161051190612132565b8360036000016000828254611e4d9190612257565b909155505060025460095460405163a9059cbb60e01b81526001600160a01b03918216600482015260248101879052600092919091169063a9059cbb90604401602060405180830381600087803b158015611ea757600080fd5b505af1158015611ebb573d6000803e3d6000fd5b505050506040513d601f19601f82011682018060405250810190611edf9190611f7a565b905080611efe5760405162461bcd60e51b81526004016105119061215f565b6009546040517f346dd4608342f0849c2ae92a528abcdbde8cf41ca01d05ed0855ad4a3fe38bb591610b559188916001600160a01b031690889088906121b7565b803561ffff81168114611f5157600080fd5b919050565b600060208284031215611f6857600080fd5b8135611f7381612284565b9392505050565b600060208284031215611f8c57600080fd5b81518015158114611f7357600080fd5b600060208284031215611fae57600080fd5b5035919050565b600080600060408486031215611fca57600080fd5b83359250602084013567ffffffffffffffff80821115611fe957600080fd5b818601915086601f830112611ffd57600080fd5b81358181111561200c57600080fd5b87602082850101111561201e57600080fd5b6020830194508093505050509250925092565b6000806000806000806000806000806101408b8d03121561205157600080fd5b8a35995060208b0135985061206860408c01611f3f565b975061207660608c01611f3f565b965061208460808c01611f3f565b955061209260a08c01611f3f565b94506120a060c08c01611f3f565b93506120ae60e08c01611f3f565b92506120bd6101008c01611f3f565b91506120cc6101208c01611f3f565b90509295989b9194979a5092959850565b600080600080600080600080610100898b0312156120fa57600080fd5b505086359860208801359850604088013597606081013597506080810135965060a0810135955060c0810135945060e0013592509050565b6020808252601390820152721a5b9cdd59999a58da595b9d08185b5bdd5b9d606a1b604082015260600190565b6020808252601590820152743ab739bab1b1b2b9b9b33ab6103a3930b739b332b960591b604082015260600190565b6020808252600f908201526e696e76616c6964206164647265737360881b604082015260600190565b8481526001600160a01b03841660208201526060604082018190528101829052818360808301376000818301608090810191909152601f909201601f191601019392505050565b600082198211156122115761221161226e565b500190565b60008261223357634e487b7160e01b600052601260045260246000fd5b500490565b60008160001904831182151516156122525761225261226e565b500290565b6000828210156122695761226961226e565b500390565b634e487b7160e01b600052601160045260246000fd5b6001600160a01b038116811461229957600080fd5b5056fea26469706673582212203afb10dd7a586810f2763b43b4374d44d34a85a0d0decbd7247afa642ff5d93664736f6c63430008060033",
  "immutableReferences": {},
  "source": "// SPDX-License-Identifier: MIT\n\npragma solidity ^0.8.6;\n\nimport \"@openzeppelin/contracts-upgradeable/utils/CountersUpgradeable.sol\";\nimport \"@openzeppelin/contracts-upgradeable/proxy/utils/Initializable.sol\";\nimport \"@openzeppelin/contracts-upgradeable/token/ERC20/IERC20Upgradeable.sol\";\nimport \"../access/IAccessRestriction.sol\";\nimport \"./IPlanterFund.sol\";\n\n/** @title DaiFunds Contract */\ncontract DaiFunds is Initializable {\n    /** NOTE {isDaiFunds} set inside the initialize to {true} */\n    bool public isDaiFunds;\n\n    IAccessRestriction public accessRestriction;\n    IPlanterFund public planterFundContract;\n    IERC20Upgradeable public daiToken;\n\n    /** NOTE {totalFunds} is struct of TotalFund that keep total share of\n     * treeResearch, localDevelop,rescueFund,treejerDeveop,reserveFund1\n     * and reserveFund2\n     */\n    TotalFunds public totalFunds;\n\n    address public treeResearchAddress;\n    address public localDevelopAddress;\n    address public rescueFundAddress;\n    address public treejerDevelopAddress;\n    address public reserveFundAddress1;\n    address public reserveFundAddress2;\n\n    struct TotalFunds {\n        uint256 treeResearch;\n        uint256 localDevelop;\n        uint256 rescueFund;\n        uint256 treejerDevelop;\n        uint256 reserveFund1;\n        uint256 reserveFund2;\n    }\n\n    event TreeResearchBalanceWithdrawn(\n        uint256 amount,\n        address account,\n        string reason\n    );\n    event LocalDevelopBalanceWithdrawn(\n        uint256 amount,\n        address account,\n        string reason\n    );\n    event RescueBalanceWithdrawn(\n        uint256 amount,\n        address account,\n        string reason\n    );\n    event TreejerDevelopBalanceWithdrawn(\n        uint256 amount,\n        address account,\n        string reason\n    );\n    event ReserveBalanceWithdrawn1(\n        uint256 amount,\n        address account,\n        string reason\n    );\n    event ReserveBalanceWithdrawn2(\n        uint256 amount,\n        address account,\n        string reason\n    );\n\n    event TreeFunded(uint256 treeId, uint256 amount, uint256 planterPart);\n\n    event RegularFunded();\n\n    /** NOTE modifier to check msg.sender has admin role */\n    modifier onlyAdmin() {\n        accessRestriction.ifAdmin(msg.sender);\n        _;\n    }\n\n    /** NOTE modifier for check if function is not paused*/\n    modifier ifNotPaused() {\n        accessRestriction.ifNotPaused();\n        _;\n    }\n\n    /** NOTE modifier for check msg.sender has TreejerContract role */\n    modifier onlyTreejerContract() {\n        accessRestriction.ifTreejerContract(msg.sender);\n        _;\n    }\n    /** NOTE modifier for check valid address */\n    modifier validAddress(address _address) {\n        require(_address != address(0), \"invalid address\");\n        _;\n    }\n\n    /**\n     * @dev initialize accessRestriction contract and set true for isDaiFunds\n     * @param _accessRestrictionAddress set to the address of accessRestriction contract\n     */\n    function initialize(address _accessRestrictionAddress)\n        external\n        initializer\n    {\n        IAccessRestriction candidateContract = IAccessRestriction(\n            _accessRestrictionAddress\n        );\n\n        require(candidateContract.isAccessRestriction());\n\n        isDaiFunds = true;\n        accessRestriction = candidateContract;\n    }\n\n    /**\n     * @dev admin set DaiToken address\n     * @param _daiTokenAddress set to the address of DaiToken\n     */\n    function setDaiTokenAddress(address _daiTokenAddress)\n        external\n        onlyAdmin\n        validAddress(_daiTokenAddress)\n    {\n        IERC20Upgradeable candidateContract = IERC20Upgradeable(\n            _daiTokenAddress\n        );\n        daiToken = candidateContract;\n    }\n\n    /**\n     * @dev admin set PlanterFund address\n     * @param _address set to the address of PlanterFund\n     */\n    function setPlanterFundContractAddress(address _address)\n        external\n        onlyAdmin\n    {\n        IPlanterFund candidateContract = IPlanterFund(_address);\n        require(candidateContract.isPlanterFund());\n        planterFundContract = candidateContract;\n    }\n\n    /**\n     * @dev admin set treeResearch address to fund\n     * @param _address tree research address\n     */\n    function setTreeResearchAddress(address payable _address)\n        external\n        onlyAdmin\n        validAddress(_address)\n    {\n        treeResearchAddress = _address;\n    }\n\n    /**\n     * @dev admin set localDevelop address to fund\n     * @param _address local develop address\n     */\n    function setLocalDevelopAddress(address payable _address)\n        external\n        onlyAdmin\n        validAddress(_address)\n    {\n        localDevelopAddress = _address;\n    }\n\n    /**\n     * @dev admin set rescue address to fund\n     * @param _address rescue fund address\n     */\n    function setRescueFundAddress(address payable _address)\n        external\n        onlyAdmin\n        validAddress(_address)\n    {\n        rescueFundAddress = _address;\n    }\n\n    /**\n     * @dev admin set treejerDevelop address to fund\n     * @param _address treejer develop address\n     */\n    function setTreejerDevelopAddress(address payable _address)\n        external\n        onlyAdmin\n        validAddress(_address)\n    {\n        treejerDevelopAddress = _address;\n    }\n\n    /**\n     * @dev admin set reserveFund1 address to fund\n     * @param _address reserveFund1 address\n     */\n    function setReserveFund1Address(address payable _address)\n        external\n        onlyAdmin\n        validAddress(_address)\n    {\n        reserveFundAddress1 = _address;\n    }\n\n    /**\n     * @dev admin set reserveFund2 address to fund\n     * @param _address reserveFund2 address\n     */\n    function setReserveFund2Address(address payable _address)\n        external\n        onlyAdmin\n        validAddress(_address)\n    {\n        reserveFundAddress2 = _address;\n    }\n\n    /**\n     * @dev fund a tree by RegularSell contract and based on distribution\n     * model of tree, shares divide beetwen (planter, referral, treeResearch,\n     * localDevelop, rescueFund, treejerDevelop, reserveFund1 and reserveFund2)\n     * and added to the totalFunds of each part,\n     * @param _treeId id of a tree to fund\n     * NOTE planterFund and referralFund share transfer to PlanterFund contract\n     * and add to totalFund section there\n     */\n    function fundTree(\n        uint256 _treeId,\n        uint256 _amount,\n        uint16 _planterFund,\n        uint16 _referralFund,\n        uint16 _treeResearch,\n        uint16 _localDevelop,\n        uint16 _rescueFund,\n        uint16 _treejerDevelop,\n        uint16 _reserveFund1,\n        uint16 _reserveFund2\n    ) external onlyTreejerContract {\n        totalFunds.rescueFund += (_amount * _rescueFund) / 10000;\n\n        totalFunds.localDevelop += (_amount * _localDevelop) / 10000;\n\n        totalFunds.reserveFund1 += (_amount * _reserveFund1) / 10000;\n\n        totalFunds.reserveFund2 += (_amount * _reserveFund2) / 10000;\n\n        totalFunds.treejerDevelop += (_amount * _treejerDevelop) / 10000;\n\n        totalFunds.treeResearch += (_amount * _treeResearch) / 10000;\n\n        uint256 planterFund = (_amount * _planterFund) / 10000;\n        uint256 referralFund = (_amount * _referralFund) / 10000;\n\n        bool success = daiToken.transfer(\n            address(planterFundContract),\n            planterFund + referralFund\n        );\n\n        require(success, \"unsuccessful transfer\");\n\n        planterFundContract.setPlanterFunds(_treeId, planterFund, referralFund);\n\n        emit TreeFunded(_treeId, _amount, planterFund + referralFund);\n    }\n\n    //TODO : ADD_COMMENT\n    function regularFund(\n        uint256 _totalPlanterFund,\n        uint256 _totalReferralFund,\n        uint256 _totalTreeResearch,\n        uint256 _totalLocalDevelop,\n        uint256 _totalRescueFund,\n        uint256 _totalTreejerDevelop,\n        uint256 _totalReserveFund1,\n        uint256 _totalReserveFund2\n    ) external onlyTreejerContract {\n        totalFunds.treeResearch += _totalTreeResearch;\n\n        totalFunds.localDevelop += _totalLocalDevelop;\n\n        totalFunds.rescueFund += _totalRescueFund;\n\n        totalFunds.treejerDevelop += _totalTreejerDevelop;\n\n        totalFunds.reserveFund1 += _totalReserveFund1;\n\n        totalFunds.reserveFund2 += _totalReserveFund2;\n\n        bool success = daiToken.transfer(\n            address(planterFundContract),\n            _totalPlanterFund + _totalReferralFund\n        );\n\n        require(success, \"unsuccessful transfer\");\n\n        emit RegularFunded();\n    }\n\n    //TODO:ADD_COMMENTS\n    function refererTransferDai(uint256 _amount) external onlyTreejerContract {\n        require(totalFunds.treejerDevelop >= _amount, \"Liquidity not enough\");\n\n        totalFunds.treejerDevelop -= _amount;\n\n        bool success = daiToken.transfer(address(planterFundContract), _amount);\n\n        require(success, \"unsuccessful transfer\");\n    }\n\n    /**\n     * @dev admin withdraw {_amount} from treeResearch totalFund in case of\n     * valid {_amount}  and daiToken transfer to {treeResearchAddress}\n     * @param _amount amount to withdraw\n     * @param _reason reason to withdraw\n     */\n    function withdrawTreeResearch(uint256 _amount, string calldata _reason)\n        external\n        ifNotPaused\n        onlyAdmin\n        validAddress(treeResearchAddress)\n    {\n        require(\n            _amount <= totalFunds.treeResearch && _amount > 0,\n            \"insufficient amount\"\n        );\n\n        totalFunds.treeResearch -= _amount;\n\n        bool success = daiToken.transfer(treeResearchAddress, _amount);\n\n        require(success, \"unsuccessful transfer\");\n\n        emit TreeResearchBalanceWithdrawn(\n            _amount,\n            treeResearchAddress,\n            _reason\n        );\n    }\n\n    /**\n     * @dev admin withdraw {_amount} from localDevelop totalFund in case of\n     * valid {_amount} and daiToken transfer to {localDevelopAddress}\n     * @param _amount amount to withdraw\n     * @param _reason reason to withdraw\n     */\n    function withdrawLocalDevelop(uint256 _amount, string calldata _reason)\n        external\n        ifNotPaused\n        onlyAdmin\n        validAddress(localDevelopAddress)\n    {\n        require(\n            _amount <= totalFunds.localDevelop && _amount > 0,\n            \"insufficient amount\"\n        );\n\n        totalFunds.localDevelop -= _amount;\n\n        bool success = daiToken.transfer(localDevelopAddress, _amount);\n\n        require(success, \"unsuccessful transfer\");\n\n        emit LocalDevelopBalanceWithdrawn(\n            _amount,\n            localDevelopAddress,\n            _reason\n        );\n    }\n\n    /**\n     * @dev admin withdraw {_amount} from rescueFund totalFund in case of\n     * valid {_amount} and daiToken transfer to {rescueFundAddress}\n     * @param _amount amount to withdraw\n     * @param _reason reason to withdraw\n     */\n    function withdrawRescueFund(uint256 _amount, string calldata _reason)\n        external\n        ifNotPaused\n        onlyAdmin\n        validAddress(rescueFundAddress)\n    {\n        require(\n            _amount <= totalFunds.rescueFund && _amount > 0,\n            \"insufficient amount\"\n        );\n\n        totalFunds.rescueFund -= _amount;\n\n        bool success = daiToken.transfer(rescueFundAddress, _amount);\n\n        require(success, \"unsuccessful transfer\");\n\n        emit RescueBalanceWithdrawn(_amount, rescueFundAddress, _reason);\n    }\n\n    /**\n     * @dev admin withdraw {_amount} from treejerDevelop totalFund in case of\n     * valid {_amount} and daiToken transfer to {treejerDevelopAddress}\n     * @param _amount amount to withdraw\n     * @param _reason reason to withdraw\n     */\n    function withdrawTreejerDevelop(uint256 _amount, string calldata _reason)\n        external\n        ifNotPaused\n        onlyAdmin\n        validAddress(treejerDevelopAddress)\n    {\n        require(\n            _amount <= totalFunds.treejerDevelop && _amount > 0,\n            \"insufficient amount\"\n        );\n\n        totalFunds.treejerDevelop -= _amount;\n\n        bool success = daiToken.transfer(treejerDevelopAddress, _amount);\n\n        require(success, \"unsuccessful transfer\");\n\n        emit TreejerDevelopBalanceWithdrawn(\n            _amount,\n            treejerDevelopAddress,\n            _reason\n        );\n    }\n\n    /**\n     * @dev admin withdraw {_amount} from reserveFund1 totalFund in case of\n     * valid {_amount} and daiToken transfer to {reserveFundAddress1}\n     * @param _amount amount to withdraw\n     * @param _reason reason to withdraw\n     */\n    function withdrawReserveFund1(uint256 _amount, string calldata _reason)\n        external\n        ifNotPaused\n        onlyAdmin\n        validAddress(reserveFundAddress1)\n    {\n        require(\n            _amount <= totalFunds.reserveFund1 && _amount > 0,\n            \"insufficient amount\"\n        );\n\n        totalFunds.reserveFund1 -= _amount;\n\n        bool success = daiToken.transfer(reserveFundAddress1, _amount);\n\n        require(success, \"unsuccessful transfer\");\n\n        emit ReserveBalanceWithdrawn1(_amount, reserveFundAddress1, _reason);\n    }\n\n    /**\n     * @dev admin withdraw {_amount} from reserveFund2 totalFund in case of\n     * valid {_amount} and daiToken transfer to {reserveFundAddress2}\n     * @param _amount amount to withdraw\n     * @param _reason reason to withdraw\n     */\n    function withdrawReserveFund2(uint256 _amount, string calldata _reason)\n        external\n        ifNotPaused\n        onlyAdmin\n        validAddress(reserveFundAddress2)\n    {\n        require(\n            _amount <= totalFunds.reserveFund2 && _amount > 0,\n            \"insufficient amount\"\n        );\n\n        totalFunds.reserveFund2 -= _amount;\n\n        bool success = daiToken.transfer(reserveFundAddress2, _amount);\n\n        require(success, \"unsuccessful transfer\");\n\n        emit ReserveBalanceWithdrawn2(_amount, reserveFundAddress2, _reason);\n    }\n}\n",
  "sourcePath": "/media/ali/New Volume/treejer/contract/contracts/treasury/DaiFunds.sol",
  "compiler": {
    "name": "solc",
    "version": "0.8.6+commit.11564f7e.Emscripten.clang"
  },
  "schemaVersion": "3.4.1",
  "updatedAt": "2021-09-22T14:04:28.844Z",
  "networkType": "ethereum",
  "devdoc": {
    "kind": "dev",
    "methods": {
      "fundTree(uint256,uint256,uint16,uint16,uint16,uint16,uint16,uint16,uint16,uint16)": {
        "details": "fund a tree by RegularSell contract and based on distribution model of tree, shares divide beetwen (planter, referral, treeResearch, localDevelop, rescueFund, treejerDevelop, reserveFund1 and reserveFund2) and added to the totalFunds of each part,",
        "params": {
          "_treeId": "id of a tree to fund NOTE planterFund and referralFund share transfer to PlanterFund contract and add to totalFund section there"
        }
      },
      "initialize(address)": {
        "details": "initialize accessRestriction contract and set true for isDaiFunds",
        "params": {
          "_accessRestrictionAddress": "set to the address of accessRestriction contract"
        }
      },
      "setDaiTokenAddress(address)": {
        "details": "admin set DaiToken address",
        "params": {
          "_daiTokenAddress": "set to the address of DaiToken"
        }
      },
      "setLocalDevelopAddress(address)": {
        "details": "admin set localDevelop address to fund",
        "params": {
          "_address": "local develop address"
        }
      },
      "setPlanterFundContractAddress(address)": {
        "details": "admin set PlanterFund address",
        "params": {
          "_address": "set to the address of PlanterFund"
        }
      },
      "setRescueFundAddress(address)": {
        "details": "admin set rescue address to fund",
        "params": {
          "_address": "rescue fund address"
        }
      },
      "setReserveFund1Address(address)": {
        "details": "admin set reserveFund1 address to fund",
        "params": {
          "_address": "reserveFund1 address"
        }
      },
      "setReserveFund2Address(address)": {
        "details": "admin set reserveFund2 address to fund",
        "params": {
          "_address": "reserveFund2 address"
        }
      },
      "setTreeResearchAddress(address)": {
        "details": "admin set treeResearch address to fund",
        "params": {
          "_address": "tree research address"
        }
      },
      "setTreejerDevelopAddress(address)": {
        "details": "admin set treejerDevelop address to fund",
        "params": {
          "_address": "treejer develop address"
        }
      },
      "withdrawLocalDevelop(uint256,string)": {
        "details": "admin withdraw {_amount} from localDevelop totalFund in case of valid {_amount} and daiToken transfer to {localDevelopAddress}",
        "params": {
          "_amount": "amount to withdraw",
          "_reason": "reason to withdraw"
        }
      },
      "withdrawRescueFund(uint256,string)": {
        "details": "admin withdraw {_amount} from rescueFund totalFund in case of valid {_amount} and daiToken transfer to {rescueFundAddress}",
        "params": {
          "_amount": "amount to withdraw",
          "_reason": "reason to withdraw"
        }
      },
      "withdrawReserveFund1(uint256,string)": {
        "details": "admin withdraw {_amount} from reserveFund1 totalFund in case of valid {_amount} and daiToken transfer to {reserveFundAddress1}",
        "params": {
          "_amount": "amount to withdraw",
          "_reason": "reason to withdraw"
        }
      },
      "withdrawReserveFund2(uint256,string)": {
        "details": "admin withdraw {_amount} from reserveFund2 totalFund in case of valid {_amount} and daiToken transfer to {reserveFundAddress2}",
        "params": {
          "_amount": "amount to withdraw",
          "_reason": "reason to withdraw"
        }
      },
      "withdrawTreeResearch(uint256,string)": {
        "details": "admin withdraw {_amount} from treeResearch totalFund in case of valid {_amount}  and daiToken transfer to {treeResearchAddress}",
        "params": {
          "_amount": "amount to withdraw",
          "_reason": "reason to withdraw"
        }
      },
      "withdrawTreejerDevelop(uint256,string)": {
        "details": "admin withdraw {_amount} from treejerDevelop totalFund in case of valid {_amount} and daiToken transfer to {treejerDevelopAddress}",
        "params": {
          "_amount": "amount to withdraw",
          "_reason": "reason to withdraw"
        }
      }
    },
    "title": "DaiFunds Contract ",
    "version": 1
  },
  "userdoc": {
    "kind": "user",
    "methods": {
      "isDaiFunds()": {
        "notice": "NOTE {isDaiFunds} set inside the initialize to {true} "
      },
      "totalFunds()": {
        "notice": "NOTE {totalFunds} is struct of TotalFund that keep total share of treeResearch, localDevelop,rescueFund,treejerDeveop,reserveFund1 and reserveFund2"
      }
    },
    "version": 1
  }
}