{
  "contractName": "FinancialModel",
  "abi": [
    {
      "anonymous": false,
      "inputs": [
        {
          "indexed": false,
          "internalType": "uint256",
          "name": "modelId",
          "type": "uint256"
        }
      ],
      "name": "DistributionModelAdded",
      "type": "event"
    },
    {
      "anonymous": false,
      "inputs": [
        {
          "indexed": false,
          "internalType": "uint256",
          "name": "assignModelsLength",
          "type": "uint256"
        }
      ],
      "name": "FundDistributionModelAssigned",
      "type": "event"
    },
    {
      "inputs": [],
      "name": "accessRestriction",
      "outputs": [
        {
          "internalType": "contract IAccessRestriction",
          "name": "",
          "type": "address"
        }
      ],
      "stateMutability": "view",
      "type": "function",
      "constant": true
    },
    {
      "inputs": [
        {
          "internalType": "uint256",
          "name": "",
          "type": "uint256"
        }
      ],
      "name": "assignModels",
      "outputs": [
        {
          "internalType": "uint256",
          "name": "startingTreeId",
          "type": "uint256"
        },
        {
          "internalType": "uint256",
          "name": "distributionModelId",
          "type": "uint256"
        }
      ],
      "stateMutability": "view",
      "type": "function",
      "constant": true
    },
    {
      "inputs": [
        {
          "internalType": "uint256",
          "name": "",
          "type": "uint256"
        }
      ],
      "name": "fundDistributions",
      "outputs": [
        {
          "internalType": "uint16",
          "name": "planterFund",
          "type": "uint16"
        },
        {
          "internalType": "uint16",
          "name": "referralFund",
          "type": "uint16"
        },
        {
          "internalType": "uint16",
          "name": "treeResearch",
          "type": "uint16"
        },
        {
          "internalType": "uint16",
          "name": "localDevelop",
          "type": "uint16"
        },
        {
          "internalType": "uint16",
          "name": "rescueFund",
          "type": "uint16"
        },
        {
          "internalType": "uint16",
          "name": "treejerDevelop",
          "type": "uint16"
        },
        {
          "internalType": "uint16",
          "name": "reserveFund1",
          "type": "uint16"
        },
        {
          "internalType": "uint16",
          "name": "reserveFund2",
          "type": "uint16"
        },
        {
          "internalType": "uint16",
          "name": "exists",
          "type": "uint16"
        }
      ],
      "stateMutability": "view",
      "type": "function",
      "constant": true
    },
    {
      "inputs": [],
      "name": "isFinancialModel",
      "outputs": [
        {
          "internalType": "bool",
          "name": "",
          "type": "bool"
        }
      ],
      "stateMutability": "view",
      "type": "function",
      "constant": true
    },
    {
      "inputs": [],
      "name": "maxAssignedIndex",
      "outputs": [
        {
          "internalType": "uint256",
          "name": "",
          "type": "uint256"
        }
      ],
      "stateMutability": "view",
      "type": "function",
      "constant": true
    },
    {
      "inputs": [
        {
          "internalType": "address",
          "name": "_accessRestrictionAddress",
          "type": "address"
        }
      ],
      "name": "initialize",
      "outputs": [],
      "stateMutability": "nonpayable",
      "type": "function"
    },
    {
      "inputs": [
        {
          "internalType": "uint16",
          "name": "_planter",
          "type": "uint16"
        },
        {
          "internalType": "uint16",
          "name": "_referral",
          "type": "uint16"
        },
        {
          "internalType": "uint16",
          "name": "_treeResearch",
          "type": "uint16"
        },
        {
          "internalType": "uint16",
          "name": "_localDevelop",
          "type": "uint16"
        },
        {
          "internalType": "uint16",
          "name": "_rescueFund",
          "type": "uint16"
        },
        {
          "internalType": "uint16",
          "name": "_treejerDevelop",
          "type": "uint16"
        },
        {
          "internalType": "uint16",
          "name": "_reserveFund1",
          "type": "uint16"
        },
        {
          "internalType": "uint16",
          "name": "_reserveFund2",
          "type": "uint16"
        }
      ],
      "name": "addFundDistributionModel",
      "outputs": [],
      "stateMutability": "nonpayable",
      "type": "function"
    },
    {
      "inputs": [
        {
          "internalType": "uint256",
          "name": "_startTreeId",
          "type": "uint256"
        },
        {
          "internalType": "uint256",
          "name": "_endTreeId",
          "type": "uint256"
        },
        {
          "internalType": "uint256",
          "name": "_distributionModelId",
          "type": "uint256"
        }
      ],
      "name": "assignTreeFundDistributionModel",
      "outputs": [],
      "stateMutability": "nonpayable",
      "type": "function"
    },
    {
      "inputs": [
        {
          "internalType": "uint256",
          "name": "_treeId",
          "type": "uint256"
        }
      ],
      "name": "distributionModelExistance",
      "outputs": [
        {
          "internalType": "bool",
          "name": "",
          "type": "bool"
        }
      ],
      "stateMutability": "view",
      "type": "function",
      "constant": true
    },
    {
      "inputs": [
        {
          "internalType": "uint256",
          "name": "_treeId",
          "type": "uint256"
        }
      ],
      "name": "findTreeDistribution",
      "outputs": [
        {
          "internalType": "uint16",
          "name": "planterFund",
          "type": "uint16"
        },
        {
          "internalType": "uint16",
          "name": "referralFund",
          "type": "uint16"
        },
        {
          "internalType": "uint16",
          "name": "treeResearch",
          "type": "uint16"
        },
        {
          "internalType": "uint16",
          "name": "localDevelop",
          "type": "uint16"
        },
        {
          "internalType": "uint16",
          "name": "rescueFund",
          "type": "uint16"
        },
        {
          "internalType": "uint16",
          "name": "treejerDevelop",
          "type": "uint16"
        },
        {
          "internalType": "uint16",
          "name": "reserveFund1",
          "type": "uint16"
        },
        {
          "internalType": "uint16",
          "name": "reserveFund2",
          "type": "uint16"
        }
      ],
      "stateMutability": "view",
      "type": "function",
      "constant": true
    },
    {
      "inputs": [
        {
          "internalType": "uint256",
          "name": "_treeId",
          "type": "uint256"
        }
      ],
      "name": "getFindDistributionModelId",
      "outputs": [
        {
          "internalType": "uint256",
          "name": "",
          "type": "uint256"
        }
      ],
      "stateMutability": "view",
      "type": "function",
      "constant": true
    }
  ],
  "bytecode": "0x608060405234801561001057600080fd5b50611183806100206000396000f3fe608060405234801561001057600080fd5b50600436106100a95760003560e01c8063985710ab11610071578063985710ab14610227578063c4d66de81461023a578063cb7fc3bb1461024d578063cb8b5da314610260578063d6762c4a14610273578063ebf209da1461029e57600080fd5b80631087a2fe146100ae5780635944d7b41461017e5780637234395114610195578063891b3058146101aa578063966da5fb1461020a575b600080fd5b6101246100bc366004611040565b60066020526000908152604090205461ffff808216916201000081048216916401000000008204811691600160301b8104821691600160401b8204811691600160501b8104821691600160601b8204811691600160701b8104821691600160801b9091041689565b6040805161ffff9a8b168152988a1660208a01529689169688019690965293871660608701529186166080860152851660a0850152841660c0840152831660e0830152909116610100820152610120015b60405180910390f35b61018760035481565b604051908152602001610175565b6101a86101a3366004611059565b6102c6565b005b6101bd6101b8366004611040565b6107c3565b6040805161ffff998a16815297891660208901529588169587019590955292861660608601529085166080850152841660a0840152831660c083015290911660e082015261010001610175565b6002546102179060ff1681565b6040519015158152602001610175565b6101a8610235366004610fa9565b6109a7565b6101a8610248366004610f57565b610c69565b61018761025b366004611040565b610dca565b61021761026e366004611040565b610e8d565b600454610286906001600160a01b031681565b6040516001600160a01b039091168152602001610175565b6102b16102ac366004611040565b610ecf565b60408051928352602083019190915201610175565b6004805460405163c4d2a31b60e01b815233928101929092526001600160a01b03169063c4d2a31b9060240160006040518083038186803b15801561030a57600080fd5b505afa15801561031e573d6000803e3d6000fd5b505050600082815260066020526040902054600160801b900461ffff16151590506103905760405162461bcd60e51b815260206004820152601c60248201527f446973747269627574696f6e206d6f64656c206e6f7420666f756e640000000060448201526064015b60405180910390fd5b60006005805480602002602001604051908101604052809291908181526020016000905b828210156103fa578382906000526020600020906002020160405180604001604052908160008201548152602001600182015481525050815260200190600101906103b4565b5050505090506005600061040e9190610efd565b6000805b8251811015610644578583828151811061042e5761042e611137565b602002602001015160000151101561048857600583828151811061045457610454611137565b6020908102919091018101518254600181810185556000948552938390208251600290920201908155910151910155610632565b8161050b576040805180820190915286815260208101858152600580546001808201835560009290925292517f036b6384b5eca791c62761152d0c79bb0604c104a5fb6f4eb0703f3154bb3db060029094029384015590517f036b6384b5eca791c62761152d0c79bb0604c104a5fb6f4eb0703f3154bb3db19092019190915591505b81600114156105e5578415801561052157508515155b1561052f5760059150610644565b600081118015610567575082818151811061054c5761054c611137565b60200260200101516000015185600161056591906110d7565b105b156105e5576005604051806040016040528087600161058691906110d7565b8152602001856105976001866110ef565b815181106105a7576105a7611137565b602090810291909101810151810151909152825460018181018555600094855293829020835160029283029091019081559290910151919092015591505b816002141561063257600583828151811061060257610602611137565b60209081029190910181015182546001818101855560009485529383902082516002909202019081559101519101555b8061063c81611106565b915050610412565b50806106de5760408051808201909152858152602081018481526005805460018101825560009190915291517f036b6384b5eca791c62761152d0c79bb0604c104a5fb6f4eb0703f3154bb3db0600290930292830155517f036b6384b5eca791c62761152d0c79bb0604c104a5fb6f4eb0703f3154bb3db190910155831580156106cd57508415155b156106da575060056106de565b5060015b80600514156106ee576000196003555b80600114156107865783600354101561070b576003849055610786565b815115610786576005604051806040016040528086600161072c91906110d7565b8152602001846001865161074091906110ef565b8151811061075057610750611137565b60209081029190910181015181015190915282546001818101855560009485529382902083516002909202019081559101519101555b6005546040519081527f885b369e4f42858dc2eb9b82cac72e90418660b79ee83de45677f077f62111529060200160405180910390a15050505050565b6000806000806000806000806000805b6005548210156108de578a600583815481106107f1576107f1611137565b90600052602060002090600202016000015411156108cc57600082116108295760405162461bcd60e51b815260040161038790611085565b60066000600561083a6001866110ef565b8154811061084a5761084a611137565b6000918252602080832060016002909302019190910154835282019290925260400190205461ffff8082169b5062010000820481169a50640100000000820481169950600160301b820481169850600160401b820481169750600160501b820481169650600160601b820481169550600160701b90910416925061099c915050565b816108d681611106565b9250506107d3565b600082116108fe5760405162461bcd60e51b815260040161038790611085565b60066000600561090f6001866110ef565b8154811061091f5761091f611137565b6000918252602080832060016002909302019190910154835282019290925260400190205461ffff8082169b5062010000820481169a50640100000000820481169950600160301b820481169850600160401b820481169750600160501b820481169650600160601b820481169550600160701b90910416925050505b919395975091939597565b6004805460405163c4d2a31b60e01b815233928101929092526001600160a01b03169063c4d2a31b9060240160006040518083038186803b1580156109eb57600080fd5b505afa1580156109ff573d6000803e3d6000fd5b5050505080828486888a8c8e610a1591906110b1565b610a1f91906110b1565b610a2991906110b1565b610a3391906110b1565b610a3d91906110b1565b610a4791906110b1565b610a5191906110b1565b61ffff1661271014610a995760405162461bcd60e51b8152602060048201526011602482015270073756d206d75737420626520313030303607c1b6044820152606401610387565b6040518061012001604052808961ffff1681526020018861ffff1681526020018761ffff1681526020018661ffff1681526020018561ffff1681526020018461ffff1681526020018361ffff1681526020018261ffff168152602001600161ffff1681525060066000610b0b60015490565b815260208082019290925260409081016000208351815493850151928501516060860151608087015160a088015160c089015160e08a0151610100909a015161ffff96871663ffffffff19909a169990991762010000988716989098029790971767ffffffff0000000019166401000000009486169490940267ffff000000000000191693909317600160301b92851692909202919091176bffffffff00000000000000001916600160401b9184169190910261ffff60501b191617600160501b918316919091021763ffffffff60601b1916600160601b9382169390930261ffff60701b191692909217600160701b948316949094029390931761ffff60801b1916600160801b91909216021790556001547f975f988e4cd4650c59647f68faa40ecfd2c0c6d63a30bcf5745b11955a0a09be9060405190815260200160405180910390a1610c5f600180546001019055565b5050505050505050565b600054610100900460ff1680610c82575060005460ff16155b610ce55760405162461bcd60e51b815260206004820152602e60248201527f496e697469616c697a61626c653a20636f6e747261637420697320616c72656160448201526d191e481a5b9a5d1a585b1a5e995960921b6064820152608401610387565b600054610100900460ff16158015610d07576000805461ffff19166101011790555b6000829050806001600160a01b031663ba84fd696040518163ffffffff1660e01b815260040160206040518083038186803b158015610d4557600080fd5b505afa158015610d59573d6000803e3d6000fd5b505050506040513d601f19601f82011682018060405250810190610d7d9190610f87565b610d8657600080fd5b6002805460ff19166001179055600480546001600160a01b039092166001600160a01b03199092169190911790558015610dc6576000805461ff00191690555b5050565b6000805b600554811015610e6d578260058281548110610dec57610dec611137565b9060005260206000209060020201600001541115610e5b5760008111610e245760405162461bcd60e51b815260040161038790611085565b6005610e316001836110ef565b81548110610e4157610e41611137565b906000526020600020906002020160010154915050919050565b80610e6581611106565b915050610dce565b60008111610e245760405162461bcd60e51b815260040161038790611085565b600554600090610e9f57506000919050565b6005600081548110610eb357610eb3611137565b9060005260206000209060020201600001548210159050919050565b60058181548110610edf57600080fd5b60009182526020909120600290910201805460019091015490915082565b5080546000825560020290600052602060002090810190610f1e9190610f21565b50565b5b80821115610f3c5760008082556001820155600201610f22565b5090565b803561ffff81168114610f5257600080fd5b919050565b600060208284031215610f6957600080fd5b81356001600160a01b0381168114610f8057600080fd5b9392505050565b600060208284031215610f9957600080fd5b81518015158114610f8057600080fd5b600080600080600080600080610100898b031215610fc657600080fd5b610fcf89610f40565b9750610fdd60208a01610f40565b9650610feb60408a01610f40565b9550610ff960608a01610f40565b945061100760808a01610f40565b935061101560a08a01610f40565b925061102360c08a01610f40565b915061103160e08a01610f40565b90509295985092959890939650565b60006020828403121561105257600080fd5b5035919050565b60008060006060848603121561106e57600080fd5b505081359360208301359350604090920135919050565b6020808252601290820152711a5b9d985b1a5908199d5b99081b5bd9195b60721b604082015260600190565b600061ffff8083168185168083038211156110ce576110ce611121565b01949350505050565b600082198211156110ea576110ea611121565b500190565b60008282101561110157611101611121565b500390565b600060001982141561111a5761111a611121565b5060010190565b634e487b7160e01b600052601160045260246000fd5b634e487b7160e01b600052603260045260246000fdfea26469706673582212203b8cac94ea8dbfdbf8836ffbd11f552ff83d72c72d920b7666c6783077feea1364736f6c63430008060033",
  "immutableReferences": {},
  "source": "// SPDX-License-Identifier: MIT\n\npragma solidity ^0.8.6;\n\nimport \"@openzeppelin/contracts-upgradeable/utils/CountersUpgradeable.sol\";\nimport \"@openzeppelin/contracts-upgradeable/proxy/utils/Initializable.sol\";\nimport \"../access/IAccessRestriction.sol\";\n\npragma abicoder v2;\n\n/** @title FinancialModel Contract */\n\ncontract FinancialModel is Initializable {\n    using CountersUpgradeable for CountersUpgradeable.Counter;\n\n    CountersUpgradeable.Counter private fundDistributionCount;\n\n    uint256 constant MAX_UINT256 = type(uint256).max;\n\n    /** NOTE {isFinancialModel} set inside the initialize to {true} */\n    bool public isFinancialModel;\n\n    uint256 public maxAssignedIndex;\n\n    IAccessRestriction public accessRestriction;\n\n    struct FundDistribution {\n        uint16 planterFund;\n        uint16 referralFund;\n        uint16 treeResearch;\n        uint16 localDevelop;\n        uint16 rescueFund;\n        uint16 treejerDevelop;\n        uint16 reserveFund1;\n        uint16 reserveFund2;\n        uint16 exists;\n    }\n\n    struct AssignModel {\n        uint256 startingTreeId;\n        uint256 distributionModelId;\n    }\n\n    AssignModel[] public assignModels;\n\n    /** NOTE mapping of model id to FundDistribution*/\n    mapping(uint256 => FundDistribution) public fundDistributions;\n\n    event DistributionModelAdded(uint256 modelId);\n\n    event FundDistributionModelAssigned(uint256 assignModelsLength);\n\n    /** NOTE modifier to check msg.sender has data manager role */\n    modifier onlyDataManager() {\n        accessRestriction.ifDataManager(msg.sender);\n        _;\n    }\n\n    /**\n     * @dev initialize accessRestriction contract and set true for isFinancialModel\n     * @param _accessRestrictionAddress set to the address of accessRestriction contract\n     */\n    function initialize(address _accessRestrictionAddress)\n        external\n        initializer\n    {\n        IAccessRestriction candidateContract = IAccessRestriction(\n            _accessRestrictionAddress\n        );\n\n        require(candidateContract.isAccessRestriction());\n\n        isFinancialModel = true;\n        accessRestriction = candidateContract;\n    }\n\n    /**\n     * @dev admin add a model for funding distribution that sum of the\n     * inputs must be 10000\n     * @param _planter planter share\n     * @param _referral referral share\n     * @param _treeResearch tree research share\n     * @param _localDevelop local develop share\n     * @param _rescueFund rescue share\n     * @param _treejerDevelop treejer develop share\n     * @param _reserveFund1 reserve fund1 share\n     * @param _reserveFund2 reserve fund2 share\n     */\n    function addFundDistributionModel(\n        uint16 _planter,\n        uint16 _referral,\n        uint16 _treeResearch,\n        uint16 _localDevelop,\n        uint16 _rescueFund,\n        uint16 _treejerDevelop,\n        uint16 _reserveFund1,\n        uint16 _reserveFund2\n    ) external onlyDataManager {\n        require(\n            _planter +\n                _referral +\n                _treeResearch +\n                _localDevelop +\n                _rescueFund +\n                _treejerDevelop +\n                _reserveFund1 +\n                _reserveFund2 ==\n                10000,\n            \"sum must be 10000\"\n        );\n\n        fundDistributions[fundDistributionCount.current()] = FundDistribution(\n            _planter,\n            _referral,\n            _treeResearch,\n            _localDevelop,\n            _rescueFund,\n            _treejerDevelop,\n            _reserveFund1,\n            _reserveFund2,\n            1\n        );\n\n        emit DistributionModelAdded(fundDistributionCount.current());\n\n        fundDistributionCount.increment();\n    }\n\n    /**\n     * @dev admin assign a funding distribution model to trees starting from\n     * {_startTreeId} and end at {_endTreeId}\n     * @param _startTreeId strating tree id to assign distribution model to\n     * @param _endTreeId ending tree id to assign distribution model to\n     * @param _distributionModelId distribution model id to assign\n     */\n    function assignTreeFundDistributionModel(\n        uint256 _startTreeId,\n        uint256 _endTreeId,\n        uint256 _distributionModelId\n    ) external onlyDataManager {\n        require(\n            fundDistributions[_distributionModelId].exists > 0,\n            \"Distribution model not found\"\n        );\n\n        AssignModel[] memory localAssigns = assignModels;\n\n        delete assignModels;\n\n        uint256 checkFlag = 0;\n\n        for (uint256 i = 0; i < localAssigns.length; i++) {\n            if (localAssigns[i].startingTreeId < _startTreeId) {\n                assignModels.push(localAssigns[i]);\n            } else {\n                if (checkFlag == 0) {\n                    assignModels.push(\n                        AssignModel(_startTreeId, _distributionModelId)\n                    );\n                    checkFlag = 1;\n                }\n                if (checkFlag == 1) {\n                    if (_endTreeId == 0 && _startTreeId != 0) {\n                        checkFlag = 5;\n                        break;\n                    }\n                    if (\n                        i > 0 && _endTreeId + 1 < localAssigns[i].startingTreeId\n                    ) {\n                        assignModels.push(\n                            AssignModel(\n                                _endTreeId + 1,\n                                localAssigns[i - 1].distributionModelId\n                            )\n                        );\n                        checkFlag = 2;\n                    }\n                }\n                if (checkFlag == 2) {\n                    assignModels.push(localAssigns[i]);\n                }\n            }\n        }\n\n        if (checkFlag == 0) {\n            assignModels.push(AssignModel(_startTreeId, _distributionModelId));\n            if (_endTreeId == 0 && _startTreeId != 0) {\n                checkFlag = 5;\n            } else {\n                checkFlag = 1;\n            }\n        }\n\n        if (checkFlag == 5) {\n            maxAssignedIndex = MAX_UINT256;\n        }\n\n        if (checkFlag == 1) {\n            if (maxAssignedIndex < _endTreeId) {\n                maxAssignedIndex = _endTreeId;\n            } else if (localAssigns.length > 0) {\n                assignModels.push(\n                    AssignModel(\n                        _endTreeId + 1,\n                        localAssigns[localAssigns.length - 1]\n                            .distributionModelId\n                    )\n                );\n            }\n        }\n\n        emit FundDistributionModelAssigned(assignModels.length);\n    }\n\n    /**\n     * @dev check if there is distribution model for {_treeId} or not\n     * @param _treeId id of a tree to check if there is a distributionModel\n     * @return true in case of distributionModel existance for {_treeId} and false otherwise\n     */\n\n    function distributionModelExistance(uint256 _treeId)\n        external\n        view\n        returns (bool)\n    {\n        if (assignModels.length == 0) {\n            return false;\n        }\n\n        return _treeId >= assignModels[0].startingTreeId;\n    }\n\n    /**\n     * @dev return fundDistribution data of {_treeId}\n     * @param _treeId id of tree to find fundDistribution data\n     * @return planterFund share\n     * @return referralFund share\n     * @return treeResearch share\n     * @return localDevelop share\n     * @return rescueFund share\n     * @return treejerDevelop share\n     * @return reserveFund1 share\n     * @return reserveFund2 share\n     */\n    function findTreeDistribution(uint256 _treeId)\n        external\n        view\n        returns (\n            uint16 planterFund,\n            uint16 referralFund,\n            uint16 treeResearch,\n            uint16 localDevelop,\n            uint16 rescueFund,\n            uint16 treejerDevelop,\n            uint16 reserveFund1,\n            uint16 reserveFund2\n        )\n    {\n        uint256 i = 0;\n\n        FundDistribution storage fundDistribution;\n\n        for (i; i < assignModels.length; i++) {\n            if (assignModels[i].startingTreeId > _treeId) {\n                require(i > 0, \"invalid fund model\");\n\n                fundDistribution = fundDistributions[\n                    assignModels[i - 1].distributionModelId\n                ];\n\n                return (\n                    fundDistribution.planterFund,\n                    fundDistribution.referralFund,\n                    fundDistribution.treeResearch,\n                    fundDistribution.localDevelop,\n                    fundDistribution.rescueFund,\n                    fundDistribution.treejerDevelop,\n                    fundDistribution.reserveFund1,\n                    fundDistribution.reserveFund2\n                );\n            }\n        }\n\n        require(i > 0, \"invalid fund model\");\n\n        fundDistribution = fundDistributions[\n            assignModels[i - 1].distributionModelId\n        ];\n\n        return (\n            fundDistribution.planterFund,\n            fundDistribution.referralFund,\n            fundDistribution.treeResearch,\n            fundDistribution.localDevelop,\n            fundDistribution.rescueFund,\n            fundDistribution.treejerDevelop,\n            fundDistribution.reserveFund1,\n            fundDistribution.reserveFund2\n        );\n    }\n\n    /**\n     * @dev return fundDistribution id of {_treeId}\n     * @param _treeId id of tree to find assignModels of it\n     * @return id of fundDistiubution\n     */\n    function getFindDistributionModelId(uint256 _treeId)\n        external\n        view\n        returns (uint256)\n    {\n        uint256 i = 0;\n\n        for (i; i < assignModels.length; i++) {\n            if (assignModels[i].startingTreeId > _treeId) {\n                require(i > 0, \"invalid fund model\");\n                return (assignModels[i - 1].distributionModelId);\n            }\n        }\n\n        require(i > 0, \"invalid fund model\");\n\n        return (assignModels[i - 1].distributionModelId);\n    }\n}\n",
  "sourcePath": "/media/ali/New Volume/treejer/contract/contracts/treasury/FinancialModel.sol",
  "compiler": {
    "name": "solc",
    "version": "0.8.6+commit.11564f7e.Emscripten.clang"
  },
  "schemaVersion": "3.4.1",
  "updatedAt": "2021-09-22T14:02:27.182Z",
  "networkType": "ethereum",
  "devdoc": {
    "kind": "dev",
    "methods": {
      "addFundDistributionModel(uint16,uint16,uint16,uint16,uint16,uint16,uint16,uint16)": {
        "details": "admin add a model for funding distribution that sum of the inputs must be 10000",
        "params": {
          "_localDevelop": "local develop share",
          "_planter": "planter share",
          "_referral": "referral share",
          "_rescueFund": "rescue share",
          "_reserveFund1": "reserve fund1 share",
          "_reserveFund2": "reserve fund2 share",
          "_treeResearch": "tree research share",
          "_treejerDevelop": "treejer develop share"
        }
      },
      "assignTreeFundDistributionModel(uint256,uint256,uint256)": {
        "details": "admin assign a funding distribution model to trees starting from {_startTreeId} and end at {_endTreeId}",
        "params": {
          "_distributionModelId": "distribution model id to assign",
          "_endTreeId": "ending tree id to assign distribution model to",
          "_startTreeId": "strating tree id to assign distribution model to"
        }
      },
      "distributionModelExistance(uint256)": {
        "details": "check if there is distribution model for {_treeId} or not",
        "params": {
          "_treeId": "id of a tree to check if there is a distributionModel"
        },
        "returns": {
          "_0": "true in case of distributionModel existance for {_treeId} and false otherwise"
        }
      },
      "findTreeDistribution(uint256)": {
        "details": "return fundDistribution data of {_treeId}",
        "params": {
          "_treeId": "id of tree to find fundDistribution data"
        },
        "returns": {
          "localDevelop": "share",
          "planterFund": "share",
          "referralFund": "share",
          "rescueFund": "share",
          "reserveFund1": "share",
          "reserveFund2": "share",
          "treeResearch": "share",
          "treejerDevelop": "share"
        }
      },
      "getFindDistributionModelId(uint256)": {
        "details": "return fundDistribution id of {_treeId}",
        "params": {
          "_treeId": "id of tree to find assignModels of it"
        },
        "returns": {
          "_0": "id of fundDistiubution"
        }
      },
      "initialize(address)": {
        "details": "initialize accessRestriction contract and set true for isFinancialModel",
        "params": {
          "_accessRestrictionAddress": "set to the address of accessRestriction contract"
        }
      }
    },
    "title": "FinancialModel Contract ",
    "version": 1
  },
  "userdoc": {
    "kind": "user",
    "methods": {
      "fundDistributions(uint256)": {
        "notice": "NOTE mapping of model id to FundDistribution"
      },
      "isFinancialModel()": {
        "notice": "NOTE {isFinancialModel} set inside the initialize to {true} "
      }
    },
    "version": 1
  }
}