{
  "contractName": "IncrementalSell",
  "abi": [
    {
      "anonymous": false,
      "inputs": [],
      "name": "IncrementalRatesUpdated",
      "type": "event"
    },
    {
      "anonymous": false,
      "inputs": [],
      "name": "IncrementalSellUpdated",
      "type": "event"
    },
    {
      "anonymous": false,
      "inputs": [
        {
          "indexed": false,
          "internalType": "address",
          "name": "buyer",
          "type": "address"
        },
        {
          "indexed": false,
          "internalType": "address",
          "name": "referrer",
          "type": "address"
        },
        {
          "indexed": false,
          "internalType": "uint256",
          "name": "startId",
          "type": "uint256"
        },
        {
          "indexed": false,
          "internalType": "uint256",
          "name": "count",
          "type": "uint256"
        },
        {
          "indexed": false,
          "internalType": "uint256",
          "name": "amount",
          "type": "uint256"
        }
      ],
      "name": "IncrementalTreeSold",
      "type": "event"
    },
    {
      "inputs": [],
      "name": "accessRestriction",
      "outputs": [
        {
          "internalType": "contract IAccessRestriction",
          "name": "",
          "type": "address"
        }
      ],
      "stateMutability": "view",
      "type": "function",
      "constant": true
    },
    {
      "inputs": [],
      "name": "financialModel",
      "outputs": [
        {
          "internalType": "contract IFinancialModel",
          "name": "",
          "type": "address"
        }
      ],
      "stateMutability": "view",
      "type": "function",
      "constant": true
    },
    {
      "inputs": [],
      "name": "incrementalPrice",
      "outputs": [
        {
          "internalType": "uint256",
          "name": "startTree",
          "type": "uint256"
        },
        {
          "internalType": "uint256",
          "name": "endTree",
          "type": "uint256"
        },
        {
          "internalType": "uint256",
          "name": "initialPrice",
          "type": "uint256"
        },
        {
          "internalType": "uint64",
          "name": "increaseStep",
          "type": "uint64"
        },
        {
          "internalType": "uint64",
          "name": "increaseRatio",
          "type": "uint64"
        }
      ],
      "stateMutability": "view",
      "type": "function",
      "constant": true
    },
    {
      "inputs": [],
      "name": "isIncrementalSell",
      "outputs": [
        {
          "internalType": "bool",
          "name": "",
          "type": "bool"
        }
      ],
      "stateMutability": "view",
      "type": "function",
      "constant": true
    },
    {
      "inputs": [
        {
          "internalType": "address",
          "name": "forwarder",
          "type": "address"
        }
      ],
      "name": "isTrustedForwarder",
      "outputs": [
        {
          "internalType": "bool",
          "name": "",
          "type": "bool"
        }
      ],
      "stateMutability": "view",
      "type": "function",
      "constant": true
    },
    {
      "inputs": [],
      "name": "lastSold",
      "outputs": [
        {
          "internalType": "uint256",
          "name": "",
          "type": "uint256"
        }
      ],
      "stateMutability": "view",
      "type": "function",
      "constant": true
    },
    {
      "inputs": [],
      "name": "planterFundContract",
      "outputs": [
        {
          "internalType": "contract IPlanterFund",
          "name": "",
          "type": "address"
        }
      ],
      "stateMutability": "view",
      "type": "function",
      "constant": true
    },
    {
      "inputs": [],
      "name": "regularSell",
      "outputs": [
        {
          "internalType": "contract IRegularSell",
          "name": "",
          "type": "address"
        }
      ],
      "stateMutability": "view",
      "type": "function",
      "constant": true
    },
    {
      "inputs": [],
      "name": "treeAttribute",
      "outputs": [
        {
          "internalType": "contract ITreeAttribute",
          "name": "",
          "type": "address"
        }
      ],
      "stateMutability": "view",
      "type": "function",
      "constant": true
    },
    {
      "inputs": [],
      "name": "treeFactory",
      "outputs": [
        {
          "internalType": "contract ITreeFactory",
          "name": "",
          "type": "address"
        }
      ],
      "stateMutability": "view",
      "type": "function",
      "constant": true
    },
    {
      "inputs": [],
      "name": "trustedForwarder",
      "outputs": [
        {
          "internalType": "address",
          "name": "",
          "type": "address"
        }
      ],
      "stateMutability": "view",
      "type": "function",
      "constant": true
    },
    {
      "inputs": [],
      "name": "versionRecipient",
      "outputs": [
        {
          "internalType": "string",
          "name": "",
          "type": "string"
        }
      ],
      "stateMutability": "pure",
      "type": "function",
      "constant": true
    },
    {
      "inputs": [],
      "name": "wethFunds",
      "outputs": [
        {
          "internalType": "contract IWethFunds",
          "name": "",
          "type": "address"
        }
      ],
      "stateMutability": "view",
      "type": "function",
      "constant": true
    },
    {
      "inputs": [],
      "name": "wethToken",
      "outputs": [
        {
          "internalType": "contract IERC20Upgradeable",
          "name": "",
          "type": "address"
        }
      ],
      "stateMutability": "view",
      "type": "function",
      "constant": true
    },
    {
      "inputs": [
        {
          "internalType": "address",
          "name": "_accessRestrictionAddress",
          "type": "address"
        }
      ],
      "name": "initialize",
      "outputs": [],
      "stateMutability": "nonpayable",
      "type": "function"
    },
    {
      "inputs": [
        {
          "internalType": "address",
          "name": "_address",
          "type": "address"
        }
      ],
      "name": "setTrustedForwarder",
      "outputs": [],
      "stateMutability": "nonpayable",
      "type": "function"
    },
    {
      "inputs": [
        {
          "internalType": "address",
          "name": "_address",
          "type": "address"
        }
      ],
      "name": "setPlanterFundAddress",
      "outputs": [],
      "stateMutability": "nonpayable",
      "type": "function"
    },
    {
      "inputs": [
        {
          "internalType": "address",
          "name": "_address",
          "type": "address"
        }
      ],
      "name": "setRegularSellAddress",
      "outputs": [],
      "stateMutability": "nonpayable",
      "type": "function"
    },
    {
      "inputs": [
        {
          "internalType": "address",
          "name": "_address",
          "type": "address"
        }
      ],
      "name": "setTreeFactoryAddress",
      "outputs": [],
      "stateMutability": "nonpayable",
      "type": "function"
    },
    {
      "inputs": [
        {
          "internalType": "address",
          "name": "_address",
          "type": "address"
        }
      ],
      "name": "setWethFundsAddress",
      "outputs": [],
      "stateMutability": "nonpayable",
      "type": "function"
    },
    {
      "inputs": [
        {
          "internalType": "address",
          "name": "_address",
          "type": "address"
        }
      ],
      "name": "setWethTokenAddress",
      "outputs": [],
      "stateMutability": "nonpayable",
      "type": "function"
    },
    {
      "inputs": [
        {
          "internalType": "address",
          "name": "_address",
          "type": "address"
        }
      ],
      "name": "setFinancialModelAddress",
      "outputs": [],
      "stateMutability": "nonpayable",
      "type": "function"
    },
    {
      "inputs": [
        {
          "internalType": "address",
          "name": "_address",
          "type": "address"
        }
      ],
      "name": "setTreeAttributesAddress",
      "outputs": [],
      "stateMutability": "nonpayable",
      "type": "function"
    },
    {
      "inputs": [
        {
          "internalType": "uint256",
          "name": "_count",
          "type": "uint256"
        }
      ],
      "name": "freeIncrementalSell",
      "outputs": [],
      "stateMutability": "nonpayable",
      "type": "function"
    },
    {
      "inputs": [
        {
          "internalType": "uint256",
          "name": "_startTree",
          "type": "uint256"
        },
        {
          "internalType": "uint256",
          "name": "_initialPrice",
          "type": "uint256"
        },
        {
          "internalType": "uint64",
          "name": "_treeCount",
          "type": "uint64"
        },
        {
          "internalType": "uint64",
          "name": "_steps",
          "type": "uint64"
        },
        {
          "internalType": "uint64",
          "name": "_increaseRatio",
          "type": "uint64"
        }
      ],
      "name": "addTreeSells",
      "outputs": [],
      "stateMutability": "nonpayable",
      "type": "function"
    },
    {
      "inputs": [
        {
          "internalType": "uint256",
          "name": "_treeCount",
          "type": "uint256"
        }
      ],
      "name": "updateIncrementalEnd",
      "outputs": [],
      "stateMutability": "nonpayable",
      "type": "function"
    },
    {
      "inputs": [
        {
          "internalType": "uint256",
          "name": "_count",
          "type": "uint256"
        },
        {
          "internalType": "address",
          "name": "_referrer",
          "type": "address"
        }
      ],
      "name": "buyTree",
      "outputs": [],
      "stateMutability": "nonpayable",
      "type": "function"
    },
    {
      "inputs": [
        {
          "internalType": "uint256",
          "name": "_startTree",
          "type": "uint256"
        },
        {
          "internalType": "uint256",
          "name": "_count",
          "type": "uint256"
        }
      ],
      "name": "claimTreeAttributes",
      "outputs": [],
      "stateMutability": "nonpayable",
      "type": "function"
    },
    {
      "inputs": [
        {
          "internalType": "uint256",
          "name": "_initialPrice",
          "type": "uint256"
        },
        {
          "internalType": "uint64",
          "name": "_increaseStep",
          "type": "uint64"
        },
        {
          "internalType": "uint64",
          "name": "_increaseRatio",
          "type": "uint64"
        }
      ],
      "name": "updateIncrementalRates",
      "outputs": [],
      "stateMutability": "nonpayable",
      "type": "function"
    }
  ],
  "bytecode": "0x608060405234801561001057600080fd5b50612895806100206000396000f3fe608060405234801561001057600080fd5b50600436106101cf5760003560e01c80634b57b0be1161010457806395b64603116100a2578063d6762c4a11610071578063d6762c4a14610471578063da74222814610484578063e787d40e14610497578063efc85770146104aa57600080fd5b806395b6460314610425578063bb9a7d9114610438578063c4d66de81461044b578063c67a9b941461045e57600080fd5b80636acc9777116100de5780636acc9777146103d35780637da0a877146103e657806380d663ea146103ff578063909a1ffc1461041257600080fd5b80634b57b0be146103855780634fe044c414610398578063572b6c05146103ab57600080fd5b8063357ae81d11610171578063421ef6d41161014b578063421ef6d41461030d578063486ff0cd146103205780634ad07f9e1461035f5780634b2028181461037257600080fd5b8063357ae81d146102bc5780633820661a146102cf5780633e1ce339146102e257600080fd5b80631de07982116101ad5780631de079821461025f57806327e75dd4146102835780632aad7f76146102965780632ab28ce4146102a957600080fd5b80630bf351f8146101d45780630f5f2fbb146101e95780631c4722a31461024c575b600080fd5b6101e76101e23660046124d2565b6104c1565b005b600a54600b54600c54600d54610213939291906001600160401b0380821691600160401b90041685565b604080519586526020860194909452928401919091526001600160401b03908116606084015216608082015260a0015b60405180910390f35b6101e761025a366004612652565b6105d3565b60005461027390600160b01b900460ff1681565b6040519015158152602001610243565b6101e7610291366004612630565b6109de565b6101e76102a43660046124d2565b610ba1565b6101e76102b7366004612604565b610cb3565b6101e76102ca3660046124d2565b611197565b6101e76102dd3660046125d2565b6112a9565b6006546102f5906001600160a01b031681565b6040516001600160a01b039091168152602001610243565b6003546102f5906001600160a01b031681565b604080518082018252601d81527f322e322e302b747265656a65722e6972656c6179726563697069656e740000006020820152905161024391906126e5565b6101e761036d3660046124d2565b611476565b6101e76103803660046124d2565b611588565b6009546102f5906001600160a01b031681565b6101e76103a63660046124d2565b61169a565b6102736103b93660046124d2565b6000546201000090046001600160a01b0390811691161490565b6101e76103e13660046124d2565b6117ac565b6000546102f5906201000090046001600160a01b031681565b6007546102f5906001600160a01b031681565b6101e76104203660046125d2565b611889565b6005546102f5906001600160a01b031681565b6008546102f5906001600160a01b031681565b6101e76104593660046124d2565b611a46565b6101e761046c3660046126a9565b611bad565b6002546102f5906001600160a01b031681565b6101e76104923660046124d2565b611ca5565b6004546102f5906001600160a01b031681565b6104b360015481565b604051908152602001610243565b6002546001600160a01b0316638413ec146104da611d8a565b6040516001600160e01b031960e084901b1681526001600160a01b03909116600482015260240160006040518083038186803b15801561051957600080fd5b505afa15801561052d573d6000803e3d6000fd5b505050506000819050806001600160a01b031663e0eb4eb96040518163ffffffff1660e01b815260040160206040518083038186803b15801561056f57600080fd5b505afa158015610583573d6000803e3d6000fd5b505050506040513d601f19601f820116820180604052508101906105a791906124f4565b6105b057600080fd5b600380546001600160a01b0319166001600160a01b039290921691909117905550565b6002546001600160a01b031663c4d2a31b6105ec611d8a565b6040516001600160e01b031960e084901b1681526001600160a01b03909116600482015260240160006040518083038186803b15801561062b57600080fd5b505afa15801561063f573d6000803e3d6000fd5b505050506000836001600160401b0316116106a15760405162461bcd60e51b815260206004820152601860248201527f61737369676e206174206c65617374206f6e652074726565000000000000000060448201526064015b60405180910390fd5b606485116106f15760405162461bcd60e51b815260206004820152601760248201527f74726565732061726520756e6465722041756374696f6e0000000000000000006044820152606401610698565b6000826001600160401b03161161071a5760405162461bcd60e51b81526004016106989061273a565b60055460405163cb8b5da360e01b8152600481018790526001600160a01b039091169063cb8b5da39060240160206040518083038186803b15801561075e57600080fd5b505afa158015610772573d6000803e3d6000fd5b505050506040513d601f19601f8201168201806040525081019061079691906124f4565b6107e25760405162461bcd60e51b815260206004820181905260248201527f6571756976616c616e742066756e64204d6f64656c206e6f74206578697374736044820152606401610698565b600d54600a906001600160401b0316156108625760035481546001830154604051635c8bbd2f60e01b8152600481019290925260248201526001600160a01b0390911690635c8bbd2f90604401600060405180830381600087803b15801561084957600080fd5b505af115801561085d573d6000803e3d6000fd5b505050505b6003546001600160a01b031663bc3af822876108876001600160401b0388168261277f565b6040516001600160e01b031960e085901b1681526004810192909252602482015260026044820152606401602060405180830381600087803b1580156108cc57600080fd5b505af11580156108e0573d6000803e3d6000fd5b505050506040513d601f19601f8201168201806040525081019061090491906124f4565b6109505760405162461bcd60e51b815260206004820181905260248201527f747265657320617265206e6f7420617661696c61626c6520666f722073656c6c6044820152606401610698565b8581556109666001600160401b0385168761277f565b600180830191909155600282018690556003820180546001600160401b03858116600160401b026001600160801b0319909216908716171790556109aa9087612817565b6001556040517f5618d1d2c644be58b1467e0209c0b0131da97c67e05fbc102b4d2cceaa59975090600090a1505050505050565b8160005b82811015610b9b576109f4818561277f565b60035490925060009081906001600160a01b0316639a27ccfa85610a16611d8a565b6040516001600160e01b031960e085901b16815260048101929092526001600160a01b03166024820152604401604080518083038186803b158015610a5a57600080fd5b505afa158015610a6e573d6000803e3d6000fd5b505050506040513d601f19601f82011682018060405250810190610a92919061250f565b9150915081610ae35760405162461bcd60e51b815260206004820152601a60248201527f6e6f206e65656420746f207472656520617474726962757465730000000000006044820152606401610698565b6006546001600160a01b0316637b4a42e28583610afe611d8a565b6040516001600160e01b031960e086901b168152600481019390935260248301919091526001600160a01b03166044820152606401602060405180830381600087803b158015610b4d57600080fd5b505af1158015610b61573d6000803e3d6000fd5b505050506040513d601f19601f82011682018060405250810190610b8591906124f4565b5050508080610b939061282e565b9150506109e2565b50505050565b6002546001600160a01b0316638413ec14610bba611d8a565b6040516001600160e01b031960e084901b1681526001600160a01b03909116600482015260240160006040518083038186803b158015610bf957600080fd5b505afa158015610c0d573d6000803e3d6000fd5b505050506000819050806001600160a01b031663313b39376040518163ffffffff1660e01b815260040160206040518083038186803b158015610c4f57600080fd5b505afa158015610c63573d6000803e3d6000fd5b505050506040513d601f19601f82011682018060405250810190610c8791906124f4565b610c9057600080fd5b600480546001600160a01b0319166001600160a01b039290921691909117905550565b600260009054906101000a90046001600160a01b03166001600160a01b0316634d868f986040518163ffffffff1660e01b815260040160006040518083038186803b158015610d0157600080fd5b505afa158015610d15573d6000803e3d6000fd5b50505050606582108015610d295750600082115b610d6c5760405162461bcd60e51b81526020600482015260146024820152730436f756e74206d757374206265206c74203130360641b6044820152606401610698565b600b54600154600a9190610d8190859061277f565b10610dda5760405162461bcd60e51b815260206004820152602360248201527f4e6f7420656e6f756768207472656520696e20696e6372656d656e74616c2073604482015262195b1b60ea1b6064820152608401610698565b60006001546001610deb919061277f565b600383015483549192506000916001600160401b0390911690610e0e9084612817565b610e189190612797565b835460038501549192506000918491906001600160401b0316610e3c85600161277f565b610e4691906127b9565b610e50919061277f565b610e5a9190612817565b6003850154600286015491925060009161271091600160401b90046001600160401b031690610e8990866127b9565b610e9391906127b9565b610e9d9190612797565b8560020154610eac919061277f565b90506000610eba82896127b9565b90506000610ec8848a6127d8565b90505b6000811315610f40576003870154600288015461271091600160401b90046001600160401b031690610efd90846127b9565b610f0791906127b9565b610f119190612797565b610f1b908361277f565b6003880154909250610f39906001600160401b031660070b826127d8565b9050610ecb565b60095482906001600160a01b03166370a08231610f5b611d8a565b6040516001600160e01b031960e084901b1681526001600160a01b03909116600482015260240160206040518083038186803b158015610f9a57600080fd5b505afa158015610fae573d6000803e3d6000fd5b505050506040513d601f19601f82011682018060405250810190610fd291906125eb565b10156110115760405162461bcd60e51b815260206004820152600e60248201526d1b1bddc81c1c9a58d9481c185a5960921b6044820152606401610698565b6009546000906001600160a01b03166323b872dd61102d611d8a565b6004805460405160e085901b6001600160e01b03191681526001600160a01b039384169281019290925291909116602482015260448101869052606401602060405180830381600087803b15801561108457600080fd5b505af1158015611098573d6000803e3d6000fd5b505050506040513d601f19601f820116820180604052508101906110bc91906124f4565b9050806111035760405162461bcd60e51b81526020600482015260156024820152743ab739bab1b1b2b9b9b33ab6103a3930b739b332b960591b6044820152606401610698565b611117878b611110611d8a565b8c87611dc4565b9650611124600188612817565b6001557f4f8fa510cee255d6549cdb9f0c019107dbfbb763c9fd25b4fb539e72dc774b3a611150611d8a565b8a61115b8d8b612817565b604080516001600160a01b03948516815293909216602084015290820152606081018c905260800160405180910390a150505050505050505050565b6002546001600160a01b0316638413ec146111b0611d8a565b6040516001600160e01b031960e084901b1681526001600160a01b03909116600482015260240160006040518083038186803b1580156111ef57600080fd5b505afa158015611203573d6000803e3d6000fd5b505050506000819050806001600160a01b03166346efcdc16040518163ffffffff1660e01b815260040160206040518083038186803b15801561124557600080fd5b505afa158015611259573d6000803e3d6000fd5b505050506040513d601f19601f8201168201806040525081019061127d91906124f4565b61128657600080fd5b600680546001600160a01b0319166001600160a01b039290921691909117905550565b6002546001600160a01b031663c4d2a31b6112c2611d8a565b6040516001600160e01b031960e084901b1681526001600160a01b03909116600482015260240160006040518083038186803b15801561130157600080fd5b505afa158015611315573d6000803e3d6000fd5b5050600d54600a92506001600160401b0316151590506113475760405162461bcd60e51b81526004016106989061273a565b60035460018201546001600160a01b039091169063bc3af8229061136b858261277f565b6040516001600160e01b031960e085901b1681526004810192909252602482015260026044820152606401602060405180830381600087803b1580156113b057600080fd5b505af11580156113c4573d6000803e3d6000fd5b505050506040513d601f19601f820116820180604052508101906113e891906124f4565b6114345760405162461bcd60e51b815260206004820181905260248201527f747265657320617265206e6f7420617661696c61626c6520666f722073656c6c6044820152606401610698565b818160010154611444919061277f565b60018201556040517f5618d1d2c644be58b1467e0209c0b0131da97c67e05fbc102b4d2cceaa59975090600090a15050565b6002546001600160a01b0316638413ec1461148f611d8a565b6040516001600160e01b031960e084901b1681526001600160a01b03909116600482015260240160006040518083038186803b1580156114ce57600080fd5b505afa1580156114e2573d6000803e3d6000fd5b505050506000819050806001600160a01b031663349904da6040518163ffffffff1660e01b815260040160206040518083038186803b15801561152457600080fd5b505afa158015611538573d6000803e3d6000fd5b505050506040513d601f19601f8201168201806040525081019061155c91906124f4565b61156557600080fd5b600780546001600160a01b0319166001600160a01b039290921691909117905550565b6002546001600160a01b0316638413ec146115a1611d8a565b6040516001600160e01b031960e084901b1681526001600160a01b03909116600482015260240160006040518083038186803b1580156115e057600080fd5b505afa1580156115f4573d6000803e3d6000fd5b505050506000819050806001600160a01b031663d0ae266a6040518163ffffffff1660e01b815260040160206040518083038186803b15801561163657600080fd5b505afa15801561164a573d6000803e3d6000fd5b505050506040513d601f19601f8201168201806040525081019061166e91906124f4565b61167757600080fd5b600880546001600160a01b0319166001600160a01b039290921691909117905550565b6002546001600160a01b0316638413ec146116b3611d8a565b6040516001600160e01b031960e084901b1681526001600160a01b03909116600482015260240160006040518083038186803b1580156116f257600080fd5b505afa158015611706573d6000803e3d6000fd5b505050506000819050806001600160a01b031663966da5fb6040518163ffffffff1660e01b815260040160206040518083038186803b15801561174857600080fd5b505afa15801561175c573d6000803e3d6000fd5b505050506040513d601f19601f8201168201806040525081019061178091906124f4565b61178957600080fd5b600580546001600160a01b0319166001600160a01b039290921691909117905550565b6002546001600160a01b0316638413ec146117c5611d8a565b6040516001600160e01b031960e084901b1681526001600160a01b03909116600482015260240160006040518083038186803b15801561180457600080fd5b505afa158015611818573d6000803e3d6000fd5b5083925050506001600160a01b0381166118665760405162461bcd60e51b815260206004820152600f60248201526e696e76616c6964206164647265737360881b6044820152606401610698565b50600980546001600160a01b0319166001600160a01b0392909216919091179055565b6002546001600160a01b031663c4d2a31b6118a2611d8a565b6040516001600160e01b031960e084901b1681526001600160a01b03909116600482015260240160006040518083038186803b1580156118e157600080fd5b505afa1580156118f5573d6000803e3d6000fd5b5050600a80549092506000915061190d90849061277f565b60038301549091506001600160401b031615801590611930575081600101548111155b61199a5760405162461bcd60e51b815260206004820152603560248201527f496e6372656d656e74616c53656c6c206e6f74206578697374206f7220636f756044820152746e74206d757374206265206c7420656e645472656560581b6064820152608401610698565b6003548254604051635c8bbd2f60e01b81526001600160a01b0390921691635c8bbd2f916119d5918590600401918252602082015260400190565b600060405180830381600087803b1580156119ef57600080fd5b505af1158015611a03573d6000803e3d6000fd5b50505081835550611a15600182612817565b6001556040517f5618d1d2c644be58b1467e0209c0b0131da97c67e05fbc102b4d2cceaa59975090600090a1505050565b600054610100900460ff1680611a5f575060005460ff16155b611ac25760405162461bcd60e51b815260206004820152602e60248201527f496e697469616c697a61626c653a20636f6e747261637420697320616c72656160448201526d191e481a5b9a5d1a585b1a5e995960921b6064820152608401610698565b600054610100900460ff16158015611ae4576000805461ffff19166101011790555b6000829050806001600160a01b031663ba84fd696040518163ffffffff1660e01b815260040160206040518083038186803b158015611b2257600080fd5b505afa158015611b36573d6000803e3d6000fd5b505050506040513d601f19601f82011682018060405250810190611b5a91906124f4565b611b6357600080fd5b6000805460ff60b01b1916600160b01b179055600280546001600160a01b039092166001600160a01b03199092169190911790558015611ba9576000805461ff00191690555b5050565b6002546001600160a01b031663c4d2a31b611bc6611d8a565b6040516001600160e01b031960e084901b1681526001600160a01b03909116600482015260240160006040518083038186803b158015611c0557600080fd5b505afa158015611c19573d6000803e3d6000fd5b505050506000826001600160401b031611611c465760405162461bcd60e51b81526004016106989061273a565b600c839055600d80546001600160401b03838116600160401b026001600160801b031990921690851617179055604051600a907f0c999c85bde898881705cca324b5c5ea05b53a9a5611bf88f20a740589101e9e90600090a150505050565b6002546001600160a01b0316638413ec14611cbe611d8a565b6040516001600160e01b031960e084901b1681526001600160a01b03909116600482015260240160006040518083038186803b158015611cfd57600080fd5b505afa158015611d11573d6000803e3d6000fd5b5083925050506001600160a01b038116611d5f5760405162461bcd60e51b815260206004820152600f60248201526e696e76616c6964206164647265737360881b6044820152606401610698565b50600080546001600160a01b03909216620100000262010000600160b01b0319909216919091179055565b600060143610801590611dad57506000546201000090046001600160a01b031633145b15611dbf575060131936013560601c90565b503390565b600080600a9050611e23604051806101200160405280600081526020016000815260200160008152602001600081526020016000815260200160008152602001600081526020016000815260200160006001600160a01b031681525090565b6001600160a01b0386166101008201528760005b8881101561217057600384015484546000916001600160401b031690611e5d9085612817565b611e679190612797565b6003860154600287015491925060009161271091600160401b90046001600160401b031690611e9690856127b9565b611ea091906127b9565b611eaa9190612797565b8660020154611eb9919061277f565b600554604051631123660b60e31b81526004810187905291925060009182918291829182918291829182916001600160a01b03169063891b30589060240161010060405180830381600087803b158015611f1257600080fd5b505af1158015611f26573d6000803e3d6000fd5b505050506040513d601f19601f82011682018060405250810190611f4a919061253b565b975097509750975097509750975097506127108861ffff168a611f6d91906127b9565b611f779190612797565b8d518e90611f8690839061277f565b905250612710611f9a61ffff89168b6127b9565b611fa49190612797565b8d602001818151611fb5919061277f565b905250612710611fc961ffff88168b6127b9565b611fd39190612797565b8d604001818151611fe4919061277f565b905250612710611ff861ffff87168b6127b9565b6120029190612797565b8d606001818151612013919061277f565b90525061271061202761ffff86168b6127b9565b6120319190612797565b8d608001818151612042919061277f565b90525061271061205661ffff85168b6127b9565b6120609190612797565b8d60a001818151612071919061277f565b90525061271061208561ffff84168b6127b9565b61208f9190612797565b8d60c0018181516120a0919061277f565b9052506127106120b461ffff83168b6127b9565b6120be9190612797565b8d60e0018181516120cf919061277f565b9052506003546101008e015160405163b225afcb60e01b8152600481018f90526001600160a01b0391821660248201526001604482015291169063b225afcb90606401600060405180830381600087803b15801561212c57600080fd5b505af1158015612140573d6000803e3d6000fd5b5050505060018c612151919061277f565b9b505050505050505050505080806121689061282e565b915050611e37565b5060048054835160208501516040808701516060880151608089015160a08a015160c08b015160e08c01519551634f90106b60e01b8152998a0197909752602489019590955260448801929092526064870152608486015260a485019190915260c484019190915260e48301526000916001600160a01b0390911690634f90106b9061010401602060405180830381600087803b15801561221057600080fd5b505af1158015612224573d6000803e3d6000fd5b505050506040513d601f19601f8201168201806040525081019061224891906125eb565b90506122608a8a83866000015187602001518b6122e3565b6001600160a01b038716156122d6576008546040516381b4244760e01b81526001600160a01b038981166004830152602482018c9052909116906381b4244790604401600060405180830381600087803b1580156122bd57600080fd5b505af11580156122d1573d6000803e3d6000fd5b505050505b5098975050505050505050565b60006122ef838561277f565b6122f985876127b9565b6123039190612797565b90506000612311848661277f565b61231b85886127b9565b6123259190612797565b9050600a8860005b8981101561247057600383015483546000916001600160401b0316906123539085612817565b61235d9190612797565b6003850154600286015491925060009161271091600160401b90046001600160401b03169061238c90856127b9565b61239691906127b9565b6123a09190612797565b85600201546123af919061277f565b6007549091506001600160a01b0316633ad7c33b858a6123cf858c6127b9565b6123d99190612797565b8b6123e4868c6127b9565b6123ee9190612797565b6040516001600160e01b031960e086901b168152600481019390935260248301919091526044820152606401600060405180830381600087803b15801561243457600080fd5b505af1158015612448573d6000803e3d6000fd5b50505050600184612459919061277f565b9350505080806124689061282e565b91505061232d565b5050505050505050505050565b80356001600160a01b038116811461249457600080fd5b919050565b8051801515811461249457600080fd5b805161ffff8116811461249457600080fd5b80356001600160401b038116811461249457600080fd5b6000602082840312156124e457600080fd5b6124ed8261247d565b9392505050565b60006020828403121561250657600080fd5b6124ed82612499565b6000806040838503121561252257600080fd5b61252b83612499565b9150602083015190509250929050565b600080600080600080600080610100898b03121561255857600080fd5b612561896124a9565b975061256f60208a016124a9565b965061257d60408a016124a9565b955061258b60608a016124a9565b945061259960808a016124a9565b93506125a760a08a016124a9565b92506125b560c08a016124a9565b91506125c360e08a016124a9565b90509295985092959890939650565b6000602082840312156125e457600080fd5b5035919050565b6000602082840312156125fd57600080fd5b5051919050565b6000806040838503121561261757600080fd5b823591506126276020840161247d565b90509250929050565b6000806040838503121561264357600080fd5b50508035926020909101359150565b600080600080600060a0868803121561266a57600080fd5b8535945060208601359350612681604087016124bb565b925061268f606087016124bb565b915061269d608087016124bb565b90509295509295909350565b6000806000606084860312156126be57600080fd5b833592506126ce602085016124bb565b91506126dc604085016124bb565b90509250925092565b600060208083528351808285015260005b81811015612712578581018301518582016040015282016126f6565b81811115612724576000604083870101525b50601f01601f1916929092016040019392505050565b60208082526025908201527f696e6372656d656e74616c20706572696f642073686f756c6420626520706f73604082015264697469766560d81b606082015260800190565b6000821982111561279257612792612849565b500190565b6000826127b457634e487b7160e01b600052601260045260246000fd5b500490565b60008160001904831182151516156127d3576127d3612849565b500290565b60008083128015600160ff1b8501841216156127f6576127f6612849565b6001600160ff1b038401831381161561281157612811612849565b50500390565b60008282101561282957612829612849565b500390565b600060001982141561284257612842612849565b5060010190565b634e487b7160e01b600052601160045260246000fdfea2646970667358221220e9ea2d3553506f106512d74667a04bee491bf5c93ff261bc5cd3a5db9b8aa0d664736f6c63430008060033",
  "immutableReferences": {},
  "source": "// // SPDX-License-Identifier: MIT\npragma solidity ^0.8.6;\n\nimport \"@openzeppelin/contracts-upgradeable/proxy/utils/Initializable.sol\";\nimport \"@openzeppelin/contracts-upgradeable/token/ERC20/IERC20Upgradeable.sol\";\nimport \"../access/IAccessRestriction.sol\";\nimport \"../tree/ITreeFactory.sol\";\nimport \"../treasury/IWethFunds.sol\";\nimport \"../treasury/IFinancialModel.sol\";\nimport \"../treasury/IPlanterFund.sol\";\nimport \"../tree/ITreeAttribute.sol\";\nimport \"../regularSell/IRegularSell.sol\";\nimport \"../gsn/RelayRecipient.sol\";\n\ncontract IncrementalSell is Initializable, RelayRecipient {\n    /** NOTE {isIncrementalSell} set inside the initialize to {true} */\n    bool public isIncrementalSell;\n    uint256 public lastSold;\n\n    IAccessRestriction public accessRestriction;\n    ITreeFactory public treeFactory;\n    IWethFunds public wethFunds;\n    IFinancialModel public financialModel;\n    ITreeAttribute public treeAttribute;\n    IPlanterFund public planterFundContract;\n    IRegularSell public regularSell;\n    IERC20Upgradeable public wethToken;\n\n    struct IncrementalPrice {\n        uint256 startTree;\n        uint256 endTree;\n        uint256 initialPrice;\n        uint64 increaseStep;\n        uint64 increaseRatio;\n    }\n\n    struct FundDistribution {\n        uint256 planterFund;\n        uint256 referralFund;\n        uint256 treeResearch;\n        uint256 localDevelop;\n        uint256 rescueFund;\n        uint256 treejerDevelop;\n        uint256 reserveFund1;\n        uint256 reserveFund2;\n        address buyer;\n    }\n\n    /** NOTE {incrementalPrice} is struct of IncrementalPrice that store\n     * startTree, endTree, initialPrice, increaseStep, increaseRatio values\n     */\n    IncrementalPrice public incrementalPrice;\n\n    /** NOTE mapping of buyer address to lastBuy time */\n    // mapping(address => uint256) public lastBuy;\n\n    event IncrementalTreeSold(\n        address buyer,\n        address referrer,\n        uint256 startId,\n        uint256 count\n    );\n    event IncrementalSellUpdated();\n    event IncrementalRatesUpdated();\n\n    /** NOTE modifier to check msg.sender has admin role */\n    modifier onlyAdmin() {\n        accessRestriction.ifAdmin(_msgSender());\n        _;\n    }\n\n    /** NOTE modifier to check msg.sender has data manager role */\n    modifier onlyDataManager() {\n        accessRestriction.ifDataManager(_msgSender());\n        _;\n    }\n\n    /** NOTE modifier for check if function is not paused*/\n    modifier ifNotPaused() {\n        accessRestriction.ifNotPaused();\n        _;\n    }\n\n    /** NOTE modifier for check valid address */\n    modifier validAddress(address _address) {\n        require(_address != address(0), \"invalid address\");\n        _;\n    }\n\n    /**\n     * @dev initialize accessRestriction contract and set true for isIncrementalSell\n     * @param _accessRestrictionAddress set to the address of accessRestriction contract\n     */\n    function initialize(address _accessRestrictionAddress)\n        external\n        initializer\n    {\n        IAccessRestriction candidateContract = IAccessRestriction(\n            _accessRestrictionAddress\n        );\n        require(candidateContract.isAccessRestriction());\n        isIncrementalSell = true;\n        accessRestriction = candidateContract;\n    }\n\n    /**\n     * @dev admin set trusted forwarder address\n     * @param _address set to {trustedForwarder}\n     */\n    function setTrustedForwarder(address _address)\n        external\n        onlyAdmin\n        validAddress(_address)\n    {\n        trustedForwarder = _address;\n    }\n\n    /**\n     * @dev admin set PlanterFundAddress\n     * @param _address set to the address of PlanterFund\n     */\n\n    function setPlanterFundAddress(address _address) external onlyAdmin {\n        IPlanterFund candidateContract = IPlanterFund(_address);\n        require(candidateContract.isPlanterFund());\n        planterFundContract = candidateContract;\n    }\n\n    function setRegularSellAddress(address _address) external onlyAdmin {\n        IRegularSell candidateContract = IRegularSell(_address);\n        require(candidateContract.isRegularSell());\n        regularSell = candidateContract;\n    }\n\n    /** @dev admin set TreeFactory contract address\n     * @param _address TreeFactory contract address\n     */\n    function setTreeFactoryAddress(address _address) external onlyAdmin {\n        ITreeFactory candidateContract = ITreeFactory(_address);\n        require(candidateContract.isTreeFactory());\n        treeFactory = candidateContract;\n    }\n\n    /** @dev admin set wethFunds contract address\n     * @param _address wethFunds contract address\n     */\n    function setWethFundsAddress(address _address) external onlyAdmin {\n        IWethFunds candidateContract = IWethFunds(_address);\n\n        require(candidateContract.isWethFunds());\n\n        wethFunds = candidateContract;\n    }\n\n    /** @dev admin set wethToken contract address\n     * @param _address wethToken contract address\n     */\n    function setWethTokenAddress(address _address)\n        external\n        onlyAdmin\n        validAddress(_address)\n    {\n        IERC20Upgradeable candidateContract = IERC20Upgradeable(_address);\n        wethToken = candidateContract;\n    }\n\n    /**\n     * @dev admin set FinancialModelAddress\n     * @param _address set to the address of financialModel\n     */\n    function setFinancialModelAddress(address _address) external onlyAdmin {\n        IFinancialModel candidateContract = IFinancialModel(_address);\n        require(candidateContract.isFinancialModel());\n        financialModel = candidateContract;\n    }\n\n    /**\n     * @dev admin set TreeAttributesAddress\n     * @param _address set to the address of treeAttribute\n     */\n\n    function setTreeAttributesAddress(address _address) external onlyAdmin {\n        ITreeAttribute candidateContract = ITreeAttribute(_address);\n        require(candidateContract.isTreeAttribute());\n        treeAttribute = candidateContract;\n    }\n\n    //TODO: ADD_COMMENT\n    function freeIncrementalSell(uint256 _count) external onlyDataManager {\n        IncrementalPrice storage incrPrice = incrementalPrice;\n\n        uint256 newStartTree = incrPrice.startTree + _count;\n\n        require(\n            incrPrice.increaseStep > 0 && newStartTree <= incrPrice.endTree,\n            \"IncrementalSell not exist or count must be lt endTree\"\n        );\n\n        treeFactory.bulkRevert(incrPrice.startTree, newStartTree);\n\n        incrPrice.startTree = newStartTree;\n        lastSold = newStartTree - 1;\n\n        emit IncrementalSellUpdated();\n    }\n\n    /**\n     * @dev admin set a range from {startTree} to {startTree + treeCount}\n     * for incremental selles for tree\n     * @param _startTree starting treeId\n     * @param _initialPrice initialPrice of trees\n     * @param _treeCount number of tree in incremental sell\n     * @param _steps step to increase tree price\n     * @param _increaseRatio increment price rate\n     */\n\n    function addTreeSells(\n        uint256 _startTree,\n        uint256 _initialPrice,\n        uint64 _treeCount,\n        uint64 _steps,\n        uint64 _increaseRatio\n    ) external onlyDataManager {\n        require(_treeCount > 0, \"assign at least one tree\");\n        require(_startTree > 100, \"trees are under Auction\");\n        require(_steps > 0, \"incremental period should be positive\");\n        require(\n            financialModel.distributionModelExistance(_startTree),\n            \"equivalant fund Model not exists\"\n        );\n\n        IncrementalPrice storage incrPrice = incrementalPrice;\n\n        if (incrPrice.increaseStep > 0) {\n            treeFactory.bulkRevert(incrPrice.startTree, incrPrice.endTree);\n        }\n\n        require(\n            treeFactory.manageProvideStatus(\n                _startTree,\n                _startTree + _treeCount,\n                2\n            ),\n            \"trees are not available for sell\"\n        );\n\n        incrPrice.startTree = _startTree;\n        incrPrice.endTree = _startTree + _treeCount;\n        incrPrice.initialPrice = _initialPrice;\n        incrPrice.increaseStep = _steps;\n        incrPrice.increaseRatio = _increaseRatio;\n\n        lastSold = _startTree - 1;\n\n        emit IncrementalSellUpdated();\n    }\n\n    /**\n     * @dev admin add {treeCount} tree at the end of incremental sell tree range\n     * @param _treeCount number of trees added at the end of the incremental sell\n     * tree range\n     */\n    function updateIncrementalEnd(uint256 _treeCount) external onlyDataManager {\n        IncrementalPrice storage incrPrice = incrementalPrice;\n        require(\n            incrPrice.increaseStep > 0,\n            \"incremental period should be positive\"\n        );\n        require(\n            treeFactory.manageProvideStatus(\n                incrPrice.endTree,\n                incrPrice.endTree + _treeCount,\n                2\n            ),\n            \"trees are not available for sell\"\n        );\n        incrPrice.endTree = incrPrice.endTree + _treeCount;\n\n        emit IncrementalSellUpdated();\n    }\n\n    //TODO:ADD_COMMENTS\n    function buyTree(uint256 _count, address _referrer) external ifNotPaused {\n        require(_count < 101 && _count > 0, \"Count must be lt 100\");\n\n        IncrementalPrice storage incPrice = incrementalPrice;\n\n        require(\n            lastSold + _count < incPrice.endTree,\n            \"Not enough tree in incremental sell\"\n        );\n\n        uint256 treeId = lastSold + 1;\n\n        uint256 y = (treeId - incPrice.startTree) / incPrice.increaseStep;\n\n        uint256 z = (y + 1) *\n            incPrice.increaseStep +\n            incPrice.startTree -\n            treeId;\n\n        uint256 nowPrice = incPrice.initialPrice +\n            (y * incPrice.initialPrice * incPrice.increaseRatio) /\n            10000;\n\n        uint256 totalPrice = _count * nowPrice;\n\n        int256 extra = int256(_count) - int256(z);\n\n        while (extra > 0) {\n            totalPrice +=\n                (uint256(extra) *\n                    incPrice.initialPrice *\n                    incPrice.increaseRatio) /\n                10000;\n            extra -= int64(incPrice.increaseStep);\n        }\n\n        //transfer totalPrice to wethFunds\n        require(\n            wethToken.balanceOf(_msgSender()) >= totalPrice,\n            \"low price paid\"\n        );\n\n        bool success = wethToken.transferFrom(\n            _msgSender(),\n            address(wethFunds),\n            totalPrice\n        );\n\n        require(success, \"unsuccessful transfer\");\n\n        treeId = _calcTotal(\n            treeId,\n            _count,\n            _msgSender(),\n            _referrer,\n            totalPrice\n        );\n\n        lastSold = treeId - 1;\n\n        emit IncrementalTreeSold(\n            _msgSender(),\n            _referrer,\n            treeId - _count,\n            _count\n        );\n    }\n\n    //TODO:ADD_COMMENTS\n    function claimTreeAttributes(uint256 _startTree, uint256 _count) external {\n        uint256 treeId = _startTree;\n        for (uint256 i = 0; i < _count; i++) {\n            treeId = _startTree + i;\n\n            (bool ms, bytes32 randTree) = treeFactory.checkMintStatus(\n                treeId,\n                _msgSender()\n            );\n\n            require(ms, \"no need to tree attributes\");\n\n            treeAttribute.createTreeAttributes(treeId, randTree, _msgSender());\n        }\n    }\n\n    /** @dev admin can update incrementalPrice\n     * @param _initialPrice initialPrice of trees\n     * @param _increaseStep step to increase tree price\n     * @param _increaseRatio increment price rate\n     */\n    function updateIncrementalRates(\n        uint256 _initialPrice,\n        uint64 _increaseStep,\n        uint64 _increaseRatio\n    ) external onlyDataManager {\n        require(_increaseStep > 0, \"incremental period should be positive\");\n\n        IncrementalPrice storage incrPrice = incrementalPrice;\n\n        incrPrice.initialPrice = _initialPrice;\n        incrPrice.increaseStep = _increaseStep;\n        incrPrice.increaseRatio = _increaseRatio;\n\n        emit IncrementalRatesUpdated();\n    }\n\n    function _calcTotal(\n        uint256 _startTreeId,\n        uint256 _count,\n        address _buyer,\n        address _referrer,\n        uint256 _totalPrice\n    ) private returns (uint256) {\n        IncrementalPrice storage incPrice = incrementalPrice;\n\n        FundDistribution memory totalFunds;\n\n        uint256 treeId = _startTreeId;\n\n        totalFunds.buyer = _buyer;\n\n        for (uint256 i = 0; i < _count; i++) {\n            uint256 steps = (treeId - incPrice.startTree) /\n                incPrice.increaseStep;\n\n            uint256 treePrice = incPrice.initialPrice +\n                (steps * incPrice.initialPrice * incPrice.increaseRatio) /\n                10000;\n\n            (\n                uint16 planterFund,\n                uint16 referralFund,\n                uint16 treeResearch,\n                uint16 localDevelop,\n                uint16 rescueFund,\n                uint16 treejerDevelop,\n                uint16 reserveFund1,\n                uint16 reserveFund2\n            ) = financialModel.findTreeDistribution(treeId);\n\n            totalFunds.planterFund += (treePrice * planterFund) / 10000;\n            totalFunds.referralFund += (treePrice * referralFund) / 10000;\n            totalFunds.treeResearch += (treePrice * treeResearch) / 10000;\n            totalFunds.localDevelop += (treePrice * localDevelop) / 10000;\n            totalFunds.rescueFund += (treePrice * rescueFund) / 10000;\n            totalFunds.treejerDevelop += (treePrice * treejerDevelop) / 10000;\n            totalFunds.reserveFund1 += (treePrice * reserveFund1) / 10000;\n            totalFunds.reserveFund2 += (treePrice * reserveFund2) / 10000;\n\n            treeFactory.updateOwner(treeId, totalFunds.buyer, 1);\n\n            treeId += 1;\n        }\n\n        uint256 daiAmount = wethFunds.incrementalFund(\n            totalFunds.planterFund,\n            totalFunds.referralFund,\n            totalFunds.treeResearch,\n            totalFunds.localDevelop,\n            totalFunds.rescueFund,\n            totalFunds.treejerDevelop,\n            totalFunds.reserveFund1,\n            totalFunds.reserveFund2\n        );\n\n        _func3(\n            _startTreeId,\n            _count,\n            daiAmount,\n            totalFunds.planterFund,\n            totalFunds.referralFund,\n            _totalPrice\n        );\n\n        if (_referrer != address(0)) {\n            regularSell.updateGenesisReferrerGift(_referrer, _count);\n        }\n\n        return treeId;\n    }\n\n    function _func3(\n        uint256 _startTreeId,\n        uint256 _count,\n        uint256 _daiAmount,\n        uint256 _planterFund,\n        uint256 _referralFund,\n        uint256 _totalPrice\n    ) private {\n        uint256 planterDai = (_daiAmount * _planterFund) /\n            (_planterFund + _referralFund);\n\n        uint256 referralDai = (_daiAmount * _referralFund) /\n            (_planterFund + _referralFund);\n\n        IncrementalPrice storage incPrice = incrementalPrice;\n\n        uint256 treeId = _startTreeId;\n\n        for (uint256 i = 0; i < _count; i++) {\n            uint256 steps = (treeId - incPrice.startTree) /\n                incPrice.increaseStep;\n\n            uint256 treePrice = incPrice.initialPrice +\n                (steps * incPrice.initialPrice * incPrice.increaseRatio) /\n                10000;\n\n            planterFundContract.setPlanterFunds(\n                treeId,\n                (planterDai * treePrice) / _totalPrice,\n                (referralDai * treePrice) / _totalPrice\n            );\n\n            treeId += 1;\n        }\n    }\n}\n",
  "sourcePath": "/media/ali/New Volume/treejer/contract/contracts/incrementalSell/IncrementalSell.sol",
  "compiler": {
    "name": "solc",
    "version": "0.8.6+commit.11564f7e.Emscripten.clang"
  },
  "schemaVersion": "3.4.1",
  "updatedAt": "2021-09-22T14:00:12.097Z",
  "networkType": "ethereum",
  "devdoc": {
    "kind": "dev",
    "methods": {
      "addTreeSells(uint256,uint256,uint64,uint64,uint64)": {
        "details": "admin set a range from {startTree} to {startTree + treeCount} for incremental selles for tree",
        "params": {
          "_increaseRatio": "increment price rate",
          "_initialPrice": "initialPrice of trees",
          "_startTree": "starting treeId",
          "_steps": "step to increase tree price",
          "_treeCount": "number of tree in incremental sell"
        }
      },
      "initialize(address)": {
        "details": "initialize accessRestriction contract and set true for isIncrementalSell",
        "params": {
          "_accessRestrictionAddress": "set to the address of accessRestriction contract"
        }
      },
      "setFinancialModelAddress(address)": {
        "details": "admin set FinancialModelAddress",
        "params": {
          "_address": "set to the address of financialModel"
        }
      },
      "setPlanterFundAddress(address)": {
        "details": "admin set PlanterFundAddress",
        "params": {
          "_address": "set to the address of PlanterFund"
        }
      },
      "setTreeAttributesAddress(address)": {
        "details": "admin set TreeAttributesAddress",
        "params": {
          "_address": "set to the address of treeAttribute"
        }
      },
      "setTreeFactoryAddress(address)": {
        "details": "admin set TreeFactory contract address",
        "params": {
          "_address": "TreeFactory contract address"
        }
      },
      "setTrustedForwarder(address)": {
        "details": "admin set trusted forwarder address",
        "params": {
          "_address": "set to {trustedForwarder}"
        }
      },
      "setWethFundsAddress(address)": {
        "details": "admin set wethFunds contract address",
        "params": {
          "_address": "wethFunds contract address"
        }
      },
      "setWethTokenAddress(address)": {
        "details": "admin set wethToken contract address",
        "params": {
          "_address": "wethToken contract address"
        }
      },
      "updateIncrementalEnd(uint256)": {
        "details": "admin add {treeCount} tree at the end of incremental sell tree range",
        "params": {
          "_treeCount": "number of trees added at the end of the incremental sell tree range"
        }
      },
      "updateIncrementalRates(uint256,uint64,uint64)": {
        "details": "admin can update incrementalPrice",
        "params": {
          "_increaseRatio": "increment price rate",
          "_increaseStep": "step to increase tree price",
          "_initialPrice": "initialPrice of trees"
        }
      },
      "versionRecipient()": {
        "details": "return version recipient "
      }
    },
    "version": 1
  },
  "userdoc": {
    "events": {
      "IncrementalTreeSold(address,address,uint256,uint256)": {
        "notice": "NOTE mapping of buyer address to lastBuy time "
      }
    },
    "kind": "user",
    "methods": {
      "incrementalPrice()": {
        "notice": "NOTE {incrementalPrice} is struct of IncrementalPrice that store startTree, endTree, initialPrice, increaseStep, increaseRatio values"
      },
      "isIncrementalSell()": {
        "notice": "NOTE {isIncrementalSell} set inside the initialize to {true} "
      },
      "isTrustedForwarder(address)": {
        "notice": "return if the forwarder is trusted to forward relayed transactions to us. the forwarder is required to verify the sender's signature, and verify the call is not a replay."
      }
    },
    "version": 1
  }
}