{
  "contractName": "PlanterFund",
  "abi": [
    {
      "anonymous": false,
      "inputs": [
        {
          "indexed": false,
          "internalType": "uint256",
          "name": "amount",
          "type": "uint256"
        },
        {
          "indexed": false,
          "internalType": "address",
          "name": "account",
          "type": "address"
        }
      ],
      "name": "PlanterBalanceWithdrawn",
      "type": "event"
    },
    {
      "anonymous": false,
      "inputs": [
        {
          "indexed": false,
          "internalType": "uint256",
          "name": "treeId",
          "type": "uint256"
        },
        {
          "indexed": false,
          "internalType": "uint256",
          "name": "planterAmount",
          "type": "uint256"
        },
        {
          "indexed": false,
          "internalType": "uint256",
          "name": "referralAmount",
          "type": "uint256"
        }
      ],
      "name": "PlanterFundSet",
      "type": "event"
    },
    {
      "anonymous": false,
      "inputs": [
        {
          "indexed": false,
          "internalType": "uint256",
          "name": "treeId",
          "type": "uint256"
        },
        {
          "indexed": false,
          "internalType": "address",
          "name": "planterId",
          "type": "address"
        },
        {
          "indexed": false,
          "internalType": "uint256",
          "name": "amount",
          "type": "uint256"
        },
        {
          "indexed": false,
          "internalType": "address",
          "name": "referral",
          "type": "address"
        }
      ],
      "name": "PlanterFunded",
      "type": "event"
    },
    {
      "anonymous": false,
      "inputs": [],
      "name": "WithdrawThresholdSet",
      "type": "event"
    },
    {
      "inputs": [],
      "name": "accessRestriction",
      "outputs": [
        {
          "internalType": "contract IAccessRestriction",
          "name": "",
          "type": "address"
        }
      ],
      "stateMutability": "view",
      "type": "function",
      "constant": true
    },
    {
      "inputs": [
        {
          "internalType": "address",
          "name": "",
          "type": "address"
        }
      ],
      "name": "balances",
      "outputs": [
        {
          "internalType": "uint256",
          "name": "",
          "type": "uint256"
        }
      ],
      "stateMutability": "view",
      "type": "function",
      "constant": true
    },
    {
      "inputs": [],
      "name": "daiToken",
      "outputs": [
        {
          "internalType": "contract IERC20Upgradeable",
          "name": "",
          "type": "address"
        }
      ],
      "stateMutability": "view",
      "type": "function",
      "constant": true
    },
    {
      "inputs": [],
      "name": "isPlanterFund",
      "outputs": [
        {
          "internalType": "bool",
          "name": "",
          "type": "bool"
        }
      ],
      "stateMutability": "view",
      "type": "function",
      "constant": true
    },
    {
      "inputs": [
        {
          "internalType": "address",
          "name": "forwarder",
          "type": "address"
        }
      ],
      "name": "isTrustedForwarder",
      "outputs": [
        {
          "internalType": "bool",
          "name": "",
          "type": "bool"
        }
      ],
      "stateMutability": "view",
      "type": "function",
      "constant": true
    },
    {
      "inputs": [],
      "name": "planterContract",
      "outputs": [
        {
          "internalType": "contract IPlanter",
          "name": "",
          "type": "address"
        }
      ],
      "stateMutability": "view",
      "type": "function",
      "constant": true
    },
    {
      "inputs": [
        {
          "internalType": "uint256",
          "name": "",
          "type": "uint256"
        }
      ],
      "name": "planterFunds",
      "outputs": [
        {
          "internalType": "uint256",
          "name": "",
          "type": "uint256"
        }
      ],
      "stateMutability": "view",
      "type": "function",
      "constant": true
    },
    {
      "inputs": [
        {
          "internalType": "uint256",
          "name": "",
          "type": "uint256"
        }
      ],
      "name": "plantersPaid",
      "outputs": [
        {
          "internalType": "uint256",
          "name": "",
          "type": "uint256"
        }
      ],
      "stateMutability": "view",
      "type": "function",
      "constant": true
    },
    {
      "inputs": [
        {
          "internalType": "uint256",
          "name": "",
          "type": "uint256"
        }
      ],
      "name": "referralFunds",
      "outputs": [
        {
          "internalType": "uint256",
          "name": "",
          "type": "uint256"
        }
      ],
      "stateMutability": "view",
      "type": "function",
      "constant": true
    },
    {
      "inputs": [],
      "name": "totalFunds",
      "outputs": [
        {
          "internalType": "uint256",
          "name": "planterFund",
          "type": "uint256"
        },
        {
          "internalType": "uint256",
          "name": "referralFund",
          "type": "uint256"
        },
        {
          "internalType": "uint256",
          "name": "localDevelop",
          "type": "uint256"
        }
      ],
      "stateMutability": "view",
      "type": "function",
      "constant": true
    },
    {
      "inputs": [],
      "name": "trustedForwarder",
      "outputs": [
        {
          "internalType": "address",
          "name": "",
          "type": "address"
        }
      ],
      "stateMutability": "view",
      "type": "function",
      "constant": true
    },
    {
      "inputs": [],
      "name": "versionRecipient",
      "outputs": [
        {
          "internalType": "string",
          "name": "",
          "type": "string"
        }
      ],
      "stateMutability": "pure",
      "type": "function",
      "constant": true
    },
    {
      "inputs": [],
      "name": "withdrawThreshold",
      "outputs": [
        {
          "internalType": "uint256",
          "name": "",
          "type": "uint256"
        }
      ],
      "stateMutability": "view",
      "type": "function",
      "constant": true
    },
    {
      "inputs": [
        {
          "internalType": "address",
          "name": "_accessRestrictionAddress",
          "type": "address"
        }
      ],
      "name": "initialize",
      "outputs": [],
      "stateMutability": "nonpayable",
      "type": "function"
    },
    {
      "inputs": [
        {
          "internalType": "address",
          "name": "_address",
          "type": "address"
        }
      ],
      "name": "setTrustedForwarder",
      "outputs": [],
      "stateMutability": "nonpayable",
      "type": "function"
    },
    {
      "inputs": [
        {
          "internalType": "address",
          "name": "_address",
          "type": "address"
        }
      ],
      "name": "setPlanterContractAddress",
      "outputs": [],
      "stateMutability": "nonpayable",
      "type": "function"
    },
    {
      "inputs": [
        {
          "internalType": "address",
          "name": "_address",
          "type": "address"
        }
      ],
      "name": "setDaiTokenAddress",
      "outputs": [],
      "stateMutability": "nonpayable",
      "type": "function"
    },
    {
      "inputs": [
        {
          "internalType": "uint256",
          "name": "_amount",
          "type": "uint256"
        }
      ],
      "name": "setWithdrawThreshold",
      "outputs": [],
      "stateMutability": "nonpayable",
      "type": "function"
    },
    {
      "inputs": [
        {
          "internalType": "uint256",
          "name": "_treeId",
          "type": "uint256"
        },
        {
          "internalType": "uint256",
          "name": "_planterFund",
          "type": "uint256"
        },
        {
          "internalType": "uint256",
          "name": "_referralFund",
          "type": "uint256"
        }
      ],
      "name": "setPlanterFunds",
      "outputs": [],
      "stateMutability": "nonpayable",
      "type": "function"
    },
    {
      "inputs": [
        {
          "internalType": "uint256",
          "name": "_treeId",
          "type": "uint256"
        },
        {
          "internalType": "address",
          "name": "_planterId",
          "type": "address"
        },
        {
          "internalType": "uint64",
          "name": "_treeStatus",
          "type": "uint64"
        }
      ],
      "name": "fundPlanter",
      "outputs": [],
      "stateMutability": "nonpayable",
      "type": "function"
    },
    {
      "inputs": [
        {
          "internalType": "uint256",
          "name": "_amount",
          "type": "uint256"
        }
      ],
      "name": "withdrawPlanterBalance",
      "outputs": [],
      "stateMutability": "nonpayable",
      "type": "function"
    }
  ],
  "bytecode": "0x608060405234801561001057600080fd5b50611227806100206000396000f3fe608060405234801561001057600080fd5b50600436106101375760003560e01c8063a305cdee116100b8578063da7422281161007c578063da74222814610315578063eec2a20314610328578063f1326b151461033b578063f4ee266c1461034e578063fa9ee5031461036e578063feefd7dd1461038157600080fd5b8063a305cdee146102a9578063be22f546146102bc578063c4d66de8146102cf578063d49fa06b146102e2578063d6762c4a1461030257600080fd5b8063486ff0cd116100ff578063486ff0cd146101f3578063572b6c0514610232578063760ee4c61461025a5780637da0a87714610263578063968ed6001461027c57600080fd5b806327e235e31461013c578063349904da1461016f578063375b4270146101935780633ad7c33b146101be57806341ceea17146101d3575b600080fd5b61015c61014a366004610fdb565b600b6020526000908152604090205481565b6040519081526020015b60405180910390f35b60005461018390600160b01b900460ff1681565b6040519015158152602001610166565b6003546101a6906001600160a01b031681565b6040516001600160a01b039091168152602001610166565b6101d16101cc3660046110d2565b610394565b005b61015c6101e136600461106a565b60086020526000908152604090205481565b604080518082018252601d81527f322e322e302b747265656a65722e6972656c6179726563697069656e740000006020820152905161016691906110fe565b610183610240366004610fdb565b6000546201000090046001600160a01b0390811691161490565b61015c60015481565b6000546101a6906201000090046001600160a01b031681565b60055460065460075461028e92919083565b60408051938452602084019290925290820152606001610166565b6101d16102b7366004611083565b61049b565b6004546101a6906001600160a01b031681565b6101d16102dd366004610fdb565b610861565b61015c6102f036600461106a565b60096020526000908152604090205481565b6002546101a6906001600160a01b031681565b6101d1610323366004610fdb565b6109d4565b6101d161033636600461106a565b610ab9565b6101d1610349366004610fdb565b610d11565b61015c61035c36600461106a565b600a6020526000908152604090205481565b6101d161037c366004610fdb565b610dee565b6101d161038f36600461106a565b610f00565b6002546001600160a01b031663ebe6a6f36103ad610f8c565b6040516001600160e01b031960e084901b1681526001600160a01b03909116600482015260240160006040518083038186803b1580156103ec57600080fd5b505afa158015610400573d6000803e3d6000fd5b50505060008481526008602090815260408083208690556009909152812083905560058054859350909190610436908490611153565b909155505060068054829190600090610450908490611153565b909155505060408051848152602081018490529081018290527f91cb2b90dd382c925b55f1de5ee5e1a6857556cea6fc7259a161bb7e68a865de9060600160405180910390a1505050565b6002546001600160a01b031663ebe6a6f36104b4610f8c565b6040516001600160e01b031960e084901b1681526001600160a01b03909116600482015260240160006040518083038186803b1580156104f357600080fd5b505afa158015610507573d6000803e3d6000fd5b505050600084815260086020526040902054151590506105675760405162461bcd60e51b81526020600482015260166024820152751c1b185b9d195c88199d5b99081b9bdd08195e1a5cdd60521b60448201526064015b60405180910390fd5b600354604051632293869960e21b81526001600160a01b0384811660048301526000928392839283921690638a4e1a649060240160806040518083038186803b1580156105b357600080fd5b505afa1580156105c7573d6000803e3d6000fd5b505050506040513d601f19601f820116820180604052508101906105eb919061101a565b935093509350935083156108585760006165408667ffffffffffffffff16111561063b576000888152600a602090815260408083205460089092529091205461063491906111ac565b9050610686565b6000888152600a60209081526040808320546008909252909120546165409061066f9067ffffffffffffffff8a169061118d565b610679919061116b565b61068391906111ac565b90505b80156108565760008881526008602090815260408083205460099092528220546106b190849061118d565b6106bb919061116b565b905080600560010160008282546106d291906111ac565b90915550506001600160a01b0384166107055780600560020160008282546106fa9190611153565b909155506107339050565b6001600160a01b0384166000908152600b60205260408120805483929061072d908490611153565b90915550505b816005600001600082825461074891906111ac565b9091555061271090508061075c85826111ac565b610766908561118d565b610770919061116b565b6001600160a01b0387166000908152600b602052604081208054909190610798908490611153565b909155505060008a8152600a6020526040812080548592906107bb908490611153565b909155508190506107cc858561118d565b6107d6919061116b565b6001600160a01b038a166000908152600b6020526040812080549091906107fe908490611153565b9091555050604080518b81526001600160a01b038b811660208301528183018690528716606082015290517f3fc2758ae769e70b212df9d2e91fc7071f1e21c107d75835cb2f99794a8a43539181900360800190a150505b505b50505050505050565b600054610100900460ff168061087a575060005460ff16155b6108dd5760405162461bcd60e51b815260206004820152602e60248201527f496e697469616c697a61626c653a20636f6e747261637420697320616c72656160448201526d191e481a5b9a5d1a585b1a5e995960921b606482015260840161055e565b600054610100900460ff161580156108ff576000805461ffff19166101011790555b6000829050806001600160a01b031663ba84fd696040518163ffffffff1660e01b815260040160206040518083038186803b15801561093d57600080fd5b505afa158015610951573d6000803e3d6000fd5b505050506040513d601f19601f820116820180604052508101906109759190610fff565b61097e57600080fd5b6000805460ff60b01b1916600160b01b1790556706f05b59d3b20000600155600280546001600160a01b039092166001600160a01b031990921691909117905580156109d0576000805461ff00191690555b5050565b6002546001600160a01b0316638413ec146109ed610f8c565b6040516001600160e01b031960e084901b1681526001600160a01b03909116600482015260240160006040518083038186803b158015610a2c57600080fd5b505afa158015610a40573d6000803e3d6000fd5b5083925050506001600160a01b038116610a8e5760405162461bcd60e51b815260206004820152600f60248201526e696e76616c6964206164647265737360881b604482015260640161055e565b50600080546001600160a01b03909216620100000262010000600160b01b0319909216919091179055565b600260009054906101000a90046001600160a01b03166001600160a01b0316634d868f986040518163ffffffff1660e01b815260040160006040518083038186803b158015610b0757600080fd5b505afa158015610b1b573d6000803e3d6000fd5b50505050600b6000610b2b610f8c565b6001600160a01b03166001600160a01b03168152602001908152602001600020548111158015610b5d57506001548110155b610b9f5760405162461bcd60e51b81526020600482015260136024820152721a5b9cdd59999a58da595b9d08185b5bdd5b9d606a1b604482015260640161055e565b80600b6000610bac610f8c565b6001600160a01b03166001600160a01b031681526020019081526020016000206000828254610bdb91906111ac565b90915550506004546000906001600160a01b031663a9059cbb610bfc610f8c565b6040516001600160e01b031960e084901b1681526001600160a01b03909116600482015260248101859052604401602060405180830381600087803b158015610c4457600080fd5b505af1158015610c58573d6000803e3d6000fd5b505050506040513d601f19601f82011682018060405250810190610c7c9190610fff565b905080610cc35760405162461bcd60e51b81526020600482015260156024820152743ab739bab1b1b2b9b9b33ab6103a3930b739b332b960591b604482015260640161055e565b7fb5548ad4dc15f51b16bc62fa1801c6ddb9ab76c808358661dcb78ae1ac37745682610ced610f8c565b604080519283526001600160a01b0390911660208301520160405180910390a15050565b6002546001600160a01b0316638413ec14610d2a610f8c565b6040516001600160e01b031960e084901b1681526001600160a01b03909116600482015260240160006040518083038186803b158015610d6957600080fd5b505afa158015610d7d573d6000803e3d6000fd5b5083925050506001600160a01b038116610dcb5760405162461bcd60e51b815260206004820152600f60248201526e696e76616c6964206164647265737360881b604482015260640161055e565b50600480546001600160a01b0319166001600160a01b0392909216919091179055565b6002546001600160a01b0316638413ec14610e07610f8c565b6040516001600160e01b031960e084901b1681526001600160a01b03909116600482015260240160006040518083038186803b158015610e4657600080fd5b505afa158015610e5a573d6000803e3d6000fd5b505050506000819050806001600160a01b03166303dc8deb6040518163ffffffff1660e01b815260040160206040518083038186803b158015610e9c57600080fd5b505afa158015610eb0573d6000803e3d6000fd5b505050506040513d601f19601f82011682018060405250810190610ed49190610fff565b610edd57600080fd5b600380546001600160a01b0319166001600160a01b039290921691909117905550565b60025460405163c4d2a31b60e01b81523360048201526001600160a01b039091169063c4d2a31b9060240160006040518083038186803b158015610f4357600080fd5b505afa158015610f57573d6000803e3d6000fd5b5050506001829055506040517fb3283330a97950f20ea334132e8f3cbebfc3adc1c07f9d64f281cfeb408b8bcb90600090a150565b600060143610801590610faf57506000546201000090046001600160a01b031633145b15610fc1575060131936013560601c90565b503390565b80518015158114610fd657600080fd5b919050565b600060208284031215610fed57600080fd5b8135610ff8816111d9565b9392505050565b60006020828403121561101157600080fd5b610ff882610fc6565b6000806000806080858703121561103057600080fd5b61103985610fc6565b93506020850151611049816111d9565b604086015190935061105a816111d9565b6060959095015193969295505050565b60006020828403121561107c57600080fd5b5035919050565b60008060006060848603121561109857600080fd5b8335925060208401356110aa816111d9565b9150604084013567ffffffffffffffff811681146110c757600080fd5b809150509250925092565b6000806000606084860312156110e757600080fd5b505081359360208301359350604090920135919050565b600060208083528351808285015260005b8181101561112b5785810183015185820160400152820161110f565b8181111561113d576000604083870101525b50601f01601f1916929092016040019392505050565b60008219821115611166576111666111c3565b500190565b60008261118857634e487b7160e01b600052601260045260246000fd5b500490565b60008160001904831182151516156111a7576111a76111c3565b500290565b6000828210156111be576111be6111c3565b500390565b634e487b7160e01b600052601160045260246000fd5b6001600160a01b03811681146111ee57600080fd5b5056fea264697066735822122010e88610f70b91efd7a8918204d2a22933d9a36a14f71530e77a8a35be01814664736f6c63430008060033",
  "immutableReferences": {},
  "source": "// SPDX-License-Identifier: MIT\n\npragma solidity ^0.8.6;\n\nimport \"@openzeppelin/contracts-upgradeable/utils/CountersUpgradeable.sol\";\nimport \"@openzeppelin/contracts-upgradeable/proxy/utils/Initializable.sol\";\nimport \"@openzeppelin/contracts-upgradeable/token/ERC20/IERC20Upgradeable.sol\";\n\nimport \"../access/IAccessRestriction.sol\";\nimport \"../planter/IPlanter.sol\";\nimport \"../gsn/RelayRecipient.sol\";\n\n/** @title PlanterFund Contract */\n\ncontract PlanterFund is Initializable, RelayRecipient {\n    /** NOTE {isPlanterFund} set inside the initialize to {true} */\n    bool public isPlanterFund;\n    uint256 public withdrawThreshold;\n\n    IAccessRestriction public accessRestriction;\n    IPlanter public planterContract;\n    IERC20Upgradeable public daiToken;\n\n    struct TotalFunds {\n        uint256 planterFund;\n        uint256 referralFund;\n        uint256 localDevelop;\n    }\n\n    /** NOTE {totalFunds} is struct of TotalFund that keep total share of\n     * planterFund, referralFund, localDevelop\n     */\n    TotalFunds public totalFunds;\n\n    /** NOTE mapping of treeId to planterFunds*/\n    mapping(uint256 => uint256) public planterFunds;\n\n    /** NOTE mapping of treeId to referralFunds*/\n    mapping(uint256 => uint256) public referralFunds;\n\n    /** NOTE  mpping of treeId to planterPaid balance*/\n    mapping(uint256 => uint256) public plantersPaid;\n\n    /** NOTE mapping of planter address to planter balance*/\n    mapping(address => uint256) public balances;\n\n    event PlanterFunded(\n        uint256 treeId,\n        address planterId,\n        uint256 amount,\n        address referral\n    );\n    event PlanterBalanceWithdrawn(uint256 amount, address account);\n    event PlanterFundSet(\n        uint256 treeId,\n        uint256 planterAmount,\n        uint256 referralAmount\n    );\n\n    event WithdrawThresholdSet();\n\n    /** NOTE modifier to check msg.sender has admin role */\n    modifier onlyAdmin() {\n        accessRestriction.ifAdmin(_msgSender());\n        _;\n    }\n\n    /** NOTE modifier to check msg.sender has data manager role */\n    modifier onlyDataManager() {\n        accessRestriction.ifDataManager(msg.sender);\n        _;\n    }\n\n    /** NOTE modifier for check if function is not paused*/\n    modifier ifNotPaused() {\n        accessRestriction.ifNotPaused();\n        _;\n    }\n\n    /** NOTE modifier for check msg.sender has TreejerContract role */\n    modifier onlyTreejerContract() {\n        accessRestriction.ifTreejerContract(_msgSender());\n        _;\n    }\n\n    /** NOTE modifier for check valid address */\n    modifier validAddress(address _address) {\n        require(_address != address(0), \"invalid address\");\n        _;\n    }\n\n    /**\n     * @dev initialize accessRestriction contract and set true for isPlanterFund\n     * @param _accessRestrictionAddress set to the address of accessRestriction contract\n     */\n    function initialize(address _accessRestrictionAddress)\n        external\n        initializer\n    {\n        IAccessRestriction candidateContract = IAccessRestriction(\n            _accessRestrictionAddress\n        );\n\n        require(candidateContract.isAccessRestriction());\n\n        isPlanterFund = true;\n        withdrawThreshold = .5 ether;\n        accessRestriction = candidateContract;\n    }\n\n    /**\n     * @dev set trusted forwarder address\n     * @param _address set to {trustedForwarder}\n     */\n    function setTrustedForwarder(address _address)\n        external\n        onlyAdmin\n        validAddress(_address)\n    {\n        trustedForwarder = _address;\n    }\n\n    /**\n     * @dev admin set Planter contract address\n     * @param _address set to the address of Planter contract\n     */\n    function setPlanterContractAddress(address _address) external onlyAdmin {\n        IPlanter candidateContract = IPlanter(_address);\n        require(candidateContract.isPlanter());\n        planterContract = candidateContract;\n    }\n\n    /**\n     * @dev admin set DaiToken contract address\n     * @param _address set to the address of DaiToken contract\n     */\n    function setDaiTokenAddress(address _address)\n        external\n        onlyAdmin\n        validAddress(_address)\n    {\n        IERC20Upgradeable candidateContract = IERC20Upgradeable(_address);\n        daiToken = candidateContract;\n    }\n\n    /** @dev admin can set the minimum amount to withdraw\n     * @param _amount is withdraw treshold\n     */\n    function setWithdrawThreshold(uint256 _amount) external onlyDataManager {\n        withdrawThreshold = _amount;\n\n        emit WithdrawThresholdSet();\n    }\n\n    /**\n     * @dev set planterFunds and refferalFunds of a tree with id {_treeId}\n     * and add {_planterFund} to planterFund part of totalFunds and add\n     * {_referralFund} to referralFund part of totalFunds\n     */\n    function setPlanterFunds(\n        uint256 _treeId,\n        uint256 _planterFund,\n        uint256 _referralFund\n    ) external onlyTreejerContract {\n        planterFunds[_treeId] = _planterFund;\n        referralFunds[_treeId] = _referralFund;\n\n        totalFunds.planterFund += _planterFund;\n        totalFunds.referralFund += _referralFund;\n\n        emit PlanterFundSet(_treeId, _planterFund, _referralFund);\n    }\n\n    /**\n     * @dev based on the {_treeStatus} planter charged in every tree update verifying\n     * @param _treeId id of a tree to fund\n     * @param _planterId  address of planter to fund\n     * @param _treeStatus status of tree\n     */\n\n    function fundPlanter(\n        uint256 _treeId,\n        address _planterId,\n        uint64 _treeStatus\n    ) external onlyTreejerContract {\n        require(planterFunds[_treeId] > 0, \"planter fund not exist\");\n\n        (\n            bool getBool,\n            address gottenOrganizationAddress,\n            address gottenReferralAddress,\n            uint256 gottenPortion\n        ) = planterContract.getPlanterPaymentPortion(_planterId);\n\n        if (getBool) {\n            uint256 totalPayablePlanter;\n\n            if (_treeStatus > 25920) {\n                //25920 = 30 * 24 * 36\n\n                totalPayablePlanter =\n                    planterFunds[_treeId] -\n                    plantersPaid[_treeId];\n            } else {\n                totalPayablePlanter =\n                    ((planterFunds[_treeId] * _treeStatus) / 25920) -\n                    plantersPaid[_treeId];\n            }\n\n            if (totalPayablePlanter > 0) {\n                uint256 totalPayableRefferal = (referralFunds[_treeId] *\n                    totalPayablePlanter) / planterFunds[_treeId];\n\n                //referral calculation section\n\n                totalFunds.referralFund -= totalPayableRefferal;\n\n                if (gottenReferralAddress == address(0)) {\n                    totalFunds.localDevelop += totalPayableRefferal;\n                } else {\n                    balances[gottenReferralAddress] += totalPayableRefferal;\n                }\n\n                totalFunds.planterFund -= totalPayablePlanter;\n\n                //Organization calculation section\n                uint256 fullPortion = 10000;\n\n                balances[gottenOrganizationAddress] +=\n                    (totalPayablePlanter * (fullPortion - gottenPortion)) /\n                    fullPortion;\n\n                //planter calculation section\n\n                plantersPaid[_treeId] += totalPayablePlanter;\n\n                balances[_planterId] +=\n                    (totalPayablePlanter * gottenPortion) /\n                    fullPortion;\n\n                emit PlanterFunded(\n                    _treeId,\n                    _planterId,\n                    totalPayablePlanter,\n                    gottenReferralAddress\n                );\n            }\n        }\n    }\n\n    /**\n     * @dev planter withdraw {_amount} from planter's balances in case of\n     * valid {_amount} and daiToken transfer to planters address (to msgSender())\n     * @param _amount amount to withdraw\n     */\n    function withdrawPlanterBalance(uint256 _amount) external ifNotPaused {\n        require(\n            _amount <= balances[_msgSender()] && _amount >= withdrawThreshold,\n            \"insufficient amount\"\n        );\n\n        balances[_msgSender()] -= _amount;\n\n        bool success = daiToken.transfer(_msgSender(), _amount);\n\n        require(success, \"unsuccessful transfer\");\n\n        emit PlanterBalanceWithdrawn(_amount, _msgSender());\n    }\n}\n",
  "sourcePath": "/media/ali/New Volume/treejer/contract/contracts/treasury/PlanterFund.sol",
  "compiler": {
    "name": "solc",
    "version": "0.8.6+commit.11564f7e.Emscripten.clang"
  },
  "schemaVersion": "3.4.1",
  "updatedAt": "2021-09-22T14:04:28.861Z",
  "networkType": "ethereum",
  "devdoc": {
    "kind": "dev",
    "methods": {
      "fundPlanter(uint256,address,uint64)": {
        "details": "based on the {_treeStatus} planter charged in every tree update verifying",
        "params": {
          "_planterId": "address of planter to fund",
          "_treeId": "id of a tree to fund",
          "_treeStatus": "status of tree"
        }
      },
      "initialize(address)": {
        "details": "initialize accessRestriction contract and set true for isPlanterFund",
        "params": {
          "_accessRestrictionAddress": "set to the address of accessRestriction contract"
        }
      },
      "setDaiTokenAddress(address)": {
        "details": "admin set DaiToken contract address",
        "params": {
          "_address": "set to the address of DaiToken contract"
        }
      },
      "setPlanterContractAddress(address)": {
        "details": "admin set Planter contract address",
        "params": {
          "_address": "set to the address of Planter contract"
        }
      },
      "setPlanterFunds(uint256,uint256,uint256)": {
        "details": "set planterFunds and refferalFunds of a tree with id {_treeId} and add {_planterFund} to planterFund part of totalFunds and add {_referralFund} to referralFund part of totalFunds"
      },
      "setTrustedForwarder(address)": {
        "details": "set trusted forwarder address",
        "params": {
          "_address": "set to {trustedForwarder}"
        }
      },
      "setWithdrawThreshold(uint256)": {
        "details": "admin can set the minimum amount to withdraw",
        "params": {
          "_amount": "is withdraw treshold"
        }
      },
      "versionRecipient()": {
        "details": "return version recipient "
      },
      "withdrawPlanterBalance(uint256)": {
        "details": "planter withdraw {_amount} from planter's balances in case of valid {_amount} and daiToken transfer to planters address (to msgSender())",
        "params": {
          "_amount": "amount to withdraw"
        }
      }
    },
    "title": "PlanterFund Contract ",
    "version": 1
  },
  "userdoc": {
    "kind": "user",
    "methods": {
      "balances(address)": {
        "notice": "NOTE mapping of planter address to planter balance"
      },
      "isPlanterFund()": {
        "notice": "NOTE {isPlanterFund} set inside the initialize to {true} "
      },
      "isTrustedForwarder(address)": {
        "notice": "return if the forwarder is trusted to forward relayed transactions to us. the forwarder is required to verify the sender's signature, and verify the call is not a replay."
      },
      "planterFunds(uint256)": {
        "notice": "NOTE mapping of treeId to planterFunds"
      },
      "plantersPaid(uint256)": {
        "notice": "NOTE  mpping of treeId to planterPaid balance"
      },
      "referralFunds(uint256)": {
        "notice": "NOTE mapping of treeId to referralFunds"
      },
      "totalFunds()": {
        "notice": "NOTE {totalFunds} is struct of TotalFund that keep total share of planterFund, referralFund, localDevelop"
      }
    },
    "version": 1
  }
}