{
  "contractName": "Planter",
  "abi": [
    {
      "anonymous": false,
      "inputs": [
        {
          "indexed": false,
          "internalType": "address",
          "name": "planterId",
          "type": "address"
        }
      ],
      "name": "AcceptedByOrganization",
      "type": "event"
    },
    {
      "anonymous": false,
      "inputs": [
        {
          "indexed": false,
          "internalType": "address",
          "name": "organizationId",
          "type": "address"
        }
      ],
      "name": "OrganizationJoin",
      "type": "event"
    },
    {
      "anonymous": false,
      "inputs": [
        {
          "indexed": false,
          "internalType": "address",
          "name": "planterId",
          "type": "address"
        }
      ],
      "name": "PlanterJoin",
      "type": "event"
    },
    {
      "anonymous": false,
      "inputs": [
        {
          "indexed": false,
          "internalType": "address",
          "name": "planterId",
          "type": "address"
        }
      ],
      "name": "PlanterUpdated",
      "type": "event"
    },
    {
      "anonymous": false,
      "inputs": [
        {
          "indexed": false,
          "internalType": "address",
          "name": "planterId",
          "type": "address"
        }
      ],
      "name": "PortionUpdated",
      "type": "event"
    },
    {
      "anonymous": false,
      "inputs": [
        {
          "indexed": false,
          "internalType": "address",
          "name": "planterId",
          "type": "address"
        }
      ],
      "name": "RejectedByOrganization",
      "type": "event"
    },
    {
      "inputs": [],
      "name": "accessRestriction",
      "outputs": [
        {
          "internalType": "contract IAccessRestriction",
          "name": "",
          "type": "address"
        }
      ],
      "stateMutability": "view",
      "type": "function",
      "constant": true
    },
    {
      "inputs": [],
      "name": "isPlanter",
      "outputs": [
        {
          "internalType": "bool",
          "name": "",
          "type": "bool"
        }
      ],
      "stateMutability": "view",
      "type": "function",
      "constant": true
    },
    {
      "inputs": [
        {
          "internalType": "address",
          "name": "forwarder",
          "type": "address"
        }
      ],
      "name": "isTrustedForwarder",
      "outputs": [
        {
          "internalType": "bool",
          "name": "",
          "type": "bool"
        }
      ],
      "stateMutability": "view",
      "type": "function",
      "constant": true
    },
    {
      "inputs": [
        {
          "internalType": "address",
          "name": "",
          "type": "address"
        }
      ],
      "name": "memberOf",
      "outputs": [
        {
          "internalType": "address",
          "name": "",
          "type": "address"
        }
      ],
      "stateMutability": "view",
      "type": "function",
      "constant": true
    },
    {
      "inputs": [
        {
          "internalType": "address",
          "name": "",
          "type": "address"
        },
        {
          "internalType": "address",
          "name": "",
          "type": "address"
        }
      ],
      "name": "organizationRules",
      "outputs": [
        {
          "internalType": "uint256",
          "name": "",
          "type": "uint256"
        }
      ],
      "stateMutability": "view",
      "type": "function",
      "constant": true
    },
    {
      "inputs": [
        {
          "internalType": "address",
          "name": "",
          "type": "address"
        }
      ],
      "name": "planters",
      "outputs": [
        {
          "internalType": "uint8",
          "name": "planterType",
          "type": "uint8"
        },
        {
          "internalType": "uint8",
          "name": "status",
          "type": "uint8"
        },
        {
          "internalType": "uint16",
          "name": "countryCode",
          "type": "uint16"
        },
        {
          "internalType": "uint32",
          "name": "score",
          "type": "uint32"
        },
        {
          "internalType": "uint32",
          "name": "capacity",
          "type": "uint32"
        },
        {
          "internalType": "uint32",
          "name": "plantedCount",
          "type": "uint32"
        },
        {
          "internalType": "uint64",
          "name": "longitude",
          "type": "uint64"
        },
        {
          "internalType": "uint64",
          "name": "latitude",
          "type": "uint64"
        }
      ],
      "stateMutability": "view",
      "type": "function",
      "constant": true
    },
    {
      "inputs": [
        {
          "internalType": "address",
          "name": "",
          "type": "address"
        }
      ],
      "name": "refferedBy",
      "outputs": [
        {
          "internalType": "address",
          "name": "",
          "type": "address"
        }
      ],
      "stateMutability": "view",
      "type": "function",
      "constant": true
    },
    {
      "inputs": [],
      "name": "trustedForwarder",
      "outputs": [
        {
          "internalType": "address",
          "name": "",
          "type": "address"
        }
      ],
      "stateMutability": "view",
      "type": "function",
      "constant": true
    },
    {
      "inputs": [],
      "name": "versionRecipient",
      "outputs": [
        {
          "internalType": "string",
          "name": "",
          "type": "string"
        }
      ],
      "stateMutability": "pure",
      "type": "function",
      "constant": true
    },
    {
      "inputs": [
        {
          "internalType": "address",
          "name": "_accessRestrictionAddress",
          "type": "address"
        }
      ],
      "name": "initialize",
      "outputs": [],
      "stateMutability": "nonpayable",
      "type": "function"
    },
    {
      "inputs": [
        {
          "internalType": "address",
          "name": "_address",
          "type": "address"
        }
      ],
      "name": "setTrustedForwarder",
      "outputs": [],
      "stateMutability": "nonpayable",
      "type": "function"
    },
    {
      "inputs": [
        {
          "internalType": "uint8",
          "name": "_planterType",
          "type": "uint8"
        },
        {
          "internalType": "uint64",
          "name": "_longitude",
          "type": "uint64"
        },
        {
          "internalType": "uint64",
          "name": "_latitude",
          "type": "uint64"
        },
        {
          "internalType": "uint16",
          "name": "_countryCode",
          "type": "uint16"
        },
        {
          "internalType": "address",
          "name": "_refferedBy",
          "type": "address"
        },
        {
          "internalType": "address",
          "name": "_organizationAddress",
          "type": "address"
        }
      ],
      "name": "planterJoin",
      "outputs": [],
      "stateMutability": "nonpayable",
      "type": "function"
    },
    {
      "inputs": [
        {
          "internalType": "address",
          "name": "_planterAddress",
          "type": "address"
        },
        {
          "internalType": "uint8",
          "name": "_planterType",
          "type": "uint8"
        },
        {
          "internalType": "uint64",
          "name": "_longitude",
          "type": "uint64"
        },
        {
          "internalType": "uint64",
          "name": "_latitude",
          "type": "uint64"
        },
        {
          "internalType": "uint16",
          "name": "_countryCode",
          "type": "uint16"
        },
        {
          "internalType": "address",
          "name": "_refferedBy",
          "type": "address"
        },
        {
          "internalType": "address",
          "name": "_organizationAddress",
          "type": "address"
        }
      ],
      "name": "planterJoinByAdmin",
      "outputs": [],
      "stateMutability": "nonpayable",
      "type": "function"
    },
    {
      "inputs": [
        {
          "internalType": "address",
          "name": "_organizationAddress",
          "type": "address"
        },
        {
          "internalType": "uint64",
          "name": "_longitude",
          "type": "uint64"
        },
        {
          "internalType": "uint64",
          "name": "_latitude",
          "type": "uint64"
        },
        {
          "internalType": "uint16",
          "name": "_countryCode",
          "type": "uint16"
        },
        {
          "internalType": "uint32",
          "name": "_capacity",
          "type": "uint32"
        },
        {
          "internalType": "address",
          "name": "_refferedBy",
          "type": "address"
        }
      ],
      "name": "organizationJoin",
      "outputs": [],
      "stateMutability": "nonpayable",
      "type": "function"
    },
    {
      "inputs": [
        {
          "internalType": "uint8",
          "name": "_planterType",
          "type": "uint8"
        },
        {
          "internalType": "address",
          "name": "_organizationAddress",
          "type": "address"
        }
      ],
      "name": "updatePlanterType",
      "outputs": [],
      "stateMutability": "nonpayable",
      "type": "function"
    },
    {
      "inputs": [
        {
          "internalType": "address",
          "name": "_planterAddress",
          "type": "address"
        },
        {
          "internalType": "bool",
          "name": "_acceptance",
          "type": "bool"
        }
      ],
      "name": "acceptPlanterFromOrganization",
      "outputs": [],
      "stateMutability": "nonpayable",
      "type": "function"
    },
    {
      "inputs": [
        {
          "internalType": "address",
          "name": "_planterAddress",
          "type": "address"
        },
        {
          "internalType": "uint32",
          "name": "_capacity",
          "type": "uint32"
        }
      ],
      "name": "updateCapacity",
      "outputs": [],
      "stateMutability": "nonpayable",
      "type": "function"
    },
    {
      "inputs": [
        {
          "internalType": "address",
          "name": "_planterAddress",
          "type": "address"
        },
        {
          "internalType": "address",
          "name": "_assignedPlanterAddress",
          "type": "address"
        }
      ],
      "name": "plantingPermission",
      "outputs": [
        {
          "internalType": "bool",
          "name": "",
          "type": "bool"
        }
      ],
      "stateMutability": "nonpayable",
      "type": "function"
    },
    {
      "inputs": [
        {
          "internalType": "address",
          "name": "_planterAddress",
          "type": "address"
        },
        {
          "internalType": "uint256",
          "name": "_planterAutomaticPaymentPortion",
          "type": "uint256"
        }
      ],
      "name": "updateOrganizationPlanterPayment",
      "outputs": [],
      "stateMutability": "nonpayable",
      "type": "function"
    },
    {
      "inputs": [
        {
          "internalType": "address",
          "name": "_planterAddress",
          "type": "address"
        }
      ],
      "name": "getPlanterPaymentPortion",
      "outputs": [
        {
          "internalType": "bool",
          "name": "",
          "type": "bool"
        },
        {
          "internalType": "address",
          "name": "",
          "type": "address"
        },
        {
          "internalType": "address",
          "name": "",
          "type": "address"
        },
        {
          "internalType": "uint256",
          "name": "",
          "type": "uint256"
        }
      ],
      "stateMutability": "view",
      "type": "function",
      "constant": true
    },
    {
      "inputs": [
        {
          "internalType": "address",
          "name": "_planterAddress",
          "type": "address"
        }
      ],
      "name": "reducePlantCount",
      "outputs": [],
      "stateMutability": "nonpayable",
      "type": "function"
    },
    {
      "inputs": [
        {
          "internalType": "address",
          "name": "_planterAddress",
          "type": "address"
        }
      ],
      "name": "planterCheck",
      "outputs": [
        {
          "internalType": "bool",
          "name": "",
          "type": "bool"
        }
      ],
      "stateMutability": "nonpayable",
      "type": "function"
    },
    {
      "inputs": [
        {
          "internalType": "address",
          "name": "_planterAddress",
          "type": "address"
        },
        {
          "internalType": "address",
          "name": "_verifier",
          "type": "address"
        }
      ],
      "name": "canVerify",
      "outputs": [
        {
          "internalType": "bool",
          "name": "",
          "type": "bool"
        }
      ],
      "stateMutability": "view",
      "type": "function",
      "constant": true
    },
    {
      "inputs": [
        {
          "internalType": "address",
          "name": "_planterAddress",
          "type": "address"
        }
      ],
      "name": "canAssignTreeToPlanter",
      "outputs": [
        {
          "internalType": "bool",
          "name": "",
          "type": "bool"
        }
      ],
      "stateMutability": "view",
      "type": "function",
      "constant": true
    }
  ],
  "bytecode": "0x608060405234801561001057600080fd5b50612639806100206000396000f3fe608060405234801561001057600080fd5b50600436106101585760003560e01c80639b720401116100c3578063d3a907d61161007c578063d3a907d614610388578063d6762c4a1461045c578063da7422281461046f578063df385cbd14610482578063dfeac33a14610495578063fc5c2c7f146104ce57600080fd5b80639b72040114610300578063a074b9be14610313578063a2c3649014610326578063acd2e87514610339578063b2dbbded14610362578063c4d66de81461037557600080fd5b806355c3a79e1161011557806355c3a79e14610241578063572b6c05146102545780636d8683ac1461027c5780637c9be3d81461028f5780637da0a877146102a25780638a4e1a64146102bb57600080fd5b806303dc8deb1461015d578063055644d6146101865780630c8f0b4e1461019957806320877b11146101ae5780633b4c9891146101c1578063486ff0cd14610202575b600080fd5b60005461017190600160b01b900460ff1681565b60405190151581526020015b60405180910390f35b6101716101943660046121ed565b6104e1565b6101ac6101a73660046122ab565b61067b565b005b6101ac6101bc36600461231f565b610985565b6101ea6101cf3660046121d2565b6004602052600090815260409020546001600160a01b031681565b6040516001600160a01b03909116815260200161017d565b604080518082018252601d81527f322e322e302b747265656a65722e6972656c6179726563697069656e740000006020820152905161017d9190612438565b61017161024f3660046121ed565b610d2f565b6101716102623660046121d2565b6000546201000090046001600160a01b0390811691161490565b6101ac61028a366004612281565b610e26565b6101ac61029d3660046121d2565b610fba565b6000546101ea906201000090046001600160a01b031681565b6102ce6102c93660046121d2565b6110de565b60405161017d949392919093151584526001600160a01b03928316602085015291166040830152606082015260800190565b6101ac61030e366004612257565b6111dc565b6101ac6103213660046123de565b611421565b6101ac610334366004612220565b61182b565b6101ea6103473660046121d2565b6003602052600090815260409020546001600160a01b031681565b6101716103703660046121d2565b611a5b565b6101ac6103833660046121d2565b611bb1565b6104006103963660046121d2565b60026020526000908152604090205460ff8082169161010081049091169061ffff620100008204169063ffffffff6401000000008204811691600160401b8104821691600160601b8204169067ffffffffffffffff600160801b8204811691600160c01b90041688565b6040805160ff998a16815298909716602089015261ffff9095169587019590955263ffffffff928316606087015290821660808601521660a084015267ffffffffffffffff91821660c08401521660e08201526101000161017d565b6001546101ea906001600160a01b031681565b6101ac61047d3660046121d2565b611d18565b6101716104903660046121d2565b611dfd565b6104c06104a33660046121ed565b600560209081526000928352604080842090915290825290205481565b60405190815260200161017d565b6101ac6104dc3660046123c2565b611e39565b6001546000906001600160a01b031663ebe6a6f36104fd61212d565b6040516001600160e01b031960e084901b1681526001600160a01b03909116600482015260240160006040518083038186803b15801561053c57600080fd5b505afa158015610550573d6000803e3d6000fd5b505050506001600160a01b0383166000908152600260205260409020805460ff161561066f57826001600160a01b0316846001600160a01b031614806105c15750805460ff1660031480156105c157506001600160a01b038481166000908152600460205260409020548116908416145b1561066f57805460ff6101009091041660011480156105f65750805463ffffffff600160401b82048116600160601b90920416105b1561066f5780546001908290600c9061061d908490600160601b900463ffffffff1661258f565b82546101009290920a63ffffffff8181021990931691831602179091558254600160401b81048216600160601b90910490911610905061066557805461ff0019166102001781555b6001915050610675565b60009150505b92915050565b6001546001600160a01b031663c4d2a31b61069461212d565b6040516001600160e01b031960e084901b1681526001600160a01b03909116600482015260240160006040518083038186803b1580156106d357600080fd5b505afa1580156106e7573d6000803e3d6000fd5b505050506001600160a01b03861660009081526002602052604090205460ff1615801561078c5750600154604051632ea8de7f60e01b81526001600160a01b03888116600483015290911690632ea8de7f9060240160206040518083038186803b15801561075457600080fd5b505afa158015610768573d6000803e3d6000fd5b505050506040513d601f19601f8201168201806040525081019061078c91906123a5565b6107b15760405162461bcd60e51b81526004016107a890612558565b60405180910390fd5b6001600160a01b038116156108ac576107c861212d565b6001600160a01b0316816001600160a01b0316141580156108615750600154604051632ea8de7f60e01b81526001600160a01b03838116600483015290911690632ea8de7f9060240160206040518083038186803b15801561082957600080fd5b505afa15801561083d573d6000803e3d6000fd5b505050506040513d601f19601f8201168201806040525081019061086191906123a5565b61087d5760405162461bcd60e51b81526004016107a89061252b565b6001600160a01b03868116600090815260036020526040902080546001600160a01b0319169183169190911790555b6001600160a01b038616600081815260026020908152604091829020805461010263ffffffff199091166201000061ffff8a1602171777ffffffffffffffff00000000ffffffff00000000000000001916600160401b63ffffffff88160267ffffffffffffffff60801b191617600160801b67ffffffffffffffff8b811691909102919091176001600160c01b0316600160c01b918a1691909102178155915192835290917f72c68927ea7ee8d57a0e3ce76300dec0c86fde0ace00be8ac89f646d06b1914d910160405180910390a150505050505050565b6001546001600160a01b031663c4d2a31b61099e61212d565b6040516001600160e01b031960e084901b1681526001600160a01b03909116600482015260240160006040518083038186803b1580156109dd57600080fd5b505afa1580156109f1573d6000803e3d6000fd5b5050600154604051632ea8de7f60e01b81526001600160a01b038b811660048301529091169250632ea8de7f915060240160206040518083038186803b158015610a3a57600080fd5b505afa158015610a4e573d6000803e3d6000fd5b505050506040513d601f19601f82011682018060405250810190610a7291906123a5565b8015610a9757506001600160a01b03871660009081526002602052604090205460ff16155b610ab35760405162461bcd60e51b81526004016107a890612558565b8560ff1660011480610ac857508560ff166003145b610ae45760405162461bcd60e51b81526004016107a8906124f4565b8560ff1660031415610b5b576001600160a01b03811660009081526002602081905260409091205460ff1614610b2c5760405162461bcd60e51b81526004016107a8906124bd565b6001600160a01b03878116600090815260046020526040902080546001600160a01b0319169183169190911790555b6001600160a01b03821615610c4f57866001600160a01b0316826001600160a01b031614158015610c045750600154604051632ea8de7f60e01b81526001600160a01b03848116600483015290911690632ea8de7f9060240160206040518083038186803b158015610bcc57600080fd5b505afa158015610be0573d6000803e3d6000fd5b505050506040513d601f19601f82011682018060405250810190610c0491906123a5565b610c205760405162461bcd60e51b81526004016107a89061252b565b6001600160a01b03878116600090815260036020526040902080546001600160a01b0319169184169190911790555b6001600160a01b038716600081815260026020908152604091829020805461010060ff8c1661ffff1990921691909117176bffffffff00000000ffff000019166201000061ffff89160263ffffffff60401b19161768640000000000000000176fffffffffffffffffffffffffffffffff16600160801b67ffffffffffffffff8b8116919091026001600160c01b031691909117600160c01b918a1691909102178155915192835290917faa5bec23e1711684675ce971f1c0682f7766d3c8e2770fc3135010ea8ead9f0e91015b60405180910390a15050505050505050565b6001600160a01b03808316600090815260026020526040808220549284168252812054909160ff908116916101009004166001821115610e1b578060ff1660011480610d7e57508060ff166002145b15610e1b578160ff1660021415610db7575050506001600160a01b03818116600090815260046020526040902054811690831614610675565b8160ff1660031415610e1b576001600160a01b03808616600090815260046020526040808220548784168352912054821691161480610e1257506001600160a01b038581166000908152600460205260409020548116908516145b92505050610675565b506000949350505050565b6001546001600160a01b031663c4d2a31b610e3f61212d565b6040516001600160e01b031960e084901b1681526001600160a01b03909116600482015260240160006040518083038186803b158015610e7e57600080fd5b505afa158015610e92573d6000803e3d6000fd5b5050506001600160a01b03831660009081526002602052604090205483915060ff16610ed05760405162461bcd60e51b81526004016107a89061248d565b6001600160a01b0383166000908152600260205260409020805463ffffffff600160601b909104811690841611610f3c5760405162461bcd60e51b815260206004820152601060248201526f696e76616c696420636170616369747960801b60448201526064016107a8565b805463ffffffff60401b1916600160401b63ffffffff85160217808255610100900460ff1660021415610f7757805461ff0019166101001781555b6040516001600160a01b03851681527f4f4c4d7a603e71ff6fc5aca4b16d1aee54c290be7eb4b17a72535c562724ce76906020015b60405180910390a150505050565b6001600160a01b038116600090815260026020526040902054819060ff16610ff45760405162461bcd60e51b81526004016107a89061248d565b6001546001600160a01b031663ebe6a6f361100d61212d565b6040516001600160e01b031960e084901b1681526001600160a01b03909116600482015260240160006040518083038186803b15801561104c57600080fd5b505afa158015611060573d6000803e3d6000fd5b505050506001600160a01b038216600090815260026020526040902080546001908290600c9061109e908490600160601b900463ffffffff166125b7565b825461010092830a63ffffffff8181021990921692909116021790915582540460ff166002141590506110d957805461ff0019166101001781555b505050565b6001600160a01b0381166000908152600260205260408120805482918291829190610100900460ff16600414806111175750805460ff16155b15611130576000806000809450945094509450506111d5565b805460ff16600114806111475750805460ff166002145b8061115957508054610100900460ff16155b1561118b575050506001600160a01b0380841660009081526003602052604081205460019450909250166127106111d5565b505050506001600160a01b03828116600081815260046020908152604080832054600383528184205490861680855260058452828520958552949092529091205460019450919216905b9193509193565b600260006111e861212d565b6001600160a01b0316815260208101919091526040016000205460ff166002146112545760405162461bcd60e51b815260206004820152601b60248201527f506c616e746572206973206e6f74206f7267616e697a6174696f6e000000000060448201526064016107a8565b6001600160a01b038216600090815260026020526040902054829060ff1661128e5760405162461bcd60e51b81526004016107a89061248d565b6001600160a01b038316600090815260026020526040902054610100900460ff166112f45760405162461bcd60e51b8152602060048201526016602482015275696e76616c696420706c616e7465722073746174757360501b60448201526064016107a8565b6112fc61212d565b6001600160a01b03848116600090815260046020526040902054811691161461135f5760405162461bcd60e51b815260206004820152601560248201527434b73b30b634b21034b7383aba10383630b73a32b960591b60448201526064016107a8565b61271182106113b05760405162461bcd60e51b815260206004820152601760248201527f696e76616c6964207061796d656e7420706f7274696f6e00000000000000000060448201526064016107a8565b81600560006113bd61212d565b6001600160a01b0390811682526020808301939093526040918201600090812091881680825291845282902093909355519182527f299e739a5cbd0adcc46334ebbf6fa88633005f027775c228781ca958fc19c858910160405180910390a1505050565b6001546001600160a01b0316632ea8de7f61143a61212d565b6040516001600160e01b031960e084901b1681526001600160a01b03909116600482015260240160206040518083038186803b15801561147957600080fd5b505afa15801561148d573d6000803e3d6000fd5b505050506040513d601f19601f820116820180604052508101906114b191906123a5565b80156114e35750600260006114c461212d565b6001600160a01b0316815260208101919091526040016000205460ff16155b6114ff5760405162461bcd60e51b81526004016107a890612558565b8560ff166001148061151457508560ff166003145b6115305760405162461bcd60e51b81526004016107a8906124f4565b8560ff1660031415611578576001600160a01b03811660009081526002602081905260409091205460ff16146115785760405162461bcd60e51b81526004016107a8906124bd565b6001600160a01b038216156116835761158f61212d565b6001600160a01b0316826001600160a01b0316141580156116285750600154604051632ea8de7f60e01b81526001600160a01b03848116600483015290911690632ea8de7f9060240160206040518083038186803b1580156115f057600080fd5b505afa158015611604573d6000803e3d6000fd5b505050506040513d601f19601f8201168201806040525081019061162891906123a5565b6116445760405162461bcd60e51b81526004016107a89061252b565b816003600061165161212d565b6001600160a01b039081168252602082019290925260400160002080546001600160a01b031916929091169190911790555b6001600360ff881614156116e757816004600061169e61212d565b6001600160a01b03166001600160a01b0316815260200190815260200160002060006101000a8154816001600160a01b0302191690836001600160a01b03160217905550600090505b6000600260006116f561212d565b6001600160a01b03166001600160a01b031681526020019081526020016000209050878160000160006101000a81548160ff021916908360ff160217905550818160000160016101000a81548160ff021916908360ff160217905550848160000160026101000a81548161ffff021916908361ffff16021790555060648160000160086101000a81548163ffffffff021916908363ffffffff160217905550868160000160106101000a81548167ffffffffffffffff021916908367ffffffffffffffff160217905550858160000160186101000a81548167ffffffffffffffff021916908367ffffffffffffffff1602179055507faa5bec23e1711684675ce971f1c0682f7766d3c8e2770fc3135010ea8ead9f0e61181361212d565b6040516001600160a01b039091168152602001610d1d565b6002600061183761212d565b6001600160a01b0316815260208101919091526040016000205460ff166002146118a35760405162461bcd60e51b815260206004820152601b60248201527f506c616e746572206973206e6f74206f7267616e697a6174696f6e000000000060448201526064016107a8565b6001600160a01b038216600090815260026020526040902054829060ff166118dd5760405162461bcd60e51b81526004016107a89061248d565b6118e561212d565b6001600160a01b038481166000908152600460205260409020548116911614801561192e57506001600160a01b038316600090815260026020526040902054610100900460ff16155b6119855760405162461bcd60e51b815260206004820152602260248201527f506c616e746572206e6f742072657175657374206f72206e6f742070656e64696044820152616e6760f01b60648201526084016107a8565b6001600160a01b038316600090815260026020526040902082156119f157805461ff0019166101001781556040516001600160a01b03851681527f051b4b22140b33d543a888666188b0b245a0bec5a5fbad9a7056a5466bad0f489060200160405180910390a1611a55565b805461ffff19166101011781556001600160a01b03841660008181526004602090815260409182902080546001600160a01b031916905590519182527f79101b3eb6902749f086c56104914b9b6a60917c4a7bdccb2291d6d13d61468b9101610fac565b50505050565b6001600160a01b038116600090815260026020526040812054829060ff16611a955760405162461bcd60e51b81526004016107a89061248d565b6001546001600160a01b031663ebe6a6f3611aae61212d565b6040516001600160e01b031960e084901b1681526001600160a01b03909116600482015260240160006040518083038186803b158015611aed57600080fd5b505afa158015611b01573d6000803e3d6000fd5b505050506001600160a01b03831660009081526002602052604090208054600161010090910460ff161415611ba55780546001908290600c90611b52908490600160601b900463ffffffff1661258f565b82546101009290920a63ffffffff8181021990931691831602179091558254600160401b81048216600160601b90910490911614159050611b9b57805461ff0019166102001781555b6001925050611bab565b60009250505b50919050565b600054610100900460ff1680611bca575060005460ff16155b611c2d5760405162461bcd60e51b815260206004820152602e60248201527f496e697469616c697a61626c653a20636f6e747261637420697320616c72656160448201526d191e481a5b9a5d1a585b1a5e995960921b60648201526084016107a8565b600054610100900460ff16158015611c4f576000805461ffff19166101011790555b6000829050806001600160a01b031663ba84fd696040518163ffffffff1660e01b815260040160206040518083038186803b158015611c8d57600080fd5b505afa158015611ca1573d6000803e3d6000fd5b505050506040513d601f19601f82011682018060405250810190611cc591906123a5565b611cce57600080fd5b6000805460ff60b01b1916600160b01b179055600180546001600160a01b039092166001600160a01b03199092169190911790558015611d14576000805461ff00191690555b5050565b6001546001600160a01b0316638413ec14611d3161212d565b6040516001600160e01b031960e084901b1681526001600160a01b03909116600482015260240160006040518083038186803b158015611d7057600080fd5b505afa158015611d84573d6000803e3d6000fd5b5083925050506001600160a01b038116611dd25760405162461bcd60e51b815260206004820152600f60248201526e696e76616c6964206164647265737360881b60448201526064016107a8565b50600080546001600160a01b03909216620100000262010000600160b01b0319909216919091179055565b6001600160a01b0381166000908152600260205260408120805460ff6101009091041660011480611e325750805460ff166002145b9392505050565b611e4161212d565b6001600160a01b03811660009081526002602052604090205460ff16611e795760405162461bcd60e51b81526004016107a89061248d565b8260ff1660011480611e8e57508260ff166003145b611eaa5760405162461bcd60e51b81526004016107a8906124f4565b600060026000611eb861212d565b6001600160a01b0316815260208101919091526040016000208054909150610100900460ff161580611ef45750805460ff610100909104166001145b611f395760405162461bcd60e51b8152602060048201526016602482015275696e76616c696420706c616e7465722073746174757360501b60448201526064016107a8565b805460ff1660021415611f8e5760405162461bcd60e51b815260206004820152601d60248201527f43616c6c6572206973206f7267616e697a6174696f6e506c616e74657200000060448201526064016107a8565b8360ff1660031415612022576001600160a01b03831660009081526002602081905260409091205460ff1614611fd65760405162461bcd60e51b81526004016107a8906124bd565b8260046000611fe361212d565b6001600160a01b039081168252602082019290925260400160002080546001600160a01b03191692909116919091179055805461ff00191681556120df565b805460ff166003146120765760405162461bcd60e51b815260206004820152601d60248201527f696e76616c696420706c616e7465725479706520696e206368616e676500000060448201526064016107a8565b805460ff16600314156120c35760006004600061209161212d565b6001600160a01b039081168252602082019290925260400160002080546001600160a01b031916929091169190911790555b8054610100900460ff166120df57805461ff0019166101001781555b805460ff191660ff85161781557f4f4c4d7a603e71ff6fc5aca4b16d1aee54c290be7eb4b17a72535c562724ce7661211561212d565b6040516001600160a01b039091168152602001610fac565b60006014361080159061215057506000546201000090046001600160a01b031633145b15612162575060131936013560601c90565b503390565b80356001600160a01b038116811461217e57600080fd5b919050565b803561ffff8116811461217e57600080fd5b803563ffffffff8116811461217e57600080fd5b803567ffffffffffffffff8116811461217e57600080fd5b803560ff8116811461217e57600080fd5b6000602082840312156121e457600080fd5b611e3282612167565b6000806040838503121561220057600080fd5b61220983612167565b915061221760208401612167565b90509250929050565b6000806040838503121561223357600080fd5b61223c83612167565b9150602083013561224c816125f2565b809150509250929050565b6000806040838503121561226a57600080fd5b61227383612167565b946020939093013593505050565b6000806040838503121561229457600080fd5b61229d83612167565b915061221760208401612195565b60008060008060008060c087890312156122c457600080fd5b6122cd87612167565b95506122db602088016121a9565b94506122e9604088016121a9565b93506122f760608801612183565b925061230560808801612195565b915061231360a08801612167565b90509295509295509295565b600080600080600080600060e0888a03121561233a57600080fd5b61234388612167565b9650612351602089016121c1565b955061235f604089016121a9565b945061236d606089016121a9565b935061237b60808901612183565b925061238960a08901612167565b915061239760c08901612167565b905092959891949750929550565b6000602082840312156123b757600080fd5b8151611e32816125f2565b600080604083850312156123d557600080fd5b612209836121c1565b60008060008060008060c087890312156123f757600080fd5b612400876121c1565b955061240e602088016121a9565b945061241c604088016121a9565b935061242a60608801612183565b925061230560808801612167565b600060208083528351808285015260005b8181101561246557858101830151858201604001528201612449565b81811115612477576000604083870101525b50601f01601f1916929092016040019392505050565b6020808252601690820152751c1b185b9d195c88191bd95cc81b9bdd08195e1a5cdd60521b604082015260600190565b6020808252601e908201527f6f7267616e697a6174696f6e2061646472657373206e6f742076616c69640000604082015260600190565b6020808252601e908201527f706c616e74657254797065206e6f7420616c6c6f7765642076616c7565730000604082015260600190565b60208082526013908201527272656666657265644279206e6f74207472756560681b604082015260600190565b60208082526019908201527f55736572206578697374206f72206e6f7420706c616e74657200000000000000604082015260600190565b600063ffffffff8083168185168083038211156125ae576125ae6125dc565b01949350505050565b600063ffffffff838116908316818110156125d4576125d46125dc565b039392505050565b634e487b7160e01b600052601160045260246000fd5b801515811461260057600080fd5b5056fea2646970667358221220c33a39a5de6fb8bdc4a51a073ae96fa39a267732a6d6c2fe549bcfeac53fb73e64736f6c63430008060033",
  "immutableReferences": {},
  "source": "//SPDX-License-Identifier: MIT\n\npragma solidity ^0.8.6;\n\nimport \"@openzeppelin/contracts-upgradeable/proxy/utils/Initializable.sol\";\n\nimport \"@openzeppelin/contracts-upgradeable/utils/math/SafeCastUpgradeable.sol\";\nimport \"../access/IAccessRestriction.sol\";\nimport \"../gsn/RelayRecipient.sol\";\n\n/** @title Planter contract */\ncontract Planter is Initializable, RelayRecipient {\n    using SafeCastUpgradeable for uint256;\n\n    /** NOTE {isPlanter} set inside the initialize to {true} */\n    bool public isPlanter;\n\n    IAccessRestriction public accessRestriction;\n\n    struct PlanterData {\n        uint8 planterType;\n        uint8 status;\n        uint16 countryCode;\n        uint32 score;\n        uint32 capacity;\n        uint32 plantedCount;\n        uint64 longitude;\n        uint64 latitude;\n    }\n\n    /** NOTE mapping of planterAddress to PlanterData */\n    mapping(address => PlanterData) public planters;\n\n    /** NOTE mapping of planterAddress to address of refferedBy */\n    mapping(address => address) public refferedBy;\n\n    /** NOTE mapping of planterAddress to organizationAddress that planter is member of it */\n    mapping(address => address) public memberOf;\n\n    /** NOTE mapping of organizationAddress to mapping of planterAddress to portionValue */\n    mapping(address => mapping(address => uint256)) public organizationRules;\n\n    event PlanterJoin(address planterId);\n    event OrganizationJoin(address organizationId);\n    event PlanterUpdated(address planterId);\n    event AcceptedByOrganization(address planterId);\n    event RejectedByOrganization(address planterId);\n    event PortionUpdated(address planterId);\n\n    /** NOTE modifier to check msg.sender has admin role */\n    modifier onlyAdmin() {\n        accessRestriction.ifAdmin(_msgSender());\n        _;\n    }\n\n    /** NOTE modifier to check msg.sender has data manager role */\n    modifier onlyDataManager() {\n        accessRestriction.ifDataManager(_msgSender());\n        _;\n    }\n\n    /** NOTE modifier for check _planterAddress is exist*/\n    modifier existPlanter(address _planterAddress) {\n        require(\n            planters[_planterAddress].planterType > 0,\n            \"planter does not exist\"\n        );\n        _;\n    }\n\n    /** NOTE modifier for check valid address */\n    modifier validAddress(address _address) {\n        require(_address != address(0), \"invalid address\");\n        _;\n    }\n\n    /** NOTE modifier for check msg.sender planterType is organization*/\n    modifier onlyOrganization() {\n        require(\n            planters[_msgSender()].planterType == 2,\n            \"Planter is not organization\"\n        );\n        _;\n    }\n\n    /** NOTE modifier for check msg.sender has TreejerContract role*/\n    modifier onlyTreejerContract() {\n        accessRestriction.ifTreejerContract(_msgSender());\n        _;\n    }\n\n    /**\n     * @dev initialize accessRestriction contract and set true for isPlanter\n     * @param _accessRestrictionAddress set to the address of accessRestriction contract\n     */\n    function initialize(address _accessRestrictionAddress)\n        external\n        initializer\n    {\n        IAccessRestriction candidateContract = IAccessRestriction(\n            _accessRestrictionAddress\n        );\n        require(candidateContract.isAccessRestriction());\n        isPlanter = true;\n        accessRestriction = candidateContract;\n    }\n\n    /**\n     * @dev set trusted forwarder address\n     * @param _address set to {trustedForwarder}\n     */\n    function setTrustedForwarder(address _address)\n        external\n        onlyAdmin\n        validAddress(_address)\n    {\n        trustedForwarder = _address;\n    }\n\n    /**\n     * @dev based on {_planterType} a planter can join as individual planter or\n     * member of an organization\n     * @param _planterType 1 for individual and 3 for member of organization\n     * @param _longitude longitude value\n     * @param _latitude latitude value\n     * @param _countryCode country code\n     * @param _refferedBy address of referral\n     * @param _organizationAddress address of organization to be member of\n     * NOTE if join as a member of an organization, when that organization\n     * accept planter, planter status set to active\n     */\n    function planterJoin(\n        uint8 _planterType,\n        uint64 _longitude,\n        uint64 _latitude,\n        uint16 _countryCode,\n        address _refferedBy,\n        address _organizationAddress\n    ) external {\n        require(\n            accessRestriction.isPlanter(_msgSender()) &&\n                planters[_msgSender()].planterType == 0,\n            \"User exist or not planter\"\n        );\n\n        require(\n            _planterType == 1 || _planterType == 3,\n            \"planterType not allowed values\"\n        );\n\n        if (_planterType == 3) {\n            require(\n                planters[_organizationAddress].planterType == 2,\n                \"organization address not valid\"\n            );\n        }\n\n        if (_refferedBy != address(0)) {\n            require(\n                _refferedBy != _msgSender() &&\n                    accessRestriction.isPlanter(_refferedBy),\n                \"refferedBy not true\"\n            );\n\n            refferedBy[_msgSender()] = _refferedBy;\n        }\n\n        uint8 status = 1;\n\n        if (_planterType == 3) {\n            memberOf[_msgSender()] = _organizationAddress;\n            status = 0;\n        }\n\n        PlanterData storage planter = planters[_msgSender()];\n\n        planter.planterType = _planterType;\n        planter.status = status;\n        planter.countryCode = _countryCode;\n        planter.capacity = 100;\n        planter.longitude = _longitude;\n        planter.latitude = _latitude;\n\n        emit PlanterJoin(_msgSender());\n    }\n\n    //TODO: ADD_COMMENT\n    function planterJoinByAdmin(\n        address _planterAddress,\n        uint8 _planterType,\n        uint64 _longitude,\n        uint64 _latitude,\n        uint16 _countryCode,\n        address _refferedBy,\n        address _organizationAddress\n    ) external onlyDataManager {\n        require(\n            accessRestriction.isPlanter(_planterAddress) &&\n                planters[_planterAddress].planterType == 0,\n            \"User exist or not planter\"\n        );\n\n        require(\n            _planterType == 1 || _planterType == 3,\n            \"planterType not allowed values\"\n        );\n\n        if (_planterType == 3) {\n            require(\n                planters[_organizationAddress].planterType == 2,\n                \"organization address not valid\"\n            );\n\n            memberOf[_planterAddress] = _organizationAddress;\n        }\n\n        if (_refferedBy != address(0)) {\n            require(\n                _refferedBy != _planterAddress &&\n                    accessRestriction.isPlanter(_refferedBy),\n                \"refferedBy not true\"\n            );\n\n            refferedBy[_planterAddress] = _refferedBy;\n        }\n\n        PlanterData storage planter = planters[_planterAddress];\n\n        planter.planterType = _planterType;\n        planter.status = 1;\n        planter.countryCode = _countryCode;\n        planter.capacity = 100;\n        planter.longitude = _longitude;\n        planter.latitude = _latitude;\n\n        emit PlanterJoin(_planterAddress);\n    }\n\n    /**\n     * @dev admin add a plater as organization (planterType 2) so planterType 3\n     * can be member of these planters.\n     * @param _organizationAddress address of organization planter\n     * @param _longitude longitude value\n     * @param _latitude latitude value\n     * @param _countryCode country code\n     * @param _capacity plant capacity of organization planter\n     * @param _refferedBy address of referral\n     */\n    function organizationJoin(\n        address _organizationAddress,\n        uint64 _longitude,\n        uint64 _latitude,\n        uint16 _countryCode,\n        uint32 _capacity,\n        address _refferedBy\n    ) external onlyDataManager {\n        require(\n            planters[_organizationAddress].planterType == 0 &&\n                accessRestriction.isPlanter(_organizationAddress),\n            \"User exist or not planter\"\n        );\n\n        if (_refferedBy != address(0)) {\n            require(\n                _refferedBy != _msgSender() &&\n                    accessRestriction.isPlanter(_refferedBy),\n                \"refferedBy not true\"\n            );\n\n            refferedBy[_organizationAddress] = _refferedBy;\n        }\n\n        PlanterData storage planter = planters[_organizationAddress];\n\n        planter.planterType = 2;\n        planter.status = 1;\n        planter.countryCode = _countryCode;\n        planter.capacity = _capacity;\n        planter.longitude = _longitude;\n        planter.latitude = _latitude;\n\n        emit OrganizationJoin(_organizationAddress);\n    }\n\n    //TODO:remove this function??\n\n    /**\n     * @dev planter with type 1 , 3 can update their planterType using this\n     * function.\n     * planterType 3 (member of organization) can change to\n     * planterType 1 (individual planter) with input value {_planterType}\n     * of 1 and zeroAddress as {_organizationAddress}\n     * or choose other organization to be member of with\n     * input value {_planterType} of 3 and {_organizationAddress}.\n     * planterType 1 can only change to planterType 3 with input value\n     * {_planterAddress} of 3 and {_organizationAddress}\n     * if planter type 3 choose another oraganization\n     * or planterType 1 chage to planterType 3, they must be accepted by the\n     * organization to be an active planter\n     */\n    function updatePlanterType(uint8 _planterType, address _organizationAddress)\n        external\n        existPlanter(_msgSender())\n    {\n        require(\n            _planterType == 1 || _planterType == 3,\n            \"planterType not allowed values\"\n        );\n\n        PlanterData storage planter = planters[_msgSender()];\n\n        require(\n            planter.status == 0 || planter.status == 1,\n            \"invalid planter status\"\n        );\n\n        require(planter.planterType != 2, \"Caller is organizationPlanter\");\n\n        if (_planterType == 3) {\n            require(\n                planters[_organizationAddress].planterType == 2,\n                \"organization address not valid\"\n            );\n\n            memberOf[_msgSender()] = _organizationAddress;\n\n            planter.status = 0;\n        } else {\n            require(planter.planterType == 3, \"invalid planterType in change\");\n\n            if (planter.planterType == 3) {\n                memberOf[_msgSender()] = address(0);\n            }\n\n            if (planter.status == 0) {\n                planter.status = 1;\n            }\n        }\n\n        planter.planterType = _planterType;\n\n        emit PlanterUpdated(_msgSender());\n    }\n\n    /** @dev organization can accept planter to be it's member or reject\n     * @param _planterAddress address of planter\n     * @param _acceptance accept or reject\n     */\n    function acceptPlanterFromOrganization(\n        address _planterAddress,\n        bool _acceptance\n    ) external onlyOrganization existPlanter(_planterAddress) {\n        require(\n            memberOf[_planterAddress] == _msgSender() &&\n                planters[_planterAddress].status == 0,\n            \"Planter not request or not pending\"\n        );\n\n        PlanterData storage planter = planters[_planterAddress];\n\n        if (_acceptance) {\n            planter.status = 1;\n\n            emit AcceptedByOrganization(_planterAddress);\n        } else {\n            planter.status = 1;\n            planter.planterType = 1;\n            memberOf[_planterAddress] = address(0);\n\n            emit RejectedByOrganization(_planterAddress);\n        }\n    }\n\n    /** @dev admin update capacity of planter {_planterAddress}\n     * @param _planterAddress address of planter to update capacity\n     * @param _capacity capacity that set to planter capacity\n     */\n    function updateCapacity(address _planterAddress, uint32 _capacity)\n        external\n        onlyDataManager\n        existPlanter(_planterAddress)\n    {\n        PlanterData storage tempPlanter = planters[_planterAddress];\n        require(_capacity > tempPlanter.plantedCount, \"invalid capacity\");\n        tempPlanter.capacity = _capacity;\n        if (tempPlanter.status == 2) {\n            tempPlanter.status = 1;\n        }\n        emit PlanterUpdated(_planterAddress);\n    }\n\n    /** @dev return if a planter can plant a tree and increase planter plantedCount 1 time.\n     * @param _planterAddress address of planter who want to plant tree\n     * @param _assignedPlanterAddress address of planter that tree assigned to\n     * @return if a planter can plant a tree or not\n     */\n    function plantingPermission(\n        address _planterAddress,\n        address _assignedPlanterAddress\n    ) external onlyTreejerContract returns (bool) {\n        PlanterData storage tempPlanter = planters[_planterAddress];\n        if (tempPlanter.planterType > 0) {\n            if (\n                _planterAddress == _assignedPlanterAddress ||\n                (tempPlanter.planterType == 3 &&\n                    memberOf[_planterAddress] == _assignedPlanterAddress)\n            ) {\n                if (\n                    tempPlanter.status == 1 &&\n                    tempPlanter.plantedCount < tempPlanter.capacity\n                ) {\n                    tempPlanter.plantedCount += 1;\n\n                    if (tempPlanter.plantedCount >= tempPlanter.capacity) {\n                        tempPlanter.status = 2;\n                    }\n                    return true;\n                }\n            }\n        }\n\n        return false;\n    }\n\n    /** @dev oragnization can update planterPayment rules of it's members\n     * @param _planterAddress address of planter\n     * @param _planterAutomaticPaymentPortion payment portion value\n     * NOTE only organization (planterType = 2) can call this function\n     */\n    function updateOrganizationPlanterPayment(\n        address _planterAddress,\n        uint256 _planterAutomaticPaymentPortion\n    ) external onlyOrganization existPlanter(_planterAddress) {\n        require(planters[_planterAddress].status > 0, \"invalid planter status\");\n        require(\n            memberOf[_planterAddress] == _msgSender(),\n            \"invalid input planter\"\n        );\n        require(\n            _planterAutomaticPaymentPortion < 10001,\n            \"invalid payment portion\"\n        );\n\n        organizationRules[_msgSender()][\n            _planterAddress\n        ] = _planterAutomaticPaymentPortion;\n\n        emit PortionUpdated(_planterAddress);\n    }\n\n    /** @dev return planter paymentPortion for an accepted organizationPlanter\n     * @param _planterAddress address of planter to get payment portion\n     * @return {true} as first param in valid planter case and seccond param is\n     * address of organization that {_planterAddress} is member of it.\n     * and third param is address of referral and the last one is portion value\n     */\n    function getPlanterPaymentPortion(address _planterAddress)\n        external\n        view\n        returns (\n            bool,\n            address,\n            address,\n            uint256\n        )\n    {\n        PlanterData storage tempPlanter = planters[_planterAddress];\n        if (tempPlanter.status == 4 || tempPlanter.planterType == 0) {\n            return (false, address(0), address(0), 0);\n        } else {\n            if (\n                tempPlanter.planterType == 1 ||\n                tempPlanter.planterType == 2 ||\n                tempPlanter.status == 0\n            ) {\n                return (true, address(0), refferedBy[_planterAddress], 10000);\n            } else {\n                return (\n                    true,\n                    memberOf[_planterAddress],\n                    refferedBy[_planterAddress],\n                    organizationRules[memberOf[_planterAddress]][\n                        _planterAddress\n                    ]\n                );\n            }\n        }\n    }\n\n    /** @dev when tree plant of {_planterAddress} rejected, plantedCount of {_planterAddress}\n     * must reduce 1 time and if planter status is full capacity {2} update it to active {1}\n     * @param _planterAddress address of planter\n     * NOTE only treeFactory contract can call this function\n     */\n    function reducePlantCount(address _planterAddress)\n        external\n        existPlanter(_planterAddress)\n        onlyTreejerContract\n    {\n        PlanterData storage tempPlanter = planters[_planterAddress];\n\n        tempPlanter.plantedCount -= 1;\n\n        if (tempPlanter.status == 2) {\n            tempPlanter.status = 1;\n        }\n    }\n\n    /** @dev check that planter {_planterAddress} can plant regular tree\n     * @param _planterAddress address of planter\n     * NOTE treeFactory contract can call this function\n     * NOTE change status to full capacity if plantedCount be equal with\n     * planter capacity after increase plantedCount by 1\n     * @return true in case of planter status is active {1}\n     */\n    function planterCheck(address _planterAddress)\n        external\n        existPlanter(_planterAddress)\n        onlyTreejerContract\n        returns (bool)\n    {\n        PlanterData storage tempPlanter = planters[_planterAddress];\n\n        if (tempPlanter.status == 1) {\n            tempPlanter.plantedCount += 1;\n\n            if (tempPlanter.plantedCount == tempPlanter.capacity) {\n                tempPlanter.status = 2;\n            }\n            return true;\n        }\n        return false;\n    }\n\n    /** @dev check that {_verifier} can verify plant or update requests of {_planterAddress}\n     * @param _planterAddress address of planter\n     * @param _verifier address of verifier\n     * @return true in case of {_verifier} can verify {_planterAddress} and false otherwise\n     */\n    function canVerify(address _planterAddress, address _verifier)\n        external\n        view\n        returns (bool)\n    {\n        uint8 _planterType = planters[_planterAddress].planterType;\n\n        uint8 _verifierStatus = planters[_verifier].status;\n\n        if (_planterType > 1) {\n            if (_verifierStatus == 1 || _verifierStatus == 2) {\n                if (_planterType == 2) {\n                    return memberOf[_verifier] == _planterAddress;\n                } else if (_planterType == 3) {\n                    return\n                        memberOf[_verifier] == memberOf[_planterAddress] ||\n                        memberOf[_planterAddress] == _verifier;\n                }\n            }\n        }\n        return false;\n    }\n\n    /** @dev check allowance to assign tree to planter {_planterAddress}\n     * @param _planterAddress address of assignee planter\n     * @return true in case of active planter or orgnization planter and false otherwise\n     */\n    function canAssignTreeToPlanter(address _planterAddress)\n        external\n        view\n        returns (bool)\n    {\n        PlanterData storage tempPlanter = planters[_planterAddress];\n\n        return tempPlanter.status == 1 || tempPlanter.planterType == 2;\n    }\n}\n",
  "sourcePath": "/media/ali/New Volume/treejer/contract/contracts/planter/Planter.sol",
  "compiler": {
    "name": "solc",
    "version": "0.8.6+commit.11564f7e.Emscripten.clang"
  },
  "schemaVersion": "3.4.1",
  "updatedAt": "2021-09-22T14:00:27.685Z",
  "networkType": "ethereum",
  "devdoc": {
    "kind": "dev",
    "methods": {
      "acceptPlanterFromOrganization(address,bool)": {
        "details": "organization can accept planter to be it's member or reject",
        "params": {
          "_acceptance": "accept or reject",
          "_planterAddress": "address of planter"
        }
      },
      "canAssignTreeToPlanter(address)": {
        "details": "check allowance to assign tree to planter {_planterAddress}",
        "params": {
          "_planterAddress": "address of assignee planter"
        },
        "returns": {
          "_0": "true in case of active planter or orgnization planter and false otherwise"
        }
      },
      "canVerify(address,address)": {
        "details": "check that {_verifier} can verify plant or update requests of {_planterAddress}",
        "params": {
          "_planterAddress": "address of planter",
          "_verifier": "address of verifier"
        },
        "returns": {
          "_0": "true in case of {_verifier} can verify {_planterAddress} and false otherwise"
        }
      },
      "getPlanterPaymentPortion(address)": {
        "details": "return planter paymentPortion for an accepted organizationPlanter",
        "params": {
          "_planterAddress": "address of planter to get payment portion"
        },
        "returns": {
          "_0": "{true} as first param in valid planter case and seccond param is address of organization that {_planterAddress} is member of it. and third param is address of referral and the last one is portion value"
        }
      },
      "initialize(address)": {
        "details": "initialize accessRestriction contract and set true for isPlanter",
        "params": {
          "_accessRestrictionAddress": "set to the address of accessRestriction contract"
        }
      },
      "organizationJoin(address,uint64,uint64,uint16,uint32,address)": {
        "details": "admin add a plater as organization (planterType 2) so planterType 3 can be member of these planters.",
        "params": {
          "_capacity": "plant capacity of organization planter",
          "_countryCode": "country code",
          "_latitude": "latitude value",
          "_longitude": "longitude value",
          "_organizationAddress": "address of organization planter",
          "_refferedBy": "address of referral"
        }
      },
      "planterCheck(address)": {
        "details": "check that planter {_planterAddress} can plant regular tree",
        "params": {
          "_planterAddress": "address of planter NOTE treeFactory contract can call this function NOTE change status to full capacity if plantedCount be equal with planter capacity after increase plantedCount by 1"
        },
        "returns": {
          "_0": "true in case of planter status is active {1}"
        }
      },
      "planterJoin(uint8,uint64,uint64,uint16,address,address)": {
        "details": "based on {_planterType} a planter can join as individual planter or member of an organization",
        "params": {
          "_countryCode": "country code",
          "_latitude": "latitude value",
          "_longitude": "longitude value",
          "_organizationAddress": "address of organization to be member of NOTE if join as a member of an organization, when that organization accept planter, planter status set to active",
          "_planterType": "1 for individual and 3 for member of organization",
          "_refferedBy": "address of referral"
        }
      },
      "plantingPermission(address,address)": {
        "details": "return if a planter can plant a tree and increase planter plantedCount 1 time.",
        "params": {
          "_assignedPlanterAddress": "address of planter that tree assigned to",
          "_planterAddress": "address of planter who want to plant tree"
        },
        "returns": {
          "_0": "if a planter can plant a tree or not"
        }
      },
      "reducePlantCount(address)": {
        "details": "when tree plant of {_planterAddress} rejected, plantedCount of {_planterAddress} must reduce 1 time and if planter status is full capacity {2} update it to active {1}",
        "params": {
          "_planterAddress": "address of planter NOTE only treeFactory contract can call this function"
        }
      },
      "setTrustedForwarder(address)": {
        "details": "set trusted forwarder address",
        "params": {
          "_address": "set to {trustedForwarder}"
        }
      },
      "updateCapacity(address,uint32)": {
        "details": "admin update capacity of planter {_planterAddress}",
        "params": {
          "_capacity": "capacity that set to planter capacity",
          "_planterAddress": "address of planter to update capacity"
        }
      },
      "updateOrganizationPlanterPayment(address,uint256)": {
        "details": "oragnization can update planterPayment rules of it's members",
        "params": {
          "_planterAddress": "address of planter",
          "_planterAutomaticPaymentPortion": "payment portion value NOTE only organization (planterType = 2) can call this function"
        }
      },
      "updatePlanterType(uint8,address)": {
        "details": "planter with type 1 , 3 can update their planterType using this function. planterType 3 (member of organization) can change to planterType 1 (individual planter) with input value {_planterType} of 1 and zeroAddress as {_organizationAddress} or choose other organization to be member of with input value {_planterType} of 3 and {_organizationAddress}. planterType 1 can only change to planterType 3 with input value {_planterAddress} of 3 and {_organizationAddress} if planter type 3 choose another oraganization or planterType 1 chage to planterType 3, they must be accepted by the organization to be an active planter"
      },
      "versionRecipient()": {
        "details": "return version recipient "
      }
    },
    "title": "Planter contract ",
    "version": 1
  },
  "userdoc": {
    "kind": "user",
    "methods": {
      "isPlanter()": {
        "notice": "NOTE {isPlanter} set inside the initialize to {true} "
      },
      "isTrustedForwarder(address)": {
        "notice": "return if the forwarder is trusted to forward relayed transactions to us. the forwarder is required to verify the sender's signature, and verify the call is not a replay."
      },
      "memberOf(address)": {
        "notice": "NOTE mapping of planterAddress to organizationAddress that planter is member of it "
      },
      "organizationRules(address,address)": {
        "notice": "NOTE mapping of organizationAddress to mapping of planterAddress to portionValue "
      },
      "planters(address)": {
        "notice": "NOTE mapping of planterAddress to PlanterData "
      },
      "refferedBy(address)": {
        "notice": "NOTE mapping of planterAddress to address of refferedBy "
      }
    },
    "version": 1
  }
}