{
  "contractName": "RegularSell",
  "abi": [
    {
      "anonymous": false,
      "inputs": [
        {
          "indexed": false,
          "internalType": "uint256",
          "name": "count",
          "type": "uint256"
        }
      ],
      "name": "GiftPerRegularBuyUpdated",
      "type": "event"
    },
    {
      "anonymous": false,
      "inputs": [
        {
          "indexed": false,
          "internalType": "uint256",
          "name": "lastSoldRegularTree",
          "type": "uint256"
        }
      ],
      "name": "LastSoldRegularTreeUpdated",
      "type": "event"
    },
    {
      "anonymous": false,
      "inputs": [
        {
          "indexed": false,
          "internalType": "address",
          "name": "referrer",
          "type": "address"
        },
        {
          "indexed": false,
          "internalType": "uint256",
          "name": "count",
          "type": "uint256"
        },
        {
          "indexed": false,
          "internalType": "uint256",
          "name": "amount",
          "type": "uint256"
        }
      ],
      "name": "ReferrGiftClaimed",
      "type": "event"
    },
    {
      "anonymous": false,
      "inputs": [
        {
          "indexed": false,
          "internalType": "address",
          "name": "buyer",
          "type": "address"
        },
        {
          "indexed": false,
          "internalType": "uint256",
          "name": "treeId",
          "type": "uint256"
        },
        {
          "indexed": false,
          "internalType": "uint256",
          "name": "treePrice",
          "type": "uint256"
        }
      ],
      "name": "RegularMint",
      "type": "event"
    },
    {
      "anonymous": false,
      "inputs": [
        {
          "indexed": false,
          "internalType": "uint256",
          "name": "regularPlanterFund",
          "type": "uint256"
        },
        {
          "indexed": false,
          "internalType": "uint256",
          "name": "regularReferralFund",
          "type": "uint256"
        }
      ],
      "name": "RegularPlanterFundSet",
      "type": "event"
    },
    {
      "anonymous": false,
      "inputs": [
        {
          "indexed": false,
          "internalType": "address",
          "name": "buyer",
          "type": "address"
        },
        {
          "indexed": false,
          "internalType": "address",
          "name": "referrer",
          "type": "address"
        },
        {
          "indexed": false,
          "internalType": "uint256",
          "name": "count",
          "type": "uint256"
        },
        {
          "indexed": false,
          "internalType": "uint256",
          "name": "amount",
          "type": "uint256"
        }
      ],
      "name": "RegularTreeRequsted",
      "type": "event"
    },
    {
      "anonymous": false,
      "inputs": [
        {
          "indexed": false,
          "internalType": "address",
          "name": "buyer",
          "type": "address"
        },
        {
          "indexed": false,
          "internalType": "address",
          "name": "referrer",
          "type": "address"
        },
        {
          "indexed": false,
          "internalType": "uint256",
          "name": "treeId",
          "type": "uint256"
        },
        {
          "indexed": false,
          "internalType": "uint256",
          "name": "amount",
          "type": "uint256"
        }
      ],
      "name": "RegularTreeRequstedById",
      "type": "event"
    },
    {
      "anonymous": false,
      "inputs": [
        {
          "indexed": false,
          "internalType": "uint256",
          "name": "price",
          "type": "uint256"
        }
      ],
      "name": "TreePriceUpdated",
      "type": "event"
    },
    {
      "inputs": [],
      "name": "accessRestriction",
      "outputs": [
        {
          "internalType": "contract IAccessRestriction",
          "name": "",
          "type": "address"
        }
      ],
      "stateMutability": "view",
      "type": "function",
      "constant": true
    },
    {
      "inputs": [],
      "name": "daiFunds",
      "outputs": [
        {
          "internalType": "contract IDaiFunds",
          "name": "",
          "type": "address"
        }
      ],
      "stateMutability": "view",
      "type": "function",
      "constant": true
    },
    {
      "inputs": [],
      "name": "daiToken",
      "outputs": [
        {
          "internalType": "contract IERC20Upgradeable",
          "name": "",
          "type": "address"
        }
      ],
      "stateMutability": "view",
      "type": "function",
      "constant": true
    },
    {
      "inputs": [],
      "name": "financialModel",
      "outputs": [
        {
          "internalType": "contract IFinancialModel",
          "name": "",
          "type": "address"
        }
      ],
      "stateMutability": "view",
      "type": "function",
      "constant": true
    },
    {
      "inputs": [
        {
          "internalType": "address",
          "name": "",
          "type": "address"
        }
      ],
      "name": "genesisReferrerGifts",
      "outputs": [
        {
          "internalType": "uint256",
          "name": "",
          "type": "uint256"
        }
      ],
      "stateMutability": "view",
      "type": "function",
      "constant": true
    },
    {
      "inputs": [],
      "name": "isRegularSell",
      "outputs": [
        {
          "internalType": "bool",
          "name": "",
          "type": "bool"
        }
      ],
      "stateMutability": "view",
      "type": "function",
      "constant": true
    },
    {
      "inputs": [
        {
          "internalType": "address",
          "name": "forwarder",
          "type": "address"
        }
      ],
      "name": "isTrustedForwarder",
      "outputs": [
        {
          "internalType": "bool",
          "name": "",
          "type": "bool"
        }
      ],
      "stateMutability": "view",
      "type": "function",
      "constant": true
    },
    {
      "inputs": [],
      "name": "lastSoldRegularTree",
      "outputs": [
        {
          "internalType": "uint256",
          "name": "",
          "type": "uint256"
        }
      ],
      "stateMutability": "view",
      "type": "function",
      "constant": true
    },
    {
      "inputs": [],
      "name": "perRegularBuys",
      "outputs": [
        {
          "internalType": "uint256",
          "name": "",
          "type": "uint256"
        }
      ],
      "stateMutability": "view",
      "type": "function",
      "constant": true
    },
    {
      "inputs": [],
      "name": "planterFundContract",
      "outputs": [
        {
          "internalType": "contract IPlanterFund",
          "name": "",
          "type": "address"
        }
      ],
      "stateMutability": "view",
      "type": "function",
      "constant": true
    },
    {
      "inputs": [
        {
          "internalType": "address",
          "name": "",
          "type": "address"
        }
      ],
      "name": "referrerRegularCount",
      "outputs": [
        {
          "internalType": "uint256",
          "name": "",
          "type": "uint256"
        }
      ],
      "stateMutability": "view",
      "type": "function",
      "constant": true
    },
    {
      "inputs": [],
      "name": "regularPlanterFund",
      "outputs": [
        {
          "internalType": "uint256",
          "name": "",
          "type": "uint256"
        }
      ],
      "stateMutability": "view",
      "type": "function",
      "constant": true
    },
    {
      "inputs": [],
      "name": "regularReferralFund",
      "outputs": [
        {
          "internalType": "uint256",
          "name": "",
          "type": "uint256"
        }
      ],
      "stateMutability": "view",
      "type": "function",
      "constant": true
    },
    {
      "inputs": [
        {
          "internalType": "address",
          "name": "",
          "type": "address"
        }
      ],
      "name": "regularReferrerGifts",
      "outputs": [
        {
          "internalType": "uint256",
          "name": "",
          "type": "uint256"
        }
      ],
      "stateMutability": "view",
      "type": "function",
      "constant": true
    },
    {
      "inputs": [],
      "name": "treeFactory",
      "outputs": [
        {
          "internalType": "contract ITreeFactory",
          "name": "",
          "type": "address"
        }
      ],
      "stateMutability": "view",
      "type": "function",
      "constant": true
    },
    {
      "inputs": [],
      "name": "treePrice",
      "outputs": [
        {
          "internalType": "uint256",
          "name": "",
          "type": "uint256"
        }
      ],
      "stateMutability": "view",
      "type": "function",
      "constant": true
    },
    {
      "inputs": [],
      "name": "trustedForwarder",
      "outputs": [
        {
          "internalType": "address",
          "name": "",
          "type": "address"
        }
      ],
      "stateMutability": "view",
      "type": "function",
      "constant": true
    },
    {
      "inputs": [],
      "name": "versionRecipient",
      "outputs": [
        {
          "internalType": "string",
          "name": "",
          "type": "string"
        }
      ],
      "stateMutability": "pure",
      "type": "function",
      "constant": true
    },
    {
      "inputs": [],
      "name": "wethFunds",
      "outputs": [
        {
          "internalType": "contract IWethFunds",
          "name": "",
          "type": "address"
        }
      ],
      "stateMutability": "view",
      "type": "function",
      "constant": true
    },
    {
      "inputs": [
        {
          "internalType": "address",
          "name": "_accessRestrictionAddress",
          "type": "address"
        },
        {
          "internalType": "uint256",
          "name": "_price",
          "type": "uint256"
        }
      ],
      "name": "initialize",
      "outputs": [],
      "stateMutability": "nonpayable",
      "type": "function"
    },
    {
      "inputs": [
        {
          "internalType": "address",
          "name": "_address",
          "type": "address"
        }
      ],
      "name": "setTrustedForwarder",
      "outputs": [],
      "stateMutability": "nonpayable",
      "type": "function"
    },
    {
      "inputs": [
        {
          "internalType": "uint256",
          "name": "_lastSoldRegularTree",
          "type": "uint256"
        }
      ],
      "name": "setLastSoldRegularTree",
      "outputs": [],
      "stateMutability": "nonpayable",
      "type": "function"
    },
    {
      "inputs": [
        {
          "internalType": "address",
          "name": "_address",
          "type": "address"
        }
      ],
      "name": "setTreeFactoryAddress",
      "outputs": [],
      "stateMutability": "nonpayable",
      "type": "function"
    },
    {
      "inputs": [
        {
          "internalType": "address",
          "name": "_address",
          "type": "address"
        }
      ],
      "name": "setDaiFundsAddress",
      "outputs": [],
      "stateMutability": "nonpayable",
      "type": "function"
    },
    {
      "inputs": [
        {
          "internalType": "address",
          "name": "_address",
          "type": "address"
        }
      ],
      "name": "setDaiTokenAddress",
      "outputs": [],
      "stateMutability": "nonpayable",
      "type": "function"
    },
    {
      "inputs": [
        {
          "internalType": "address",
          "name": "_address",
          "type": "address"
        }
      ],
      "name": "setFinancialModelAddress",
      "outputs": [],
      "stateMutability": "nonpayable",
      "type": "function"
    },
    {
      "inputs": [
        {
          "internalType": "address",
          "name": "_address",
          "type": "address"
        }
      ],
      "name": "setPlanterFundAddress",
      "outputs": [],
      "stateMutability": "nonpayable",
      "type": "function"
    },
    {
      "inputs": [
        {
          "internalType": "address",
          "name": "_address",
          "type": "address"
        }
      ],
      "name": "setWethFundsAddress",
      "outputs": [],
      "stateMutability": "nonpayable",
      "type": "function"
    },
    {
      "inputs": [
        {
          "internalType": "uint256",
          "name": "_price",
          "type": "uint256"
        }
      ],
      "name": "setPrice",
      "outputs": [],
      "stateMutability": "nonpayable",
      "type": "function"
    },
    {
      "inputs": [
        {
          "internalType": "uint256",
          "name": "_count",
          "type": "uint256"
        }
      ],
      "name": "setGiftPerRegularBuys",
      "outputs": [],
      "stateMutability": "nonpayable",
      "type": "function"
    },
    {
      "inputs": [
        {
          "internalType": "uint256",
          "name": "_count",
          "type": "uint256"
        },
        {
          "internalType": "address",
          "name": "_referrer",
          "type": "address"
        }
      ],
      "name": "requestTrees",
      "outputs": [],
      "stateMutability": "nonpayable",
      "type": "function"
    },
    {
      "inputs": [
        {
          "internalType": "uint256",
          "name": "_treeId",
          "type": "uint256"
        },
        {
          "internalType": "address",
          "name": "_referrer",
          "type": "address"
        }
      ],
      "name": "requestByTreeId",
      "outputs": [],
      "stateMutability": "nonpayable",
      "type": "function"
    },
    {
      "inputs": [
        {
          "internalType": "uint256",
          "name": "_regularPlanterFund",
          "type": "uint256"
        },
        {
          "internalType": "uint256",
          "name": "_regularReferralFund",
          "type": "uint256"
        }
      ],
      "name": "setRegularPlanterFund",
      "outputs": [],
      "stateMutability": "nonpayable",
      "type": "function"
    },
    {
      "inputs": [
        {
          "internalType": "address",
          "name": "_referrer",
          "type": "address"
        },
        {
          "internalType": "uint256",
          "name": "_count",
          "type": "uint256"
        }
      ],
      "name": "updateGenesisReferrerGift",
      "outputs": [],
      "stateMutability": "nonpayable",
      "type": "function"
    },
    {
      "inputs": [],
      "name": "claimGifts",
      "outputs": [],
      "stateMutability": "nonpayable",
      "type": "function"
    }
  ],
  "bytecode": "0x608060405234801561001057600080fd5b50612754806100206000396000f3fe608060405234801561001057600080fd5b50600436106102115760003560e01c8063869b8f8011610125578063d6762c4a116100ad578063e787d40e1161007c578063e787d40e1461049e578063ebde59c5146104b1578063ecabfd2b146104d1578063f1326b15146104f1578063f7b914ac1461050457600080fd5b8063d6762c4a1461045d578063da74222814610470578063e30c392014610483578063e5f52e7c1461048b57600080fd5b8063b438caed116100f4578063b438caed1461040e578063be22f54614610421578063c2f8fff814610434578063cd6dc6871461043d578063d0ae266a1461045057600080fd5b8063869b8f80146103d657806391b7f5ed146103df57806395b64603146103f2578063a70db4d71461040557600080fd5b80634ad07f9e116101a85780635e6c73c6116101775780635e6c73c6146103715780637da0a877146103845780637f9d51951461039d57806380d663ea146103b057806381b42447146103c357600080fd5b80634ad07f9e146103005780634fe044c41461031357806351c90f1714610326578063572b6c051461033957600080fd5b80632aad7f76116101e45780632aad7f76146102635780634178aa2a14610276578063421ef6d414610296578063486ff0cd146102c157600080fd5b80630605f54c1461021657806309b54e90146102325780630bf351f8146102475780631afb88041461025a575b600080fd5b61021f60025481565b6040519081526020015b60405180910390f35b61024561024036600461257e565b610517565b005b610245610255366004612447565b610cbf565b61021f60015481565b610245610271366004612447565b610dd1565b61021f610284366004612447565b60076020526000908152604090205481565b600b546102a9906001600160a01b031681565b6040516001600160a01b039091168152602001610229565b604080518082018252601d81527f322e322e302b747265656a65722e6972656c6179726563697069656e740000006020820152905161022991906125cc565b61024561030e366004612447565b610ee3565b610245610321366004612447565b610ff5565b600c546102a9906001600160a01b031681565b610361610347366004612447565b6000546201000090046001600160a01b0390811691161490565b6040519015158152602001610229565b61024561037f3660046125aa565b611107565b6000546102a9906201000090046001600160a01b031681565b6102456103ab36600461257e565b6111be565b600f546102a9906001600160a01b031681565b6102456103d1366004612469565b61162e565b61021f60055481565b6102456103ed36600461254c565b6116cf565b600d546102a9906001600160a01b031681565b61021f60065481565b61024561041c36600461254c565b61177b565b600e546102a9906001600160a01b031681565b61021f60045481565b61024561044b366004612469565b611820565b6003546103619060ff1681565b600a546102a9906001600160a01b031681565b61024561047e366004612447565b6119f7565b610245611adc565b61024561049936600461254c565b611ee0565b6010546102a9906001600160a01b031681565b61021f6104bf366004612447565b60096020526000908152604090205481565b61021f6104df366004612447565b60086020526000908152604090205481565b6102456104ff366004612447565b611fd6565b610245610512366004612447565b6120b3565b6000821180156105275750606582105b6105685760405162461bcd60e51b815260206004820152600d60248201526c1a5b9d985b1a590818dbdd5b9d609a1b60448201526064015b60405180910390fd5b600082600254610578919061265b565b600e5490915081906001600160a01b03166370a082316105966121c5565b6040516001600160e01b031960e084901b1681526001600160a01b03909116600482015260240160206040518083038186803b1580156105d557600080fd5b505afa1580156105e9573d6000803e3d6000fd5b505050506040513d601f19601f8201168201806040525081019061060d9190612565565b101561064c5760405162461bcd60e51b815260206004820152600e60248201526d1a5b9d985b1a5908185b5bdd5b9d60921b604482015260640161055f565b600e546000906001600160a01b03166323b872dd6106686121c5565b600c5460405160e084901b6001600160e01b03191681526001600160a01b0392831660048201529116602482015260448101859052606401602060405180830381600087803b1580156106ba57600080fd5b505af11580156106ce573d6000803e3d6000fd5b505050506040513d601f19601f820116820180604052508101906106f29190612493565b9050806107395760405162461bcd60e51b81526020600482015260156024820152743ab739bab1b1b2b9b9b33ab6103a3930b739b332b960591b604482015260640161055f565b7f458887e47fe8311cbb8d1b5c71638c6a1a545e99561639900b9d56d90f2fc9796107626121c5565b604080516001600160a01b039283168152918616602083015281018690526060810184905260800160405180910390a1600060015490506107e160405180610100016040528060008152602001600081526020016000815260200160008152602001600081526020016000815260200160008152602001600081525090565b60005b86811015610be457600b546001600160a01b031663b20cae54846108066121c5565b6040516001600160e01b031960e085901b16815260048101929092526001600160a01b03166024820152604401602060405180830381600087803b15801561084d57600080fd5b505af1158015610861573d6000803e3d6000fd5b505050506040513d601f19601f820116820180604052508101906108859190612565565b600d54604051631123660b60e31b81526004810183905291945060009182918291829182918291829182916001600160a01b03169063891b30589060240161010060405180830381600087803b1580156108de57600080fd5b505af11580156108f2573d6000803e3d6000fd5b505050506040513d601f19601f8201168201806040525081019061091691906124b5565b975097509750975097509750975097506127108861ffff1660025461093b919061265b565b6109459190612639565b8a518b90610954908390612621565b9052506002546127109061096d9061ffff8a169061265b565b6109779190612639565b8a6020018181516109889190612621565b905250600254612710906109a19061ffff89169061265b565b6109ab9190612639565b8a6040018181516109bc9190612621565b905250600254612710906109d59061ffff88169061265b565b6109df9190612639565b8a6060018181516109f09190612621565b90525060025461271090610a099061ffff87169061265b565b610a139190612639565b8a608001818151610a249190612621565b90525060025461271090610a3d9061ffff86169061265b565b610a479190612639565b8a60a001818151610a589190612621565b90525060025461271090610a719061ffff85169061265b565b610a7b9190612639565b8a60c001818151610a8c9190612621565b90525060025461271090610aa59061ffff84169061265b565b610aaf9190612639565b8a60e001818151610ac09190612621565b905250600f546002546001600160a01b0390911690633ad7c33b908d9061271090610af09061ffff8e169061265b565b610afa9190612639565b6127108b61ffff16600254610b0f919061265b565b610b199190612639565b6040516001600160e01b031960e086901b168152600481019390935260248301919091526044820152606401600060405180830381600087803b158015610b5f57600080fd5b505af1158015610b73573d6000803e3d6000fd5b505050507f60b886b51751221ddd934ac803d3ba36fb23ef92053ffd07f770f2599c0475a5610ba06121c5565b600254604080516001600160a01b039093168352602083018f905282015260600160405180910390a150505050505050508080610bdc906126d0565b9150506107e4565b50600c54815160208301516040808501516060860151608087015160a088015160c089015160e08a0151955163322af15560e01b81526004810198909852602488019690965260448701939093526064860191909152608485015260a484015260c483019190915260e48201526001600160a01b039091169063322af1559061010401600060405180830381600087803b158015610c8157600080fd5b505af1158015610c95573d6000803e3d6000fd5b5050506001839055506001600160a01b03851615610cb757610cb785876121ff565b505050505050565b600a546001600160a01b0316638413ec14610cd86121c5565b6040516001600160e01b031960e084901b1681526001600160a01b03909116600482015260240160006040518083038186803b158015610d1757600080fd5b505afa158015610d2b573d6000803e3d6000fd5b505050506000819050806001600160a01b031663e0eb4eb96040518163ffffffff1660e01b815260040160206040518083038186803b158015610d6d57600080fd5b505afa158015610d81573d6000803e3d6000fd5b505050506040513d601f19601f82011682018060405250810190610da59190612493565b610dae57600080fd5b600b80546001600160a01b0319166001600160a01b039290921691909117905550565b600a546001600160a01b0316638413ec14610dea6121c5565b6040516001600160e01b031960e084901b1681526001600160a01b03909116600482015260240160006040518083038186803b158015610e2957600080fd5b505afa158015610e3d573d6000803e3d6000fd5b505050506000819050806001600160a01b031663313b39376040518163ffffffff1660e01b815260040160206040518083038186803b158015610e7f57600080fd5b505afa158015610e93573d6000803e3d6000fd5b505050506040513d601f19601f82011682018060405250810190610eb79190612493565b610ec057600080fd5b601080546001600160a01b0319166001600160a01b039290921691909117905550565b600a546001600160a01b0316638413ec14610efc6121c5565b6040516001600160e01b031960e084901b1681526001600160a01b03909116600482015260240160006040518083038186803b158015610f3b57600080fd5b505afa158015610f4f573d6000803e3d6000fd5b505050506000819050806001600160a01b031663349904da6040518163ffffffff1660e01b815260040160206040518083038186803b158015610f9157600080fd5b505afa158015610fa5573d6000803e3d6000fd5b505050506040513d601f19601f82011682018060405250810190610fc99190612493565b610fd257600080fd5b600f80546001600160a01b0319166001600160a01b039290921691909117905550565b600a546001600160a01b0316638413ec1461100e6121c5565b6040516001600160e01b031960e084901b1681526001600160a01b03909116600482015260240160006040518083038186803b15801561104d57600080fd5b505afa158015611061573d6000803e3d6000fd5b505050506000819050806001600160a01b031663966da5fb6040518163ffffffff1660e01b815260040160206040518083038186803b1580156110a357600080fd5b505afa1580156110b7573d6000803e3d6000fd5b505050506040513d601f19601f820116820180604052508101906110db9190612493565b6110e457600080fd5b600d80546001600160a01b0319166001600160a01b039290921691909117905550565b600a546001600160a01b031663c4d2a31b6111206121c5565b6040516001600160e01b031960e084901b1681526001600160a01b03909116600482015260240160006040518083038186803b15801561115f57600080fd5b505afa158015611173573d6000803e3d6000fd5b505050600483905550600581905560408051838152602081018390527fc2981c89b3f01941b1fd0be0e409b2f5e866da8f2e86ce6f9c6c1b601793ec11910160405180910390a15050565b60015482116111fe5760405162461bcd60e51b815260206004820152600c60248201526b696e76616c6964207472656560a01b604482015260640161055f565b600254600e546001600160a01b03166370a0823161121a6121c5565b6040516001600160e01b031960e084901b1681526001600160a01b03909116600482015260240160206040518083038186803b15801561125957600080fd5b505afa15801561126d573d6000803e3d6000fd5b505050506040513d601f19601f820116820180604052508101906112919190612565565b10156112d05760405162461bcd60e51b815260206004820152600e60248201526d1a5b9d985b1a5908185b5bdd5b9d60921b604482015260640161055f565b600e546000906001600160a01b03166323b872dd6112ec6121c5565b600c5460025460405160e085901b6001600160e01b03191681526001600160a01b0393841660048201529290911660248301526044820152606401602060405180830381600087803b15801561134157600080fd5b505af1158015611355573d6000803e3d6000fd5b505050506040513d601f19601f820116820180604052508101906113799190612493565b9050806113c05760405162461bcd60e51b81526020600482015260156024820152743ab739bab1b1b2b9b9b33ab6103a3930b739b332b960591b604482015260640161055f565b7fa85d606b949a2bb51a2fb90f772b3c86fa364092274e9a122ed1d3a05c00bdbc6113e96121c5565b600254604080516001600160a01b03938416815292861660208401528201869052606082015260800160405180910390a1600b546001600160a01b031663e9455157846114346121c5565b6040516001600160e01b031960e085901b16815260048101929092526001600160a01b03166024820152604401600060405180830381600087803b15801561147b57600080fd5b505af115801561148f573d6000803e3d6000fd5b5050600d54604051631123660b60e31b815260048101879052600093508392508291829182918291829182916001600160a01b039091169063891b30589060240161010060405180830381600087803b1580156114eb57600080fd5b505af11580156114ff573d6000803e3d6000fd5b505050506040513d601f19601f8201168201806040525081019061152391906124b5565b97509750975097509750975097509750600c60009054906101000a90046001600160a01b03166001600160a01b031663b36758328c6002548b8b8b8b8b8b8b8b6040518b63ffffffff1660e01b81526004016115d59a99989796959493929190998a5260208a019890985261ffff96871660408a01529486166060890152928516608088015290841660a0870152831660c0860152821660e08501528116610100840152166101208201526101400190565b600060405180830381600087803b1580156115ef57600080fd5b505af1158015611603573d6000803e3d6000fd5b505050506001600160a01b038a1615611621576116218a60016121ff565b5050505050505050505050565b600a546001600160a01b031663ebe6a6f36116476121c5565b6040516001600160e01b031960e084901b1681526001600160a01b03909116600482015260240160006040518083038186803b15801561168657600080fd5b505afa15801561169a573d6000803e3d6000fd5b505050506001600160a01b038216600090815260076020526040812080548392906116c6908490612621565b90915550505050565b600a546001600160a01b031663c4d2a31b6116e86121c5565b6040516001600160e01b031960e084901b1681526001600160a01b03909116600482015260240160006040518083038186803b15801561172757600080fd5b505afa15801561173b573d6000803e3d6000fd5b5050506002829055506040518181527f616d92add029a1b8ad2a3109f3fafb9edf08ab3125fde93422e7485d7d421eec906020015b60405180910390a150565b600a546001600160a01b031663c4d2a31b6117946121c5565b6040516001600160e01b031960e084901b1681526001600160a01b03909116600482015260240160006040518083038186803b1580156117d357600080fd5b505afa1580156117e7573d6000803e3d6000fd5b5050506006829055506040518181527f952cb402112a1d904affc7e3c1279b93bd1ba9fcdd6df3dcf036012dcf35dfa190602001611770565b600054610100900460ff1680611839575060005460ff16155b61189c5760405162461bcd60e51b815260206004820152602e60248201527f496e697469616c697a61626c653a20636f6e747261637420697320616c72656160448201526d191e481a5b9a5d1a585b1a5e995960921b606482015260840161055f565b600054610100900460ff161580156118be576000805461ffff19166101011790555b6000839050806001600160a01b031663ba84fd696040518163ffffffff1660e01b815260040160206040518083038186803b1580156118fc57600080fd5b505afa158015611910573d6000803e3d6000fd5b505050506040513d601f19601f820116820180604052508101906119349190612493565b61193d57600080fd5b600a80546001600160a01b0319166001600160a01b0383161790556003805460ff1916600190811790915561271090556014600681905560028490556040519081527f952cb402112a1d904affc7e3c1279b93bd1ba9fcdd6df3dcf036012dcf35dfa19060200160405180910390a16040518381527f616d92add029a1b8ad2a3109f3fafb9edf08ab3125fde93422e7485d7d421eec9060200160405180910390a15080156119f2576000805461ff00191690555b505050565b600a546001600160a01b0316638413ec14611a106121c5565b6040516001600160e01b031960e084901b1681526001600160a01b03909116600482015260240160006040518083038186803b158015611a4f57600080fd5b505afa158015611a63573d6000803e3d6000fd5b5083925050506001600160a01b038116611ab15760405162461bcd60e51b815260206004820152600f60248201526e696e76616c6964206164647265737360881b604482015260640161055f565b50600080546001600160a01b03909216620100000262010000600160b01b0319909216919091179055565b600060076000611aea6121c5565b6001600160a01b03166001600160a01b031681526020019081526020016000205460086000611b176121c5565b6001600160a01b03166001600160a01b0316815260200190815260200160002054611b429190612621565b905060008111611b895760405162461bcd60e51b815260206004820152601260248201527134b73b30b634b21033b4b33a1037bbb732b960711b604482015260640161055f565b602d811115611b965750602d5b60008160086000611ba56121c5565b6001600160a01b03166001600160a01b0316815260200190815260200160002054611bd0919061267a565b90506000600019821315611c9e57600554600454611bee9190612621565b611bf8908461265b565b90508260086000611c076121c5565b6001600160a01b03166001600160a01b031681526020019081526020016000206000828254611c3691906126b9565b9091555050600c5460405163057b705360e21b8152600481018390526001600160a01b03909116906315edc14c90602401600060405180830381600087803b158015611c8157600080fd5b505af1158015611c95573d6000803e3d6000fd5b50505050611e7e565b600060086000611cac6121c5565b6001600160a01b03166001600160a01b03168152602001908152602001600020541115611da057600554600454611ce39190612621565b60086000611cef6121c5565b6001600160a01b03166001600160a01b0316815260200190815260200160002054611d1a919061265b565b9050600060086000611d2a6121c5565b6001600160a01b0390811682526020820192909252604090810160002092909255600c54915163057b705360e21b8152600481018490529116906315edc14c90602401600060405180830381600087803b158015611d8757600080fd5b505af1158015611d9b573d6000803e3d6000fd5b505050505b6000600554600454611db29190612621565b611dbb846126eb565b611dc5919061265b565b9050611dd0836126eb565b60076000611ddc6121c5565b6001600160a01b03166001600160a01b031681526020019081526020016000206000828254611e0b91906126b9565b909155505060105460405163f8b5ee9160e01b8152600481018390526001600160a01b039091169063f8b5ee9190602401600060405180830381600087803b158015611e5657600080fd5b505af1158015611e6a573d6000803e3d6000fd5b505050508082611e7a9190612621565b9150505b7f62b0c57ca4f50c4009497a60e9550231196b0360f442cd9012ef25a0ad786292611ea76121c5565b604080516001600160a01b03909216825260208201869052810183905260600160405180910390a16119f283611edb6121c5565b6122ac565b600a546001600160a01b031663c4d2a31b611ef96121c5565b6040516001600160e01b031960e084901b1681526001600160a01b03909116600482015260240160006040518083038186803b158015611f3857600080fd5b505afa158015611f4c573d6000803e3d6000fd5b505050506001548111611fa15760405162461bcd60e51b815260206004820152601f60248201527f496e707574206d757374206265206774206c617374207472656520736f6c6400604482015260640161055f565b60018190556040518181527ff53059f92a31cf788b75fb4e8d130dafce4a0c15dca14b5c2a74d1dfcce383a090602001611770565b600a546001600160a01b0316638413ec14611fef6121c5565b6040516001600160e01b031960e084901b1681526001600160a01b03909116600482015260240160006040518083038186803b15801561202e57600080fd5b505afa158015612042573d6000803e3d6000fd5b5083925050506001600160a01b0381166120905760405162461bcd60e51b815260206004820152600f60248201526e696e76616c6964206164647265737360881b604482015260640161055f565b50600e80546001600160a01b0319166001600160a01b0392909216919091179055565b600a546001600160a01b0316638413ec146120cc6121c5565b6040516001600160e01b031960e084901b1681526001600160a01b03909116600482015260240160006040518083038186803b15801561210b57600080fd5b505afa15801561211f573d6000803e3d6000fd5b505050506000819050806001600160a01b031663ed3b0a006040518163ffffffff1660e01b815260040160206040518083038186803b15801561216157600080fd5b505afa158015612175573d6000803e3d6000fd5b505050506040513d601f19601f820116820180604052508101906121999190612493565b6121a257600080fd5b600c80546001600160a01b0319166001600160a01b039290921691909117905550565b6000601436108015906121e857506000546201000090046001600160a01b031633145b156121fa575060131936013560601c90565b503390565b6001600160a01b038216600090815260096020526040812054612223908390612621565b9050600654811061228c5760006006548261223e9190612639565b90506006548161224e919061265b565b61225890836126b9565b6001600160a01b038516600090815260086020526040812080549294508392909190612285908490612621565b9091555050505b6001600160a01b0390921660009081526009602052604090209190915550565b60015460005b8381101561241157600b54604051632c832b9560e21b8152600481018490526001600160a01b0385811660248301529091169063b20cae5490604401602060405180830381600087803b15801561230857600080fd5b505af115801561231c573d6000803e3d6000fd5b505050506040513d601f19601f820116820180604052508101906123409190612565565b600f5460048054600554604051633ad7c33b60e01b8152928301859052602483019190915260448201529193506001600160a01b031690633ad7c33b90606401600060405180830381600087803b15801561239a57600080fd5b505af11580156123ae573d6000803e3d6000fd5b5050600254604080516001600160a01b03881681526020810187905280820192909252517f60b886b51751221ddd934ac803d3ba36fb23ef92053ffd07f770f2599c0475a59350908190036060019150a180612409816126d0565b9150506122b2565b506001555050565b80356001600160a01b038116811461243057600080fd5b919050565b805161ffff8116811461243057600080fd5b60006020828403121561245957600080fd5b61246282612419565b9392505050565b6000806040838503121561247c57600080fd5b61248583612419565b946020939093013593505050565b6000602082840312156124a557600080fd5b8151801515811461246257600080fd5b600080600080600080600080610100898b0312156124d257600080fd5b6124db89612435565b97506124e960208a01612435565b96506124f760408a01612435565b955061250560608a01612435565b945061251360808a01612435565b935061252160a08a01612435565b925061252f60c08a01612435565b915061253d60e08a01612435565b90509295985092959890939650565b60006020828403121561255e57600080fd5b5035919050565b60006020828403121561257757600080fd5b5051919050565b6000806040838503121561259157600080fd5b823591506125a160208401612419565b90509250929050565b600080604083850312156125bd57600080fd5b50508035926020909101359150565b600060208083528351808285015260005b818110156125f9578581018301518582016040015282016125dd565b8181111561260b576000604083870101525b50601f01601f1916929092016040019392505050565b6000821982111561263457612634612708565b500190565b60008261265657634e487b7160e01b600052601260045260246000fd5b500490565b600081600019048311821515161561267557612675612708565b500290565b60008083128015600160ff1b85018412161561269857612698612708565b6001600160ff1b03840183138116156126b3576126b3612708565b50500390565b6000828210156126cb576126cb612708565b500390565b60006000198214156126e4576126e4612708565b5060010190565b6000600160ff1b82141561270157612701612708565b5060000390565b634e487b7160e01b600052601160045260246000fdfea264697066735822122034b682f2c6565e12f2cc30ea8dd5075006f9d2ecdc812d02bb6e15346387870564736f6c63430008060033",
  "immutableReferences": {},
  "source": "//SPDX-License-Identifier: MIT\npragma solidity ^0.8.6;\n\nimport \"@openzeppelin/contracts-upgradeable/proxy/utils/Initializable.sol\";\nimport \"@openzeppelin/contracts-upgradeable/token/ERC20/IERC20Upgradeable.sol\";\nimport \"../access/IAccessRestriction.sol\";\nimport \"../tree/ITreeFactory.sol\";\nimport \"../treasury/IDaiFunds.sol\";\nimport \"../treasury/IFinancialModel.sol\";\nimport \"../gsn/RelayRecipient.sol\";\nimport \"../treasury/IPlanterFund.sol\";\nimport \"../treasury/IWethFunds.sol\";\n\n/** @title RegularSell contract */\ncontract RegularSell is Initializable, RelayRecipient {\n    uint256 public lastSoldRegularTree;\n    uint256 public treePrice;\n\n    /** NOTE {isRegularSell} set inside the initialize to {true} */\n    bool public isRegularSell;\n\n    /** NOTE regular planter fund amount */\n    uint256 public regularPlanterFund;\n\n    /** NOTE regular referral fund amount */\n    uint256 public regularReferralFund;\n\n    //TODO: ADD_COMMENT\n    uint256 public perRegularBuys;\n\n    mapping(address => uint256) public genesisReferrerGifts;\n    mapping(address => uint256) public regularReferrerGifts;\n    mapping(address => uint256) public referrerRegularCount;\n\n    struct FundDistribution {\n        uint256 planterFund;\n        uint256 referralFund;\n        uint256 treeResearch;\n        uint256 localDevelop;\n        uint256 rescueFund;\n        uint256 treejerDevelop;\n        uint256 reserveFund1;\n        uint256 reserveFund2;\n    }\n\n    IAccessRestriction public accessRestriction;\n    ITreeFactory public treeFactory;\n    IDaiFunds public daiFunds;\n    IFinancialModel public financialModel;\n    IERC20Upgradeable public daiToken;\n    IPlanterFund public planterFundContract;\n    IWethFunds public wethFunds;\n\n    event TreePriceUpdated(uint256 price);\n    event RegularTreeRequsted(\n        address buyer,\n        address referrer,\n        uint256 count,\n        uint256 amount\n    );\n    event RegularMint(address buyer, uint256 treeId, uint256 treePrice);\n    event RegularTreeRequstedById(\n        address buyer,\n        address referrer,\n        uint256 treeId,\n        uint256 amount\n    );\n    event LastSoldRegularTreeUpdated(uint256 lastSoldRegularTree);\n    event GiftPerRegularBuyUpdated(uint256 count);\n    event RegularPlanterFundSet(\n        uint256 regularPlanterFund,\n        uint256 regularReferralFund\n    );\n\n    event ReferrGiftClaimed(address referrer, uint256 count, uint256 amount);\n\n    /** NOTE modifier to check msg.sender has admin role */\n    modifier onlyAdmin() {\n        accessRestriction.ifAdmin(_msgSender());\n        _;\n    }\n\n    /** NOTE modifier to check msg.sender has data manager role */\n    modifier onlyDataManager() {\n        accessRestriction.ifDataManager(_msgSender());\n        _;\n    }\n\n    /** NOTE modifier for check msg.sender has TreejerContract role*/\n    modifier onlyTreejerContract() {\n        accessRestriction.ifTreejerContract(_msgSender());\n        _;\n    }\n\n    /** NOTE modifier for check valid address */\n    modifier validAddress(address _address) {\n        require(_address != address(0), \"invalid address\");\n        _;\n    }\n\n    /**\n     * @dev initialize accessRestriction contract and set true for isRegularSell\n     * set {_price} to tree price and set 10000 to lastSoldRegularTree\n     * @param _accessRestrictionAddress set to the address of accessRestriction contract\n     * @param _price initial tree price\n     */\n    function initialize(address _accessRestrictionAddress, uint256 _price)\n        external\n        initializer\n    {\n        IAccessRestriction candidateContract = IAccessRestriction(\n            _accessRestrictionAddress\n        );\n        require(candidateContract.isAccessRestriction());\n        accessRestriction = candidateContract;\n\n        isRegularSell = true;\n        lastSoldRegularTree = 10000;\n\n        perRegularBuys = 20;\n        treePrice = _price;\n\n        emit GiftPerRegularBuyUpdated(20);\n        emit TreePriceUpdated(_price);\n    }\n\n    /**\n     * @dev admin set trusted forwarder address\n     * @param _address set to {trustedForwarder}\n     */\n    function setTrustedForwarder(address _address)\n        external\n        onlyAdmin\n        validAddress(_address)\n    {\n        trustedForwarder = _address;\n    }\n\n    /** @dev data manager can update lastSoldRegularTree */\n    function setLastSoldRegularTree(uint256 _lastSoldRegularTree)\n        external\n        onlyDataManager\n    {\n        require(\n            _lastSoldRegularTree > lastSoldRegularTree,\n            \"Input must be gt last tree sold\"\n        );\n\n        lastSoldRegularTree = _lastSoldRegularTree;\n\n        emit LastSoldRegularTreeUpdated(_lastSoldRegularTree);\n    }\n\n    /** @dev admin set treeFactory contract address\n     * @param _address treeFactory contract address\n     */\n    function setTreeFactoryAddress(address _address) external onlyAdmin {\n        ITreeFactory candidateContract = ITreeFactory(_address);\n\n        require(candidateContract.isTreeFactory());\n\n        treeFactory = candidateContract;\n    }\n\n    /** @dev admin set daiFunds contract address\n     * @param _address daiFunds contract address\n     */\n    function setDaiFundsAddress(address _address) external onlyAdmin {\n        IDaiFunds candidateContract = IDaiFunds(_address);\n\n        require(candidateContract.isDaiFunds());\n\n        daiFunds = candidateContract;\n    }\n\n    /** @dev admin set daiToken contract address\n     * @param _address daiToken contract address\n     */\n    function setDaiTokenAddress(address _address)\n        external\n        onlyAdmin\n        validAddress(_address)\n    {\n        IERC20Upgradeable candidateContract = IERC20Upgradeable(_address);\n        daiToken = candidateContract;\n    }\n\n    /**\n     * @dev admin set FinancialModel contract address\n     * @param _address set to the address of financialModel\n     */\n    function setFinancialModelAddress(address _address) external onlyAdmin {\n        IFinancialModel candidateContract = IFinancialModel(_address);\n        require(candidateContract.isFinancialModel());\n        financialModel = candidateContract;\n    }\n\n    /** @dev admin set planterFund contract address\n     * @param _address planterFund contract address\n     */\n    function setPlanterFundAddress(address _address) external onlyAdmin {\n        IPlanterFund candidateContract = IPlanterFund(_address);\n\n        require(candidateContract.isPlanterFund());\n\n        planterFundContract = candidateContract;\n    }\n\n    /** @dev admin set wethFunds contract address\n     * @param _address wethFunds contract address\n     */\n    function setWethFundsAddress(address _address) external onlyAdmin {\n        IWethFunds candidateContract = IWethFunds(_address);\n\n        require(candidateContract.isWethFunds());\n\n        wethFunds = candidateContract;\n    }\n\n    /** @dev admin set the price of trees that are sold regular\n     * @param _price price of tree\n     */\n    function setPrice(uint256 _price) external onlyDataManager {\n        treePrice = _price;\n        emit TreePriceUpdated(_price);\n    }\n\n    //TODO: ADD_COMMENT\n    function setGiftPerRegularBuys(uint256 _count) external onlyDataManager {\n        perRegularBuys = _count;\n        emit GiftPerRegularBuyUpdated(_count);\n    }\n\n    /** @dev request {_count} trees and the paid amount must be more than\n     * {_count * treePrice }\n     * @param _count is the number of trees requested by user\n     * @param _referrer is address of refferer\n     */\n    function requestTrees(uint256 _count, address _referrer) external {\n        require(_count > 0 && _count < 101, \"invalid count\");\n\n        uint256 totalPrice = treePrice * _count;\n\n        require(\n            daiToken.balanceOf(_msgSender()) >= totalPrice,\n            \"invalid amount\"\n        );\n\n        bool success = daiToken.transferFrom(\n            _msgSender(),\n            address(daiFunds),\n            totalPrice\n        );\n\n        require(success, \"unsuccessful transfer\");\n\n        emit RegularTreeRequsted(_msgSender(), _referrer, _count, totalPrice);\n\n        uint256 tempLastRegularSold = lastSoldRegularTree;\n\n        FundDistribution memory totalFunds;\n\n        for (uint256 i = 0; i < _count; i++) {\n            tempLastRegularSold = treeFactory.mintRegularTrees(\n                tempLastRegularSold,\n                _msgSender()\n            );\n\n            (\n                uint16 planterFund,\n                uint16 referralFund,\n                uint16 treeResearch,\n                uint16 localDevelop,\n                uint16 rescueFund,\n                uint16 treejerDevelop,\n                uint16 reserveFund1,\n                uint16 reserveFund2\n            ) = financialModel.findTreeDistribution(tempLastRegularSold);\n\n            totalFunds.planterFund += (treePrice * planterFund) / 10000;\n            totalFunds.referralFund += (treePrice * referralFund) / 10000;\n            totalFunds.treeResearch += (treePrice * treeResearch) / 10000;\n            totalFunds.localDevelop += (treePrice * localDevelop) / 10000;\n            totalFunds.rescueFund += (treePrice * rescueFund) / 10000;\n            totalFunds.treejerDevelop += (treePrice * treejerDevelop) / 10000;\n            totalFunds.reserveFund1 += (treePrice * reserveFund1) / 10000;\n            totalFunds.reserveFund2 += (treePrice * reserveFund2) / 10000;\n\n            planterFundContract.setPlanterFunds(\n                tempLastRegularSold,\n                (treePrice * planterFund) / 10000,\n                (treePrice * referralFund) / 10000\n            );\n\n            emit RegularMint(_msgSender(), tempLastRegularSold, treePrice);\n        }\n\n        daiFunds.regularFund(\n            totalFunds.planterFund,\n            totalFunds.referralFund,\n            totalFunds.treeResearch,\n            totalFunds.localDevelop,\n            totalFunds.rescueFund,\n            totalFunds.treejerDevelop,\n            totalFunds.reserveFund1,\n            totalFunds.reserveFund2\n        );\n\n        lastSoldRegularTree = tempLastRegularSold;\n\n        if (_referrer != address(0)) {\n            _funcReferrer(_referrer, _count);\n        }\n    }\n\n    function _funcReferrer(address _referrer, uint256 _count) private {\n        uint256 localReferrerRegularCount = referrerRegularCount[_referrer] +\n            _count;\n\n        if (localReferrerRegularCount >= perRegularBuys) {\n            uint256 temp = localReferrerRegularCount / perRegularBuys;\n            localReferrerRegularCount -= temp * perRegularBuys;\n            regularReferrerGifts[_referrer] += temp;\n        }\n\n        referrerRegularCount[_referrer] = localReferrerRegularCount;\n    }\n\n    //TODO: ADD_COMMENT\n    function _mintReferralTree(uint256 _count, address _referrer) private {\n        uint256 tempLastRegularSold = lastSoldRegularTree;\n\n        for (uint256 i = 0; i < _count; i++) {\n            tempLastRegularSold = treeFactory.mintRegularTrees(\n                tempLastRegularSold,\n                _referrer\n            );\n\n            planterFundContract.setPlanterFunds(\n                tempLastRegularSold,\n                regularPlanterFund,\n                regularReferralFund\n            );\n\n            emit RegularMint(_referrer, tempLastRegularSold, treePrice);\n        }\n\n        lastSoldRegularTree = tempLastRegularSold;\n    }\n\n    /** @dev request  tree with id {_treeId} and the paid amount must be more than\n     * {treePrice} and the {_treeId} must be more than {lastSoldRegularTree} to\n     * make sure that has not been sold before\n     * @param _treeId is the id of tree requested by user\n     * @param _referrer is address of referrer\n     */\n    function requestByTreeId(uint256 _treeId, address _referrer) external {\n        require(_treeId > lastSoldRegularTree, \"invalid tree\");\n\n        require(\n            daiToken.balanceOf(_msgSender()) >= treePrice,\n            \"invalid amount\"\n        );\n\n        bool success = daiToken.transferFrom(\n            _msgSender(),\n            address(daiFunds),\n            treePrice\n        );\n\n        require(success, \"unsuccessful transfer\");\n\n        emit RegularTreeRequstedById(\n            _msgSender(),\n            _referrer,\n            _treeId,\n            treePrice\n        );\n\n        treeFactory.requestRegularTree(_treeId, _msgSender());\n\n        (\n            uint16 planterFund,\n            uint16 referralFund,\n            uint16 treeResearch,\n            uint16 localDevelop,\n            uint16 rescueFund,\n            uint16 treejerDevelop,\n            uint16 reserveFund1,\n            uint16 reserveFund2\n        ) = financialModel.findTreeDistribution(_treeId);\n\n        daiFunds.fundTree(\n            _treeId,\n            treePrice,\n            planterFund,\n            referralFund,\n            treeResearch,\n            localDevelop,\n            rescueFund,\n            treejerDevelop,\n            reserveFund1,\n            reserveFund2\n        );\n\n        if (_referrer != address(0)) {\n            _funcReferrer(_referrer, 1);\n        }\n    }\n\n    //TODO: ADD_COMMENT\n    function setRegularPlanterFund(\n        uint256 _regularPlanterFund,\n        uint256 _regularReferralFund\n    ) external onlyDataManager {\n        regularPlanterFund = _regularPlanterFund;\n        regularReferralFund = _regularReferralFund;\n\n        emit RegularPlanterFundSet(_regularPlanterFund, _regularReferralFund);\n    }\n\n    //TODO: ADD_COMMENT\n    function updateGenesisReferrerGift(address _referrer, uint256 _count)\n        external\n        onlyTreejerContract\n    {\n        genesisReferrerGifts[_referrer] += _count;\n    }\n\n    //TODO: ADD_COMMENT\n    function claimGifts() external {\n        uint256 _count = regularReferrerGifts[_msgSender()] +\n            genesisReferrerGifts[_msgSender()];\n\n        require(_count > 0, \"invalid gift owner\");\n\n        if (_count > 45) {\n            _count = 45;\n        }\n\n        int256 x = int256(regularReferrerGifts[_msgSender()]) - int256(_count);\n\n        uint256 _amount = 0;\n\n        if (x > -1) {\n            _amount = _count * (regularPlanterFund + regularReferralFund);\n\n            regularReferrerGifts[_msgSender()] -= _count;\n\n            daiFunds.refererTransferDai(_amount);\n        } else {\n            if (regularReferrerGifts[_msgSender()] > 0) {\n                _amount =\n                    regularReferrerGifts[_msgSender()] *\n                    (regularPlanterFund + regularReferralFund);\n\n                regularReferrerGifts[_msgSender()] = 0;\n\n                daiFunds.refererTransferDai(_amount);\n            }\n\n            uint256 wethAmount = uint256(-x) *\n                (regularPlanterFund + regularReferralFund);\n\n            genesisReferrerGifts[_msgSender()] -= uint256(-x);\n\n            wethFunds.updateDaiSwap(wethAmount);\n\n            _amount += wethAmount;\n        }\n\n        emit ReferrGiftClaimed(_msgSender(), _count, _amount);\n\n        _mintReferralTree(_count, _msgSender());\n    }\n}\n",
  "sourcePath": "/media/ali/New Volume/treejer/contract/contracts/regularSell/RegularSell.sol",
  "compiler": {
    "name": "solc",
    "version": "0.8.6+commit.11564f7e.Emscripten.clang"
  },
  "schemaVersion": "3.4.1",
  "updatedAt": "2021-09-22T14:02:27.095Z",
  "networkType": "ethereum",
  "devdoc": {
    "kind": "dev",
    "methods": {
      "initialize(address,uint256)": {
        "details": "initialize accessRestriction contract and set true for isRegularSell set {_price} to tree price and set 10000 to lastSoldRegularTree",
        "params": {
          "_accessRestrictionAddress": "set to the address of accessRestriction contract",
          "_price": "initial tree price"
        }
      },
      "requestByTreeId(uint256,address)": {
        "details": "request  tree with id {_treeId} and the paid amount must be more than {treePrice} and the {_treeId} must be more than {lastSoldRegularTree} to make sure that has not been sold before",
        "params": {
          "_referrer": "is address of referrer",
          "_treeId": "is the id of tree requested by user"
        }
      },
      "requestTrees(uint256,address)": {
        "details": "request {_count} trees and the paid amount must be more than {_count * treePrice }",
        "params": {
          "_count": "is the number of trees requested by user",
          "_referrer": "is address of refferer"
        }
      },
      "setDaiFundsAddress(address)": {
        "details": "admin set daiFunds contract address",
        "params": {
          "_address": "daiFunds contract address"
        }
      },
      "setDaiTokenAddress(address)": {
        "details": "admin set daiToken contract address",
        "params": {
          "_address": "daiToken contract address"
        }
      },
      "setFinancialModelAddress(address)": {
        "details": "admin set FinancialModel contract address",
        "params": {
          "_address": "set to the address of financialModel"
        }
      },
      "setLastSoldRegularTree(uint256)": {
        "details": "data manager can update lastSoldRegularTree "
      },
      "setPlanterFundAddress(address)": {
        "details": "admin set planterFund contract address",
        "params": {
          "_address": "planterFund contract address"
        }
      },
      "setPrice(uint256)": {
        "details": "admin set the price of trees that are sold regular",
        "params": {
          "_price": "price of tree"
        }
      },
      "setTreeFactoryAddress(address)": {
        "details": "admin set treeFactory contract address",
        "params": {
          "_address": "treeFactory contract address"
        }
      },
      "setTrustedForwarder(address)": {
        "details": "admin set trusted forwarder address",
        "params": {
          "_address": "set to {trustedForwarder}"
        }
      },
      "setWethFundsAddress(address)": {
        "details": "admin set wethFunds contract address",
        "params": {
          "_address": "wethFunds contract address"
        }
      },
      "versionRecipient()": {
        "details": "return version recipient "
      }
    },
    "title": "RegularSell contract ",
    "version": 1
  },
  "userdoc": {
    "kind": "user",
    "methods": {
      "isRegularSell()": {
        "notice": "NOTE {isRegularSell} set inside the initialize to {true} "
      },
      "isTrustedForwarder(address)": {
        "notice": "return if the forwarder is trusted to forward relayed transactions to us. the forwarder is required to verify the sender's signature, and verify the call is not a replay."
      },
      "regularPlanterFund()": {
        "notice": "NOTE regular planter fund amount "
      },
      "regularReferralFund()": {
        "notice": "NOTE regular referral fund amount "
      }
    },
    "version": 1
  }
}