{
  "contractName": "TreeFactory",
  "abi": [
    {
      "anonymous": false,
      "inputs": [
        {
          "indexed": false,
          "internalType": "uint256",
          "name": "treeId",
          "type": "uint256"
        }
      ],
      "name": "PlantRejected",
      "type": "event"
    },
    {
      "anonymous": false,
      "inputs": [
        {
          "indexed": false,
          "internalType": "uint256",
          "name": "treeId",
          "type": "uint256"
        }
      ],
      "name": "PlantVerified",
      "type": "event"
    },
    {
      "anonymous": false,
      "inputs": [
        {
          "indexed": false,
          "internalType": "uint256",
          "name": "treeId",
          "type": "uint256"
        }
      ],
      "name": "RegularPlantRejected",
      "type": "event"
    },
    {
      "anonymous": false,
      "inputs": [
        {
          "indexed": false,
          "internalType": "uint256",
          "name": "treeId",
          "type": "uint256"
        }
      ],
      "name": "RegularPlantVerified",
      "type": "event"
    },
    {
      "anonymous": false,
      "inputs": [
        {
          "indexed": false,
          "internalType": "uint256",
          "name": "treeId",
          "type": "uint256"
        }
      ],
      "name": "RegularTreePlanted",
      "type": "event"
    },
    {
      "anonymous": false,
      "inputs": [
        {
          "indexed": false,
          "internalType": "uint256",
          "name": "treeId",
          "type": "uint256"
        }
      ],
      "name": "TreeAdded",
      "type": "event"
    },
    {
      "anonymous": false,
      "inputs": [
        {
          "indexed": false,
          "internalType": "uint256",
          "name": "treeId",
          "type": "uint256"
        }
      ],
      "name": "TreeAssigned",
      "type": "event"
    },
    {
      "anonymous": false,
      "inputs": [
        {
          "indexed": false,
          "internalType": "uint256",
          "name": "treeId",
          "type": "uint256"
        }
      ],
      "name": "TreePlanted",
      "type": "event"
    },
    {
      "anonymous": false,
      "inputs": [
        {
          "indexed": false,
          "internalType": "uint256",
          "name": "treeId",
          "type": "uint256"
        },
        {
          "indexed": false,
          "internalType": "string",
          "name": "treeSpecs",
          "type": "string"
        }
      ],
      "name": "TreeSpecsUpdate",
      "type": "event"
    },
    {
      "anonymous": false,
      "inputs": [
        {
          "indexed": false,
          "internalType": "uint256",
          "name": "treeId",
          "type": "uint256"
        }
      ],
      "name": "TreeUpdated",
      "type": "event"
    },
    {
      "anonymous": false,
      "inputs": [],
      "name": "UpdateIntervalSet",
      "type": "event"
    },
    {
      "anonymous": false,
      "inputs": [
        {
          "indexed": false,
          "internalType": "uint256",
          "name": "treeId",
          "type": "uint256"
        }
      ],
      "name": "UpdateRejected",
      "type": "event"
    },
    {
      "anonymous": false,
      "inputs": [
        {
          "indexed": false,
          "internalType": "uint256",
          "name": "treeId",
          "type": "uint256"
        }
      ],
      "name": "UpdateVerified",
      "type": "event"
    },
    {
      "inputs": [],
      "name": "accessRestriction",
      "outputs": [
        {
          "internalType": "contract IAccessRestriction",
          "name": "",
          "type": "address"
        }
      ],
      "stateMutability": "view",
      "type": "function",
      "constant": true
    },
    {
      "inputs": [],
      "name": "isTreeFactory",
      "outputs": [
        {
          "internalType": "bool",
          "name": "",
          "type": "bool"
        }
      ],
      "stateMutability": "view",
      "type": "function",
      "constant": true
    },
    {
      "inputs": [
        {
          "internalType": "address",
          "name": "forwarder",
          "type": "address"
        }
      ],
      "name": "isTrustedForwarder",
      "outputs": [
        {
          "internalType": "bool",
          "name": "",
          "type": "bool"
        }
      ],
      "stateMutability": "view",
      "type": "function",
      "constant": true
    },
    {
      "inputs": [],
      "name": "lastRegularPlantedTree",
      "outputs": [
        {
          "internalType": "uint256",
          "name": "",
          "type": "uint256"
        }
      ],
      "stateMutability": "view",
      "type": "function",
      "constant": true
    },
    {
      "inputs": [],
      "name": "planter",
      "outputs": [
        {
          "internalType": "contract IPlanter",
          "name": "",
          "type": "address"
        }
      ],
      "stateMutability": "view",
      "type": "function",
      "constant": true
    },
    {
      "inputs": [],
      "name": "planterFund",
      "outputs": [
        {
          "internalType": "contract IPlanterFund",
          "name": "",
          "type": "address"
        }
      ],
      "stateMutability": "view",
      "type": "function",
      "constant": true
    },
    {
      "inputs": [
        {
          "internalType": "uint256",
          "name": "",
          "type": "uint256"
        }
      ],
      "name": "regularTrees",
      "outputs": [
        {
          "internalType": "uint64",
          "name": "birthDate",
          "type": "uint64"
        },
        {
          "internalType": "uint64",
          "name": "plantDate",
          "type": "uint64"
        },
        {
          "internalType": "uint64",
          "name": "countryCode",
          "type": "uint64"
        },
        {
          "internalType": "uint64",
          "name": "otherData",
          "type": "uint64"
        },
        {
          "internalType": "address",
          "name": "planterAddress",
          "type": "address"
        },
        {
          "internalType": "string",
          "name": "treeSpecs",
          "type": "string"
        }
      ],
      "stateMutability": "view",
      "type": "function",
      "constant": true
    },
    {
      "inputs": [
        {
          "internalType": "uint256",
          "name": "",
          "type": "uint256"
        }
      ],
      "name": "treeData",
      "outputs": [
        {
          "internalType": "address",
          "name": "planterId",
          "type": "address"
        },
        {
          "internalType": "uint256",
          "name": "treeType",
          "type": "uint256"
        },
        {
          "internalType": "uint16",
          "name": "mintStatus",
          "type": "uint16"
        },
        {
          "internalType": "uint16",
          "name": "countryCode",
          "type": "uint16"
        },
        {
          "internalType": "uint32",
          "name": "provideStatus",
          "type": "uint32"
        },
        {
          "internalType": "uint64",
          "name": "treeStatus",
          "type": "uint64"
        },
        {
          "internalType": "uint64",
          "name": "plantDate",
          "type": "uint64"
        },
        {
          "internalType": "uint64",
          "name": "birthDate",
          "type": "uint64"
        },
        {
          "internalType": "string",
          "name": "treeSpecs",
          "type": "string"
        }
      ],
      "stateMutability": "view",
      "type": "function",
      "constant": true
    },
    {
      "inputs": [],
      "name": "treeToken",
      "outputs": [
        {
          "internalType": "contract ITree",
          "name": "",
          "type": "address"
        }
      ],
      "stateMutability": "view",
      "type": "function",
      "constant": true
    },
    {
      "inputs": [],
      "name": "trustedForwarder",
      "outputs": [
        {
          "internalType": "address",
          "name": "",
          "type": "address"
        }
      ],
      "stateMutability": "view",
      "type": "function",
      "constant": true
    },
    {
      "inputs": [],
      "name": "updateInterval",
      "outputs": [
        {
          "internalType": "uint256",
          "name": "",
          "type": "uint256"
        }
      ],
      "stateMutability": "view",
      "type": "function",
      "constant": true
    },
    {
      "inputs": [
        {
          "internalType": "uint256",
          "name": "",
          "type": "uint256"
        }
      ],
      "name": "updateTrees",
      "outputs": [
        {
          "internalType": "string",
          "name": "updateSpecs",
          "type": "string"
        },
        {
          "internalType": "uint64",
          "name": "updateStatus",
          "type": "uint64"
        }
      ],
      "stateMutability": "view",
      "type": "function",
      "constant": true
    },
    {
      "inputs": [],
      "name": "versionRecipient",
      "outputs": [
        {
          "internalType": "string",
          "name": "",
          "type": "string"
        }
      ],
      "stateMutability": "pure",
      "type": "function",
      "constant": true
    },
    {
      "inputs": [
        {
          "internalType": "address",
          "name": "_accessRestrictionAddress",
          "type": "address"
        }
      ],
      "name": "initialize",
      "outputs": [],
      "stateMutability": "nonpayable",
      "type": "function"
    },
    {
      "inputs": [
        {
          "internalType": "address",
          "name": "_address",
          "type": "address"
        }
      ],
      "name": "setTrustedForwarder",
      "outputs": [],
      "stateMutability": "nonpayable",
      "type": "function"
    },
    {
      "inputs": [
        {
          "internalType": "address",
          "name": "_address",
          "type": "address"
        }
      ],
      "name": "setPlanterFundAddress",
      "outputs": [],
      "stateMutability": "nonpayable",
      "type": "function"
    },
    {
      "inputs": [
        {
          "internalType": "address",
          "name": "_address",
          "type": "address"
        }
      ],
      "name": "setPlanterAddress",
      "outputs": [],
      "stateMutability": "nonpayable",
      "type": "function"
    },
    {
      "inputs": [
        {
          "internalType": "address",
          "name": "_address",
          "type": "address"
        }
      ],
      "name": "setTreeTokenAddress",
      "outputs": [],
      "stateMutability": "nonpayable",
      "type": "function"
    },
    {
      "inputs": [
        {
          "internalType": "uint256",
          "name": "_day",
          "type": "uint256"
        }
      ],
      "name": "setUpdateInterval",
      "outputs": [],
      "stateMutability": "nonpayable",
      "type": "function"
    },
    {
      "inputs": [
        {
          "internalType": "uint256",
          "name": "_treeId",
          "type": "uint256"
        },
        {
          "internalType": "string",
          "name": "_treeDescription",
          "type": "string"
        }
      ],
      "name": "addTree",
      "outputs": [],
      "stateMutability": "nonpayable",
      "type": "function"
    },
    {
      "inputs": [
        {
          "internalType": "uint256",
          "name": "_treeId",
          "type": "uint256"
        },
        {
          "internalType": "address",
          "name": "_planterId",
          "type": "address"
        }
      ],
      "name": "assignTreeToPlanter",
      "outputs": [],
      "stateMutability": "nonpayable",
      "type": "function"
    },
    {
      "inputs": [
        {
          "internalType": "uint256",
          "name": "_treeId",
          "type": "uint256"
        },
        {
          "internalType": "string",
          "name": "_treeSpecs",
          "type": "string"
        },
        {
          "internalType": "uint64",
          "name": "_birthDate",
          "type": "uint64"
        },
        {
          "internalType": "uint16",
          "name": "_countryCode",
          "type": "uint16"
        }
      ],
      "name": "plantTree",
      "outputs": [],
      "stateMutability": "nonpayable",
      "type": "function"
    },
    {
      "inputs": [
        {
          "internalType": "uint256",
          "name": "_treeId",
          "type": "uint256"
        },
        {
          "internalType": "bool",
          "name": "_isVerified",
          "type": "bool"
        }
      ],
      "name": "verifyPlant",
      "outputs": [],
      "stateMutability": "nonpayable",
      "type": "function"
    },
    {
      "inputs": [
        {
          "internalType": "uint256",
          "name": "_treeId",
          "type": "uint256"
        },
        {
          "internalType": "string",
          "name": "_treeSpecs",
          "type": "string"
        }
      ],
      "name": "updateTree",
      "outputs": [],
      "stateMutability": "nonpayable",
      "type": "function"
    },
    {
      "inputs": [
        {
          "internalType": "uint256",
          "name": "_treeId",
          "type": "uint256"
        },
        {
          "internalType": "bool",
          "name": "_isVerified",
          "type": "bool"
        }
      ],
      "name": "verifyUpdate",
      "outputs": [],
      "stateMutability": "nonpayable",
      "type": "function"
    },
    {
      "inputs": [
        {
          "internalType": "uint256",
          "name": "_treeId",
          "type": "uint256"
        },
        {
          "internalType": "uint32",
          "name": "_provideType",
          "type": "uint32"
        }
      ],
      "name": "availability",
      "outputs": [
        {
          "internalType": "uint32",
          "name": "",
          "type": "uint32"
        }
      ],
      "stateMutability": "nonpayable",
      "type": "function"
    },
    {
      "inputs": [
        {
          "internalType": "uint256",
          "name": "_treeId",
          "type": "uint256"
        },
        {
          "internalType": "address",
          "name": "_ownerId",
          "type": "address"
        },
        {
          "internalType": "uint16",
          "name": "_mintStatus",
          "type": "uint16"
        }
      ],
      "name": "updateOwner",
      "outputs": [],
      "stateMutability": "nonpayable",
      "type": "function"
    },
    {
      "inputs": [
        {
          "internalType": "uint256",
          "name": "_treeId",
          "type": "uint256"
        }
      ],
      "name": "updateAvailability",
      "outputs": [],
      "stateMutability": "nonpayable",
      "type": "function"
    },
    {
      "inputs": [
        {
          "internalType": "uint256",
          "name": "_startTreeId",
          "type": "uint256"
        },
        {
          "internalType": "uint256",
          "name": "_endTreeId",
          "type": "uint256"
        }
      ],
      "name": "bulkRevert",
      "outputs": [],
      "stateMutability": "nonpayable",
      "type": "function"
    },
    {
      "inputs": [
        {
          "internalType": "uint256",
          "name": "_startTreeId",
          "type": "uint256"
        },
        {
          "internalType": "uint256",
          "name": "_endTreeId",
          "type": "uint256"
        },
        {
          "internalType": "uint32",
          "name": "_provideStatus",
          "type": "uint32"
        }
      ],
      "name": "manageProvideStatus",
      "outputs": [
        {
          "internalType": "bool",
          "name": "",
          "type": "bool"
        }
      ],
      "stateMutability": "nonpayable",
      "type": "function"
    },
    {
      "inputs": [
        {
          "internalType": "uint256",
          "name": "_treeId",
          "type": "uint256"
        },
        {
          "internalType": "address",
          "name": "_buyer",
          "type": "address"
        }
      ],
      "name": "checkMintStatus",
      "outputs": [
        {
          "internalType": "bool",
          "name": "",
          "type": "bool"
        },
        {
          "internalType": "bytes32",
          "name": "",
          "type": "bytes32"
        }
      ],
      "stateMutability": "view",
      "type": "function",
      "constant": true
    },
    {
      "inputs": [
        {
          "internalType": "string",
          "name": "_treeSpecs",
          "type": "string"
        },
        {
          "internalType": "uint64",
          "name": "_birthDate",
          "type": "uint64"
        },
        {
          "internalType": "uint16",
          "name": "_countryCode",
          "type": "uint16"
        }
      ],
      "name": "regularPlantTree",
      "outputs": [],
      "stateMutability": "nonpayable",
      "type": "function"
    },
    {
      "inputs": [
        {
          "internalType": "uint256",
          "name": "_regularTreeId",
          "type": "uint256"
        },
        {
          "internalType": "bool",
          "name": "_isVerified",
          "type": "bool"
        }
      ],
      "name": "verifyRegularPlant",
      "outputs": [],
      "stateMutability": "nonpayable",
      "type": "function"
    },
    {
      "inputs": [
        {
          "internalType": "uint256",
          "name": "_lastSold",
          "type": "uint256"
        },
        {
          "internalType": "address",
          "name": "_owner",
          "type": "address"
        }
      ],
      "name": "mintRegularTrees",
      "outputs": [
        {
          "internalType": "uint256",
          "name": "",
          "type": "uint256"
        }
      ],
      "stateMutability": "nonpayable",
      "type": "function"
    },
    {
      "inputs": [
        {
          "internalType": "uint256",
          "name": "_treeId",
          "type": "uint256"
        },
        {
          "internalType": "address",
          "name": "_owner",
          "type": "address"
        }
      ],
      "name": "requestRegularTree",
      "outputs": [],
      "stateMutability": "nonpayable",
      "type": "function"
    },
    {
      "inputs": [
        {
          "internalType": "uint64",
          "name": "_treeId",
          "type": "uint64"
        },
        {
          "internalType": "string",
          "name": "_treeSpecs",
          "type": "string"
        }
      ],
      "name": "updateTreeSpecs",
      "outputs": [],
      "stateMutability": "nonpayable",
      "type": "function"
    }
  ],
  "bytecode": "0x608060405234801561001057600080fd5b50613dba806100206000396000f3fe608060405234801561001057600080fd5b506004361061021b5760003560e01c806390f343d311610125578063d6762c4a116100ad578063e0eb4eb91161007c578063e0eb4eb91461053f578063e94551571461054c578063f5894a031461055f578063fd2c80ae14610572578063ff0c66e51461057b57600080fd5b8063d6762c4a146104d9578063da742228146104f1578063dffc3c5c14610504578063e0c89c1e1461052c57600080fd5b8063b7aad563116100f4578063b7aad56314610484578063bc3af8221461048d578063bc92ff3c146104a0578063c4d66de8146104b3578063c83a3065146104c657600080fd5b806390f343d3146104135780639a27ccfa14610426578063b20cae5414610450578063b225afcb1461047157600080fd5b80634dc933ef116101a85780636b703cf5116101775780636b703cf5146103a05780636fd5214b146103c15780637124c683146103d45780637da0a877146103e757806383310b2f1461040057600080fd5b80634dc933ef1461032f578063572b6c05146103425780635a54e88a1461037a5780635c8bbd2f1461038d57600080fd5b80633dc96d33116101ef5780633dc96d33146102a457806343579af6146102b757806348330cf6146102ca578063486ff0cd146102dd5780634ad07f9e1461031c57600080fd5b8062615e721461022057806312cc3ab0146102515780633891577f1461027c57806338f1f40f1461028f575b600080fd5b61023361022e36600461365c565b6105a0565b60405161024899989796959493929190613a78565b60405180910390f35b600354610264906001600160a01b031681565b6040516001600160a01b039091168152602001610248565b600454610264906001600160a01b031681565b6102a261029d3660046135a1565b6106a3565b005b6102a26102b23660046138f5565b6107ba565b6102a26102c53660046135f8565b610896565b6102a26102d836600461365c565b610ae5565b604080518082018252601d81527f322e322e302b747265656a65722e6972656c6179726563697069656e74000000602082015290516102489190613af2565b6102a261032a3660046135a1565b610b7b565b6102a261033d3660046137c1565b610c92565b61036a6103503660046135a1565b6000546201000090046001600160a01b0390811691161490565b6040519015158152602001610248565b6102a2610388366004613753565b610f06565b6102a261039b36600461387b565b6111ae565b6103b36103ae36600461365c565b61128c565b604051610248929190613b05565b6102a26103cf3660046136e3565b611339565b6102a26103e236600461365c565b61186f565b600054610264906201000090046001600160a01b031681565b600554610264906001600160a01b031681565b6102a2610421366004613708565b611922565b610439610434366004613675565b611a6b565b604080519215158352602083019190915201610248565b61046361045e366004613675565b611bc6565b604051908152602001610248565b6102a261047f3660046136a5565b611e3f565b61046360065481565b61036a61049b36600461389d565b611f47565b6102a26104ae3660046135a1565b612061565b6102a26104c13660046135a1565b612178565b6102a26104d43660046136e3565b6122e0565b6002546102649061010090046001600160a01b031681565b6102a26104ff3660046135a1565b6126d8565b6105176105123660046138c9565b6127c2565b60405163ffffffff9091168152602001610248565b6102a261053a3660046136e3565b61297f565b60025461036a9060ff1681565b6102a261055a366004613675565b612e33565b6102a261056d366004613675565b612f7c565b61046360075481565b61058e61058936600461365c565b613170565b60405161024896959493929190613be9565b60086020526000908152604090208054600182015460028301546003840180546001600160a01b0390941694929361ffff808416946201000085049091169363ffffffff600160201b820416936001600160401b03600160401b8304811694600160801b8404821694600160c01b90940490911692919061062090613cdf565b80601f016020809104026020016040519081016040528092919081815260200182805461064c90613cdf565b80156106995780601f1061066e57610100808354040283529160200191610699565b820191906000526020600020905b81548152906001019060200180831161067c57829003601f168201915b5050505050905089565b60025461010090046001600160a01b0316638413ec146106c1613252565b6040516001600160e01b031960e084901b1681526001600160a01b03909116600482015260240160006040518083038186803b15801561070057600080fd5b505afa158015610714573d6000803e3d6000fd5b505050506000819050806001600160a01b03166337b9fd776040518163ffffffff1660e01b815260040160206040518083038186803b15801561075657600080fd5b505afa15801561076a573d6000803e3d6000fd5b505050506040513d601f19601f8201168201806040525081019061078e91906135db565b61079757600080fd5b600380546001600160a01b0319166001600160a01b039290921691909117905550565b60025461010090046001600160a01b031663d449b6ac6107d8613252565b6040516001600160e01b031960e084901b1681526001600160a01b03909116600482015260240160006040518083038186803b15801561081757600080fd5b505afa15801561082b573d6000803e3d6000fd5b5050506001600160401b03841660009081526008602052604090206108559150600301838361335d565b507fa6bd424b6ed85a520ea91140f851bc31f9fbaf9780d5c085eceafef8aa05655383838360405161088993929190613baa565b60405180910390a1505050565b6005546001600160a01b031663b2dbbded6108af613252565b6040516001600160e01b031960e084901b1681526001600160a01b039091166004820152602401602060405180830381600087803b1580156108f057600080fd5b505af1158015610904573d6000803e3d6000fd5b505050506040513d601f19601f8201168201806040525081019061092891906135db565b61093157600080fd5b6040518060c00160405280836001600160401b031681526020016109544261328c565b6001600160401b0316815261ffff831660208201526000604082015260600161097b613252565b6001600160a01b0316815260200185858080601f0160208091040260200160405190810160405280939291908181526020018383808284376000920182905250939094525050600154600a92508152602080820192909252604090810160002083518154858501519386015160608701516001600160401b03908116600160c01b026001600160c01b03928216600160801b02929092166fffffffffffffffffffffffffffffffff968216600160401b026fffffffffffffffffffffffffffffffff19909416919094161791909117939093161791909117815560808301516001820180546001600160a01b039092166001600160a01b031990921691909117905560a083015180519192610a98926002850192909101906133dd565b50506001547f10c0a85809ada5011c1b0222076d7aebe7695eef1c0e500cbba5a0fb67aa48be915060405190815260200160405180910390a1610adf600180546001019055565b50505050565b60025461010090046001600160a01b031663ebe6a6f3610b03613252565b6040516001600160e01b031960e084901b1681526001600160a01b03909116600482015260240160006040518083038186803b158015610b4257600080fd5b505afa158015610b56573d6000803e3d6000fd5b505050600091825250600860205260409020600201805463ffffffff60201b19169055565b60025461010090046001600160a01b0316638413ec14610b99613252565b6040516001600160e01b031960e084901b1681526001600160a01b03909116600482015260240160006040518083038186803b158015610bd857600080fd5b505afa158015610bec573d6000803e3d6000fd5b505050506000819050806001600160a01b031663349904da6040518163ffffffff1660e01b815260040160206040518083038186803b158015610c2e57600080fd5b505afa158015610c42573d6000803e3d6000fd5b505050506040513d601f19601f82011682018060405250810190610c6691906135db565b610c6f57600080fd5b600480546001600160a01b0319166001600160a01b039290921691909117905550565b610c9a613252565b6000838152600860205260409020546001600160a01b03908116911614610d145760405162461bcd60e51b8152602060048201526024808201527f4f6e6c7920506c616e746572206f6620747265652063616e2073656e642075706044820152636461746560e01b60648201526084015b60405180910390fd5b6000828152600860205260409020600201546003600160401b9091046001600160401b031611610d795760405162461bcd60e51b815260206004820152601060248201526f151c9959481b9bdd081c1b185b9d195960821b6044820152606401610d0b565b60008281526009602052604090206001908101546001600160401b03161415610de45760405162461bcd60e51b815260206004820152601d60248201527f7570646174652074726565207374617475732069732070656e64696e670000006044820152606401610d0b565b600754600083815260086020526040902060020154610e1590600160401b90046001600160401b0316610e10613c99565b6001600160401b0316610e289190613c40565b600083815260086020526040902060020154610e549190600160801b90046001600160401b0316613c40565b421015610e9b5760405162461bcd60e51b81526020600482015260156024820152740aae0c8c2e8ca40e8d2daca40dcdee840e4cac2c6d605b1b6044820152606401610d0b565b600082815260096020908152604090912082519091610ebe9183918501906133dd565b506001818101805467ffffffffffffffff191690911790556040518381527fb02fa78938a60840517eef874d53897819ea37cc053e40aac321dc45dcfed4a890602001610889565b6000858152600860205260409020600280820154600160401b90046001600160401b031614610f775760405162461bcd60e51b815260206004820152601d60248201527f696e76616c696420747265652073746174757320666f7220706c616e740000006044820152606401610d0b565b6005546000906001600160a01b031663055644d6610f93613252565b845460405160e084901b6001600160e01b03191681526001600160a01b03928316600482015291166024820152604401602060405180830381600087803b158015610fdd57600080fd5b505af1158015610ff1573d6000803e3d6000fd5b505050506040513d601f19601f8201168201806040525081019061101591906135db565b9050806110645760405162461bcd60e51b815260206004820152601a60248201527f706c616e74696e67207065726d697373696f6e2064656e6965640000000000006044820152606401610d0b565b81546001600160a01b0316611077613252565b6001600160a01b0316146110a95761108d613252565b82546001600160a01b0319166001600160a01b03919091161782555b60008781526009602052604090206110c281888861335d565b506001818101805467ffffffffffffffff1916909117905560028301805463ffff0001600160c01b03166201000061ffff8716026001600160c01b031617600160c01b6001600160401b0388160217905561111c4261328c565b60028401805477ffffffffffffffffffffffffffffffff00000000000000001916600160801b6001600160401b03939093169290920267ffffffffffffffff60401b191691909117680300000000000000001790556040518881527f6efeb6d0d0a494d52bc4a4c7fce81b3374786e440b2459f8ef1d87f1700219079060200160405180910390a15050505050505050565b60025461010090046001600160a01b031663ebe6a6f36111cc613252565b6040516001600160e01b031960e084901b1681526001600160a01b03909116600482015260240160006040518083038186803b15801561120b57600080fd5b505afa15801561121f573d6000803e3d6000fd5b5084925050505b81811015611287576000818152600860205260409020600290810154600160201b900463ffffffff161415611275576000818152600860205260409020600201805463ffffffff60201b191690555b8061127f81613d1a565b915050611226565b505050565b6009602052600090815260409020805481906112a790613cdf565b80601f01602080910402602001604051908101604052809291908181526020018280546112d390613cdf565b80156113205780601f106112f557610100808354040283529160200191611320565b820191906000526020600020905b81548152906001019060200180831161130357829003601f168201915b505050600190930154919250506001600160401b031682565b600260019054906101000a90046001600160a01b03166001600160a01b0316634d868f986040518163ffffffff1660e01b815260040160006040518083038186803b15801561138757600080fd5b505afa15801561139b573d6000803e3d6000fd5b505050506113a7613252565b6000838152600860205260409020546001600160a01b03908116911614156113e15760405162461bcd60e51b8152600401610d0b90613b67565b60008281526009602052604090206001908101546001600160401b03161461144b5760405162461bcd60e51b815260206004820152601d60248201527f75706461746520737461747573206d7573742062652070656e64696e670000006044820152606401610d0b565b6000828152600860205260409020600201546003600160401b9091046001600160401b0316116114b05760405162461bcd60e51b815260206004820152601060248201526f151c9959481b9bdd081c1b185b9d195960821b6044820152606401610d0b565b60025461010090046001600160a01b0316637aa153b46114ce613252565b6040516001600160e01b031960e084901b1681526001600160a01b03909116600482015260240160206040518083038186803b15801561150d57600080fd5b505afa158015611521573d6000803e3d6000fd5b505050506040513d601f19601f8201168201806040525081019061154591906135db565b806115f657506005546000838152600860205260409020546001600160a01b03918216916355c3a79e9116611578613252565b6040516001600160e01b031960e085901b1681526001600160a01b0392831660048201529116602482015260440160206040518083038186803b1580156115be57600080fd5b505afa1580156115d2573d6000803e3d6000fd5b505050506040513d601f19601f820116820180604052508101906115f691906135db565b6116125760405162461bcd60e51b8152600401610d0b90613b30565b6000828152600960205260409020811561182757600083815260086020526040812060018301805467ffffffffffffffff19166003179055600281015490919061168390610e109061167490600160801b90046001600160401b031642613cc8565b61167e9190613c58565b6132f8565b6002830154909150600160401b90046001600160401b031663ffffffff821611156116cd5760028201805467ffffffffffffffff60401b191663ffffffff8316600160401b021790555b8254600383019084906116df90613cdf565b6116ea929190613451565b50600354604051634f558e7960e01b8152600481018790526001600160a01b0390911690634f558e799060240160206040518083038186803b15801561172f57600080fd5b505afa158015611743573d6000803e3d6000fd5b505050506040513d601f19601f8201168201806040525081019061176791906135db565b156117ed576004805483546002850154604051635182e6f760e11b81529384018990526001600160a01b039182166024850152600160401b90046001600160401b03166044840152169063a305cdee90606401600060405180830381600087803b1580156117d457600080fd5b505af11580156117e8573d6000803e3d6000fd5b505050505b6040518581527f9a54caca395ee556cf002513d32eff0d2e5a089a5876960d1f91242c8fafedc39060200160405180910390a15050505050565b60018101805467ffffffffffffffff191660021790556040517f0a4273908b9362e571cacd5610879e3dfd7ddc7c9b3ce1d7ea7ea8b418691164906108899085815260200190565b60025461010090046001600160a01b031663c4d2a31b61188d613252565b6040516001600160e01b031960e084901b1681526001600160a01b03909116600482015260240160006040518083038186803b1580156118cc57600080fd5b505afa1580156118e0573d6000803e3d6000fd5b5050505080620151806118f39190613c7a565b6007556040517fc7d0eb953f836b6db49eea44ef5e28d5ed91ccb8679d3f73a80d0b4430b5da5390600090a150565b60025461010090046001600160a01b031663c4d2a31b611940613252565b6040516001600160e01b031960e084901b1681526001600160a01b03909116600482015260240160006040518083038186803b15801561197f57600080fd5b505afa158015611993573d6000803e3d6000fd5b505050600084815260086020526040902060020154600160401b90046001600160401b03161590506119f85760405162461bcd60e51b815260206004820152600e60248201526d6475706c6963617465207472656560901b6044820152606401610d0b565b600083815260086020526040902060028101805467ffffffffffffffff60401b1916600160411b179055611a3060038201848461335d565b506040518481527fed68cc5d92f462ed49c7dd3914cd5fa914276aaf26616595bb56343f86f559da906020015b60405180910390a150505050565b600082815260086020526040812060020154819061ffff16816001821480611a9757508161ffff166002145b8015611b2757506003546040516331a9108f60e11b8152600481018890526001600160a01b03878116921690636352211e9060240160206040518083038186803b158015611ae457600080fd5b505afa158015611af8573d6000803e3d6000fd5b505050506040513d601f19601f82011682018060405250810190611b1c91906135be565b6001600160a01b0316145b90508015611bb557600086815260086020908152604080832060098352928190206006546002850154855493519294600194611b92946001600160401b03600160c01b850481169460038b0194600160401b909104909116926001600160a01b031691899101613a15565b604051602081830303815290604052805190602001209550955050505050611bbf565b5060009250829150505b9250929050565b60025460009061010090046001600160a01b031663ebe6a6f3611be7613252565b6040516001600160e01b031960e084901b1681526001600160a01b03909116600482015260240160006040518083038186803b158015611c2657600080fd5b505afa158015611c3a573d6000803e3d6000fd5b505050506000836001611c4d9190613c40565b60008181526008602052604081206002015491925090600160401b90046001600160401b0316158015611c9c5750600082815260086020526040902060020154600160201b900463ffffffff16155b80611cf25750600082815260086020526040902060020154600160401b90046001600160401b03166004148015611cf2575060008281526008602052604090206002015463ffffffff600160201b909104166004145b90505b80611db057611d05826001613c40565b600081815260086020526040902060020154909250600160401b90046001600160401b0316158015611d535750600082815260086020526040902060020154600160201b900463ffffffff16155b80611da95750600082815260086020526040902060020154600160401b90046001600160401b03166004148015611da9575060008281526008602052604090206002015463ffffffff600160201b909104166004145b9050611cf5565b60008281526008602052604090819020600201805463ffffffff60201b191690556003549051632851206560e21b81526001600160a01b038681166004830152602482018590529091169063a144819490604401600060405180830381600087803b158015611e1e57600080fd5b505af1158015611e32573d6000803e3d6000fd5b5093979650505050505050565b60025461010090046001600160a01b031663ebe6a6f3611e5d613252565b6040516001600160e01b031960e084901b1681526001600160a01b03909116600482015260240160006040518083038186803b158015611e9c57600080fd5b505afa158015611eb0573d6000803e3d6000fd5b50505060008481526008602052604090819020600201805467ffffffff0000ffff191661ffff85161790556003549051632851206560e21b81526001600160a01b03858116600483015260248201879052909116915063a1448194906044015b600060405180830381600087803b158015611f2a57600080fd5b505af1158015611f3e573d6000803e3d6000fd5b50505050505050565b60025460009061010090046001600160a01b031663ebe6a6f3611f68613252565b6040516001600160e01b031960e084901b1681526001600160a01b03909116600482015260240160006040518083038186803b158015611fa757600080fd5b505afa158015611fbb573d6000803e3d6000fd5b5086925050505b8381101561200a57600081815260086020526040902060020154600160201b900463ffffffff1615611ff857600091505061205a565b8061200281613d1a565b915050611fc2565b50835b83811015612054576000818152600860205260409020600201805463ffffffff60201b1916600160201b63ffffffff8616021790558061204c81613d1a565b91505061200d565b50600190505b9392505050565b60025461010090046001600160a01b0316638413ec1461207f613252565b6040516001600160e01b031960e084901b1681526001600160a01b03909116600482015260240160006040518083038186803b1580156120be57600080fd5b505afa1580156120d2573d6000803e3d6000fd5b505050506000819050806001600160a01b03166303dc8deb6040518163ffffffff1660e01b815260040160206040518083038186803b15801561211457600080fd5b505afa158015612128573d6000803e3d6000fd5b505050506040513d601f19601f8201168201806040525081019061214c91906135db565b61215557600080fd5b600580546001600160a01b0319166001600160a01b039290921691909117905550565b600054610100900460ff1680612191575060005460ff16155b6121f45760405162461bcd60e51b815260206004820152602e60248201527f496e697469616c697a61626c653a20636f6e747261637420697320616c72656160448201526d191e481a5b9a5d1a585b1a5e995960921b6064820152608401610d0b565b600054610100900460ff16158015612216576000805461ffff19166101011790555b6000829050806001600160a01b031663ba84fd696040518163ffffffff1660e01b815260040160206040518083038186803b15801561225457600080fd5b505afa158015612268573d6000803e3d6000fd5b505050506040513d601f19601f8201168201806040525081019061228c91906135db565b61229557600080fd5b600280546001600160a01b03909216610100026001600160a81b031990921691909117600117905561271060065562093a8060075580156122dc576000805461ff00191690555b5050565b600260019054906101000a90046001600160a01b03166001600160a01b0316634d868f986040518163ffffffff1660e01b815260040160006040518083038186803b15801561232e57600080fd5b505afa158015612342573d6000803e3d6000fd5b50505060008381526008602052604090206002810154909150600160401b90046001600160401b03166003146123b05760405162461bcd60e51b8152602060048201526013602482015272696e76616c696420747265652073746174757360681b6044820152606401610d0b565b6123b8613252565b81546001600160a01b03908116911614156124215760405162461bcd60e51b815260206004820152602360248201527f506c616e746572206f6620747265652063616e2774206163636570742075706460448201526261746560e81b6064820152608401610d0b565b60025461010090046001600160a01b0316637aa153b461243f613252565b6040516001600160e01b031960e084901b1681526001600160a01b03909116600482015260240160206040518083038186803b15801561247e57600080fd5b505afa158015612492573d6000803e3d6000fd5b505050506040513d601f19601f820116820180604052508101906124b691906135db565b8061255a575060055481546001600160a01b03918216916355c3a79e91166124dc613252565b6040516001600160e01b031960e085901b1681526001600160a01b0392831660048201529116602482015260440160206040518083038186803b15801561252257600080fd5b505afa158015612536573d6000803e3d6000fd5b505050506040513d601f19601f8201168201806040525081019061255a91906135db565b6125765760405162461bcd60e51b8152600401610d0b90613b30565b600083815260096020526040902082156126145780546003830190829061259c90613cdf565b6125a7929190613451565b5060028201805467ffffffffffffffff60401b1916600160421b179055600181018054600367ffffffffffffffff199091161790556040518481527f6669191701e4d341365a455d2b62b30c5bf1c8af5e2c87a840393c082e9b0a559060200160405180910390a1610adf565b6002828101805467ffffffffffffffff60401b1916600160411b17905560018201805467ffffffffffffffff191690911790556005548254604051630f937c7b60e31b81526001600160a01b039182166004820152911690637c9be3d890602401600060405180830381600087803b15801561268f57600080fd5b505af11580156126a3573d6000803e3d6000fd5b505050507f31a5e19037d478f1ff15cac02bada2e480111da92d1ebdcf9edd73b3560049fd84604051611a5d91815260200190565b60025461010090046001600160a01b0316638413ec146126f6613252565b6040516001600160e01b031960e084901b1681526001600160a01b03909116600482015260240160006040518083038186803b15801561273557600080fd5b505afa158015612749573d6000803e3d6000fd5b5083925050506001600160a01b0381166127975760405162461bcd60e51b815260206004820152600f60248201526e696e76616c6964206164647265737360881b6044820152606401610d0b565b50600080546001600160a01b03909216620100000262010000600160b01b0319909216919091179055565b60025460009061010090046001600160a01b031663ebe6a6f36127e3613252565b6040516001600160e01b031960e084901b1681526001600160a01b03909116600482015260240160006040518083038186803b15801561282257600080fd5b505afa158015612836573d6000803e3d6000fd5b505050600084815260086020526040902060020154849150600160401b90046001600160401b03166128995760405162461bcd60e51b815260206004820152600c60248201526b696e76616c6964207472656560a01b6044820152606401610d0b565b600354604051634f558e7960e01b8152600481018690526001600160a01b0390911690634f558e799060240160206040518083038186803b1580156128dd57600080fd5b505afa1580156128f1573d6000803e3d6000fd5b505050506040513d601f19601f8201168201806040525081019061291591906135db565b156129235760019150612978565b600084815260086020526040902060020154600160201b900463ffffffff1680612975576000858152600860205260409020600201805463ffffffff60201b1916600160201b63ffffffff8716021790555b91505b5092915050565b6000828152600a60205260409020612995613252565b60018201546001600160a01b03908116911614156129c55760405162461bcd60e51b8152600401610d0b90613b67565b60025461010090046001600160a01b0316637aa153b46129e3613252565b6040516001600160e01b031960e084901b1681526001600160a01b03909116600482015260240160206040518083038186803b158015612a2257600080fd5b505afa158015612a36573d6000803e3d6000fd5b505050506040513d601f19601f82011682018060405250810190612a5a91906135db565b80612b01575060055460018201546001600160a01b03918216916355c3a79e9116612a83613252565b6040516001600160e01b031960e085901b1681526001600160a01b0392831660048201529116602482015260440160206040518083038186803b158015612ac957600080fd5b505afa158015612add573d6000803e3d6000fd5b505050506040513d601f19601f82011682018060405250810190612b0191906135db565b612b1d5760405162461bcd60e51b8152600401610d0b90613b30565b8054600160401b90046001600160401b0316612b735760405162461bcd60e51b81526020600482015260156024820152741c9959dd5b185c951c9959481b9bdd08195e1a5cdd605a1b6044820152606401610d0b565b8115612dc75760006006546001612b8a9190613c40565b90505b600081815260086020526040902060020154600160401b90046001600160401b0316158015612bd85750600081815260086020526040902060020154600160201b900463ffffffff16155b612bee57612be7816001613c40565b9050612b8d565b60068190556000818152600860205260409020825460028083018054600160801b6001600160401b03600160401b9095048516810267ffffffffffffffff60801b19831681178455885461ffff92900491909116620100000263ffff00001990911677ffffffffffffffff000000000000000000000000ffff00001990921691909117178082558654600160c01b9416939093026001600160c01b039093169290921790915583018054600383019190612ca790613cdf565b612cb2929190613451565b50600183015481546001600160a01b039182166001600160a01b031990911617825560028201805467ffffffffffffffff60401b1916600160421b179055600354600654604051634f558e7960e01b81526004810191909152911690634f558e799060240160206040518083038186803b158015612d2f57600080fd5b505afa158015612d43573d6000803e3d6000fd5b505050506040513d601f19601f82011682018060405250810190612d6791906135db565b612d855760028101805463ffffffff60201b19166404000000001790555b7fd6300cad506c4878602f102fc33c886ad30ee45cdb158c12525b7ccba9af5518600654604051612db891815260200190565b60405180910390a15050612dfb565b6040518381527f2d5d033d28c61a193a3b59cd41d5daa0f6c1c19729c30c447d64c02c01485aad9060200160405180910390a15b6000838152600a602052604081208181556001810180546001600160a01b031916905590612e2c60028301826134cc565b5050505050565b60025461010090046001600160a01b031663ebe6a6f3612e51613252565b6040516001600160e01b031960e084901b1681526001600160a01b03909116600482015260240160006040518083038186803b158015612e9057600080fd5b505afa158015612ea4573d6000803e3d6000fd5b50505060008381526008602052604090206002810154909150600160401b90046001600160401b03166004148015612eee5750600281015463ffffffff600160201b909104166004145b612f315760405162461bcd60e51b81526020600482015260146024820152731d1c9959481b5d5cdd081899481c1b185b9d195960621b6044820152606401610d0b565b60028101805463ffffffff60201b19169055600354604051632851206560e21b81526001600160a01b038481166004830152602482018690529091169063a144819490604401611f10565b60025461010090046001600160a01b031663c4d2a31b612f9a613252565b6040516001600160e01b031960e084901b1681526001600160a01b03909116600482015260240160006040518083038186803b158015612fd957600080fd5b505afa158015612fed573d6000803e3d6000fd5b5050506000838152600860205260409020600280820154919250600160401b9091046001600160401b03161461305e5760405162461bcd60e51b815260206004820152601660248201527534b73b30b634b2103a3932b2903a379030b9b9b4b3b760511b6044820152606401610d0b565b60055460405163df385cbd60e01b81526001600160a01b0384811660048301529091169063df385cbd9060240160206040518083038186803b1580156130a357600080fd5b505afa1580156130b7573d6000803e3d6000fd5b505050506040513d601f19601f820116820180604052508101906130db91906135db565b6131275760405162461bcd60e51b815260206004820152601c60248201527f63616e27742061737369676e207472656520746f20706c616e746572000000006044820152606401610d0b565b80546001600160a01b0319166001600160a01b0383161781556040518381527f5569e20f761862546a9a892a1fd4508e29978c6a2673afb7ec47675e8cf6b46590602001610889565b600a602052600090815260409020805460018201546002830180546001600160401b0380851695600160401b8604821695600160801b8104831695600160c01b909104909216936001600160a01b03909216929091906131cf90613cdf565b80601f01602080910402602001604051908101604052809291908181526020018280546131fb90613cdf565b80156132485780601f1061321d57610100808354040283529160200191613248565b820191906000526020600020905b81548152906001019060200180831161322b57829003601f168201915b5050505050905086565b60006014361080159061327557506000546201000090046001600160a01b031633145b15613287575060131936013560601c90565b503390565b60006001600160401b038211156132f45760405162461bcd60e51b815260206004820152602660248201527f53616665436173743a2076616c756520646f65736e27742066697420696e203660448201526534206269747360d01b6064820152608401610d0b565b5090565b600063ffffffff8211156132f45760405162461bcd60e51b815260206004820152602660248201527f53616665436173743a2076616c756520646f65736e27742066697420696e203360448201526532206269747360d01b6064820152608401610d0b565b82805461336990613cdf565b90600052602060002090601f01602090048101928261338b57600085556133d1565b82601f106133a45782800160ff198235161785556133d1565b828001600101855582156133d1579182015b828111156133d15782358255916020019190600101906133b6565b506132f4929150613509565b8280546133e990613cdf565b90600052602060002090601f01602090048101928261340b57600085556133d1565b82601f1061342457805160ff19168380011785556133d1565b828001600101855582156133d1579182015b828111156133d1578251825591602001919060010190613436565b82805461345d90613cdf565b90600052602060002090601f01602090048101928261347f57600085556133d1565b82601f1061349057805485556133d1565b828001600101855582156133d157600052602060002091601f016020900482015b828111156133d15782548255916001019190600101906134b1565b5080546134d890613cdf565b6000825580601f106134e8575050565b601f0160209004906000526020600020908101906135069190613509565b50565b5b808211156132f4576000815560010161350a565b60008083601f84011261353057600080fd5b5081356001600160401b0381111561354757600080fd5b602083019150836020828501011115611bbf57600080fd5b803561ffff8116811461357157600080fd5b919050565b803563ffffffff8116811461357157600080fd5b80356001600160401b038116811461357157600080fd5b6000602082840312156135b357600080fd5b813561205a81613d61565b6000602082840312156135d057600080fd5b815161205a81613d61565b6000602082840312156135ed57600080fd5b815161205a81613d76565b6000806000806060858703121561360e57600080fd5b84356001600160401b0381111561362457600080fd5b6136308782880161351e565b909550935061364390506020860161358a565b91506136516040860161355f565b905092959194509250565b60006020828403121561366e57600080fd5b5035919050565b6000806040838503121561368857600080fd5b82359150602083013561369a81613d61565b809150509250929050565b6000806000606084860312156136ba57600080fd5b8335925060208401356136cc81613d61565b91506136da6040850161355f565b90509250925092565b600080604083850312156136f657600080fd5b82359150602083013561369a81613d76565b60008060006040848603121561371d57600080fd5b8335925060208401356001600160401b0381111561373a57600080fd5b6137468682870161351e565b9497909650939450505050565b60008060008060006080868803121561376b57600080fd5b8535945060208601356001600160401b0381111561378857600080fd5b6137948882890161351e565b90955093506137a790506040870161358a565b91506137b56060870161355f565b90509295509295909350565b600080604083850312156137d457600080fd5b8235915060208301356001600160401b03808211156137f257600080fd5b818501915085601f83011261380657600080fd5b81358181111561381857613818613d4b565b604051601f8201601f19908116603f0116810190838211818310171561384057613840613d4b565b8160405282815288602084870101111561385957600080fd5b8260208601602083013760006020848301015280955050505050509250929050565b6000806040838503121561388e57600080fd5b50508035926020909101359150565b6000806000606084860312156138b257600080fd5b83359250602084013591506136da60408501613576565b600080604083850312156138dc57600080fd5b823591506138ec60208401613576565b90509250929050565b60008060006040848603121561390a57600080fd5b6139138461358a565b925060208401356001600160401b0381111561373a57600080fd5b6000815180845260005b8181101561395457602081850181015186830182015201613938565b81811115613966576000602083870101525b50601f01601f19169290920160200192915050565b8054600090600181811c908083168061399557607f831692505b60208084108214156139b757634e487b7160e01b600052602260045260246000fd5b8180156139cb57600181146139dc57613a09565b60ff19861689528489019650613a09565b60008881526020902060005b86811015613a015781548b8201529085019083016139e8565b505084890196505b50505050505092915050565b86815260006001600160401b0360c01b808860c01b166020840152613a3d602884018861397b565b818760c01b1681526bffffffffffffffffffffffff198660601b166008820152613a6a601c82018661397b565b9a9950505050505050505050565b6001600160a01b038a1681526020810189905261ffff88811660408301528716606082015263ffffffff861660808201526001600160401b0385811660a083015284811660c0830152831660e08201526101206101008201819052600090613ae28382018561392e565b9c9b505050505050505050505050565b60208152600061205a602083018461392e565b604081526000613b18604083018561392e565b90506001600160401b03831660208301529392505050565b60208082526018908201527f696e76616c69642061636365737320746f207665726966790000000000000000604082015260600190565b60208082526023908201527f506c616e746572206f6620747265652063616e2774207665726966792075706460408201526261746560e81b606082015260800190565b6001600160401b038416815260406020820152816040820152818360608301376000818301606090810191909152601f909201601f1916010192915050565b6001600160401b03878116825286811660208301528581166040830152841660608201526001600160a01b038316608082015260c060a08201819052600090613c349083018461392e565b98975050505050505050565b60008219821115613c5357613c53613d35565b500190565b600082613c7557634e487b7160e01b600052601260045260246000fd5b500490565b6000816000190483118215151615613c9457613c94613d35565b500290565b60006001600160401b0380831681851681830481118215151615613cbf57613cbf613d35565b02949350505050565b600082821015613cda57613cda613d35565b500390565b600181811c90821680613cf357607f821691505b60208210811415613d1457634e487b7160e01b600052602260045260246000fd5b50919050565b6000600019821415613d2e57613d2e613d35565b5060010190565b634e487b7160e01b600052601160045260246000fd5b634e487b7160e01b600052604160045260246000fd5b6001600160a01b038116811461350657600080fd5b801515811461350657600080fdfea26469706673582212200b587c4949ba96942b933d114a5a28649c1ae26e4a21ec86f537a1d8e21506ab64736f6c63430008060033",
  "immutableReferences": {},
  "source": "//SPDX-License-Identifier: MIT\n\npragma solidity ^0.8.6;\n\nimport \"@openzeppelin/contracts-upgradeable/utils/math/SafeCastUpgradeable.sol\";\n\nimport \"@openzeppelin/contracts-upgradeable/utils/CountersUpgradeable.sol\";\nimport \"@openzeppelin/contracts-upgradeable/proxy/utils/Initializable.sol\";\nimport \"../access/IAccessRestriction.sol\";\nimport \"../gsn/RelayRecipient.sol\";\nimport \"../tree/ITree.sol\";\nimport \"../treasury/IPlanterFund.sol\";\nimport \"../planter/IPlanter.sol\";\n\n/** @title TreeFactory Contract */\ncontract TreeFactory is Initializable, RelayRecipient {\n    using CountersUpgradeable for CountersUpgradeable.Counter;\n    using SafeCastUpgradeable for uint256;\n    using SafeCastUpgradeable for uint32;\n\n    CountersUpgradeable.Counter private regularTreeId;\n\n    /** NOTE {isTreeFactory} set inside the initialize to {true} */\n    bool public isTreeFactory;\n\n    IAccessRestriction public accessRestriction;\n    ITree public treeToken;\n    IPlanterFund public planterFund;\n    IPlanter public planter;\n\n    uint256 public lastRegularPlantedTree;\n    uint256 public updateInterval;\n\n    struct TreeStruct {\n        address planterId;\n        uint256 treeType;\n        uint16 mintStatus;\n        uint16 countryCode;\n        uint32 provideStatus;\n        uint64 treeStatus;\n        uint64 plantDate;\n        uint64 birthDate;\n        string treeSpecs;\n    }\n\n    struct UpdateTree {\n        string updateSpecs;\n        uint64 updateStatus;\n    }\n\n    struct RegularTree {\n        uint64 birthDate;\n        uint64 plantDate;\n        uint64 countryCode;\n        uint64 otherData;\n        address planterAddress;\n        string treeSpecs;\n    }\n    /** NOTE mapping of treeId to Tree Struct */\n    mapping(uint256 => TreeStruct) public treeData;\n    /** NOTE mapping of treeId to UpdateTree struct */\n    mapping(uint256 => UpdateTree) public updateTrees;\n    /** NOTE mapping of treeId to RegularTree struct */\n    mapping(uint256 => RegularTree) public regularTrees;\n\n    event TreeAdded(uint256 treeId);\n    event TreeAssigned(uint256 treeId);\n    event TreePlanted(uint256 treeId);\n    event PlantVerified(uint256 treeId);\n    event PlantRejected(uint256 treeId);\n    event TreeUpdated(uint256 treeId);\n    event UpdateVerified(uint256 treeId);\n    event UpdateRejected(uint256 treeId);\n    event RegularTreePlanted(uint256 treeId);\n    event RegularPlantVerified(uint256 treeId);\n    event RegularPlantRejected(uint256 treeId);\n    event UpdateIntervalSet();\n    event TreeSpecsUpdate(uint256 treeId, string treeSpecs);\n\n    /** NOTE modifier to check msg.sender has admin role */\n    modifier onlyAdmin() {\n        accessRestriction.ifAdmin(_msgSender());\n        _;\n    }\n\n    /** NOTE modifier to check msg.sender has data manager role */\n    modifier onlyDataManager() {\n        accessRestriction.ifDataManager(_msgSender());\n        _;\n    }\n\n    /** NOTE modifier for check if function is not paused*/\n    modifier ifNotPaused() {\n        accessRestriction.ifNotPaused();\n        _;\n    }\n\n    /** NOTE modifier to check msg.sender has script role */\n    modifier onlyScript() {\n        accessRestriction.ifScript(_msgSender());\n        _;\n    }\n\n    /** NOTE modifier for check msg.sender has TreejerContract role */\n    modifier onlyTreejerContract() {\n        accessRestriction.ifTreejerContract(_msgSender());\n        _;\n    }\n\n    /** NOTE modifier for check treeId to be valid tree */\n    modifier validTree(uint256 _treeId) {\n        require(treeData[_treeId].treeStatus > 0, \"invalid tree\");\n        _;\n    }\n\n    /** NOTE modifier for check valid address */\n    modifier validAddress(address _address) {\n        require(_address != address(0), \"invalid address\");\n        _;\n    }\n\n    /**\n     * @dev initialize accessRestriction contract and set true for isTreeFactory\n     * @param _accessRestrictionAddress set to the address of accessRestriction contract\n     * NOTE set lastRegularPlantedTree to 10000\n     */\n    function initialize(address _accessRestrictionAddress)\n        external\n        initializer\n    {\n        IAccessRestriction candidateContract = IAccessRestriction(\n            _accessRestrictionAddress\n        );\n\n        require(candidateContract.isAccessRestriction());\n\n        isTreeFactory = true;\n        accessRestriction = candidateContract;\n        lastRegularPlantedTree = 10000;\n        updateInterval = 604800;\n    }\n\n    /**\n     * @dev set trusted forwarder address\n     * @param _address set to {trustedForwarder}\n     */\n    function setTrustedForwarder(address _address)\n        external\n        onlyAdmin\n        validAddress(_address)\n    {\n        trustedForwarder = _address;\n    }\n\n    /**\n     * @dev admin set PlanterFund contract address\n     * @param _address set to the address of PlanterFund contract\n     */\n    function setPlanterFundAddress(address _address) external onlyAdmin {\n        IPlanterFund candidateContract = IPlanterFund(_address);\n\n        require(candidateContract.isPlanterFund());\n\n        planterFund = candidateContract;\n    }\n\n    /**\n     * @dev admin set Planter contract address\n     * @param _address set to the address of Planter contract\n     */\n    function setPlanterAddress(address _address) external onlyAdmin {\n        IPlanter candidateContract = IPlanter(_address);\n\n        require(candidateContract.isPlanter());\n\n        planter = candidateContract;\n    }\n\n    /**\n     * @dev admin set TreeToken contract address\n     * @param _address set to the address of TreeToken contract\n     */\n    function setTreeTokenAddress(address _address) external onlyAdmin {\n        ITree candidateContract = ITree(_address);\n\n        require(candidateContract.isTree());\n\n        treeToken = candidateContract;\n    }\n\n    /** @dev admin can set the minimum time to send next update request\n     * @param _day time to next update request\n     */\n    function setUpdateInterval(uint256 _day) external onlyDataManager {\n        updateInterval = _day * 86400;\n\n        emit UpdateIntervalSet();\n    }\n\n    /**\n     * @dev admin add tree\n     * @param _treeId id of tree to add\n     * @param _treeDescription tree description\n     */\n    function addTree(uint256 _treeId, string calldata _treeDescription)\n        external\n        onlyDataManager\n    {\n        require(treeData[_treeId].treeStatus == 0, \"duplicate tree\");\n\n        TreeStruct storage tree = treeData[_treeId];\n\n        tree.treeStatus = 2;\n        tree.treeSpecs = _treeDescription;\n\n        emit TreeAdded(_treeId);\n    }\n\n    /**\n     * @dev admin assign an existing tree to planter\n     * @param _treeId id of tree to assign\n     * @param _planterId assignee planter\n     * NOTE tree must be not planted\n     */\n    function assignTreeToPlanter(uint256 _treeId, address _planterId)\n        external\n        onlyDataManager\n    {\n        TreeStruct storage tempTree = treeData[_treeId];\n\n        require(tempTree.treeStatus == 2, \"invalid tree to assign\");\n\n        require(\n            planter.canAssignTreeToPlanter(_planterId),\n            \"can't assign tree to planter\"\n        );\n\n        tempTree.planterId = _planterId;\n\n        emit TreeAssigned(_treeId);\n    }\n\n    /**\n     * @dev planter with permission to plant, can plan their trees\n     * @param _treeId id of tree to plant\n     * @param _treeSpecs tree specs\n     * @param _birthDate birth date of tree\n     * @param _countryCode country code of tree\n     */\n    function plantTree(\n        uint256 _treeId,\n        string calldata _treeSpecs,\n        uint64 _birthDate,\n        uint16 _countryCode\n    ) external {\n        TreeStruct storage tempGenTree = treeData[_treeId];\n\n        require(tempGenTree.treeStatus == 2, \"invalid tree status for plant\");\n\n        bool _canPlant = planter.plantingPermission(\n            _msgSender(),\n            tempGenTree.planterId\n        );\n\n        require(_canPlant, \"planting permission denied\");\n\n        if (_msgSender() != tempGenTree.planterId) {\n            tempGenTree.planterId = _msgSender();\n        }\n\n        UpdateTree storage updateGenTree = updateTrees[_treeId];\n\n        updateGenTree.updateSpecs = _treeSpecs;\n        updateGenTree.updateStatus = 1;\n\n        tempGenTree.countryCode = _countryCode;\n        tempGenTree.birthDate = _birthDate;\n        tempGenTree.plantDate = block.timestamp.toUint64();\n        tempGenTree.treeStatus = 3;\n\n        emit TreePlanted(_treeId);\n    }\n\n    /**\n     * @dev admin or allowed verifier can verify a plant or reject.\n     * @param _treeId id of tree to verifiy\n     * @param _isVerified true for verify and false for reject\n     */\n    function verifyPlant(uint256 _treeId, bool _isVerified)\n        external\n        ifNotPaused\n    {\n        TreeStruct storage tempGenTree = treeData[_treeId];\n\n        require(tempGenTree.treeStatus == 3, \"invalid tree status\");\n\n        require(\n            tempGenTree.planterId != _msgSender(),\n            \"Planter of tree can't accept update\"\n        );\n\n        require(\n            accessRestriction.isDataManager(_msgSender()) ||\n                planter.canVerify(tempGenTree.planterId, _msgSender()),\n            \"invalid access to verify\"\n        );\n\n        UpdateTree storage tempUpdateGenTree = updateTrees[_treeId];\n\n        if (_isVerified) {\n            tempGenTree.treeSpecs = tempUpdateGenTree.updateSpecs;\n            tempGenTree.treeStatus = 4;\n            tempUpdateGenTree.updateStatus = 3;\n\n            emit PlantVerified(_treeId);\n        } else {\n            tempGenTree.treeStatus = 2;\n            tempUpdateGenTree.updateStatus = 2;\n            planter.reducePlantCount(tempGenTree.planterId);\n\n            emit PlantRejected(_treeId);\n        }\n    }\n\n    /**\n     * @dev planter of  tree send update request for tree\n     * @param _treeId id of tree to update\n     * @param _treeSpecs tree specs\n     */\n    function updateTree(uint256 _treeId, string memory _treeSpecs) external {\n        require(\n            treeData[_treeId].planterId == _msgSender(),\n            \"Only Planter of tree can send update\"\n        );\n\n        require(treeData[_treeId].treeStatus > 3, \"Tree not planted\");\n\n        require(\n            updateTrees[_treeId].updateStatus != 1,\n            \"update tree status is pending\"\n        );\n\n        require(\n            block.timestamp >=\n                treeData[_treeId].plantDate +\n                    ((treeData[_treeId].treeStatus * 3600) + updateInterval),\n            \"Update time not reach\"\n        );\n\n        UpdateTree storage updateGenTree = updateTrees[_treeId];\n\n        updateGenTree.updateSpecs = _treeSpecs;\n        updateGenTree.updateStatus = 1;\n\n        emit TreeUpdated(_treeId);\n    }\n\n    /**\n     * @dev admin or allowed verifier can verifiy or reject update request for tree.\n     * @param _treeId id of tree to verify update request\n     * @param _isVerified true for verify and false for reject\n     * NOTE based on the current time of verifing and plant date, age of tree\n     * calculated and set as the treeStatus\n     * NOTE if a token exist for that tree (minted before) planter of tree funded\n     * based on calculated tree status\n     */\n    function verifyUpdate(uint256 _treeId, bool _isVerified)\n        external\n        ifNotPaused\n    {\n        require(\n            treeData[_treeId].planterId != _msgSender(),\n            \"Planter of tree can't verify update\"\n        );\n\n        require(\n            updateTrees[_treeId].updateStatus == 1,\n            \"update status must be pending\"\n        );\n\n        require(treeData[_treeId].treeStatus > 3, \"Tree not planted\");\n\n        require(\n            accessRestriction.isDataManager(_msgSender()) ||\n                planter.canVerify(treeData[_treeId].planterId, _msgSender()),\n            \"invalid access to verify\"\n        );\n\n        UpdateTree storage updateGenTree = updateTrees[_treeId];\n\n        if (_isVerified) {\n            TreeStruct storage tree = treeData[_treeId];\n\n            updateGenTree.updateStatus = 3;\n\n            uint32 age = ((block.timestamp - treeData[_treeId].plantDate) /\n                3600).toUint32();\n\n            if (age > tree.treeStatus) {\n                tree.treeStatus = age;\n            }\n\n            tree.treeSpecs = updateGenTree.updateSpecs;\n\n            if (treeToken.exists(_treeId)) {\n                planterFund.fundPlanter(\n                    _treeId,\n                    tree.planterId,\n                    tree.treeStatus\n                );\n            }\n\n            emit UpdateVerified(_treeId);\n        } else {\n            updateGenTree.updateStatus = 2;\n\n            emit UpdateRejected(_treeId);\n        }\n    }\n\n    /**\n     * @dev check if a tree is valid to take part in an auction\n     * set {_provideType} to provideStatus when tree is not in use\n     * @return 0 if a tree ready for auction and 1 if a tree is in auction or minted before\n     */\n    function availability(uint256 _treeId, uint32 _provideType)\n        external\n        onlyTreejerContract\n        validTree(_treeId)\n        returns (uint32)\n    {\n        if (treeToken.exists(_treeId)) {\n            return 1;\n        }\n\n        uint32 nowProvideStatus = treeData[_treeId].provideStatus;\n\n        if (nowProvideStatus == 0) {\n            treeData[_treeId].provideStatus = _provideType;\n        }\n\n        return nowProvideStatus;\n    }\n\n    /** @dev mint {_treeId} to {_ownerId} and set mintStatus to {_mintStatus} and privdeStatus to 0  */\n    function updateOwner(\n        uint256 _treeId,\n        address _ownerId,\n        uint16 _mintStatus\n    ) external onlyTreejerContract {\n        treeData[_treeId].provideStatus = 0;\n        treeData[_treeId].mintStatus = _mintStatus;\n        treeToken.safeMint(_ownerId, _treeId);\n    }\n\n    /** @dev exit a {_treeId} from auction */\n    function updateAvailability(uint256 _treeId) external onlyTreejerContract {\n        treeData[_treeId].provideStatus = 0;\n    }\n\n    /** @dev cancel all old incremental sell of trees starting from {_startTreeId} and end at {_endTreeId} */\n    function bulkRevert(uint256 _startTreeId, uint256 _endTreeId)\n        external\n        onlyTreejerContract\n    {\n        for (uint256 i = _startTreeId; i < _endTreeId; i++) {\n            if (treeData[i].provideStatus == 2) {\n                treeData[i].provideStatus = 0;\n            }\n        }\n    }\n\n    /**\n     * @dev set incremental and communityGifts sell for trees starting from {_startTreeId}\n     * and end at {_endTreeId} by setting {_provideStatus} to provideStatus\n     */\n    function manageProvideStatus(\n        uint256 _startTreeId,\n        uint256 _endTreeId,\n        uint32 _provideStatus\n    ) external onlyTreejerContract returns (bool) {\n        for (uint256 i = _startTreeId; i < _endTreeId; i++) {\n            if (treeData[i].provideStatus > 0) {\n                return false;\n            }\n        }\n        for (uint256 j = _startTreeId; j < _endTreeId; j++) {\n            treeData[j].provideStatus = _provideStatus;\n        }\n        return true;\n    }\n\n    /**\n     *\n     */\n    function checkMintStatus(uint256 _treeId, address _buyer)\n        external\n        view\n        returns (bool, bytes32)\n    {\n        uint16 minted = treeData[_treeId].mintStatus;\n\n        bool flag = ((minted == 1 || minted == 2) &&\n            treeToken.ownerOf(_treeId) == _buyer);\n\n        if (flag) {\n            TreeStruct storage tempTree = treeData[_treeId];\n            UpdateTree storage tempUpdateTree = updateTrees[_treeId];\n\n            return (\n                true,\n                keccak256(\n                    abi.encodePacked(\n                        lastRegularPlantedTree,\n                        tempTree.birthDate,\n                        tempTree.treeSpecs,\n                        tempTree.treeStatus,\n                        tempTree.planterId,\n                        tempUpdateTree.updateSpecs\n                    )\n                )\n            );\n        }\n\n        return (false, 0);\n    }\n\n    /**\n     * @dev This function is called by planter who have planted a new tree\n     * The planter enters the information of the new tree\n     * Information is stored in The {regularTrees} mapping\n     * And finally the tree is waiting for approval\n     * @param _treeSpecs //TODO: what is _treeSpecs ??\n     * @param _birthDate birthDate of the tree\n     * @param _countryCode Code of the country where the tree was planted\n     */\n    function regularPlantTree(\n        string calldata _treeSpecs,\n        uint64 _birthDate,\n        uint16 _countryCode\n    ) external {\n        require(planter.planterCheck(_msgSender()));\n\n        regularTrees[regularTreeId.current()] = RegularTree(\n            _birthDate,\n            block.timestamp.toUint64(),\n            _countryCode,\n            0,\n            _msgSender(),\n            _treeSpecs\n        );\n\n        emit RegularTreePlanted(regularTreeId.current());\n\n        regularTreeId.increment();\n    }\n\n    /**\n     * @dev In this function, the admin approves or rejects the pending trees\n     * After calling this function, if the tree is approved the tree information will be transferred to the {treeData}\n     *\n     * @param _regularTreeId _regularTreeId\n     * @param _isVerified Tree approved or not\n     */\n    function verifyRegularPlant(uint256 _regularTreeId, bool _isVerified)\n        external\n    {\n        RegularTree storage regularTree = regularTrees[_regularTreeId];\n\n        require(\n            regularTree.planterAddress != _msgSender(),\n            \"Planter of tree can't verify update\"\n        );\n\n        require(\n            accessRestriction.isDataManager(_msgSender()) ||\n                planter.canVerify(regularTree.planterAddress, _msgSender()),\n            \"invalid access to verify\"\n        );\n\n        require(regularTree.plantDate > 0, \"regularTree not exist\");\n\n        if (_isVerified) {\n            uint256 tempLastRegularPlantedTree = lastRegularPlantedTree + 1;\n\n            while (\n                !(treeData[tempLastRegularPlantedTree].treeStatus == 0 &&\n                    treeData[tempLastRegularPlantedTree].provideStatus == 0)\n            ) {\n                tempLastRegularPlantedTree = tempLastRegularPlantedTree + 1;\n            }\n\n            lastRegularPlantedTree = tempLastRegularPlantedTree;\n\n            TreeStruct storage tree = treeData[lastRegularPlantedTree];\n\n            tree.plantDate = regularTree.plantDate;\n            tree.countryCode = uint16(regularTree.countryCode);\n            tree.birthDate = regularTree.birthDate;\n            tree.treeSpecs = regularTree.treeSpecs;\n            tree.planterId = regularTree.planterAddress;\n            tree.treeStatus = 4;\n\n            if (!treeToken.exists(lastRegularPlantedTree)) {\n                tree.provideStatus = 4;\n            }\n            emit RegularPlantVerified(lastRegularPlantedTree);\n        } else {\n            emit RegularPlantRejected(_regularTreeId);\n        }\n\n        delete regularTrees[_regularTreeId];\n    }\n\n    /**\n     * @dev Transfer ownership of trees purchased by funders and Update the last tree sold\n     * This function is called only by the regularSell contract\n     * @param _lastSold The last tree sold in the regular\n     * @param _owner Owner of a new tree sold in Regular\n     * @return The last tree sold after update\n     */\n    function mintRegularTrees(uint256 _lastSold, address _owner)\n        external\n        onlyTreejerContract\n        returns (uint256)\n    {\n        uint256 localLastSold = _lastSold + 1;\n\n        bool flag = (treeData[localLastSold].treeStatus == 0 &&\n            treeData[localLastSold].provideStatus == 0) ||\n            (treeData[localLastSold].treeStatus == 4 &&\n                treeData[localLastSold].provideStatus == 4);\n\n        while (!flag) {\n            localLastSold = localLastSold + 1;\n\n            flag =\n                (treeData[localLastSold].treeStatus == 0 &&\n                    treeData[localLastSold].provideStatus == 0) ||\n                (treeData[localLastSold].treeStatus == 4 &&\n                    treeData[localLastSold].provideStatus == 4);\n        }\n\n        treeData[localLastSold].provideStatus = 0;\n\n        treeToken.safeMint(_owner, localLastSold);\n\n        return localLastSold;\n    }\n\n    /**\n     * @dev Request to buy a tree with a specific Id already planted and this function transfer ownership to funder\n     * This function is called only by the regularSell contract\n     * @param _treeId Tree with special Id (The Id must be larger than the last tree sold)\n     * @param _owner Owner of a new tree sold in Regular\n     */\n    function requestRegularTree(uint256 _treeId, address _owner)\n        external\n        onlyTreejerContract\n    {\n        TreeStruct storage tree = treeData[_treeId];\n\n        require(\n            tree.treeStatus == 4 && tree.provideStatus == 4,\n            \"tree must be planted\"\n        );\n\n        tree.provideStatus = 0;\n\n        treeToken.safeMint(_owner, _treeId);\n    }\n\n    /** @dev script role update {_treeSpecs} of {_treeId} */\n    function updateTreeSpecs(uint64 _treeId, string calldata _treeSpecs)\n        external\n        onlyScript\n    {\n        treeData[_treeId].treeSpecs = _treeSpecs;\n\n        emit TreeSpecsUpdate(_treeId, _treeSpecs);\n    }\n}\n",
  "sourcePath": "/media/ali/New Volume/treejer/contract/contracts/tree/TreeFactory.sol",
  "compiler": {
    "name": "solc",
    "version": "0.8.6+commit.11564f7e.Emscripten.clang"
  },
  "schemaVersion": "3.4.1",
  "updatedAt": "2021-09-22T14:02:27.122Z",
  "networkType": "ethereum",
  "devdoc": {
    "kind": "dev",
    "methods": {
      "addTree(uint256,string)": {
        "details": "admin add tree",
        "params": {
          "_treeDescription": "tree description",
          "_treeId": "id of tree to add"
        }
      },
      "assignTreeToPlanter(uint256,address)": {
        "details": "admin assign an existing tree to planter",
        "params": {
          "_planterId": "assignee planter NOTE tree must be not planted",
          "_treeId": "id of tree to assign"
        }
      },
      "availability(uint256,uint32)": {
        "details": "check if a tree is valid to take part in an auction set {_provideType} to provideStatus when tree is not in use",
        "returns": {
          "_0": "0 if a tree ready for auction and 1 if a tree is in auction or minted before"
        }
      },
      "bulkRevert(uint256,uint256)": {
        "details": "cancel all old incremental sell of trees starting from {_startTreeId} and end at {_endTreeId} "
      },
      "initialize(address)": {
        "details": "initialize accessRestriction contract and set true for isTreeFactory",
        "params": {
          "_accessRestrictionAddress": "set to the address of accessRestriction contract NOTE set lastRegularPlantedTree to 10000"
        }
      },
      "manageProvideStatus(uint256,uint256,uint32)": {
        "details": "set incremental and communityGifts sell for trees starting from {_startTreeId} and end at {_endTreeId} by setting {_provideStatus} to provideStatus"
      },
      "mintRegularTrees(uint256,address)": {
        "details": "Transfer ownership of trees purchased by funders and Update the last tree sold This function is called only by the regularSell contract",
        "params": {
          "_lastSold": "The last tree sold in the regular",
          "_owner": "Owner of a new tree sold in Regular"
        },
        "returns": {
          "_0": "The last tree sold after update"
        }
      },
      "plantTree(uint256,string,uint64,uint16)": {
        "details": "planter with permission to plant, can plan their trees",
        "params": {
          "_birthDate": "birth date of tree",
          "_countryCode": "country code of tree",
          "_treeId": "id of tree to plant",
          "_treeSpecs": "tree specs"
        }
      },
      "regularPlantTree(string,uint64,uint16)": {
        "details": "This function is called by planter who have planted a new tree The planter enters the information of the new tree Information is stored in The {regularTrees} mapping And finally the tree is waiting for approval",
        "params": {
          "_birthDate": "birthDate of the tree",
          "_countryCode": "Code of the country where the tree was planted",
          "_treeSpecs": "//TODO: what is _treeSpecs ??"
        }
      },
      "requestRegularTree(uint256,address)": {
        "details": "Request to buy a tree with a specific Id already planted and this function transfer ownership to funder This function is called only by the regularSell contract",
        "params": {
          "_owner": "Owner of a new tree sold in Regular",
          "_treeId": "Tree with special Id (The Id must be larger than the last tree sold)"
        }
      },
      "setPlanterAddress(address)": {
        "details": "admin set Planter contract address",
        "params": {
          "_address": "set to the address of Planter contract"
        }
      },
      "setPlanterFundAddress(address)": {
        "details": "admin set PlanterFund contract address",
        "params": {
          "_address": "set to the address of PlanterFund contract"
        }
      },
      "setTreeTokenAddress(address)": {
        "details": "admin set TreeToken contract address",
        "params": {
          "_address": "set to the address of TreeToken contract"
        }
      },
      "setTrustedForwarder(address)": {
        "details": "set trusted forwarder address",
        "params": {
          "_address": "set to {trustedForwarder}"
        }
      },
      "setUpdateInterval(uint256)": {
        "details": "admin can set the minimum time to send next update request",
        "params": {
          "_day": "time to next update request"
        }
      },
      "updateAvailability(uint256)": {
        "details": "exit a {_treeId} from auction "
      },
      "updateOwner(uint256,address,uint16)": {
        "details": "mint {_treeId} to {_ownerId} and set mintStatus to {_mintStatus} and privdeStatus to 0  "
      },
      "updateTree(uint256,string)": {
        "details": "planter of  tree send update request for tree",
        "params": {
          "_treeId": "id of tree to update",
          "_treeSpecs": "tree specs"
        }
      },
      "updateTreeSpecs(uint64,string)": {
        "details": "script role update {_treeSpecs} of {_treeId} "
      },
      "verifyPlant(uint256,bool)": {
        "details": "admin or allowed verifier can verify a plant or reject.",
        "params": {
          "_isVerified": "true for verify and false for reject",
          "_treeId": "id of tree to verifiy"
        }
      },
      "verifyRegularPlant(uint256,bool)": {
        "details": "In this function, the admin approves or rejects the pending trees After calling this function, if the tree is approved the tree information will be transferred to the {treeData}",
        "params": {
          "_isVerified": "Tree approved or not",
          "_regularTreeId": "_regularTreeId"
        }
      },
      "verifyUpdate(uint256,bool)": {
        "details": "admin or allowed verifier can verifiy or reject update request for tree.",
        "params": {
          "_isVerified": "true for verify and false for reject NOTE based on the current time of verifing and plant date, age of tree calculated and set as the treeStatus NOTE if a token exist for that tree (minted before) planter of tree funded based on calculated tree status",
          "_treeId": "id of tree to verify update request"
        }
      },
      "versionRecipient()": {
        "details": "return version recipient "
      }
    },
    "title": "TreeFactory Contract ",
    "version": 1
  },
  "userdoc": {
    "kind": "user",
    "methods": {
      "isTreeFactory()": {
        "notice": "NOTE {isTreeFactory} set inside the initialize to {true} "
      },
      "isTrustedForwarder(address)": {
        "notice": "return if the forwarder is trusted to forward relayed transactions to us. the forwarder is required to verify the sender's signature, and verify the call is not a replay."
      },
      "regularTrees(uint256)": {
        "notice": "NOTE mapping of treeId to RegularTree struct "
      },
      "treeData(uint256)": {
        "notice": "NOTE mapping of treeId to Tree Struct "
      },
      "updateTrees(uint256)": {
        "notice": "NOTE mapping of treeId to UpdateTree struct "
      }
    },
    "version": 1
  }
}