{
  "contractName": "TreeAttribute",
  "abi": [
    {
      "anonymous": false,
      "inputs": [
        {
          "indexed": false,
          "internalType": "address",
          "name": "buyer",
          "type": "address"
        },
        {
          "indexed": false,
          "internalType": "uint8",
          "name": "rank",
          "type": "uint8"
        }
      ],
      "name": "BuyerRankSet",
      "type": "event"
    },
    {
      "anonymous": false,
      "inputs": [
        {
          "indexed": false,
          "internalType": "uint32",
          "name": "generatedCode",
          "type": "uint32"
        }
      ],
      "name": "ReservedSymbolFreed",
      "type": "event"
    },
    {
      "anonymous": false,
      "inputs": [
        {
          "indexed": false,
          "internalType": "uint32",
          "name": "generatedCode",
          "type": "uint32"
        }
      ],
      "name": "SymbolReserved",
      "type": "event"
    },
    {
      "anonymous": false,
      "inputs": [
        {
          "indexed": false,
          "internalType": "uint256",
          "name": "treeId",
          "type": "uint256"
        }
      ],
      "name": "SymbolSetByAdmin",
      "type": "event"
    },
    {
      "anonymous": false,
      "inputs": [
        {
          "indexed": false,
          "internalType": "uint256",
          "name": "treeId",
          "type": "uint256"
        }
      ],
      "name": "TreeAttributesGenerated",
      "type": "event"
    },
    {
      "anonymous": false,
      "inputs": [
        {
          "indexed": false,
          "internalType": "uint256",
          "name": "treeId",
          "type": "uint256"
        }
      ],
      "name": "TreeAttributesNotGenerated",
      "type": "event"
    },
    {
      "inputs": [],
      "name": "accessRestriction",
      "outputs": [
        {
          "internalType": "contract IAccessRestriction",
          "name": "",
          "type": "address"
        }
      ],
      "stateMutability": "view",
      "type": "function",
      "constant": true
    },
    {
      "inputs": [
        {
          "internalType": "uint32",
          "name": "",
          "type": "uint32"
        }
      ],
      "name": "generatedAttributes",
      "outputs": [
        {
          "internalType": "uint32",
          "name": "",
          "type": "uint32"
        }
      ],
      "stateMutability": "view",
      "type": "function",
      "constant": true
    },
    {
      "inputs": [],
      "name": "isTreeAttribute",
      "outputs": [
        {
          "internalType": "bool",
          "name": "",
          "type": "bool"
        }
      ],
      "stateMutability": "view",
      "type": "function",
      "constant": true
    },
    {
      "inputs": [
        {
          "internalType": "address",
          "name": "",
          "type": "address"
        }
      ],
      "name": "rankOf",
      "outputs": [
        {
          "internalType": "uint8",
          "name": "",
          "type": "uint8"
        }
      ],
      "stateMutability": "view",
      "type": "function",
      "constant": true
    },
    {
      "inputs": [
        {
          "internalType": "uint32",
          "name": "",
          "type": "uint32"
        }
      ],
      "name": "reservedAttributes",
      "outputs": [
        {
          "internalType": "uint8",
          "name": "",
          "type": "uint8"
        }
      ],
      "stateMutability": "view",
      "type": "function",
      "constant": true
    },
    {
      "inputs": [
        {
          "internalType": "uint256",
          "name": "",
          "type": "uint256"
        }
      ],
      "name": "treeAttributes",
      "outputs": [
        {
          "internalType": "uint32",
          "name": "treeType",
          "type": "uint32"
        },
        {
          "internalType": "uint32",
          "name": "groundType",
          "type": "uint32"
        },
        {
          "internalType": "uint32",
          "name": "trunkColor",
          "type": "uint32"
        },
        {
          "internalType": "uint32",
          "name": "crownColor",
          "type": "uint32"
        },
        {
          "internalType": "uint32",
          "name": "groundColor",
          "type": "uint32"
        },
        {
          "internalType": "uint32",
          "name": "specialEffects",
          "type": "uint32"
        },
        {
          "internalType": "uint32",
          "name": "universalCode",
          "type": "uint32"
        },
        {
          "internalType": "uint32",
          "name": "exists",
          "type": "uint32"
        }
      ],
      "stateMutability": "view",
      "type": "function",
      "constant": true
    },
    {
      "inputs": [
        {
          "internalType": "address",
          "name": "_accessRestrictionAddress",
          "type": "address"
        }
      ],
      "name": "initialize",
      "outputs": [],
      "stateMutability": "nonpayable",
      "type": "function"
    },
    {
      "inputs": [
        {
          "internalType": "uint32",
          "name": "generatedCode",
          "type": "uint32"
        }
      ],
      "name": "reserveTreeAttributes",
      "outputs": [],
      "stateMutability": "nonpayable",
      "type": "function"
    },
    {
      "inputs": [
        {
          "internalType": "uint32",
          "name": "generatedCode",
          "type": "uint32"
        }
      ],
      "name": "freeReserveTreeAttributes",
      "outputs": [],
      "stateMutability": "nonpayable",
      "type": "function"
    },
    {
      "inputs": [
        {
          "internalType": "uint256",
          "name": "treeId",
          "type": "uint256"
        },
        {
          "internalType": "uint32",
          "name": "generatedCode",
          "type": "uint32"
        }
      ],
      "name": "setTreeAttributesByAdmin",
      "outputs": [],
      "stateMutability": "nonpayable",
      "type": "function"
    },
    {
      "inputs": [
        {
          "internalType": "uint256",
          "name": "treeId",
          "type": "uint256"
        },
        {
          "internalType": "bytes32",
          "name": "randTree",
          "type": "bytes32"
        },
        {
          "internalType": "address",
          "name": "buyer",
          "type": "address"
        }
      ],
      "name": "createTreeAttributes",
      "outputs": [
        {
          "internalType": "bool",
          "name": "",
          "type": "bool"
        }
      ],
      "stateMutability": "nonpayable",
      "type": "function"
    },
    {
      "inputs": [
        {
          "internalType": "address",
          "name": "buyer",
          "type": "address"
        },
        {
          "internalType": "uint256",
          "name": "treejerSpent",
          "type": "uint256"
        },
        {
          "internalType": "uint256",
          "name": "walletSpent",
          "type": "uint256"
        },
        {
          "internalType": "uint64",
          "name": "treesOwned",
          "type": "uint64"
        },
        {
          "internalType": "uint64",
          "name": "walletSpentCount",
          "type": "uint64"
        }
      ],
      "name": "setBuyerRank",
      "outputs": [],
      "stateMutability": "nonpayable",
      "type": "function"
    }
  ],
  "bytecode": "0x608060405234801561001057600080fd5b506120bc806100206000396000f3fe608060405234801561001057600080fd5b50600436106100b45760003560e01c8063874c1daf11610071578063874c1daf1461020e57806389e2af1814610231578063ac689ec314610244578063b55c0a8314610257578063c4d66de814610292578063d6762c4a146102a557600080fd5b806329769253146100b95780632a4ddf6d146100ce578063448e5d2b146100e157806346efcdc11461011b578063786354a61461013e5780637b4a42e2146101fb575b600080fd5b6100cc6100c7366004611c91565b6102d7565b005b6100cc6100dc366004611c65565b61040d565b6101046100ef366004611c91565b60046020526000908152604090205460ff1681565b60405160ff90911681526020015b60405180910390f35b60005461012e9062010000900460ff1681565b6040519015158152602001610112565b6101ac61014c366004611c17565b60026020526000908152604090205463ffffffff808216916401000000008104821691600160401b8204811691600160601b8104821691600160801b8204811691600160a01b8104821691600160c01b8204811691600160e01b90041688565b6040805163ffffffff998a16815297891660208901529588169587019590955292861660608601529085166080850152841660a0840152831660c083015290911660e082015261010001610112565b61012e610209366004611c30565b6108b8565b61010461021c366004611b83565b60016020526000908152604090205460ff1681565b6100cc61023f366004611c91565b610b12565b6100cc610252366004611b9e565b610c42565b61027d610265366004611c91565b60036020526000908152604090205463ffffffff1681565b60405163ffffffff9091168152602001610112565b6100cc6102a0366004611b83565b610e45565b6000546102bf90630100000090046001600160a01b031681565b6040516001600160a01b039091168152602001610112565b6000546040516324f9e45f60e01b815233600482015263010000009091046001600160a01b0316906324f9e45f9060240160006040518083038186803b15801561032057600080fd5b505afa158015610334573d6000803e3d6000fd5b50505063ffffffff821660009081526004602052604090205460ff1660011490506103a65760405162461bcd60e51b815260206004820181905260248201527f74686520747265652061747472696275746573206e6f7420726573657276656460448201526064015b60405180910390fd5b63ffffffff81166000818152600360209081526040808320805463ffffffff191690556004825291829020805460ff1916905590519182527f3b0b29d3dd28ae1e267d5a67f3d6752fb6cbb9b4dcab436a1f7775d8e41d0ce491015b60405180910390a150565b6000546040516324f9e45f60e01b815233600482015263010000009091046001600160a01b0316906324f9e45f9060240160006040518083038186803b15801561045657600080fd5b505afa15801561046a573d6000803e3d6000fd5b5050505063ffffffff8181166000908152600360205260409020541615806104aa575063ffffffff811660009081526004602052604090205460ff166001145b6104f65760405162461bcd60e51b815260206004820152601d60248201527f74686520747265652061747472696275746573206172652074616b656e000000604482015260640161039d565b600082815260026020526040902054600160c01b900463ffffffff161561055f5760405162461bcd60e51b815260206004820152601e60248201527f7472656520617474726962757465732061726520736574206265666f72650000604482015260640161039d565b63ffffffff81166000908152600360208181526040808420805463ffffffff191660011790556004808352818520805460ff19169055815160c08082018452600680835282860187905282850184905260608301849052608083019690965260a0820192909252825185815260e0810190935294939192830190803683370190505090508260005b60068163ffffffff1610156106895761061c82858363ffffffff166006811061061257610612612070565b6020020151610fa6565b838263ffffffff168151811061063457610634612070565b63ffffffff9283166020918202929092010152849082166006811061065b5761065b612070565b602002015161066b906002611de7565b6106759083611d25565b91508061068181612020565b9150506105e7565b50604051806101000160405280836000815181106106a9576106a9612070565b602002602001015163ffffffff168152602001836001815181106106cf576106cf612070565b602002602001015163ffffffff168152602001836002815181106106f5576106f5612070565b602002602001015163ffffffff1681526020018360038151811061071b5761071b612070565b602002602001015163ffffffff1681526020018360048151811061074157610741612070565b602002602001015163ffffffff1681526020018360058151811061076757610767612070565b60209081029190910181015163ffffffff9081168352878116838301526001604093840152600089815260028352839020845181548685015187870151606089015160808a015160a08b015160c08c015160e0909c015196891667ffffffffffffffff199096169590951764010000000094891694909402939093176fffffffffffffffff00000000000000001916600160401b9288169290920263ffffffff60601b191691909117600160601b918716919091021767ffffffffffffffff60801b1916600160801b9186169190910263ffffffff60a01b191617600160a01b91851691909102176001600160c01b0316600160c01b968416969096026001600160e01b031695909517600160e01b959092169490940217909255518681527fbd00b47486f31397b26f975be80d7993a6a6a58bb94a2b5bd893be855fa21a2c910160405180910390a15050505050565b60008060039054906101000a90046001600160a01b03166001600160a01b0316634d868f986040518163ffffffff1660e01b815260040160006040518083038186803b15801561090757600080fd5b505afa15801561091b573d6000803e3d6000fd5b505060005460405163ebe6a6f360e01b815233600482015263010000009091046001600160a01b0316925063ebe6a6f3915060240160006040518083038186803b15801561096857600080fd5b505afa15801561097c573d6000803e3d6000fd5b505050600085815260026020526040902054600160e01b900463ffffffff1615159050610b0757600160005b612710811015610a8d57604051606085901b6bffffffffffffffffffffffff1916602082015260348101869052600080356001600160e01b03191660548301526058820188905260788201839052906098016040516020818303038152906040528051906020012060001c905060005b6009811015610a6d57610a368689610a3185601c610fcc565b610ffb565b93508315610a4357610a6d565b610a4f601c6002611dd8565b610a599083611d11565b915080610a6581612005565b915050610a18565b508215610a7a5750610a8d565b5080610a8581612005565b9150506109a8565b508015610acc576040518581527f7b0beeff91b466d396a030d3bc9aa08b615f761785566f170b4043050dd1c2139060200160405180910390a1610b00565b6040518581527f1e6cc6ff2f54231b997f8c278077738189580fa7f6a31138364482a185b78b179060200160405180910390a15b9050610b0b565b5060015b9392505050565b6000546040516324f9e45f60e01b815233600482015263010000009091046001600160a01b0316906324f9e45f9060240160006040518083038186803b158015610b5b57600080fd5b505afa158015610b6f573d6000803e3d6000fd5b5050505063ffffffff8181166000908152600360205260409020541615610bd85760405162461bcd60e51b815260206004820152601d60248201527f74686520747265652061747472696275746573206172652074616b656e000000604482015260640161039d565b63ffffffff81166000818152600360209081526040808320805463ffffffff191660019081179091556004835292819020805460ff191690931790925590519182527fdbcee2f6584a5a11c4459a13cb063c045534dd3ecb3d3213f39fc98e148d5d429101610402565b6000546040516335126dab60e21b815233600482015263010000009091046001600160a01b03169063d449b6ac9060240160006040518083038186803b158015610c8b57600080fd5b505afa158015610c9f573d6000803e3d6000fd5b50505050600066016bcc41e9000085610cb89190611d11565b610cc29082611cac565b9050670de0b6b3a7640000610cd8856002611f57565b610ce29190611d11565b610cec9082611cac565b9050610d0267ffffffffffffffff831682611cac565b9050610d0f83600a611fa2565b610d239067ffffffffffffffff1682611cac565b90506103e8811115610d57576001600160a01b0386166000908152600160205260409020805460ff19166004179055610de9565b60c8811115610d88576001600160a01b0386166000908152600160205260409020805460ff19166003179055610de9565b603c811115610db9576001600160a01b0386166000908152600160205260409020805460ff19166002179055610de9565b601e811115610de9576001600160a01b0386166000908152600160208190526040909120805460ff191690911790555b6001600160a01b03861660008181526001602090815260409182902054825193845260ff16908301527f426f6c5d2bfdd02fe91af51c3ff54726a2a647cda3b59cd29029d0e41adbad93910160405180910390a1505050505050565b600054610100900460ff1680610e5e575060005460ff16155b610ec15760405162461bcd60e51b815260206004820152602e60248201527f496e697469616c697a61626c653a20636f6e747261637420697320616c72656160448201526d191e481a5b9a5d1a585b1a5e995960921b606482015260840161039d565b600054610100900460ff16158015610ee3576000805461ffff19166101011790555b6000829050806001600160a01b031663ba84fd696040518163ffffffff1660e01b815260040160206040518083038186803b158015610f2157600080fd5b505afa158015610f35573d6000803e3d6000fd5b505050506040513d601f19601f82011682018060405250810190610f599190611bf5565b610f6257600080fd5b600080546001600160a01b0390921663010000000262010000600160b81b031990921691909117620100001790558015610fa2576000805461ff00191690555b5050565b6000806001610fb6846002611de7565b610fc09190611fe0565b84169150505b92915050565b6000806001610fdc846002611dc8565b610fe69190611fc9565b84169050610ff381611606565b949350505050565b6040805160c0810182526006808252600360208301819052600483850181905260608401526080830152600860a0830152825181815260e08101909352600092839181602001602082028036833701905050905060005b60068163ffffffff1610156110ea5761107d85848363ffffffff166006811061061257610612612070565b828263ffffffff168151811061109557611095612070565b63ffffffff928316602091820292909201015283908216600681106110bc576110bc612070565b60200201516110cc906002611de7565b6110d69086611d25565b9450806110e281612020565b915050611052565b50606485111561114c5761111a8660008360058151811061110d5761110d612070565b602002602001015161166f565b8160058151811061112d5761112d612070565b602002602001019063ffffffff16908163ffffffff16815250506111b5565b603285111561116e5761111a8660028360058151811061110d5761110d612070565b6111878660038360058151811061110d5761110d612070565b8160058151811061119a5761119a612070565b602002602001019063ffffffff16908163ffffffff16815250505b6000816005815181106111ca576111ca612070565b6020026020010151621000006111e09190611f76565b826004815181106111f3576111f3612070565b6020026020010151620200006112099190611f76565b8360038151811061121c5761121c612070565b60200260200101516120006112319190611f76565b8460028151811061124457611244612070565b60200260200101516102006112599190611f76565b8560018151811061126c5761126c612070565b602002602001015160406112809190611f76565b8660008151811061129357611293612070565b60200260200101516112a59190611cc4565b6112af9190611cc4565b6112b99190611cc4565b6112c39190611cc4565b6112cd9190611cc4565b63ffffffff808216600090815260036020526040902054919250166115b05763ffffffff8116600090815260036020526040808220805463ffffffff191660011790558051610100810190915283519091829185919061132f5761132f612070565b602002602001015163ffffffff1681526020018360018151811061135557611355612070565b602002602001015163ffffffff1681526020018360028151811061137b5761137b612070565b602002602001015163ffffffff168152602001836003815181106113a1576113a1612070565b602002602001015163ffffffff168152602001836004815181106113c7576113c7612070565b602002602001015163ffffffff168152602001836005815181106113ed576113ed612070565b602002602001015163ffffffff1681526020018263ffffffff168152602001600163ffffffff168152506002600088815260200190815260200160002060008201518160000160006101000a81548163ffffffff021916908363ffffffff16021790555060208201518160000160046101000a81548163ffffffff021916908363ffffffff16021790555060408201518160000160086101000a81548163ffffffff021916908363ffffffff160217905550606082015181600001600c6101000a81548163ffffffff021916908363ffffffff16021790555060808201518160000160106101000a81548163ffffffff021916908363ffffffff16021790555060a08201518160000160146101000a81548163ffffffff021916908363ffffffff16021790555060c08201518160000160186101000a81548163ffffffff021916908363ffffffff16021790555060e082015181600001601c6101000a81548163ffffffff021916908363ffffffff160217905550905050600060016000896001600160a01b03166001600160a01b0316815260200190815260200160002060006101000a81548160ff021916908360ff16021790555060019350505050610b0b565b63ffffffff808216600090815260036020526040812080546001939192916115da91859116611cc4565b92506101000a81548163ffffffff021916908363ffffffff160217905550600093505050509392505050565b600063ffffffff82111561166b5760405162461bcd60e51b815260206004820152602660248201527f53616665436173743a2076616c756520646f65736e27742066697420696e203360448201526532206269747360d01b606482015260840161039d565b5090565b600080604051806102000160405280603261ffff168152602001606461ffff168152602001609661ffff16815260200160c861ffff16815260200160d261ffff16815260200160dc61ffff16815260200160e661ffff16815260200160eb61ffff16815260200160f061ffff16815260200160f561ffff16815260200160f861ffff16815260200160fb61ffff16815260200160fd61ffff16815260200160fe61ffff16815260200160ff61ffff16815260200161010061ffff1681525090506000604051806102000160405280602a61ffff168152602001605461ffff168152602001607e61ffff16815260200160a861ffff16815260200160b561ffff16815260200160c261ffff16815260200160cf61ffff16815260200160d861ffff16815260200160e161ffff16815260200160ea61ffff16815260200160f061ffff16815260200160f661ffff16815260200160fa61ffff16815260200160fc61ffff16815260200160fe61ffff16815260200161010061ffff1681525090506000604051806102000160405280602861ffff168152602001605061ffff168152602001607861ffff16815260200160a061ffff16815260200160ad61ffff16815260200160ba61ffff16815260200160c761ffff16815260200160d061ffff16815260200160d961ffff16815260200160e261ffff16815260200160e961ffff16815260200160f061ffff16815260200160f461ffff16815260200160f861ffff16815260200160fc61ffff16815260200161010061ffff1681525090506000604051806102000160405280602061ffff168152602001604061ffff168152602001605f61ffff168152602001607e61ffff168152602001608d61ffff168152602001609c61ffff16815260200160ab61ffff16815260200160b761ffff16815260200160c361ffff16815260200160cf61ffff16815260200160d961ffff16815260200160e361ffff16815260200160eb61ffff16815260200160f261ffff16815260200160f961ffff16815260200161010061ffff1681525090506000604051806102000160405280601961ffff168152602001603261ffff168152602001604b61ffff168152602001606461ffff168152602001607361ffff168152602001608261ffff168152602001609161ffff168152602001609c61ffff16815260200160a761ffff16815260200160b261ffff16815260200160bc61ffff16815260200160c661ffff16815260200160d661ffff16815260200160e461ffff16815260200160f261ffff16815260200161010061ffff168152509050611a33611b1c565b6001600160a01b038a16600090815260016020526040812054611a5a908b9060ff16611cec565b905060ff8116611a6c57869150611aac565b8060ff1660011415611a8057859150611aac565b8060ff1660021415611a9457849150611aac565b8060ff1660031415611aa857839150611aac565b8291505b60005b60108163ffffffff161015611b0d57828163ffffffff1660108110611ad657611ad6612070565b602002015161ffff168a63ffffffff161015611afb579750610b0b9650505050505050565b80611b0581612020565b915050611aaf565b50505050505050509392505050565b6040518061020001604052806010906020820280368337509192915050565b80356001600160a01b0381168114611b5257600080fd5b919050565b803563ffffffff81168114611b5257600080fd5b803567ffffffffffffffff81168114611b5257600080fd5b600060208284031215611b9557600080fd5b610b0b82611b3b565b600080600080600060a08688031215611bb657600080fd5b611bbf86611b3b565b94506020860135935060408601359250611bdb60608701611b6b565b9150611be960808701611b6b565b90509295509295909350565b600060208284031215611c0757600080fd5b81518015158114610b0b57600080fd5b600060208284031215611c2957600080fd5b5035919050565b600080600060608486031215611c4557600080fd5b8335925060208401359150611c5c60408501611b3b565b90509250925092565b60008060408385031215611c7857600080fd5b82359150611c8860208401611b57565b90509250929050565b600060208284031215611ca357600080fd5b610b0b82611b57565b60008219821115611cbf57611cbf612044565b500190565b600063ffffffff808316818516808303821115611ce357611ce3612044565b01949350505050565b600060ff821660ff84168060ff03821115611d0957611d09612044565b019392505050565b600082611d2057611d2061205a565b500490565b600063ffffffff80841680611d3c57611d3c61205a565b92169190910492915050565b600181815b80851115611d83578160001904821115611d6957611d69612044565b80851615611d7657918102915b93841c9390800290611d4d565b509250929050565b600181815b80851115611d83578163ffffffff04821115611dae57611dae612044565b80851615611dbb57918102915b93841c9390800290611d90565b6000610b0b61ffff841683611dfc565b6000610b0b60ff841683611dfc565b6000610b0b60ff841663ffffffff8416611e9d565b600082611e0b57506001610fc6565b81611e1857506000610fc6565b8160018114611e2e5760028114611e3857611e54565b6001915050610fc6565b60ff841115611e4957611e49612044565b50506001821b610fc6565b5060208310610133831016604e8410600b8410161715611e77575081810a610fc6565b611e818383611d48565b8060001904821115611e9557611e95612044565b029392505050565b600082611eac57506001610fc6565b81611eb957506000610fc6565b8160018114611e2e5760028114611ecf57611f00565b60ff841115611ee057611ee0612044565b6001841b915063ffffffff821115611efa57611efa612044565b50610fc6565b5060208310610133831016604e8410600b8410161715611f37575081810a63ffffffff811115611f3257611f32612044565b610fc6565b611f418383611d8b565b8063ffffffff04821115611e9557611e95612044565b6000816000190483118215151615611f7157611f71612044565b500290565b600063ffffffff80831681851681830481118215151615611f9957611f99612044565b02949350505050565b600067ffffffffffffffff80831681851681830481118215151615611f9957611f99612044565b600082821015611fdb57611fdb612044565b500390565b600063ffffffff83811690831681811015611ffd57611ffd612044565b039392505050565b600060001982141561201957612019612044565b5060010190565b600063ffffffff8083168181141561203a5761203a612044565b6001019392505050565b634e487b7160e01b600052601160045260246000fd5b634e487b7160e01b600052601260045260246000fd5b634e487b7160e01b600052603260045260246000fdfea2646970667358221220bf15d22c8d4bb07cb92774ca9f128a10b10c1d569fb1500d86ea539b54da044764736f6c63430008060033",
  "immutableReferences": {},
  "source": "// // SPDX-License-Identifier: MIT\n\npragma solidity ^0.8.6;\n\nimport \"@openzeppelin/contracts-upgradeable/proxy/utils/Initializable.sol\";\nimport \"@openzeppelin/contracts-upgradeable/utils/math/SafeCastUpgradeable.sol\";\nimport \"../access/IAccessRestriction.sol\";\n\n/** @title TreeAttribute Contract */\ncontract TreeAttribute is Initializable {\n    using SafeCastUpgradeable for uint256;\n\n    bool public isTreeAttribute;\n    IAccessRestriction public accessRestriction;\n\n    /** NOTE parameters of randomTreeGeneration*/\n    struct Attributes {\n        uint32 treeType;\n        uint32 groundType;\n        uint32 trunkColor;\n        uint32 crownColor;\n        uint32 groundColor;\n        uint32 specialEffects;\n        uint32 universalCode;\n        uint32 exists;\n    }\n\n    /** NOTE maping from buyer address to his/her rank */\n    mapping(address => uint8) public rankOf;\n\n    /** NOTE mapping from treeId to tree attributes */\n    mapping(uint256 => Attributes) public treeAttributes;\n\n    /** NOTE mapping from unique symbol id to number of generations */\n    mapping(uint32 => uint32) public generatedAttributes;\n\n    /** NOTE mapping from unique symbol to reserved status */\n    mapping(uint32 => uint8) public reservedAttributes;\n\n    event BuyerRankSet(address buyer, uint8 rank);\n    event TreeAttributesGenerated(uint256 treeId);\n    event TreeAttributesNotGenerated(uint256 treeId);\n    event SymbolReserved(uint32 generatedCode);\n    event ReservedSymbolFreed(uint32 generatedCode);\n    event SymbolSetByAdmin(uint256 treeId);\n\n    /** NOTE modifier for check msg.sender has TreejerContract role */\n    modifier onlyTreejerContract() {\n        accessRestriction.ifTreejerContract(msg.sender);\n        _;\n    }\n\n    /** NOTE modifier to check msg.sender has data manager or treejer contract role */\n    modifier onlyDataManagerOrTreejerContract() {\n        accessRestriction.ifDataManagerOrTreejerContract(msg.sender);\n        _;\n    }\n\n    /** NOTE modifier to check msg.sender has script role */\n    modifier onlyScript() {\n        accessRestriction.ifScript(msg.sender);\n        _;\n    }\n\n    /** NOTE modifier for check if function is not paused*/\n    modifier ifNotPaused() {\n        accessRestriction.ifNotPaused();\n        _;\n    }\n\n    /**\n     * @dev initialize accessRestriction contract and set true for isTreeAttribute\n     * @param _accessRestrictionAddress set to the address of accessRestriction contract\n     */\n    function initialize(address _accessRestrictionAddress)\n        external\n        initializer\n    {\n        IAccessRestriction candidateContract = IAccessRestriction(\n            _accessRestrictionAddress\n        );\n        require(candidateContract.isAccessRestriction());\n        isTreeAttribute = true;\n        accessRestriction = candidateContract;\n    }\n\n    /**\n     * @dev reserve a unique symbol\n     * @param generatedCode unique symbol to reserve\n     */\n    function reserveTreeAttributes(uint32 generatedCode)\n        external\n        onlyDataManagerOrTreejerContract\n    {\n        require(\n            generatedAttributes[generatedCode] == 0,\n            \"the tree attributes are taken\"\n        );\n        generatedAttributes[generatedCode] = 1;\n        reservedAttributes[generatedCode] = 1;\n        emit SymbolReserved(generatedCode);\n    }\n\n    /**\n     * @dev free reservation of a unique symbol\n     * @param generatedCode unique symbol to reserve\n     */\n    function freeReserveTreeAttributes(uint32 generatedCode)\n        external\n        onlyDataManagerOrTreejerContract\n    {\n        require(\n            reservedAttributes[generatedCode] == 1,\n            \"the tree attributes not reserved\"\n        );\n\n        generatedAttributes[generatedCode] = 0;\n        reservedAttributes[generatedCode] = 0;\n\n        emit ReservedSymbolFreed(generatedCode);\n    }\n\n    /**\n     * @dev admin assigns symbol to specified treeId\n     * @param treeId id of tree\n     * @param generatedCode unique symbol code to assign\n     */\n    function setTreeAttributesByAdmin(uint256 treeId, uint32 generatedCode)\n        external\n        onlyDataManagerOrTreejerContract\n    {\n        require(\n            generatedAttributes[generatedCode] == 0 ||\n                reservedAttributes[generatedCode] == 1,\n            \"the tree attributes are taken\"\n        );\n        require(\n            treeAttributes[treeId].universalCode == 0,\n            \"tree attributes are set before\"\n        );\n        generatedAttributes[generatedCode] = 1;\n        reservedAttributes[generatedCode] = 0;\n        uint8[6] memory bitCounts = [6, 3, 4, 4, 3, 4];\n        uint32[] memory results = new uint32[](6);\n\n        uint32 tempGeneratedCode = generatedCode;\n\n        for (uint32 i = 0; i < bitCounts.length; i++) {\n            results[i] = _getFirstN32(tempGeneratedCode, bitCounts[i]);\n\n            tempGeneratedCode = tempGeneratedCode / uint32(2)**bitCounts[i];\n        }\n        treeAttributes[treeId] = Attributes(\n            results[0],\n            results[1],\n            results[2],\n            results[3],\n            results[4],\n            results[5],\n            generatedCode,\n            1\n        );\n\n        emit SymbolSetByAdmin(treeId);\n    }\n\n    /**\n     * @dev calculates the random attributes from random number\n     * @param buyer buyer address of treeId\n     * @param treeId id of tree\n     * @param rand a 28 bits random attribute generator number\n     * @return if generated random attribute is unique\n     */\n    function _calcRandAttributes(\n        address buyer,\n        uint256 treeId,\n        uint32 rand\n    ) private returns (bool) {\n        uint8[6] memory bitCounts = [6, 3, 4, 4, 3, 8];\n        uint32[] memory results = new uint32[](6);\n        for (uint32 i = 0; i < bitCounts.length; i++) {\n            results[i] = _getFirstN32(rand, bitCounts[i]);\n            rand = rand / (uint32(2)**bitCounts[i]);\n        }\n        if (treeId > 100) {\n            results[5] = _getSpecialEffect(buyer, 0, results[5]);\n        } else if (treeId > 50) {\n            results[5] = _getSpecialEffect(buyer, 2, results[5]);\n        } else {\n            results[5] = _getSpecialEffect(buyer, 3, results[5]);\n        }\n\n        //check Uniqueness\n        uint32 generatedCode = results[0] +\n            results[1] *\n            64 +\n            results[2] *\n            512 +\n            results[3] *\n            8192 +\n            results[4] *\n            131072 +\n            results[5] *\n            1048576;\n        if (generatedAttributes[generatedCode] == 0) {\n            generatedAttributes[generatedCode] = 1;\n            treeAttributes[treeId] = Attributes(\n                results[0],\n                results[1],\n                results[2],\n                results[3],\n                results[4],\n                results[5],\n                generatedCode,\n                1\n            );\n            rankOf[buyer] = 0;\n            return true;\n        }\n        generatedAttributes[generatedCode] += 1;\n        return false;\n    }\n\n    /**\n     * @dev generate a 256 bits random number as a base for tree attributes and slice it\n     * in 28 bits parts\n     * @param treeId id of tree\n     * @return if unique tree attribute generated successfully\n     */\n    function createTreeAttributes(\n        uint256 treeId,\n        bytes32 randTree,\n        address buyer\n    ) external ifNotPaused onlyTreejerContract returns (bool) {\n        if (treeAttributes[treeId].exists == 0) {\n            bool flag = true;\n\n            for (uint256 j = 0; j < 10000; j++) {\n                uint256 rand = uint256(\n                    keccak256(\n                        abi.encodePacked(buyer, randTree, msg.sig, treeId, j)\n                    )\n                );\n\n                for (uint256 i = 0; i < 9; i++) {\n                    flag = _calcRandAttributes(\n                        buyer,\n                        treeId,\n                        _getFirstN(rand, 28)\n                    );\n                    if (flag) {\n                        break;\n                    }\n                    rand = rand / (uint256(2)**28);\n                }\n                if (flag) {\n                    break;\n                }\n            }\n            if (flag) {\n                emit TreeAttributesGenerated(treeId);\n            } else {\n                emit TreeAttributesNotGenerated(treeId);\n            }\n\n            return flag;\n        } else {\n            return true;\n        }\n    }\n\n    /**\n     * @dev the function Tries to Calculate the rank of buyer based on transaction statistics of\n     * his/her wallet\n     * @param buyer address of buyer\n     * @param treejerSpent weth amount spent in treejer\n     * @param walletSpent weth amount spent from wallet\n     * @param treesOwned number of trees owned\n     * @param walletSpentCount number of spents transactions from wallet\n     */\n    function setBuyerRank(\n        address buyer,\n        uint256 treejerSpent,\n        uint256 walletSpent,\n        uint64 treesOwned,\n        uint64 walletSpentCount\n    ) external onlyScript {\n        uint256 points = 0;\n        //each 0.004 ether spent in treejer has 10 points\n        points += (treejerSpent / (400000 gwei));\n        //each 1 ether spent of wallet(sent or withdraw) has 2 points\n        points += (walletSpent * 2) / (1 ether);\n        // each 1 send or withdraw of wallet has 1 point\n        points += walletSpentCount;\n        //each tree owned by buyer has 10 points\n        points += treesOwned * 10;\n        //points under 31 is rank of zero\n\n        if (points > 1000) {\n            rankOf[buyer] = 4; //points under 61  is rank 1\n        } else if (points > 200) {\n            rankOf[buyer] = 3; //points under 61  is rank 1\n        } else if (points > 60) {\n            rankOf[buyer] = 2; //points under 201 is rank 2\n        } else if (points > 30) {\n            rankOf[buyer] = 1; //points under 1001 is rank 3\n        }\n\n        emit BuyerRankSet(buyer, rankOf[buyer]);\n    }\n\n    /**\n     * @dev to get n lowest bits of a uint32\n     * @param rnd a 28 bits number\n     * @param n number of bits to fetch from right side of rnd\n     * @return first n bits from right\n     */\n    function _getFirstN32(uint32 rnd, uint8 n) private pure returns (uint32) {\n        uint32 firN = (uint32(2)**n) - 1;\n        return rnd & firN;\n    }\n\n    /**\n     * @dev to get n lowest bits of a uint256\n     * @param rnd a 256 bits number\n     * @param n number of bits to fetch from right side of rnd\n     * @return first n bits from right\n     */\n    function _getFirstN(uint256 rnd, uint16 n) private pure returns (uint32) {\n        uint256 x = rnd & ((uint256(2)**n) - 1);\n\n        return x.toUint32();\n    }\n\n    /**\n     * @dev The function manipulates probability of rare special effects based on rank of buyer\n     * @param buyer address of buyet rank\n     * @param bonusRank rank for bonus on auctions\n     * @param n random number generated for specific effect form 0 to 255\n     * @return special effect value from 0 to 16\n     */\n    function _getSpecialEffect(\n        address buyer,\n        uint8 bonusRank,\n        uint32 n\n    ) private view returns (uint32) {\n        uint16[16] memory specialEffectsRank0 = [\n            50,\n            100,\n            150,\n            200,\n            210,\n            220,\n            230,\n            235,\n            240,\n            245,\n            248,\n            251,\n            253,\n            254,\n            255,\n            256\n        ];\n        uint16[16] memory specialEffectsRank1 = [\n            42,\n            84,\n            126,\n            168,\n            181,\n            194,\n            207,\n            216,\n            225,\n            234,\n            240,\n            246,\n            250,\n            252,\n            254,\n            256\n        ];\n        uint16[16] memory specialEffectsRank2 = [\n            40,\n            80,\n            120,\n            160,\n            173,\n            186,\n            199,\n            208,\n            217,\n            226,\n            233,\n            240,\n            244,\n            248,\n            252,\n            256\n        ];\n        uint16[16] memory specialEffectsRank3 = [\n            32,\n            64,\n            95,\n            126,\n            141,\n            156,\n            171,\n            183,\n            195,\n            207,\n            217,\n            227,\n            235,\n            242,\n            249,\n            256\n        ];\n        uint16[16] memory specialEffectsVIP = [\n            25,\n            50,\n            75,\n            100,\n            115,\n            130,\n            145,\n            156,\n            167,\n            178,\n            188,\n            198,\n            214,\n            228,\n            242,\n            256\n        ];\n        uint16[16] memory suitedEffectStatistics;\n        uint8 rank = rankOf[buyer] + bonusRank; //bonus rank for special trees at auction\n        if (rank == 0) {\n            suitedEffectStatistics = specialEffectsRank0;\n        } else if (rank == 1) {\n            suitedEffectStatistics = specialEffectsRank1;\n        } else if (rank == 2) {\n            suitedEffectStatistics = specialEffectsRank2;\n        } else if (rank == 3) {\n            suitedEffectStatistics = specialEffectsRank3;\n        } else {\n            suitedEffectStatistics = specialEffectsVIP;\n        }\n        for (uint32 i = 0; i < suitedEffectStatistics.length; i++) {\n            if (n < suitedEffectStatistics[i]) {\n                return i;\n            }\n        }\n    }\n}\n",
  "sourcePath": "/media/ali/New Volume/treejer/contract/contracts/tree/TreeAttribute.sol",
  "compiler": {
    "name": "solc",
    "version": "0.8.6+commit.11564f7e.Emscripten.clang"
  },
  "schemaVersion": "3.4.1",
  "updatedAt": "2021-09-22T13:56:41.150Z",
  "networkType": "ethereum",
  "devdoc": {
    "kind": "dev",
    "methods": {
      "createTreeAttributes(uint256,bytes32,address)": {
        "details": "generate a 256 bits random number as a base for tree attributes and slice it in 28 bits parts",
        "params": {
          "treeId": "id of tree"
        },
        "returns": {
          "_0": "if unique tree attribute generated successfully"
        }
      },
      "freeReserveTreeAttributes(uint32)": {
        "details": "free reservation of a unique symbol",
        "params": {
          "generatedCode": "unique symbol to reserve"
        }
      },
      "initialize(address)": {
        "details": "initialize accessRestriction contract and set true for isTreeAttribute",
        "params": {
          "_accessRestrictionAddress": "set to the address of accessRestriction contract"
        }
      },
      "reserveTreeAttributes(uint32)": {
        "details": "reserve a unique symbol",
        "params": {
          "generatedCode": "unique symbol to reserve"
        }
      },
      "setBuyerRank(address,uint256,uint256,uint64,uint64)": {
        "details": "the function Tries to Calculate the rank of buyer based on transaction statistics of his/her wallet",
        "params": {
          "buyer": "address of buyer",
          "treejerSpent": "weth amount spent in treejer",
          "treesOwned": "number of trees owned",
          "walletSpent": "weth amount spent from wallet",
          "walletSpentCount": "number of spents transactions from wallet"
        }
      },
      "setTreeAttributesByAdmin(uint256,uint32)": {
        "details": "admin assigns symbol to specified treeId",
        "params": {
          "generatedCode": "unique symbol code to assign",
          "treeId": "id of tree"
        }
      }
    },
    "title": "TreeAttribute Contract ",
    "version": 1
  },
  "userdoc": {
    "kind": "user",
    "methods": {
      "generatedAttributes(uint32)": {
        "notice": "NOTE mapping from unique symbol id to number of generations "
      },
      "rankOf(address)": {
        "notice": "NOTE maping from buyer address to his/her rank "
      },
      "reservedAttributes(uint32)": {
        "notice": "NOTE mapping from unique symbol to reserved status "
      },
      "treeAttributes(uint256)": {
        "notice": "NOTE mapping from treeId to tree attributes "
      }
    },
    "version": 1
  }
}