{
  "contractName": "TreeAuction",
  "abi": [
    {
      "anonymous": false,
      "inputs": [
        {
          "indexed": false,
          "internalType": "uint256",
          "name": "auctionId",
          "type": "uint256"
        }
      ],
      "name": "AuctionCreated",
      "type": "event"
    },
    {
      "anonymous": false,
      "inputs": [
        {
          "indexed": false,
          "internalType": "uint256",
          "name": "auctionId",
          "type": "uint256"
        },
        {
          "indexed": false,
          "internalType": "uint256",
          "name": "newAuctionEndTime",
          "type": "uint256"
        }
      ],
      "name": "AuctionEndTimeIncreased",
      "type": "event"
    },
    {
      "anonymous": false,
      "inputs": [
        {
          "indexed": false,
          "internalType": "uint256",
          "name": "auctionId",
          "type": "uint256"
        },
        {
          "indexed": false,
          "internalType": "uint256",
          "name": "treeId",
          "type": "uint256"
        }
      ],
      "name": "AuctionEnded",
      "type": "event"
    },
    {
      "anonymous": false,
      "inputs": [
        {
          "indexed": false,
          "internalType": "uint256",
          "name": "auctionId",
          "type": "uint256"
        },
        {
          "indexed": false,
          "internalType": "uint256",
          "name": "treeId",
          "type": "uint256"
        },
        {
          "indexed": false,
          "internalType": "address",
          "name": "winner",
          "type": "address"
        },
        {
          "indexed": false,
          "internalType": "uint256",
          "name": "amount",
          "type": "uint256"
        },
        {
          "indexed": false,
          "internalType": "address",
          "name": "referrer",
          "type": "address"
        }
      ],
      "name": "AuctionSettled",
      "type": "event"
    },
    {
      "anonymous": false,
      "inputs": [
        {
          "indexed": false,
          "internalType": "uint256",
          "name": "auctionId",
          "type": "uint256"
        },
        {
          "indexed": false,
          "internalType": "uint256",
          "name": "treeId",
          "type": "uint256"
        },
        {
          "indexed": false,
          "internalType": "address",
          "name": "bidder",
          "type": "address"
        },
        {
          "indexed": false,
          "internalType": "uint256",
          "name": "amount",
          "type": "uint256"
        },
        {
          "indexed": false,
          "internalType": "address",
          "name": "referrer",
          "type": "address"
        }
      ],
      "name": "HighestBidIncreased",
      "type": "event"
    },
    {
      "inputs": [],
      "name": "accessRestriction",
      "outputs": [
        {
          "internalType": "contract IAccessRestriction",
          "name": "",
          "type": "address"
        }
      ],
      "stateMutability": "view",
      "type": "function",
      "constant": true
    },
    {
      "inputs": [
        {
          "internalType": "uint256",
          "name": "",
          "type": "uint256"
        }
      ],
      "name": "auctions",
      "outputs": [
        {
          "internalType": "uint256",
          "name": "treeId",
          "type": "uint256"
        },
        {
          "internalType": "address",
          "name": "bidder",
          "type": "address"
        },
        {
          "internalType": "uint64",
          "name": "startDate",
          "type": "uint64"
        },
        {
          "internalType": "uint64",
          "name": "endDate",
          "type": "uint64"
        },
        {
          "internalType": "uint256",
          "name": "highestBid",
          "type": "uint256"
        },
        {
          "internalType": "uint256",
          "name": "bidInterval",
          "type": "uint256"
        }
      ],
      "stateMutability": "view",
      "type": "function",
      "constant": true
    },
    {
      "inputs": [
        {
          "internalType": "address",
          "name": "",
          "type": "address"
        },
        {
          "internalType": "uint256",
          "name": "",
          "type": "uint256"
        }
      ],
      "name": "referrals",
      "outputs": [
        {
          "internalType": "address",
          "name": "",
          "type": "address"
        }
      ],
      "stateMutability": "view",
      "type": "function",
      "constant": true
    },
    {
      "inputs": [],
      "name": "financialModel",
      "outputs": [
        {
          "internalType": "contract IFinancialModel",
          "name": "",
          "type": "address"
        }
      ],
      "stateMutability": "view",
      "type": "function",
      "constant": true
    },
    {
      "inputs": [],
      "name": "isTreeAuction",
      "outputs": [
        {
          "internalType": "bool",
          "name": "",
          "type": "bool"
        }
      ],
      "stateMutability": "view",
      "type": "function",
      "constant": true
    },
    {
      "inputs": [
        {
          "internalType": "address",
          "name": "forwarder",
          "type": "address"
        }
      ],
      "name": "isTrustedForwarder",
      "outputs": [
        {
          "internalType": "bool",
          "name": "",
          "type": "bool"
        }
      ],
      "stateMutability": "view",
      "type": "function",
      "constant": true
    },
    {
      "inputs": [],
      "name": "regularSell",
      "outputs": [
        {
          "internalType": "contract IRegularSell",
          "name": "",
          "type": "address"
        }
      ],
      "stateMutability": "view",
      "type": "function",
      "constant": true
    },
    {
      "inputs": [],
      "name": "treeFactory",
      "outputs": [
        {
          "internalType": "contract ITreeFactory",
          "name": "",
          "type": "address"
        }
      ],
      "stateMutability": "view",
      "type": "function",
      "constant": true
    },
    {
      "inputs": [],
      "name": "trustedForwarder",
      "outputs": [
        {
          "internalType": "address",
          "name": "",
          "type": "address"
        }
      ],
      "stateMutability": "view",
      "type": "function",
      "constant": true
    },
    {
      "inputs": [],
      "name": "versionRecipient",
      "outputs": [
        {
          "internalType": "string",
          "name": "",
          "type": "string"
        }
      ],
      "stateMutability": "pure",
      "type": "function",
      "constant": true
    },
    {
      "inputs": [],
      "name": "wethFunds",
      "outputs": [
        {
          "internalType": "contract IWethFunds",
          "name": "",
          "type": "address"
        }
      ],
      "stateMutability": "view",
      "type": "function",
      "constant": true
    },
    {
      "inputs": [],
      "name": "wethToken",
      "outputs": [
        {
          "internalType": "contract IERC20Upgradeable",
          "name": "",
          "type": "address"
        }
      ],
      "stateMutability": "view",
      "type": "function",
      "constant": true
    },
    {
      "inputs": [
        {
          "internalType": "address",
          "name": "_accessRestrictionAddress",
          "type": "address"
        }
      ],
      "name": "initialize",
      "outputs": [],
      "stateMutability": "nonpayable",
      "type": "function"
    },
    {
      "inputs": [
        {
          "internalType": "address",
          "name": "_address",
          "type": "address"
        }
      ],
      "name": "setTrustedForwarder",
      "outputs": [],
      "stateMutability": "nonpayable",
      "type": "function"
    },
    {
      "inputs": [
        {
          "internalType": "address",
          "name": "_address",
          "type": "address"
        }
      ],
      "name": "setTreeFactoryAddress",
      "outputs": [],
      "stateMutability": "nonpayable",
      "type": "function"
    },
    {
      "inputs": [
        {
          "internalType": "address",
          "name": "_address",
          "type": "address"
        }
      ],
      "name": "setFinancialModelAddress",
      "outputs": [],
      "stateMutability": "nonpayable",
      "type": "function"
    },
    {
      "inputs": [
        {
          "internalType": "address",
          "name": "_address",
          "type": "address"
        }
      ],
      "name": "setWethFundsAddress",
      "outputs": [],
      "stateMutability": "nonpayable",
      "type": "function"
    },
    {
      "inputs": [
        {
          "internalType": "address",
          "name": "_address",
          "type": "address"
        }
      ],
      "name": "setRegularSellAddress",
      "outputs": [],
      "stateMutability": "nonpayable",
      "type": "function"
    },
    {
      "inputs": [
        {
          "internalType": "address",
          "name": "_address",
          "type": "address"
        }
      ],
      "name": "setWethTokenAddress",
      "outputs": [],
      "stateMutability": "nonpayable",
      "type": "function"
    },
    {
      "inputs": [
        {
          "internalType": "uint256",
          "name": "_treeId",
          "type": "uint256"
        },
        {
          "internalType": "uint64",
          "name": "_startDate",
          "type": "uint64"
        },
        {
          "internalType": "uint64",
          "name": "_endDate",
          "type": "uint64"
        },
        {
          "internalType": "uint256",
          "name": "_intialPrice",
          "type": "uint256"
        },
        {
          "internalType": "uint256",
          "name": "_bidInterval",
          "type": "uint256"
        }
      ],
      "name": "createAuction",
      "outputs": [],
      "stateMutability": "nonpayable",
      "type": "function"
    },
    {
      "inputs": [
        {
          "internalType": "uint256",
          "name": "_auctionId",
          "type": "uint256"
        },
        {
          "internalType": "uint256",
          "name": "_amount",
          "type": "uint256"
        },
        {
          "internalType": "address",
          "name": "_referrer",
          "type": "address"
        }
      ],
      "name": "bid",
      "outputs": [],
      "stateMutability": "nonpayable",
      "type": "function"
    },
    {
      "inputs": [
        {
          "internalType": "uint256",
          "name": "_auctionId",
          "type": "uint256"
        }
      ],
      "name": "endAuction",
      "outputs": [],
      "stateMutability": "nonpayable",
      "type": "function"
    }
  ],
  "bytecode": "0x608060405234801561001057600080fd5b50611e92806100206000396000f3fe608060405234801561001057600080fd5b50600436106101425760003560e01c8063742f0a90116100b8578063c4d66de81161007c578063c4d66de814610378578063c56c36741461038b578063d6762c4a14610398578063da742228146103b0578063e697b5d8146103c3578063e787d40e146103f757600080fd5b8063742f0a90146103135780637da0a8771461032657806395b646031461033f578063b9a2de3a14610352578063bb9a7d911461036557600080fd5b80634b2028181161010a5780634b202818146101f15780634b57b0be146102045780634fe044c414610217578063571a26a01461022a578063572b6c05146102c85780636acc97771461030057600080fd5b806309172ea6146101475780630bf351f81461015c5780632aad7f761461016f578063421ef6d414610182578063486ff0cd146101b2575b600080fd5b61015a610155366004611cf3565b61040a565b005b61015a61016a366004611b87565b610759565b61015a61017d366004611b87565b610870565b600354610195906001600160a01b031681565b6040516001600160a01b0390911681526020015b60405180910390f35b604080518082018252601d81527f322e322e302b747265656a65722e6972656c6179726563697069656e74000000602082015290516101a99190611d67565b61015a6101ff366004611b87565b610987565b600654610195906001600160a01b031681565b61015a610225366004611b87565b610a9e565b610285610238366004611c8c565b6008602052600090815260409020805460018201546002830154600384015460049094015492936001600160a01b03831693600160a01b90930467ffffffffffffffff9081169392169186565b604080519687526001600160a01b03909516602087015267ffffffffffffffff9384169486019490945291166060840152608083015260a082015260c0016101a9565b6102f06102d6366004611b87565b6000546201000090046001600160a01b0390811691161490565b60405190151581526020016101a9565b61015a61030e366004611b87565b610bb5565b61015a610321366004611cbe565b610c97565b600054610195906201000090046001600160a01b031681565b600554610195906001600160a01b031681565b61015a610360366004611c8c565b6111b8565b600754610195906001600160a01b031681565b61015a610386366004611b87565b6117f3565b6002546102f09060ff1681565b6002546101959061010090046001600160a01b031681565b61015a6103be366004611b87565b61194e565b6101956103d1366004611ba9565b60096020908152600092835260408084209091529082529020546001600160a01b031681565b600454610195906001600160a01b031681565b600260019054906101000a90046001600160a01b03166001600160a01b0316634d868f986040518163ffffffff1660e01b815260040160006040518083038186803b15801561045857600080fd5b505afa15801561046c573d6000803e3d6000fd5b505060025461010090046001600160a01b0316915063c4d2a31b9050610490611a38565b6040516001600160e01b031960e084901b1681526001600160a01b03909116600482015260240160006040518083038186803b1580156104cf57600080fd5b505afa1580156104e3573d6000803e3d6000fd5b505060055460405163cb8b5da360e01b8152600481018990526001600160a01b03909116925063cb8b5da3915060240160206040518083038186803b15801561052b57600080fd5b505afa15801561053f573d6000803e3d6000fd5b505050506040513d601f19601f820116820180604052508101906105639190611bd3565b6105b45760405162461bcd60e51b815260206004820181905260248201527f6571756976616c616e742066756e64204d6f64656c206e6f742065786973747360448201526064015b60405180910390fd5b6003546040516337ff0f1760e21b815260048101879052600160248201526000916001600160a01b03169063dffc3c5c90604401602060405180830381600087803b15801561060257600080fd5b505af1158015610616573d6000803e3d6000fd5b505050506040513d601f19601f8201168201806040525081019061063a9190611d41565b905063ffffffff8116156106905760405162461bcd60e51b815260206004820152601960248201527f6e6f7420617661696c61626c6520666f722061756374696f6e0000000000000060448201526064016105ab565b60006008600061069f60015490565b815260208101919091526040016000208781556001808201805467ffffffffffffffff60a01b1916600160a01b67ffffffffffffffff8b8116919091029190911790915560028301805467ffffffffffffffff19169189169190911790556003820186905560048201859055549091507f7e0e356457a92dacd3760ddf327a24dd226c6ca01b2cc41a7fd6f28469c7ab9b9060405190815260200160405180910390a1610750600180546001019055565b50505050505050565b60025461010090046001600160a01b0316638413ec14610777611a38565b6040516001600160e01b031960e084901b1681526001600160a01b03909116600482015260240160006040518083038186803b1580156107b657600080fd5b505afa1580156107ca573d6000803e3d6000fd5b505050506000819050806001600160a01b031663e0eb4eb96040518163ffffffff1660e01b815260040160206040518083038186803b15801561080c57600080fd5b505afa158015610820573d6000803e3d6000fd5b505050506040513d601f19601f820116820180604052508101906108449190611bd3565b61084d57600080fd5b600380546001600160a01b0319166001600160a01b039290921691909117905550565b60025461010090046001600160a01b0316638413ec1461088e611a38565b6040516001600160e01b031960e084901b1681526001600160a01b03909116600482015260240160006040518083038186803b1580156108cd57600080fd5b505afa1580156108e1573d6000803e3d6000fd5b505050506000819050806001600160a01b031663313b39376040518163ffffffff1660e01b815260040160206040518083038186803b15801561092357600080fd5b505afa158015610937573d6000803e3d6000fd5b505050506040513d601f19601f8201168201806040525081019061095b9190611bd3565b61096457600080fd5b600480546001600160a01b0319166001600160a01b039290921691909117905550565b60025461010090046001600160a01b0316638413ec146109a5611a38565b6040516001600160e01b031960e084901b1681526001600160a01b03909116600482015260240160006040518083038186803b1580156109e457600080fd5b505afa1580156109f8573d6000803e3d6000fd5b505050506000819050806001600160a01b031663d0ae266a6040518163ffffffff1660e01b815260040160206040518083038186803b158015610a3a57600080fd5b505afa158015610a4e573d6000803e3d6000fd5b505050506040513d601f19601f82011682018060405250810190610a729190611bd3565b610a7b57600080fd5b600780546001600160a01b0319166001600160a01b039290921691909117905550565b60025461010090046001600160a01b0316638413ec14610abc611a38565b6040516001600160e01b031960e084901b1681526001600160a01b03909116600482015260240160006040518083038186803b158015610afb57600080fd5b505afa158015610b0f573d6000803e3d6000fd5b505050506000819050806001600160a01b031663966da5fb6040518163ffffffff1660e01b815260040160206040518083038186803b158015610b5157600080fd5b505afa158015610b65573d6000803e3d6000fd5b505050506040513d601f19601f82011682018060405250810190610b899190611bd3565b610b9257600080fd5b600580546001600160a01b0319166001600160a01b039290921691909117905550565b60025461010090046001600160a01b0316638413ec14610bd3611a38565b6040516001600160e01b031960e084901b1681526001600160a01b03909116600482015260240160006040518083038186803b158015610c1257600080fd5b505afa158015610c26573d6000803e3d6000fd5b5083925050506001600160a01b038116610c745760405162461bcd60e51b815260206004820152600f60248201526e696e76616c6964206164647265737360881b60448201526064016105ab565b50600680546001600160a01b0319166001600160a01b0392909216919091179055565b600260019054906101000a90046001600160a01b03166001600160a01b0316634d868f986040518163ffffffff1660e01b815260040160006040518083038186803b158015610ce557600080fd5b505afa158015610cf9573d6000803e3d6000fd5b5050506000848152600860205260409020600281015490915067ffffffffffffffff16421115610d635760405162461bcd60e51b8152602060048201526015602482015274185d58dd1a5bdb88185b1c9958591e48195b991959605a1b60448201526064016105ab565b6001810154600160a01b900467ffffffffffffffff16421015610dbe5760405162461bcd60e51b8152602060048201526013602482015272185d58dd1a5bdb881b9bdd081cdd185c9d1959606a1b60448201526064016105ab565b80600401548160030154610dd29190611deb565b831015610e125760405162461bcd60e51b815260206004820152600e60248201526d1a5b9d985b1a5908185b5bdd5b9d60921b60448201526064016105ab565b60065483906001600160a01b03166370a08231610e2d611a38565b6040516001600160e01b031960e084901b1681526001600160a01b03909116600482015260240160206040518083038186803b158015610e6c57600080fd5b505afa158015610e80573d6000803e3d6000fd5b505050506040513d601f19601f82011682018060405250810190610ea49190611ca5565b1015610ee95760405162461bcd60e51b8152602060048201526014602482015273696e73756666696369656e742062616c616e636560601b60448201526064016105ab565b6006546000906001600160a01b03166323b872dd610f05611a38565b6040516001600160e01b031960e084901b1681526001600160a01b03909116600482015230602482015260448101879052606401602060405180830381600087803b158015610f5357600080fd5b505af1158015610f67573d6000803e3d6000fd5b505050506040513d601f19601f82011682018060405250810190610f8b9190611bd3565b905080610faa5760405162461bcd60e51b81526004016105ab90611dbc565b6001600160a01b03831615801590610ff657506000600981610fca611a38565b6001600160a01b039081168252602080830193909352604091820160009081208a825290935291205416145b15611047578260096000611008611a38565b6001600160a01b039081168252602080830193909352604091820160009081208a8252909352912080546001600160a01b031916929091169190911790555b6001820154600383018054908690556001600160a01b039091169061106a611a38565b6001850180546001600160a01b0319166001600160a01b039290921691909117905583547f263d893bf8cb4829494d4bfc0bcd1060212888cbc932a26bf3ea4bc31dcadae89088906110ba611a38565b6040805193845260208401929092526001600160a01b0390811683830152606083018a905288166080830152519081900360a00190a16110f987611a72565b6001600160a01b038216156107505760065460405163a9059cbb60e01b81526001600160a01b03848116600483015260248201849052600092169063a9059cbb90604401602060405180830381600087803b15801561115757600080fd5b505af115801561116b573d6000803e3d6000fd5b505050506040513d601f19601f8201168201806040525081019061118f9190611bd3565b9050806111ae5760405162461bcd60e51b81526004016105ab90611dbc565b5050505050505050565b600260019054906101000a90046001600160a01b03166001600160a01b0316634d868f986040518163ffffffff1660e01b815260040160006040518083038186803b15801561120657600080fd5b505afa15801561121a573d6000803e3d6000fd5b5050506000828152600860205260409020600281015490915067ffffffffffffffff166112825760405162461bcd60e51b815260206004820152601660248201527541756374696f6e20697320756e617661696c61626c6560501b60448201526064016105ab565b600281015467ffffffffffffffff164210156112d85760405162461bcd60e51b8152602060048201526015602482015274105d58dd1a5bdb881b9bdd081e595d08195b991959605a1b60448201526064016105ab565b60018101546001600160a01b03161561170b5760065460048054600384015460405163a9059cbb60e01b81526001600160a01b03928316938101939093526024830152600092169063a9059cbb90604401602060405180830381600087803b15801561134357600080fd5b505af1158015611357573d6000803e3d6000fd5b505050506040513d601f19601f8201168201806040525081019061137b9190611bd3565b90508061139a5760405162461bcd60e51b81526004016105ab90611dbc565b6005548254604051631123660b60e31b815260009283928392839283928392839283926001600160a01b039091169163891b3058916113df9160040190815260200190565b61010060405180830381600087803b1580156113fa57600080fd5b505af115801561140e573d6000803e3d6000fd5b505050506040513d601f19601f820116820180604052508101906114329190611bf5565b97509750975097509750975097509750600460009054906101000a90046001600160a01b03166001600160a01b031663b36758328b600001548c600301548b8b8b8b8b8b8b8b6040518b63ffffffff1660e01b81526004016114ea9a99989796959493929190998a5260208a019890985261ffff96871660408a01529486166060890152928516608088015290841660a0870152831660c0860152821660e08501528116610100840152166101208201526101400190565b600060405180830381600087803b15801561150457600080fd5b505af1158015611518573d6000803e3d6000fd5b50506003548c5460018e015460405163b225afcb60e01b815260048101929092526001600160a01b03908116602483015260026044830152909116925063b225afcb9150606401600060405180830381600087803b15801561157957600080fd5b505af115801561158d573d6000803e3d6000fd5b505050506000600960008c60010160009054906101000a90046001600160a01b03166001600160a01b03166001600160a01b0316815260200190815260200160002060008d815260200190815260200160002060009054906101000a90046001600160a01b0316905060006001600160a01b0316816001600160a01b031614611677576007546040516381b4244760e01b81526001600160a01b03838116600483015260016024830152909116906381b4244790604401600060405180830381600087803b15801561165e57600080fd5b505af1158015611672573d6000803e3d6000fd5b505050505b7fe3696d50d6f87544888f2045f19158a693b27d4e77403e36e161bec6ccc7cd6d8c8c600001548d60010160009054906101000a90046001600160a01b03168e60030154856040516116f495949392919094855260208501939093526001600160a01b039182166040850152606084015216608082015260a00190565b60405180910390a1505050505050505050506117af565b6003548154604051632419867b60e11b81526001600160a01b03909216916348330cf69161173f9160040190815260200190565b600060405180830381600087803b15801561175957600080fd5b505af115801561176d573d6000803e3d6000fd5b505082546040805186815260208101929092527fe536ac546f86787f3ea4069f79235c6b5a681e87d051300a3ed19a6ebb0db71c935001905060405180910390a15b5060009081526008602052604081208181556001810180546001600160e01b031916905560028101805467ffffffffffffffff191690556003810182905560040155565b600054610100900460ff168061180c575060005460ff16155b61186f5760405162461bcd60e51b815260206004820152602e60248201527f496e697469616c697a61626c653a20636f6e747261637420697320616c72656160448201526d191e481a5b9a5d1a585b1a5e995960921b60648201526084016105ab565b600054610100900460ff16158015611891576000805461ffff19166101011790555b6000829050806001600160a01b031663ba84fd696040518163ffffffff1660e01b815260040160206040518083038186803b1580156118cf57600080fd5b505afa1580156118e3573d6000803e3d6000fd5b505050506040513d601f19601f820116820180604052508101906119079190611bd3565b61191057600080fd5b600280546001600160a01b03909216610100026001600160a81b0319909216919091176001179055801561194a576000805461ff00191690555b5050565b60025461010090046001600160a01b0316638413ec1461196c611a38565b6040516001600160e01b031960e084901b1681526001600160a01b03909116600482015260240160006040518083038186803b1580156119ab57600080fd5b505afa1580156119bf573d6000803e3d6000fd5b5083925050506001600160a01b038116611a0d5760405162461bcd60e51b815260206004820152600f60248201526e696e76616c6964206164647265737360881b60448201526064016105ab565b50600080546001600160a01b03909216620100000262010000600160b01b0319909216919091179055565b600060143610801590611a5b57506000546201000090046001600160a01b031633145b15611a6d575060131936013560601c90565b503390565b60008181526008602052604090206002015461025890611a9d90429067ffffffffffffffff16611e2f565b11611b3e57600081815260086020526040812060020180546102589290611acf90849067ffffffffffffffff16611e03565b82546101009290920a67ffffffffffffffff8181021990931691831602179091556000838152600860209081526040918290206002015482518681529316908301527f9c9cc6f8fa269c17bd097ed592ca8e0d3b4451b4c7bdbee9b802563aec9cd7b492500160405180910390a15b50565b80356001600160a01b0381168114611b5857600080fd5b919050565b805161ffff81168114611b5857600080fd5b803567ffffffffffffffff81168114611b5857600080fd5b600060208284031215611b9957600080fd5b611ba282611b41565b9392505050565b60008060408385031215611bbc57600080fd5b611bc583611b41565b946020939093013593505050565b600060208284031215611be557600080fd5b81518015158114611ba257600080fd5b600080600080600080600080610100898b031215611c1257600080fd5b611c1b89611b5d565b9750611c2960208a01611b5d565b9650611c3760408a01611b5d565b9550611c4560608a01611b5d565b9450611c5360808a01611b5d565b9350611c6160a08a01611b5d565b9250611c6f60c08a01611b5d565b9150611c7d60e08a01611b5d565b90509295985092959890939650565b600060208284031215611c9e57600080fd5b5035919050565b600060208284031215611cb757600080fd5b5051919050565b600080600060608486031215611cd357600080fd5b8335925060208401359150611cea60408501611b41565b90509250925092565b600080600080600060a08688031215611d0b57600080fd5b85359450611d1b60208701611b6f565b9350611d2960408701611b6f565b94979396509394606081013594506080013592915050565b600060208284031215611d5357600080fd5b815163ffffffff81168114611ba257600080fd5b600060208083528351808285015260005b81811015611d9457858101830151858201604001528201611d78565b81811115611da6576000604083870101525b50601f01601f1916929092016040019392505050565b6020808252601590820152743ab739bab1b1b2b9b9b33ab6103a3930b739b332b960591b604082015260600190565b60008219821115611dfe57611dfe611e46565b500190565b600067ffffffffffffffff808316818516808303821115611e2657611e26611e46565b01949350505050565b600082821015611e4157611e41611e46565b500390565b634e487b7160e01b600052601160045260246000fdfea2646970667358221220b31ba7ad4cc1370eca5ac06c076f27ba412a72d5ea0b4a59314094169f40649664736f6c63430008060033",
  "immutableReferences": {},
  "source": "// // SPDX-License-Identifier: MIT\n\npragma solidity ^0.8.6;\n\nimport \"@openzeppelin/contracts-upgradeable/proxy/utils/Initializable.sol\";\nimport \"@openzeppelin/contracts-upgradeable/utils/CountersUpgradeable.sol\";\nimport \"@openzeppelin/contracts-upgradeable/token/ERC20/IERC20Upgradeable.sol\";\nimport \"../access/IAccessRestriction.sol\";\nimport \"../tree/ITreeFactory.sol\";\nimport \"../treasury/IFinancialModel.sol\";\nimport \"../treasury/IWethFunds.sol\";\nimport \"../gsn/RelayRecipient.sol\";\nimport \"../regularSell/IRegularSell.sol\";\n\n/** @title Tree Auction */\n\ncontract TreeAuction is Initializable, RelayRecipient {\n    using CountersUpgradeable for CountersUpgradeable.Counter;\n\n    CountersUpgradeable.Counter private auctionId;\n\n    /** NOTE {isTreeAuction} set inside the initialize to {true} */\n\n    bool public isTreeAuction;\n\n    IAccessRestriction public accessRestriction;\n    ITreeFactory public treeFactory;\n    IWethFunds public wethFunds;\n    IFinancialModel public financialModel;\n    IERC20Upgradeable public wethToken;\n    IRegularSell public regularSell;\n\n    struct Auction {\n        uint256 treeId;\n        address bidder;\n        uint64 startDate;\n        uint64 endDate;\n        uint256 highestBid;\n        uint256 bidInterval;\n    }\n\n    /** NOTE mapping of auctionId to Auction struct */\n    mapping(uint256 => Auction) public auctions;\n\n    /**NOTE mapping of bidder to mapping of auctionId to referral */\n    mapping(address => mapping(uint256 => address)) public referrals;\n\n    event HighestBidIncreased(\n        uint256 auctionId,\n        uint256 treeId,\n        address bidder,\n        uint256 amount,\n        address referrer\n    );\n    event AuctionSettled(\n        uint256 auctionId,\n        uint256 treeId,\n        address winner,\n        uint256 amount,\n        address referrer\n    );\n    event AuctionCreated(uint256 auctionId);\n    event AuctionEnded(uint256 auctionId, uint256 treeId);\n    event AuctionEndTimeIncreased(uint256 auctionId, uint256 newAuctionEndTime);\n\n    /** NOTE modifier to check msg.sender has admin role */\n    modifier onlyAdmin() {\n        accessRestriction.ifAdmin(_msgSender());\n        _;\n    }\n\n    /** NOTE modifier to check msg.sender has data manager role */\n    modifier onlyDataManager() {\n        accessRestriction.ifDataManager(_msgSender());\n        _;\n    }\n\n    /** NOTE modifier for check if function is not paused*/\n    modifier ifNotPaused() {\n        accessRestriction.ifNotPaused();\n        _;\n    }\n\n    /** NOTE modifier for check valid address */\n    modifier validAddress(address _address) {\n        require(_address != address(0), \"invalid address\");\n        _;\n    }\n\n    /**\n     * @dev initialize accessRestriction contract and set true for isTreeAuction\n     * @param _accessRestrictionAddress set to the address of accessRestriction contract\n     */\n    function initialize(address _accessRestrictionAddress)\n        external\n        initializer\n    {\n        IAccessRestriction candidateContract = IAccessRestriction(\n            _accessRestrictionAddress\n        );\n        require(candidateContract.isAccessRestriction());\n        isTreeAuction = true;\n        accessRestriction = candidateContract;\n    }\n\n    /**\n     * @dev admin set the trustedForwarder adress\n     * @param _address is the address of trusted forwarder\n     */\n\n    function setTrustedForwarder(address _address)\n        external\n        onlyAdmin\n        validAddress(_address)\n    {\n        trustedForwarder = _address;\n    }\n\n    /**\n     * @dev admin set TreeFactoryAddress\n     * @param _address set to the address of treeFactory\n     */\n    function setTreeFactoryAddress(address _address) external onlyAdmin {\n        ITreeFactory candidateContract = ITreeFactory(_address);\n        require(candidateContract.isTreeFactory());\n        treeFactory = candidateContract;\n    }\n\n    /**\n     * @dev admin set FinancialModel\n     * @param _address set to the address of financialModel\n     */\n\n    function setFinancialModelAddress(address _address) external onlyAdmin {\n        IFinancialModel candidateContract = IFinancialModel(_address);\n        require(candidateContract.isFinancialModel());\n        financialModel = candidateContract;\n    }\n\n    /**\n     * @dev admin set WethFunds\n     * @param _address set to the address of wethFunds\n     */\n\n    function setWethFundsAddress(address _address) external onlyAdmin {\n        IWethFunds candidateContract = IWethFunds(_address);\n        require(candidateContract.isWethFunds());\n        wethFunds = candidateContract;\n    }\n\n    /**\n     * @dev admin set RegularSell\n     * @param _address set to the address of regularSell\n     */\n\n    function setRegularSellAddress(address _address) external onlyAdmin {\n        IRegularSell candidateContract = IRegularSell(_address);\n        require(candidateContract.isRegularSell());\n        regularSell = candidateContract;\n    }\n\n    /**\n     * @dev admin set WethToken\n     * @param _address set to the address of wethToken\n     */\n\n    function setWethTokenAddress(address _address)\n        external\n        onlyAdmin\n        validAddress(_address)\n    {\n        IERC20Upgradeable candidateContract = IERC20Upgradeable(_address);\n        wethToken = candidateContract;\n    }\n\n    /**\n     * @dev admin create auction to a tree with provideStatus of '0' and push that auction\n     * to {auctions[auctionId]} and increament auctionId by 1.\n     * NOTE its necessary that a fundDestributionModel has been assigned to {_treeId}\n     * @param _treeId treeId that auction create for\n     * @param _startDate strat time of auction\n     * @param _endDate end time of auction\n     * @param _intialPrice initial price of auction\n     * @param _bidInterval bid interval for auction . if it set to 10 for example and the last bid is 100.new bidder can bid for 110\n     */\n    function createAuction(\n        uint256 _treeId,\n        uint64 _startDate,\n        uint64 _endDate,\n        uint256 _intialPrice,\n        uint256 _bidInterval\n    ) external ifNotPaused onlyDataManager {\n        require(\n            financialModel.distributionModelExistance(_treeId),\n            \"equivalant fund Model not exists\"\n        );\n\n        uint32 provideStatus = treeFactory.availability(_treeId, 1);\n\n        require(provideStatus == 0, \"not available for auction\");\n\n        Auction storage auction = auctions[auctionId.current()];\n\n        auction.treeId = _treeId;\n        auction.startDate = _startDate;\n        auction.endDate = _endDate;\n        auction.highestBid = _intialPrice;\n        auction.bidInterval = _bidInterval;\n\n        emit AuctionCreated(auctionId.current());\n\n        auctionId.increment();\n    }\n\n    /**\n     * @dev bid to {auctions[_auctionId]} by user in a time beetwen start time and end time\n     * its require to send at least {higestBid + bidInterval } {_amount}.\n     * if new bid done old bidder refund automatically.\n     * @param _auctionId auctionId that user bid for it.\n     */\n\n    function bid(\n        uint256 _auctionId,\n        uint256 _amount,\n        address _referrer\n    ) external ifNotPaused {\n        Auction storage _storageAuction = auctions[_auctionId];\n\n        require(\n            block.timestamp <= _storageAuction.endDate,\n            \"auction already ended\"\n        );\n\n        require(\n            block.timestamp >= _storageAuction.startDate,\n            \"auction not started\"\n        );\n\n        require(\n            _amount >= _storageAuction.highestBid + _storageAuction.bidInterval,\n            \"invalid amount\"\n        );\n\n        require(\n            wethToken.balanceOf(_msgSender()) >= _amount,\n            \"insufficient balance\"\n        );\n\n        bool success = wethToken.transferFrom(\n            _msgSender(),\n            address(this),\n            _amount\n        );\n\n        require(success, \"unsuccessful transfer\");\n\n        if (\n            _referrer != address(0) &&\n            referrals[_msgSender()][_auctionId] == address(0)\n        ) {\n            referrals[_msgSender()][_auctionId] = _referrer;\n        }\n\n        address oldBidder = _storageAuction.bidder;\n        uint256 oldBid = _storageAuction.highestBid;\n\n        _storageAuction.highestBid = _amount;\n        _storageAuction.bidder = _msgSender();\n\n        emit HighestBidIncreased(\n            _auctionId,\n            _storageAuction.treeId,\n            _msgSender(),\n            _amount,\n            _referrer\n        );\n\n        _increaseAuctionEndTime(_auctionId);\n\n        if (oldBidder != address(0)) {\n            bool successTransfer = wethToken.transfer(oldBidder, oldBid);\n\n            require(successTransfer, \"unsuccessful transfer\");\n        }\n    }\n\n    /** @dev everyone can call this method  including the winner of auction after\n     * auction end time and if auction have bidder transfer owner of tree to bidder\n     * and tree funded.\n     * @param _auctionId id of auction that want to finish.\n     */\n    function endAuction(uint256 _auctionId) external ifNotPaused {\n        Auction storage auction = auctions[_auctionId];\n\n        require(auction.endDate > 0, \"Auction is unavailable\");\n\n        require(block.timestamp >= auction.endDate, \"Auction not yet ended\");\n\n        if (auction.bidder != address(0)) {\n            bool success = wethToken.transfer(\n                address(wethFunds),\n                auction.highestBid\n            );\n\n            require(success, \"unsuccessful transfer\");\n\n            (\n                uint16 planterFund,\n                uint16 referralFund,\n                uint16 treeResearch,\n                uint16 localDevelop,\n                uint16 rescueFund,\n                uint16 treejerDevelop,\n                uint16 reserveFund1,\n                uint16 reserveFund2\n            ) = financialModel.findTreeDistribution(auction.treeId);\n\n            wethFunds.fundTree(\n                auction.treeId,\n                auction.highestBid,\n                planterFund,\n                referralFund,\n                treeResearch,\n                localDevelop,\n                rescueFund,\n                treejerDevelop,\n                reserveFund1,\n                reserveFund2\n            );\n\n            treeFactory.updateOwner(auction.treeId, auction.bidder, 2);\n\n            address _tempReferrer = referrals[auction.bidder][_auctionId];\n\n            if (_tempReferrer != address(0)) {\n                regularSell.updateGenesisReferrerGift(_tempReferrer, 1);\n            }\n\n            emit AuctionSettled(\n                _auctionId,\n                auction.treeId,\n                auction.bidder,\n                auction.highestBid,\n                _tempReferrer\n            );\n        } else {\n            treeFactory.updateAvailability(auction.treeId);\n            emit AuctionEnded(_auctionId, auction.treeId);\n        }\n\n        delete auctions[_auctionId];\n    }\n\n    /** @dev if latest bid is less than 10 minutes to the end of auctionEndTime:\n     * we will increase auctionEndTime 600 seconds\n     * @param _auctionId id of auction that increase end time of it.\n     */\n    function _increaseAuctionEndTime(uint256 _auctionId) private {\n        if (auctions[_auctionId].endDate - block.timestamp <= 600) {\n            auctions[_auctionId].endDate += 600;\n            emit AuctionEndTimeIncreased(\n                _auctionId,\n                auctions[_auctionId].endDate\n            );\n        }\n    }\n}\n",
  "sourcePath": "/media/ali/New Volume/treejer/contract/contracts/auction/TreeAuction.sol",
  "compiler": {
    "name": "solc",
    "version": "0.8.6+commit.11564f7e.Emscripten.clang"
  },
  "schemaVersion": "3.4.1",
  "updatedAt": "2021-09-22T14:00:12.048Z",
  "networkType": "ethereum",
  "devdoc": {
    "kind": "dev",
    "methods": {
      "bid(uint256,uint256,address)": {
        "details": "bid to {auctions[_auctionId]} by user in a time beetwen start time and end time its require to send at least {higestBid + bidInterval } {_amount}. if new bid done old bidder refund automatically.",
        "params": {
          "_auctionId": "auctionId that user bid for it."
        }
      },
      "createAuction(uint256,uint64,uint64,uint256,uint256)": {
        "details": "admin create auction to a tree with provideStatus of '0' and push that auction to {auctions[auctionId]} and increament auctionId by 1. NOTE its necessary that a fundDestributionModel has been assigned to {_treeId}",
        "params": {
          "_bidInterval": "bid interval for auction . if it set to 10 for example and the last bid is 100.new bidder can bid for 110",
          "_endDate": "end time of auction",
          "_intialPrice": "initial price of auction",
          "_startDate": "strat time of auction",
          "_treeId": "treeId that auction create for"
        }
      },
      "endAuction(uint256)": {
        "details": "everyone can call this method  including the winner of auction after auction end time and if auction have bidder transfer owner of tree to bidder and tree funded.",
        "params": {
          "_auctionId": "id of auction that want to finish."
        }
      },
      "initialize(address)": {
        "details": "initialize accessRestriction contract and set true for isTreeAuction",
        "params": {
          "_accessRestrictionAddress": "set to the address of accessRestriction contract"
        }
      },
      "setFinancialModelAddress(address)": {
        "details": "admin set FinancialModel",
        "params": {
          "_address": "set to the address of financialModel"
        }
      },
      "setRegularSellAddress(address)": {
        "details": "admin set RegularSell",
        "params": {
          "_address": "set to the address of regularSell"
        }
      },
      "setTreeFactoryAddress(address)": {
        "details": "admin set TreeFactoryAddress",
        "params": {
          "_address": "set to the address of treeFactory"
        }
      },
      "setTrustedForwarder(address)": {
        "details": "admin set the trustedForwarder adress",
        "params": {
          "_address": "is the address of trusted forwarder"
        }
      },
      "setWethFundsAddress(address)": {
        "details": "admin set WethFunds",
        "params": {
          "_address": "set to the address of wethFunds"
        }
      },
      "setWethTokenAddress(address)": {
        "details": "admin set WethToken",
        "params": {
          "_address": "set to the address of wethToken"
        }
      },
      "versionRecipient()": {
        "details": "return version recipient "
      }
    },
    "title": "Tree Auction ",
    "version": 1
  },
  "userdoc": {
    "kind": "user",
    "methods": {
      "auctions(uint256)": {
        "notice": "NOTE mapping of auctionId to Auction struct "
      },
      "isTreeAuction()": {
        "notice": "NOTE {isTreeAuction} set inside the initialize to {true} "
      },
      "isTrustedForwarder(address)": {
        "notice": "return if the forwarder is trusted to forward relayed transactions to us. the forwarder is required to verify the sender's signature, and verify the call is not a replay."
      },
      "referrals(address,uint256)": {
        "notice": "NOTE mapping of bidder to mapping of auctionId to referral "
      }
    },
    "version": 1
  }
}