{
  "contractName": "WethFunds",
  "abi": [
    {
      "anonymous": false,
      "inputs": [],
      "name": "IncrementalFunded",
      "type": "event"
    },
    {
      "anonymous": false,
      "inputs": [
        {
          "indexed": false,
          "internalType": "uint256",
          "name": "amount",
          "type": "uint256"
        },
        {
          "indexed": false,
          "internalType": "address",
          "name": "account",
          "type": "address"
        },
        {
          "indexed": false,
          "internalType": "string",
          "name": "reason",
          "type": "string"
        }
      ],
      "name": "LocalDevelopBalanceWithdrawn",
      "type": "event"
    },
    {
      "anonymous": false,
      "inputs": [
        {
          "indexed": false,
          "internalType": "uint256",
          "name": "amount",
          "type": "uint256"
        },
        {
          "indexed": false,
          "internalType": "address",
          "name": "account",
          "type": "address"
        },
        {
          "indexed": false,
          "internalType": "string",
          "name": "reason",
          "type": "string"
        }
      ],
      "name": "RescueBalanceWithdrawn",
      "type": "event"
    },
    {
      "anonymous": false,
      "inputs": [
        {
          "indexed": false,
          "internalType": "uint256",
          "name": "amount",
          "type": "uint256"
        },
        {
          "indexed": false,
          "internalType": "address",
          "name": "account",
          "type": "address"
        },
        {
          "indexed": false,
          "internalType": "string",
          "name": "reason",
          "type": "string"
        }
      ],
      "name": "ReserveBalanceWithdrawn1",
      "type": "event"
    },
    {
      "anonymous": false,
      "inputs": [
        {
          "indexed": false,
          "internalType": "uint256",
          "name": "amount",
          "type": "uint256"
        },
        {
          "indexed": false,
          "internalType": "address",
          "name": "account",
          "type": "address"
        },
        {
          "indexed": false,
          "internalType": "string",
          "name": "reason",
          "type": "string"
        }
      ],
      "name": "ReserveBalanceWithdrawn2",
      "type": "event"
    },
    {
      "anonymous": false,
      "inputs": [
        {
          "indexed": false,
          "internalType": "uint256",
          "name": "wethMaxUse",
          "type": "uint256"
        },
        {
          "indexed": false,
          "internalType": "uint256",
          "name": "daiAmount",
          "type": "uint256"
        },
        {
          "indexed": false,
          "internalType": "uint256",
          "name": "wethAmount",
          "type": "uint256"
        }
      ],
      "name": "SwapToPlanterFund",
      "type": "event"
    },
    {
      "anonymous": false,
      "inputs": [
        {
          "indexed": false,
          "internalType": "uint256",
          "name": "treeId",
          "type": "uint256"
        },
        {
          "indexed": false,
          "internalType": "uint256",
          "name": "amount",
          "type": "uint256"
        },
        {
          "indexed": false,
          "internalType": "uint256",
          "name": "planterPart",
          "type": "uint256"
        }
      ],
      "name": "TreeFunded",
      "type": "event"
    },
    {
      "anonymous": false,
      "inputs": [
        {
          "indexed": false,
          "internalType": "uint256",
          "name": "amount",
          "type": "uint256"
        },
        {
          "indexed": false,
          "internalType": "address",
          "name": "account",
          "type": "address"
        },
        {
          "indexed": false,
          "internalType": "string",
          "name": "reason",
          "type": "string"
        }
      ],
      "name": "TreeResearchBalanceWithdrawn",
      "type": "event"
    },
    {
      "anonymous": false,
      "inputs": [
        {
          "indexed": false,
          "internalType": "uint256",
          "name": "amount",
          "type": "uint256"
        },
        {
          "indexed": false,
          "internalType": "address",
          "name": "account",
          "type": "address"
        },
        {
          "indexed": false,
          "internalType": "string",
          "name": "reason",
          "type": "string"
        }
      ],
      "name": "TreejerDevelopBalanceWithdrawn",
      "type": "event"
    },
    {
      "inputs": [],
      "name": "accessRestriction",
      "outputs": [
        {
          "internalType": "contract IAccessRestriction",
          "name": "",
          "type": "address"
        }
      ],
      "stateMutability": "view",
      "type": "function",
      "constant": true
    },
    {
      "inputs": [],
      "name": "daiAddress",
      "outputs": [
        {
          "internalType": "address",
          "name": "",
          "type": "address"
        }
      ],
      "stateMutability": "view",
      "type": "function",
      "constant": true
    },
    {
      "inputs": [],
      "name": "isWethFunds",
      "outputs": [
        {
          "internalType": "bool",
          "name": "",
          "type": "bool"
        }
      ],
      "stateMutability": "view",
      "type": "function",
      "constant": true
    },
    {
      "inputs": [],
      "name": "localDevelopAddress",
      "outputs": [
        {
          "internalType": "address",
          "name": "",
          "type": "address"
        }
      ],
      "stateMutability": "view",
      "type": "function",
      "constant": true
    },
    {
      "inputs": [],
      "name": "planterFundContract",
      "outputs": [
        {
          "internalType": "contract IPlanterFund",
          "name": "",
          "type": "address"
        }
      ],
      "stateMutability": "view",
      "type": "function",
      "constant": true
    },
    {
      "inputs": [],
      "name": "rescueFundAddress",
      "outputs": [
        {
          "internalType": "address",
          "name": "",
          "type": "address"
        }
      ],
      "stateMutability": "view",
      "type": "function",
      "constant": true
    },
    {
      "inputs": [],
      "name": "reserveFundAddress1",
      "outputs": [
        {
          "internalType": "address",
          "name": "",
          "type": "address"
        }
      ],
      "stateMutability": "view",
      "type": "function",
      "constant": true
    },
    {
      "inputs": [],
      "name": "reserveFundAddress2",
      "outputs": [
        {
          "internalType": "address",
          "name": "",
          "type": "address"
        }
      ],
      "stateMutability": "view",
      "type": "function",
      "constant": true
    },
    {
      "inputs": [],
      "name": "totalDaiToPlanterSwap",
      "outputs": [
        {
          "internalType": "uint256",
          "name": "",
          "type": "uint256"
        }
      ],
      "stateMutability": "view",
      "type": "function",
      "constant": true
    },
    {
      "inputs": [],
      "name": "totalFunds",
      "outputs": [
        {
          "internalType": "uint256",
          "name": "treeResearch",
          "type": "uint256"
        },
        {
          "internalType": "uint256",
          "name": "localDevelop",
          "type": "uint256"
        },
        {
          "internalType": "uint256",
          "name": "rescueFund",
          "type": "uint256"
        },
        {
          "internalType": "uint256",
          "name": "treejerDevelop",
          "type": "uint256"
        },
        {
          "internalType": "uint256",
          "name": "reserveFund1",
          "type": "uint256"
        },
        {
          "internalType": "uint256",
          "name": "reserveFund2",
          "type": "uint256"
        }
      ],
      "stateMutability": "view",
      "type": "function",
      "constant": true
    },
    {
      "inputs": [],
      "name": "treeResearchAddress",
      "outputs": [
        {
          "internalType": "address",
          "name": "",
          "type": "address"
        }
      ],
      "stateMutability": "view",
      "type": "function",
      "constant": true
    },
    {
      "inputs": [],
      "name": "treejerDevelopAddress",
      "outputs": [
        {
          "internalType": "address",
          "name": "",
          "type": "address"
        }
      ],
      "stateMutability": "view",
      "type": "function",
      "constant": true
    },
    {
      "inputs": [],
      "name": "uniswapRouter",
      "outputs": [
        {
          "internalType": "contract IUniswapV2Router02New",
          "name": "",
          "type": "address"
        }
      ],
      "stateMutability": "view",
      "type": "function",
      "constant": true
    },
    {
      "inputs": [],
      "name": "wethToken",
      "outputs": [
        {
          "internalType": "contract IERC20Upgradeable",
          "name": "",
          "type": "address"
        }
      ],
      "stateMutability": "view",
      "type": "function",
      "constant": true
    },
    {
      "inputs": [
        {
          "internalType": "address",
          "name": "_accessRestrictionAddress",
          "type": "address"
        }
      ],
      "name": "initialize",
      "outputs": [],
      "stateMutability": "nonpayable",
      "type": "function"
    },
    {
      "inputs": [
        {
          "internalType": "address",
          "name": "_daiAddress",
          "type": "address"
        }
      ],
      "name": "setDaiAddress",
      "outputs": [],
      "stateMutability": "nonpayable",
      "type": "function"
    },
    {
      "inputs": [
        {
          "internalType": "address",
          "name": "_wethTokenAddress",
          "type": "address"
        }
      ],
      "name": "setWethTokenAddress",
      "outputs": [],
      "stateMutability": "nonpayable",
      "type": "function"
    },
    {
      "inputs": [
        {
          "internalType": "address",
          "name": "_uniswapRouterAddress",
          "type": "address"
        }
      ],
      "name": "setUniswapRouterAddress",
      "outputs": [],
      "stateMutability": "nonpayable",
      "type": "function"
    },
    {
      "inputs": [
        {
          "internalType": "address",
          "name": "_address",
          "type": "address"
        }
      ],
      "name": "setPlanterFundContractAddress",
      "outputs": [],
      "stateMutability": "nonpayable",
      "type": "function"
    },
    {
      "inputs": [
        {
          "internalType": "address payable",
          "name": "_address",
          "type": "address"
        }
      ],
      "name": "setTreeResearchAddress",
      "outputs": [],
      "stateMutability": "nonpayable",
      "type": "function"
    },
    {
      "inputs": [
        {
          "internalType": "address payable",
          "name": "_address",
          "type": "address"
        }
      ],
      "name": "setLocalDevelopAddress",
      "outputs": [],
      "stateMutability": "nonpayable",
      "type": "function"
    },
    {
      "inputs": [
        {
          "internalType": "address payable",
          "name": "_address",
          "type": "address"
        }
      ],
      "name": "setRescueFundAddress",
      "outputs": [],
      "stateMutability": "nonpayable",
      "type": "function"
    },
    {
      "inputs": [
        {
          "internalType": "address payable",
          "name": "_address",
          "type": "address"
        }
      ],
      "name": "setTreejerDevelopAddress",
      "outputs": [],
      "stateMutability": "nonpayable",
      "type": "function"
    },
    {
      "inputs": [
        {
          "internalType": "address payable",
          "name": "_address",
          "type": "address"
        }
      ],
      "name": "setReserveFund1Address",
      "outputs": [],
      "stateMutability": "nonpayable",
      "type": "function"
    },
    {
      "inputs": [
        {
          "internalType": "address payable",
          "name": "_address",
          "type": "address"
        }
      ],
      "name": "setReserveFund2Address",
      "outputs": [],
      "stateMutability": "nonpayable",
      "type": "function"
    },
    {
      "inputs": [
        {
          "internalType": "uint256",
          "name": "_treeId",
          "type": "uint256"
        },
        {
          "internalType": "uint256",
          "name": "_amount",
          "type": "uint256"
        },
        {
          "internalType": "uint16",
          "name": "_planterFund",
          "type": "uint16"
        },
        {
          "internalType": "uint16",
          "name": "_referralFund",
          "type": "uint16"
        },
        {
          "internalType": "uint16",
          "name": "_treeResearch",
          "type": "uint16"
        },
        {
          "internalType": "uint16",
          "name": "_localDevelop",
          "type": "uint16"
        },
        {
          "internalType": "uint16",
          "name": "_rescueFund",
          "type": "uint16"
        },
        {
          "internalType": "uint16",
          "name": "_treejerDevelop",
          "type": "uint16"
        },
        {
          "internalType": "uint16",
          "name": "_reserveFund1",
          "type": "uint16"
        },
        {
          "internalType": "uint16",
          "name": "_reserveFund2",
          "type": "uint16"
        }
      ],
      "name": "fundTree",
      "outputs": [],
      "stateMutability": "nonpayable",
      "type": "function"
    },
    {
      "inputs": [
        {
          "internalType": "uint256",
          "name": "_amount",
          "type": "uint256"
        },
        {
          "internalType": "string",
          "name": "_reason",
          "type": "string"
        }
      ],
      "name": "withdrawTreeResearch",
      "outputs": [],
      "stateMutability": "nonpayable",
      "type": "function"
    },
    {
      "inputs": [
        {
          "internalType": "uint256",
          "name": "_amount",
          "type": "uint256"
        },
        {
          "internalType": "string",
          "name": "_reason",
          "type": "string"
        }
      ],
      "name": "withdrawLocalDevelop",
      "outputs": [],
      "stateMutability": "nonpayable",
      "type": "function"
    },
    {
      "inputs": [
        {
          "internalType": "uint256",
          "name": "_amount",
          "type": "uint256"
        },
        {
          "internalType": "string",
          "name": "_reason",
          "type": "string"
        }
      ],
      "name": "withdrawRescueFund",
      "outputs": [],
      "stateMutability": "nonpayable",
      "type": "function"
    },
    {
      "inputs": [
        {
          "internalType": "uint256",
          "name": "_amount",
          "type": "uint256"
        },
        {
          "internalType": "string",
          "name": "_reason",
          "type": "string"
        }
      ],
      "name": "withdrawTreejerDevelop",
      "outputs": [],
      "stateMutability": "nonpayable",
      "type": "function"
    },
    {
      "inputs": [
        {
          "internalType": "uint256",
          "name": "_amount",
          "type": "uint256"
        },
        {
          "internalType": "string",
          "name": "_reason",
          "type": "string"
        }
      ],
      "name": "withdrawReserveFund1",
      "outputs": [],
      "stateMutability": "nonpayable",
      "type": "function"
    },
    {
      "inputs": [
        {
          "internalType": "uint256",
          "name": "_amount",
          "type": "uint256"
        },
        {
          "internalType": "string",
          "name": "_reason",
          "type": "string"
        }
      ],
      "name": "withdrawReserveFund2",
      "outputs": [],
      "stateMutability": "nonpayable",
      "type": "function"
    },
    {
      "inputs": [
        {
          "internalType": "uint256",
          "name": "_totalPlanterFund",
          "type": "uint256"
        },
        {
          "internalType": "uint256",
          "name": "_totalReferralFund",
          "type": "uint256"
        },
        {
          "internalType": "uint256",
          "name": "_totalTreeResearch",
          "type": "uint256"
        },
        {
          "internalType": "uint256",
          "name": "_totalLocalDevelop",
          "type": "uint256"
        },
        {
          "internalType": "uint256",
          "name": "_totalRescueFund",
          "type": "uint256"
        },
        {
          "internalType": "uint256",
          "name": "_totalTreejerDevelop",
          "type": "uint256"
        },
        {
          "internalType": "uint256",
          "name": "_totalReserveFund1",
          "type": "uint256"
        },
        {
          "internalType": "uint256",
          "name": "_totalReserveFund2",
          "type": "uint256"
        }
      ],
      "name": "incrementalFund",
      "outputs": [
        {
          "internalType": "uint256",
          "name": "",
          "type": "uint256"
        }
      ],
      "stateMutability": "nonpayable",
      "type": "function"
    },
    {
      "inputs": [
        {
          "internalType": "uint256",
          "name": "_wethMaxUse",
          "type": "uint256"
        },
        {
          "internalType": "uint256",
          "name": "_totalDaiSwap",
          "type": "uint256"
        }
      ],
      "name": "swapDaiToPlanters",
      "outputs": [],
      "stateMutability": "nonpayable",
      "type": "function"
    },
    {
      "inputs": [
        {
          "internalType": "uint256",
          "name": "_amount",
          "type": "uint256"
        }
      ],
      "name": "updateDaiSwap",
      "outputs": [],
      "stateMutability": "nonpayable",
      "type": "function"
    }
  ],
  "bytecode": "0x608060405234801561001057600080fd5b50612b4f806100206000396000f3fe608060405234801561001057600080fd5b50600436106102115760003560e01c80638194b85b11610125578063ba6138a5116100ad578063d6762c4a1161007c578063d6762c4a146104bb578063db15d185146104d5578063e5356a65146104e8578063f8b5ee91146104fb578063ff4eb8bb1461050e57600080fd5b8063ba6138a51461046f578063c05c6d3514610482578063c4d66de814610495578063cb13011c146104a857600080fd5b80639e6454aa116100f45780639e6454aa14610410578063a037edcc14610423578063a47fddb014610436578063a669359014610449578063b36758321461045c57600080fd5b80638194b85b1461038c57806384457b631461039f578063968ed600146103b257806399fece40146103fd57600080fd5b8063536ad73a116101a8578063673dba2111610177578063673dba211461032d5780636acc977714610340578063735de9f7146103535780637a876fd81461036657806380d663ea1461037957600080fd5b8063536ad73a146102eb5780635773780d146102fe5780635f335a9314610311578063606bd63b1461032457600080fd5b8063313b3937116101e4578063313b3937146102815780634b57b0be146102a45780634f90106b146102b75780634fe49674146102d857600080fd5b80630a43649a14610216578063233ac7aa146102465780632c3872751461025b578063310f6dec1461026e575b600080fd5b600d54610229906001600160a01b031681565b6040516001600160a01b0390911681526020015b60405180910390f35b61025961025436600461261a565b610521565b005b600454610229906001600160a01b031681565b600e54610229906001600160a01b031681565b6000546102949062010000900460ff1681565b604051901515815260200161023d565b600254610229906001600160a01b031681565b6102ca6102c5366004612888565b6105d6565b60405190815260200161023d565b6102596102e636600461261a565b610736565b6102596102f936600461273e565b6107e2565b61025961030c36600461261a565b610a17565b601154610229906001600160a01b031681565b6102ca60055481565b61025961033b36600461273e565b610b1a565b61025961034e36600461261a565b610d40565b600354610229906001600160a01b031681565b601054610229906001600160a01b031681565b600154610229906001600160a01b031681565b61025961039a36600461261a565b610dec565b6102596103ad36600461261a565b610e98565b600654600754600854600954600a54600b546103d095949392919086565b604080519687526020870195909552938501929092526060840152608083015260a082015260c00161023d565b61025961040b36600461273e565b610f44565b61025961041e36600461261a565b61116a565b600c54610229906001600160a01b031681565b600f54610229906001600160a01b031681565b61025961045736600461261a565b611216565b61025961046a3660046127dc565b6112c2565b61025961047d36600461273e565b61146f565b6102596104903660046127ba565b611695565b6102596104a336600461261a565b611a52565b6102596104b636600461261a565b611bb3565b60005461022990630100000090046001600160a01b031681565b6102596104e336600461261a565b611c5f565b6102596104f636600461273e565b611d0b565b610259610509366004612725565b611f31565b61025961051c36600461273e565b611fac565b600054604051632104fb0560e21b815233600482015263010000009091046001600160a01b031690638413ec149060240160006040518083038186803b15801561056a57600080fd5b505afa15801561057e573d6000803e3d6000fd5b5083925050506001600160a01b0381166105b35760405162461bcd60e51b81526004016105aa9061297d565b60405180910390fd5b50600f80546001600160a01b0319166001600160a01b0392909216919091179055565b6000805460405163ebe6a6f360e01b815233600482015263010000009091046001600160a01b03169063ebe6a6f39060240160006040518083038186803b15801561062057600080fd5b505afa158015610634573d6000803e3d6000fd5b50505050866006600001600082825461064d9190612a4f565b909155505060078054879190600090610667908490612a4f565b909155505060088054869190600090610681908490612a4f565b90915550506009805485919060009061069b908490612a4f565b9091555050600a80548491906000906106b5908490612a4f565b9091555050600b80548391906000906106cf908490612a4f565b90915550600090506106e1898b612a4f565b905060008082116106f35760006106fc565b6106fc826121d2565b6040519091507f79f67f248c2ec5085da88fab322506a34dcafe729da23bcd54bbff43d92e8d1190600090a19a9950505050505050505050565b600054604051632104fb0560e21b815233600482015263010000009091046001600160a01b031690638413ec149060240160006040518083038186803b15801561077f57600080fd5b505afa158015610793573d6000803e3d6000fd5b5083925050506001600160a01b0381166107bf5760405162461bcd60e51b81526004016105aa9061297d565b50601180546001600160a01b0319166001600160a01b0392909216919091179055565b600060039054906101000a90046001600160a01b03166001600160a01b0316634d868f986040518163ffffffff1660e01b815260040160006040518083038186803b15801561083057600080fd5b505afa158015610844573d6000803e3d6000fd5b5050600054604051632104fb0560e21b815233600482015263010000009091046001600160a01b03169250638413ec14915060240160006040518083038186803b15801561089157600080fd5b505afa1580156108a5573d6000803e3d6000fd5b5050600e546001600160a01b0316915050806108d35760405162461bcd60e51b81526004016105aa9061297d565b60085484118015906108e55750600084115b6109015760405162461bcd60e51b81526004016105aa90612921565b83600660020160008282546109169190612aa8565b9091555050600254600e5460405163a9059cbb60e01b81526001600160a01b03918216600482015260248101879052600092919091169063a9059cbb90604401602060405180830381600087803b15801561097057600080fd5b505af1158015610984573d6000803e3d6000fd5b505050506040513d601f19601f820116820180604052508101906109a89190612703565b9050806109c75760405162461bcd60e51b81526004016105aa9061294e565b600e546040517f85700b57d5ec89a15f491812de22a34a5bdca335fc68880dbab357cf81151fab91610a089188916001600160a01b031690889088906129a6565b60405180910390a15050505050565b600054604051632104fb0560e21b815233600482015263010000009091046001600160a01b031690638413ec149060240160006040518083038186803b158015610a6057600080fd5b505afa158015610a74573d6000803e3d6000fd5b505050506000819050806001600160a01b031663349904da6040518163ffffffff1660e01b815260040160206040518083038186803b158015610ab657600080fd5b505afa158015610aca573d6000803e3d6000fd5b505050506040513d601f19601f82011682018060405250810190610aee9190612703565b610af757600080fd5b600180546001600160a01b0319166001600160a01b039290921691909117905550565b600060039054906101000a90046001600160a01b03166001600160a01b0316634d868f986040518163ffffffff1660e01b815260040160006040518083038186803b158015610b6857600080fd5b505afa158015610b7c573d6000803e3d6000fd5b5050600054604051632104fb0560e21b815233600482015263010000009091046001600160a01b03169250638413ec14915060240160006040518083038186803b158015610bc957600080fd5b505afa158015610bdd573d6000803e3d6000fd5b5050600f546001600160a01b031691505080610c0b5760405162461bcd60e51b81526004016105aa9061297d565b6009548411801590610c1d5750600084115b610c395760405162461bcd60e51b81526004016105aa90612921565b8360066003016000828254610c4e9190612aa8565b9091555050600254600f5460405163a9059cbb60e01b81526001600160a01b03918216600482015260248101879052600092919091169063a9059cbb90604401602060405180830381600087803b158015610ca857600080fd5b505af1158015610cbc573d6000803e3d6000fd5b505050506040513d601f19601f82011682018060405250810190610ce09190612703565b905080610cff5760405162461bcd60e51b81526004016105aa9061294e565b600f546040517f174f34055ef4d06c26032b349f20281a6e7b69b17352d03a658bb3c02561367b91610a089188916001600160a01b031690889088906129a6565b600054604051632104fb0560e21b815233600482015263010000009091046001600160a01b031690638413ec149060240160006040518083038186803b158015610d8957600080fd5b505afa158015610d9d573d6000803e3d6000fd5b5083925050506001600160a01b038116610dc95760405162461bcd60e51b81526004016105aa9061297d565b50600280546001600160a01b0319166001600160a01b0392909216919091179055565b600054604051632104fb0560e21b815233600482015263010000009091046001600160a01b031690638413ec149060240160006040518083038186803b158015610e3557600080fd5b505afa158015610e49573d6000803e3d6000fd5b5083925050506001600160a01b038116610e755760405162461bcd60e51b81526004016105aa9061297d565b50600c80546001600160a01b0319166001600160a01b0392909216919091179055565b600054604051632104fb0560e21b815233600482015263010000009091046001600160a01b031690638413ec149060240160006040518083038186803b158015610ee157600080fd5b505afa158015610ef5573d6000803e3d6000fd5b5083925050506001600160a01b038116610f215760405162461bcd60e51b81526004016105aa9061297d565b50601080546001600160a01b0319166001600160a01b0392909216919091179055565b600060039054906101000a90046001600160a01b03166001600160a01b0316634d868f986040518163ffffffff1660e01b815260040160006040518083038186803b158015610f9257600080fd5b505afa158015610fa6573d6000803e3d6000fd5b5050600054604051632104fb0560e21b815233600482015263010000009091046001600160a01b03169250638413ec14915060240160006040518083038186803b158015610ff357600080fd5b505afa158015611007573d6000803e3d6000fd5b5050600d546001600160a01b0316915050806110355760405162461bcd60e51b81526004016105aa9061297d565b60075484118015906110475750600084115b6110635760405162461bcd60e51b81526004016105aa90612921565b83600660010160008282546110789190612aa8565b9091555050600254600d5460405163a9059cbb60e01b81526001600160a01b03918216600482015260248101879052600092919091169063a9059cbb90604401602060405180830381600087803b1580156110d257600080fd5b505af11580156110e6573d6000803e3d6000fd5b505050506040513d601f19601f8201168201806040525081019061110a9190612703565b9050806111295760405162461bcd60e51b81526004016105aa9061294e565b600d546040517ff55afe4fbf5e2382822e10e484a70ef4849c01a0e4764cfb653bdeea7e47e72891610a089188916001600160a01b031690889088906129a6565b600054604051632104fb0560e21b815233600482015263010000009091046001600160a01b031690638413ec149060240160006040518083038186803b1580156111b357600080fd5b505afa1580156111c7573d6000803e3d6000fd5b5083925050506001600160a01b0381166111f35760405162461bcd60e51b81526004016105aa9061297d565b50600d80546001600160a01b0319166001600160a01b0392909216919091179055565b600054604051632104fb0560e21b815233600482015263010000009091046001600160a01b031690638413ec149060240160006040518083038186803b15801561125f57600080fd5b505afa158015611273573d6000803e3d6000fd5b5083925050506001600160a01b03811661129f5760405162461bcd60e51b81526004016105aa9061297d565b50600480546001600160a01b0319166001600160a01b0392909216919091179055565b60005460405163ebe6a6f360e01b815233600482015263010000009091046001600160a01b03169063ebe6a6f39060240160006040518083038186803b15801561130b57600080fd5b505afa15801561131f573d6000803e3d6000fd5b505050506127108661ffff168a6113369190612a89565b6113409190612a67565b60068054600090611352908490612a4f565b90915550612710905061136961ffff87168b612a89565b6113739190612a67565b60078054600090611385908490612a4f565b90915550612710905061139c61ffff86168b612a89565b6113a69190612a67565b600880546000906113b8908490612a4f565b9091555061271090506113cf61ffff85168b612a89565b6113d99190612a67565b600980546000906113eb908490612a4f565b90915550612710905061140261ffff84168b612a89565b61140c9190612a67565b600a805460009061141e908490612a4f565b90915550612710905061143561ffff83168b612a89565b61143f9190612a67565b600b8054600090611451908490612a4f565b9091555061146390508a8a8a8a6123f4565b50505050505050505050565b600060039054906101000a90046001600160a01b03166001600160a01b0316634d868f986040518163ffffffff1660e01b815260040160006040518083038186803b1580156114bd57600080fd5b505afa1580156114d1573d6000803e3d6000fd5b5050600054604051632104fb0560e21b815233600482015263010000009091046001600160a01b03169250638413ec14915060240160006040518083038186803b15801561151e57600080fd5b505afa158015611532573d6000803e3d6000fd5b50506010546001600160a01b0316915050806115605760405162461bcd60e51b81526004016105aa9061297d565b600a5484118015906115725750600084115b61158e5760405162461bcd60e51b81526004016105aa90612921565b83600660040160008282546115a39190612aa8565b909155505060025460105460405163a9059cbb60e01b81526001600160a01b03918216600482015260248101879052600092919091169063a9059cbb90604401602060405180830381600087803b1580156115fd57600080fd5b505af1158015611611573d6000803e3d6000fd5b505050506040513d601f19601f820116820180604052508101906116359190612703565b9050806116545760405162461bcd60e51b81526004016105aa9061294e565b6010546040517f7933fc59a1b4f8879978109694db0c56041b5c494a007cd879877f579f10df1c91610a089188916001600160a01b031690889088906129a6565b6000546040516335126dab60e21b815233600482015263010000009091046001600160a01b03169063d449b6ac9060240160006040518083038186803b1580156116de57600080fd5b505afa1580156116f2573d6000803e3d6000fd5b505050506006600301548211156117425760405162461bcd60e51b8152602060048201526014602482015273098d2e2ead2c8d2e8f240dcdee840cadcdeeaced60631b60448201526064016105aa565b60008111801561175457506005548111155b6117a05760405162461bcd60e51b815260206004820152601d60248201527f746f74616c446169546f506c616e7465725377617020696e76616c696400000060448201526064016105aa565b6040805160028082526060808301845292602083019080368337505060025482519293506001600160a01b0316918391506000906117e0576117e0612ad5565b6001600160a01b03928316602091820292909201015260045482519116908290600190811061181157611811612ad5565b6001600160a01b03928316602091820292909201015260025460035460405163095ea7b360e01b8152908316600482015260248101869052600092919091169063095ea7b390604401602060405180830381600087803b15801561187457600080fd5b505af1158015611888573d6000803e3d6000fd5b505050506040513d601f19601f820116820180604052508101906118ac9190612703565b9050806118f25760405162461bcd60e51b8152602060048201526014602482015273756e7375636365737366756c20617070726f766560601b60448201526064016105aa565b6003546001546000916001600160a01b0390811691638803dbee918791899188911661192042610708612a4f565b6040518663ffffffff1660e01b81526004016119409594939291906129ed565b600060405180830381600087803b15801561195a57600080fd5b505af115801561196e573d6000803e3d6000fd5b505050506040513d6000823e601f3d908101601f19168201604052611996919081019061263e565b90507fa507c7b7b6278bee9c4444339cb93284f63e4ac173dd589d978dceb66bae0a568585836000815181106119ce576119ce612ad5565b60200260200101516040516119f6939291909283526020830191909152604082015260600190565b60405180910390a18360056000828254611a109190612aa8565b9250508190555080600081518110611a2a57611a2a612ad5565b602002602001015160066003016000828254611a469190612aa8565b90915550505050505050565b600054610100900460ff1680611a6b575060005460ff16155b611ace5760405162461bcd60e51b815260206004820152602e60248201527f496e697469616c697a61626c653a20636f6e747261637420697320616c72656160448201526d191e481a5b9a5d1a585b1a5e995960921b60648201526084016105aa565b600054610100900460ff16158015611af0576000805461ffff19166101011790555b6000829050806001600160a01b031663ba84fd696040518163ffffffff1660e01b815260040160206040518083038186803b158015611b2e57600080fd5b505afa158015611b42573d6000803e3d6000fd5b505050506040513d601f19601f82011682018060405250810190611b669190612703565b611b6f57600080fd5b600080546001600160a01b0390921663010000000262010000600160b81b031990921691909117620100001790558015611baf576000805461ff00191690555b5050565b600054604051632104fb0560e21b815233600482015263010000009091046001600160a01b031690638413ec149060240160006040518083038186803b158015611bfc57600080fd5b505afa158015611c10573d6000803e3d6000fd5b5083925050506001600160a01b038116611c3c5760405162461bcd60e51b81526004016105aa9061297d565b50600e80546001600160a01b0319166001600160a01b0392909216919091179055565b600054604051632104fb0560e21b815233600482015263010000009091046001600160a01b031690638413ec149060240160006040518083038186803b158015611ca857600080fd5b505afa158015611cbc573d6000803e3d6000fd5b5083925050506001600160a01b038116611ce85760405162461bcd60e51b81526004016105aa9061297d565b50600380546001600160a01b0319166001600160a01b0392909216919091179055565b600060039054906101000a90046001600160a01b03166001600160a01b0316634d868f986040518163ffffffff1660e01b815260040160006040518083038186803b158015611d5957600080fd5b505afa158015611d6d573d6000803e3d6000fd5b5050600054604051632104fb0560e21b815233600482015263010000009091046001600160a01b03169250638413ec14915060240160006040518083038186803b158015611dba57600080fd5b505afa158015611dce573d6000803e3d6000fd5b50506011546001600160a01b031691505080611dfc5760405162461bcd60e51b81526004016105aa9061297d565b600b548411801590611e0e5750600084115b611e2a5760405162461bcd60e51b81526004016105aa90612921565b8360066005016000828254611e3f9190612aa8565b909155505060025460115460405163a9059cbb60e01b81526001600160a01b03918216600482015260248101879052600092919091169063a9059cbb90604401602060405180830381600087803b158015611e9957600080fd5b505af1158015611ead573d6000803e3d6000fd5b505050506040513d601f19601f82011682018060405250810190611ed19190612703565b905080611ef05760405162461bcd60e51b81526004016105aa9061294e565b6011546040517fdc46bdffd23b840770c065a6e6fb55e8f31ed7ba8a073048e4b13c947b4701ea91610a089188916001600160a01b031690889088906129a6565b60005460405163ebe6a6f360e01b815233600482015263010000009091046001600160a01b03169063ebe6a6f39060240160006040518083038186803b158015611f7a57600080fd5b505afa158015611f8e573d6000803e3d6000fd5b505050508060056000828254611fa49190612a4f565b909155505050565b600060039054906101000a90046001600160a01b03166001600160a01b0316634d868f986040518163ffffffff1660e01b815260040160006040518083038186803b158015611ffa57600080fd5b505afa15801561200e573d6000803e3d6000fd5b5050600054604051632104fb0560e21b815233600482015263010000009091046001600160a01b03169250638413ec14915060240160006040518083038186803b15801561205b57600080fd5b505afa15801561206f573d6000803e3d6000fd5b5050600c546001600160a01b03169150508061209d5760405162461bcd60e51b81526004016105aa9061297d565b60065484118015906120af5750600084115b6120cb5760405162461bcd60e51b81526004016105aa90612921565b83600660000160008282546120e09190612aa8565b9091555050600254600c5460405163a9059cbb60e01b81526001600160a01b03918216600482015260248101879052600092919091169063a9059cbb90604401602060405180830381600087803b15801561213a57600080fd5b505af115801561214e573d6000803e3d6000fd5b505050506040513d601f19601f820116820180604052508101906121729190612703565b9050806121915760405162461bcd60e51b81526004016105aa9061294e565b600c546040517f346dd4608342f0849c2ae92a528abcdbde8cf41ca01d05ed0855ad4a3fe38bb591610a089188916001600160a01b031690889088906129a6565b6040805160028082526060808301845260009390929190602083019080368337505060025482519293506001600160a01b03169183915060009061221857612218612ad5565b6001600160a01b03928316602091820292909201015260045482519116908290600190811061224957612249612ad5565b6001600160a01b03928316602091820292909201015260025460035460405163095ea7b360e01b8152908316600482015260248101869052600092919091169063095ea7b390604401602060405180830381600087803b1580156122ac57600080fd5b505af11580156122c0573d6000803e3d6000fd5b505050506040513d601f19601f820116820180604052508101906122e49190612703565b90508061232a5760405162461bcd60e51b8152602060048201526014602482015273756e7375636365737366756c20617070726f766560601b60448201526064016105aa565b600354600180546000926001600160a01b03908116926338ed173992899288911661235742610708612a4f565b6040518663ffffffff1660e01b81526004016123779594939291906129ed565b600060405180830381600087803b15801561239157600080fd5b505af11580156123a5573d6000803e3d6000fd5b505050506040513d6000823e601f3d908101601f191682016040526123cd919081019061263e565b9050806001815181106123e2576123e2612ad5565b60200260200101519350505050919050565b600061271061240761ffff851686612a89565b6124119190612a67565b9050600061271061242661ffff851687612a89565b6124309190612a67565b9050600061243e8284612a4f565b9050600061244c8587612a29565b604080516002808252606080830184529394509091602083019080368337505060025482519293506001600160a01b03169183915060009061249057612490612ad5565b6001600160a01b0392831660209182029290920101526004548251911690829060019081106124c1576124c1612ad5565b60200260200101906001600160a01b031690816001600160a01b03168152505060008084116124f15760006124fa565b6124fa846121d2565b6001549091506001600160a01b0316633ad7c33b8b61ffff808716906125239086908e16612a89565b61252d9190612a67565b8661ffff16858c61ffff166125429190612a89565b61254c9190612a67565b6040516001600160e01b031960e086901b168152600481019390935260248301919091526044820152606401600060405180830381600087803b15801561259257600080fd5b505af11580156125a6573d6000803e3d6000fd5b505050507f347f488d341632b8f0297fc353e08cc384d9a8c7bb93600a7ede83515b56b9948a8a87896125d99190612a4f565b6040805193845260208401929092529082015260600160405180910390a150505050505050505050565b803561ffff8116811461261557600080fd5b919050565b60006020828403121561262c57600080fd5b813561263781612b01565b9392505050565b6000602080838503121561265157600080fd5b825167ffffffffffffffff8082111561266957600080fd5b818501915085601f83011261267d57600080fd5b81518181111561268f5761268f612aeb565b8060051b604051601f19603f830116810181811085821117156126b4576126b4612aeb565b604052828152858101935084860182860187018a10156126d357600080fd5b600095505b838610156126f65780518552600195909501949386019386016126d8565b5098975050505050505050565b60006020828403121561271557600080fd5b8151801515811461263757600080fd5b60006020828403121561273757600080fd5b5035919050565b60008060006040848603121561275357600080fd5b83359250602084013567ffffffffffffffff8082111561277257600080fd5b818601915086601f83011261278657600080fd5b81358181111561279557600080fd5b8760208285010111156127a757600080fd5b6020830194508093505050509250925092565b600080604083850312156127cd57600080fd5b50508035926020909101359150565b6000806000806000806000806000806101408b8d0312156127fc57600080fd5b8a35995060208b0135985061281360408c01612603565b975061282160608c01612603565b965061282f60808c01612603565b955061283d60a08c01612603565b945061284b60c08c01612603565b935061285960e08c01612603565b92506128686101008c01612603565b91506128776101208c01612603565b90509295989b9194979a5092959850565b600080600080600080600080610100898b0312156128a557600080fd5b505086359860208801359850604088013597606081013597506080810135965060a0810135955060c0810135945060e0013592509050565b600081518084526020808501945080840160005b838110156129165781516001600160a01b0316875295820195908201906001016128f1565b509495945050505050565b6020808252601390820152721a5b9cdd59999a58da595b9d08185b5bdd5b9d606a1b604082015260600190565b6020808252601590820152743ab739bab1b1b2b9b9b33ab6103a3930b739b332b960591b604082015260600190565b6020808252600f908201526e696e76616c6964206164647265737360881b604082015260600190565b8481526001600160a01b03841660208201526060604082018190528101829052818360808301376000818301608090810191909152601f909201601f191601019392505050565b85815284602082015260a060408201526000612a0c60a08301866128dd565b6001600160a01b0394909416606083015250608001529392505050565b600061ffff808316818516808303821115612a4657612a46612abf565b01949350505050565b60008219821115612a6257612a62612abf565b500190565b600082612a8457634e487b7160e01b600052601260045260246000fd5b500490565b6000816000190483118215151615612aa357612aa3612abf565b500290565b600082821015612aba57612aba612abf565b500390565b634e487b7160e01b600052601160045260246000fd5b634e487b7160e01b600052603260045260246000fd5b634e487b7160e01b600052604160045260246000fd5b6001600160a01b0381168114612b1657600080fd5b5056fea264697066735822122099e58371ef28ab57137a84cf954bbe278fed96c2f8445b7141b70cf55598cd1464736f6c63430008060033",
  "immutableReferences": {},
  "source": "// SPDX-License-Identifier: MIT\n\npragma solidity ^0.8.6;\n\nimport \"@openzeppelin/contracts-upgradeable/utils/CountersUpgradeable.sol\";\nimport \"@openzeppelin/contracts-upgradeable/proxy/utils/Initializable.sol\";\nimport \"@openzeppelin/contracts-upgradeable/token/ERC20/IERC20Upgradeable.sol\";\nimport \"../access/IAccessRestriction.sol\";\nimport \"./IPlanterFund.sol\";\nimport \"./interfaces/IUniswapV2Router02New.sol\";\n\n/** @title WethFunds Contract */\n\ncontract WethFunds is Initializable {\n    /** NOTE {isWethFunds} set inside the initialize to {true} */\n    bool public isWethFunds;\n\n    IAccessRestriction public accessRestriction;\n    IPlanterFund public planterFundContract;\n    IERC20Upgradeable public wethToken;\n    IUniswapV2Router02New public uniswapRouter;\n\n    /** NOTE daiToken address */\n    address public daiAddress;\n\n    //TODO:ADD_COMMENT\n    uint256 public totalDaiToPlanterSwap;\n\n    /** NOTE {totalFunds} is struct of TotalFund that keep total share of\n     * treeResearch, localDevelop,rescueFund,treejerDeveop,reserveFund1\n     * and reserveFund2\n     */\n    TotalFunds public totalFunds;\n\n    address public treeResearchAddress;\n    address public localDevelopAddress;\n    address public rescueFundAddress;\n    address public treejerDevelopAddress;\n    address public reserveFundAddress1;\n    address public reserveFundAddress2;\n\n    struct TotalFunds {\n        uint256 treeResearch;\n        uint256 localDevelop;\n        uint256 rescueFund;\n        uint256 treejerDevelop;\n        uint256 reserveFund1;\n        uint256 reserveFund2;\n    }\n\n    event TreeResearchBalanceWithdrawn(\n        uint256 amount,\n        address account,\n        string reason\n    );\n    event LocalDevelopBalanceWithdrawn(\n        uint256 amount,\n        address account,\n        string reason\n    );\n    event RescueBalanceWithdrawn(\n        uint256 amount,\n        address account,\n        string reason\n    );\n    event TreejerDevelopBalanceWithdrawn(\n        uint256 amount,\n        address account,\n        string reason\n    );\n    event ReserveBalanceWithdrawn1(\n        uint256 amount,\n        address account,\n        string reason\n    );\n    event ReserveBalanceWithdrawn2(\n        uint256 amount,\n        address account,\n        string reason\n    );\n    event TreeFunded(uint256 treeId, uint256 amount, uint256 planterPart);\n\n    event IncrementalFunded();\n\n    event SwapToPlanterFund(\n        uint256 wethMaxUse,\n        uint256 daiAmount,\n        uint256 wethAmount\n    );\n\n    /** NOTE modifier to check msg.sender has admin role */\n    modifier onlyAdmin() {\n        accessRestriction.ifAdmin(msg.sender);\n        _;\n    }\n\n    /** NOTE modifier for check msg.sender has TreejerContract role */\n    modifier onlyTreejerContract() {\n        accessRestriction.ifTreejerContract(msg.sender);\n        _;\n    }\n\n    /** NOTE modifier for check if function is not paused*/\n    modifier ifNotPaused() {\n        accessRestriction.ifNotPaused();\n        _;\n    }\n\n    /** NOTE modifier for check valid address */\n    modifier validAddress(address _address) {\n        require(_address != address(0), \"invalid address\");\n        _;\n    }\n\n    /** NOTE modifier to check msg.sender has script role */\n    modifier onlyScript() {\n        accessRestriction.ifScript(msg.sender);\n        _;\n    }\n\n    /**\n     * @dev initialize accessRestriction contract and set true for isWethFunds\n     * @param _accessRestrictionAddress set to the address of accessRestriction contract\n     */\n    function initialize(address _accessRestrictionAddress)\n        external\n        initializer\n    {\n        IAccessRestriction candidateContract = IAccessRestriction(\n            _accessRestrictionAddress\n        );\n\n        require(candidateContract.isAccessRestriction());\n\n        isWethFunds = true;\n        accessRestriction = candidateContract;\n    }\n\n    /**\n     * @dev admin set DaiToken address\n     * @param _daiAddress set to the address of DaiToken\n     */\n    function setDaiAddress(address _daiAddress)\n        external\n        onlyAdmin\n        validAddress(_daiAddress)\n    {\n        daiAddress = _daiAddress;\n    }\n\n    /**\n     * @dev admin set WethToken contract address\n     * @param _wethTokenAddress set to the address of WethToken contract\n     */\n    function setWethTokenAddress(address _wethTokenAddress)\n        external\n        onlyAdmin\n        validAddress(_wethTokenAddress)\n    {\n        IERC20Upgradeable candidateContract = IERC20Upgradeable(\n            _wethTokenAddress\n        );\n        wethToken = candidateContract;\n    }\n\n    /**\n     * @dev admin set UniswapRouter contract address\n     * @param _uniswapRouterAddress set to the address of UniswapRouter contract\n     */\n    function setUniswapRouterAddress(address _uniswapRouterAddress)\n        external\n        onlyAdmin\n        validAddress(_uniswapRouterAddress)\n    {\n        IUniswapV2Router02New candidateContract = IUniswapV2Router02New(\n            _uniswapRouterAddress\n        );\n\n        uniswapRouter = candidateContract;\n    }\n\n    /**\n     * @dev admin set PlanterFund contract address\n     * @param _address set to the address of PlanterFund contract\n     */\n    function setPlanterFundContractAddress(address _address)\n        external\n        onlyAdmin\n    {\n        IPlanterFund candidateContract = IPlanterFund(_address);\n        require(candidateContract.isPlanterFund());\n        planterFundContract = candidateContract;\n    }\n\n    /**\n     * @dev admin set treeResearch  address to fund\n     * @param _address tree research address\n     */\n    function setTreeResearchAddress(address payable _address)\n        external\n        onlyAdmin\n        validAddress(_address)\n    {\n        treeResearchAddress = _address;\n    }\n\n    /**\n     * @dev admin set localDevelop  address to fund\n     * @param _address local develop address\n     */\n    function setLocalDevelopAddress(address payable _address)\n        external\n        onlyAdmin\n        validAddress(_address)\n    {\n        localDevelopAddress = _address;\n    }\n\n    /**\n     * @dev admin set rescue address to fund\n     * @param _address rescue fund address\n     */\n    function setRescueFundAddress(address payable _address)\n        external\n        onlyAdmin\n        validAddress(_address)\n    {\n        rescueFundAddress = _address;\n    }\n\n    /**\n     * @dev admin set treejerDevelop  address to fund\n     * @param _address treejer develop address\n     */\n    function setTreejerDevelopAddress(address payable _address)\n        external\n        onlyAdmin\n        validAddress(_address)\n    {\n        treejerDevelopAddress = _address;\n    }\n\n    /**\n     * @dev admin set reserveFund1  address to fund\n     * @param _address reserveFund1 address\n     */\n    function setReserveFund1Address(address payable _address)\n        external\n        onlyAdmin\n        validAddress(_address)\n    {\n        reserveFundAddress1 = _address;\n    }\n\n    /**\n     * @dev admin set reserveFund2  address to fund\n     * @param _address reserveFund2 address\n     */\n    function setReserveFund2Address(address payable _address)\n        external\n        onlyAdmin\n        validAddress(_address)\n    {\n        reserveFundAddress2 = _address;\n    }\n\n    /**\n     * @dev fund a tree by IncrementalSell or Auction contract and based on distribution\n     * model of tree, shares divide beetwen (planter, referral, treeResearch,\n     * localDevelop, rescueFund, treejerDevelop, reserveFund1 and reserveFund2)\n     * and added to the totalFunds of each part,\n     * @param _treeId id of a tree to fund\n     * NOTE planterFund and referralFund share first swap to daiToken and then\n     * transfer to PlanterFund contract and add to totalFund section there\n     */\n    function fundTree(\n        uint256 _treeId,\n        uint256 _amount,\n        uint16 _planterFund,\n        uint16 _referralFund,\n        uint16 _treeResearch,\n        uint16 _localDevelop,\n        uint16 _rescueFund,\n        uint16 _treejerDevelop,\n        uint16 _reserveFund1,\n        uint16 _reserveFund2\n    ) external onlyTreejerContract {\n        totalFunds.treeResearch += (_amount * _treeResearch) / 10000;\n\n        totalFunds.localDevelop += (_amount * _localDevelop) / 10000;\n\n        totalFunds.rescueFund += (_amount * _rescueFund) / 10000;\n\n        totalFunds.treejerDevelop += (_amount * _treejerDevelop) / 10000;\n\n        totalFunds.reserveFund1 += (_amount * _reserveFund1) / 10000;\n\n        totalFunds.reserveFund2 += (_amount * _reserveFund2) / 10000;\n\n        _swap(_treeId, _amount, _planterFund, _referralFund);\n    }\n\n    /**\n     * @dev admin withdraw {_amount} from treeResearch totalFund in case of\n     * valid {_amount}  and wethToken transfer to {treeResearchAddress}\n     * @param _amount amount to withdraw\n     * @param _reason reason to withdraw\n     */\n    function withdrawTreeResearch(uint256 _amount, string calldata _reason)\n        external\n        ifNotPaused\n        onlyAdmin\n        validAddress(treeResearchAddress)\n    {\n        require(\n            _amount <= totalFunds.treeResearch && _amount > 0,\n            \"insufficient amount\"\n        );\n\n        totalFunds.treeResearch -= _amount;\n\n        bool success = wethToken.transfer(treeResearchAddress, _amount);\n\n        require(success, \"unsuccessful transfer\");\n\n        emit TreeResearchBalanceWithdrawn(\n            _amount,\n            treeResearchAddress,\n            _reason\n        );\n    }\n\n    /**\n     * @dev admin withdraw {_amount} from localDevelop totalFund in case of\n     * valid {_amount} and wethToken transfer to {localDevelopAddress}\n     * @param _amount amount to withdraw\n     * @param _reason reason to withdraw\n     */\n    function withdrawLocalDevelop(uint256 _amount, string calldata _reason)\n        external\n        ifNotPaused\n        onlyAdmin\n        validAddress(localDevelopAddress)\n    {\n        require(\n            _amount <= totalFunds.localDevelop && _amount > 0,\n            \"insufficient amount\"\n        );\n\n        totalFunds.localDevelop -= _amount;\n\n        bool success = wethToken.transfer(localDevelopAddress, _amount);\n\n        require(success, \"unsuccessful transfer\");\n\n        emit LocalDevelopBalanceWithdrawn(\n            _amount,\n            localDevelopAddress,\n            _reason\n        );\n    }\n\n    /**\n     * @dev admin withdraw {_amount} from rescueFund totalFund in case of\n     * valid {_amount} and wethToken transfer to {rescueFundAddress}\n     * @param _amount amount to withdraw\n     * @param _reason reason to withdraw\n     */\n    function withdrawRescueFund(uint256 _amount, string calldata _reason)\n        external\n        ifNotPaused\n        onlyAdmin\n        validAddress(rescueFundAddress)\n    {\n        require(\n            _amount <= totalFunds.rescueFund && _amount > 0,\n            \"insufficient amount\"\n        );\n\n        totalFunds.rescueFund -= _amount;\n\n        bool success = wethToken.transfer(rescueFundAddress, _amount);\n\n        require(success, \"unsuccessful transfer\");\n\n        emit RescueBalanceWithdrawn(_amount, rescueFundAddress, _reason);\n    }\n\n    /**\n     * @dev admin withdraw {_amount} from treejerDevelop totalFund in case of\n     * valid {_amount} and wethToken transfer to {treejerDevelopAddress}\n     * @param _amount amount to withdraw\n     * @param _reason reason to withdraw\n     */\n    function withdrawTreejerDevelop(uint256 _amount, string calldata _reason)\n        external\n        ifNotPaused\n        onlyAdmin\n        validAddress(treejerDevelopAddress)\n    {\n        require(\n            _amount <= totalFunds.treejerDevelop && _amount > 0,\n            \"insufficient amount\"\n        );\n\n        totalFunds.treejerDevelop -= _amount;\n\n        bool success = wethToken.transfer(treejerDevelopAddress, _amount);\n\n        require(success, \"unsuccessful transfer\");\n\n        emit TreejerDevelopBalanceWithdrawn(\n            _amount,\n            treejerDevelopAddress,\n            _reason\n        );\n    }\n\n    /**\n     * @dev admin withdraw {_amount} from reserveFund1 totalFund in case of\n     * valid {_amount} and wethToken transfer to {reserveFundAddress1}\n     * @param _amount amount to withdraw\n     * @param _reason reason to withdraw\n     */\n    function withdrawReserveFund1(uint256 _amount, string calldata _reason)\n        external\n        ifNotPaused\n        onlyAdmin\n        validAddress(reserveFundAddress1)\n    {\n        require(\n            _amount <= totalFunds.reserveFund1 && _amount > 0,\n            \"insufficient amount\"\n        );\n\n        totalFunds.reserveFund1 -= _amount;\n\n        bool success = wethToken.transfer(reserveFundAddress1, _amount);\n\n        require(success, \"unsuccessful transfer\");\n\n        emit ReserveBalanceWithdrawn1(_amount, reserveFundAddress1, _reason);\n    }\n\n    /**\n     * @dev admin withdraw {_amount} from reserveFund2 totalFund in case of\n     * valid {_amount} and wethToken transfer to {reserveFundAddress2}\n     * @param _amount amount to withdraw\n     * @param _reason reason to withdraw\n     */\n    function withdrawReserveFund2(uint256 _amount, string calldata _reason)\n        external\n        ifNotPaused\n        onlyAdmin\n        validAddress(reserveFundAddress2)\n    {\n        require(\n            _amount <= totalFunds.reserveFund2 && _amount > 0,\n            \"insufficient amount\"\n        );\n\n        totalFunds.reserveFund2 -= _amount;\n\n        bool success = wethToken.transfer(reserveFundAddress2, _amount);\n\n        require(success, \"unsuccessful transfer\");\n\n        emit ReserveBalanceWithdrawn2(_amount, reserveFundAddress2, _reason);\n    }\n\n    function incrementalFund(\n        uint256 _totalPlanterFund,\n        uint256 _totalReferralFund,\n        uint256 _totalTreeResearch,\n        uint256 _totalLocalDevelop,\n        uint256 _totalRescueFund,\n        uint256 _totalTreejerDevelop,\n        uint256 _totalReserveFund1,\n        uint256 _totalReserveFund2\n    ) external onlyTreejerContract returns (uint256) {\n        totalFunds.treeResearch += _totalTreeResearch;\n\n        totalFunds.localDevelop += _totalLocalDevelop;\n\n        totalFunds.rescueFund += _totalRescueFund;\n\n        totalFunds.treejerDevelop += _totalTreejerDevelop;\n\n        totalFunds.reserveFund1 += _totalReserveFund1;\n\n        totalFunds.reserveFund2 += _totalReserveFund2;\n\n        uint256 sumFund = _totalPlanterFund + _totalReferralFund;\n\n        uint256 amount = sumFund > 0 ? _swapExactTokensForTokens(sumFund) : 0;\n\n        emit IncrementalFunded();\n\n        return amount;\n    }\n\n    //TODO: ADD_COMMENT\n    function swapDaiToPlanters(uint256 _wethMaxUse, uint256 _totalDaiSwap)\n        external\n        onlyScript\n    {\n        require(\n            _wethMaxUse <= totalFunds.treejerDevelop,\n            \"Liquidity not enough\"\n        );\n\n        require(\n            _totalDaiSwap > 0 && _totalDaiSwap <= totalDaiToPlanterSwap,\n            \"totalDaiToPlanterSwap invalid\"\n        );\n\n        address[] memory path;\n        path = new address[](2);\n\n        path[0] = address(wethToken);\n        path[1] = daiAddress;\n\n        bool success = wethToken.approve(address(uniswapRouter), _wethMaxUse);\n\n        require(success, \"unsuccessful approve\");\n\n        uint256[] memory amounts = uniswapRouter.swapTokensForExactTokens(\n            _totalDaiSwap,\n            _wethMaxUse,\n            path,\n            address(planterFundContract),\n            block.timestamp + 1800 // 30 * 60 (30 min)\n        );\n\n        emit SwapToPlanterFund(_wethMaxUse, _totalDaiSwap, amounts[0]);\n\n        totalDaiToPlanterSwap -= _totalDaiSwap;\n        totalFunds.treejerDevelop -= amounts[0];\n    }\n\n    //TODO: ADD_COMMENT\n    function updateDaiSwap(uint256 _amount) external onlyTreejerContract {\n        totalDaiToPlanterSwap += _amount;\n    }\n\n    /** @dev private function to swap {_amount} wethToken to daiToken\n     * @param _treeId id of tree that funded\n     * @param _amount amount to swap\n     * @param _planterFund planter share\n     * @param _referralFund referral share\n     */\n    function _swap(\n        uint256 _treeId,\n        uint256 _amount,\n        uint16 _planterFund,\n        uint16 _referralFund\n    ) private {\n        uint256 planterFund = (_amount * _planterFund) / 10000;\n        uint256 referralFund = (_amount * _referralFund) / 10000;\n\n        uint256 sumFund = planterFund + referralFund;\n        uint16 sumPercent = _planterFund + _referralFund;\n\n        address[] memory path;\n        path = new address[](2);\n\n        path[0] = address(wethToken);\n        path[1] = daiAddress;\n\n        uint256 amount = sumFund > 0 ? _swapExactTokensForTokens(sumFund) : 0;\n\n        planterFundContract.setPlanterFunds(\n            _treeId,\n            (_planterFund * amount) / sumPercent,\n            (_referralFund * amount) / sumPercent\n        );\n\n        emit TreeFunded(_treeId, _amount, planterFund + referralFund);\n    }\n\n    //TODO: ADD_COMMENT\n    function _swapExactTokensForTokens(uint256 _amount)\n        private\n        returns (uint256 amount)\n    {\n        address[] memory path;\n        path = new address[](2);\n\n        path[0] = address(wethToken);\n        path[1] = daiAddress;\n\n        bool success = wethToken.approve(address(uniswapRouter), _amount);\n\n        require(success, \"unsuccessful approve\");\n\n        uint256[] memory amounts = uniswapRouter.swapExactTokensForTokens(\n            _amount,\n            1,\n            path,\n            address(planterFundContract),\n            block.timestamp + 1800 // 30 * 60 (30 min)\n        );\n\n        return amounts[1];\n    }\n}\n",
  "sourcePath": "/media/ali/New Volume/treejer/contract/contracts/treasury/WethFunds.sol",
  "compiler": {
    "name": "solc",
    "version": "0.8.6+commit.11564f7e.Emscripten.clang"
  },
  "schemaVersion": "3.4.1",
  "updatedAt": "2021-09-22T14:02:27.202Z",
  "networkType": "ethereum",
  "devdoc": {
    "kind": "dev",
    "methods": {
      "fundTree(uint256,uint256,uint16,uint16,uint16,uint16,uint16,uint16,uint16,uint16)": {
        "details": "fund a tree by IncrementalSell or Auction contract and based on distribution model of tree, shares divide beetwen (planter, referral, treeResearch, localDevelop, rescueFund, treejerDevelop, reserveFund1 and reserveFund2) and added to the totalFunds of each part,",
        "params": {
          "_treeId": "id of a tree to fund NOTE planterFund and referralFund share first swap to daiToken and then transfer to PlanterFund contract and add to totalFund section there"
        }
      },
      "initialize(address)": {
        "details": "initialize accessRestriction contract and set true for isWethFunds",
        "params": {
          "_accessRestrictionAddress": "set to the address of accessRestriction contract"
        }
      },
      "setDaiAddress(address)": {
        "details": "admin set DaiToken address",
        "params": {
          "_daiAddress": "set to the address of DaiToken"
        }
      },
      "setLocalDevelopAddress(address)": {
        "details": "admin set localDevelop  address to fund",
        "params": {
          "_address": "local develop address"
        }
      },
      "setPlanterFundContractAddress(address)": {
        "details": "admin set PlanterFund contract address",
        "params": {
          "_address": "set to the address of PlanterFund contract"
        }
      },
      "setRescueFundAddress(address)": {
        "details": "admin set rescue address to fund",
        "params": {
          "_address": "rescue fund address"
        }
      },
      "setReserveFund1Address(address)": {
        "details": "admin set reserveFund1  address to fund",
        "params": {
          "_address": "reserveFund1 address"
        }
      },
      "setReserveFund2Address(address)": {
        "details": "admin set reserveFund2  address to fund",
        "params": {
          "_address": "reserveFund2 address"
        }
      },
      "setTreeResearchAddress(address)": {
        "details": "admin set treeResearch  address to fund",
        "params": {
          "_address": "tree research address"
        }
      },
      "setTreejerDevelopAddress(address)": {
        "details": "admin set treejerDevelop  address to fund",
        "params": {
          "_address": "treejer develop address"
        }
      },
      "setUniswapRouterAddress(address)": {
        "details": "admin set UniswapRouter contract address",
        "params": {
          "_uniswapRouterAddress": "set to the address of UniswapRouter contract"
        }
      },
      "setWethTokenAddress(address)": {
        "details": "admin set WethToken contract address",
        "params": {
          "_wethTokenAddress": "set to the address of WethToken contract"
        }
      },
      "withdrawLocalDevelop(uint256,string)": {
        "details": "admin withdraw {_amount} from localDevelop totalFund in case of valid {_amount} and wethToken transfer to {localDevelopAddress}",
        "params": {
          "_amount": "amount to withdraw",
          "_reason": "reason to withdraw"
        }
      },
      "withdrawRescueFund(uint256,string)": {
        "details": "admin withdraw {_amount} from rescueFund totalFund in case of valid {_amount} and wethToken transfer to {rescueFundAddress}",
        "params": {
          "_amount": "amount to withdraw",
          "_reason": "reason to withdraw"
        }
      },
      "withdrawReserveFund1(uint256,string)": {
        "details": "admin withdraw {_amount} from reserveFund1 totalFund in case of valid {_amount} and wethToken transfer to {reserveFundAddress1}",
        "params": {
          "_amount": "amount to withdraw",
          "_reason": "reason to withdraw"
        }
      },
      "withdrawReserveFund2(uint256,string)": {
        "details": "admin withdraw {_amount} from reserveFund2 totalFund in case of valid {_amount} and wethToken transfer to {reserveFundAddress2}",
        "params": {
          "_amount": "amount to withdraw",
          "_reason": "reason to withdraw"
        }
      },
      "withdrawTreeResearch(uint256,string)": {
        "details": "admin withdraw {_amount} from treeResearch totalFund in case of valid {_amount}  and wethToken transfer to {treeResearchAddress}",
        "params": {
          "_amount": "amount to withdraw",
          "_reason": "reason to withdraw"
        }
      },
      "withdrawTreejerDevelop(uint256,string)": {
        "details": "admin withdraw {_amount} from treejerDevelop totalFund in case of valid {_amount} and wethToken transfer to {treejerDevelopAddress}",
        "params": {
          "_amount": "amount to withdraw",
          "_reason": "reason to withdraw"
        }
      }
    },
    "title": "WethFunds Contract ",
    "version": 1
  },
  "userdoc": {
    "kind": "user",
    "methods": {
      "daiAddress()": {
        "notice": "NOTE daiToken address "
      },
      "isWethFunds()": {
        "notice": "NOTE {isWethFunds} set inside the initialize to {true} "
      },
      "totalFunds()": {
        "notice": "NOTE {totalFunds} is struct of TotalFund that keep total share of treeResearch, localDevelop,rescueFund,treejerDeveop,reserveFund1 and reserveFund2"
      }
    },
    "version": 1
  }
}